{
  "_format": "hh-sol-artifact-1",
  "contractName": "PoolManager",
  "sourceName": "contracts/PoolManager.sol",
  "abi": [
    {
      "inputs": [],
      "stateMutability": "nonpayable",
      "type": "constructor"
    },
    {
      "anonymous": false,
      "inputs": [
        {
          "indexed": true,
          "internalType": "address",
          "name": "previousOwner",
          "type": "address"
        },
        {
          "indexed": true,
          "internalType": "address",
          "name": "newOwner",
          "type": "address"
        }
      ],
      "name": "OwnershipTransferred",
      "type": "event"
    },
    {
      "inputs": [],
      "name": "RATIO_BASE",
      "outputs": [
        {
          "internalType": "uint32",
          "name": "",
          "type": "uint32"
        }
      ],
      "stateMutability": "view",
      "type": "function"
    },
    {
      "inputs": [
        {
          "internalType": "address",
          "name": "poolAddress",
          "type": "address"
        }
      ],
      "name": "addPool",
      "outputs": [],
      "stateMutability": "nonpayable",
      "type": "function"
    },
    {
      "inputs": [],
      "name": "getPools",
      "outputs": [
        {
          "components": [
            {
              "internalType": "uint32",
              "name": "apy",
              "type": "uint32"
            },
            {
              "internalType": "uint32",
              "name": "fee",
              "type": "uint32"
            },
            {
              "internalType": "uint64",
              "name": "totalAvailable",
              "type": "uint64"
            },
            {
              "internalType": "address",
              "name": "poolAddress",
              "type": "address"
            },
            {
              "internalType": "string",
              "name": "name",
              "type": "string"
            }
          ],
          "internalType": "struct PoolManager.PoolInfo[]",
          "name": "",
          "type": "tuple[]"
        }
      ],
      "stateMutability": "view",
      "type": "function"
    },
    {
      "inputs": [],
      "name": "owner",
      "outputs": [
        {
          "internalType": "address",
          "name": "",
          "type": "address"
        }
      ],
      "stateMutability": "view",
      "type": "function"
    },
    {
      "inputs": [
        {
          "internalType": "address",
          "name": "poolAddress",
          "type": "address"
        }
      ],
      "name": "removePool",
      "outputs": [],
      "stateMutability": "nonpayable",
      "type": "function"
    },
    {
      "inputs": [],
      "name": "renounceOwnership",
      "outputs": [],
      "stateMutability": "nonpayable",
      "type": "function"
    },
    {
      "inputs": [
        {
          "internalType": "address",
          "name": "newOwner",
          "type": "address"
        }
      ],
      "name": "transferOwnership",
      "outputs": [],
      "stateMutability": "nonpayable",
      "type": "function"
    }
  ],
  "bytecode": "0x608060405234801561001057600080fd5b5061002d61002261003260201b60201c565b61003a60201b60201c565b6100fe565b600033905090565b60008060009054906101000a900473ffffffffffffffffffffffffffffffffffffffff169050816000806101000a81548173ffffffffffffffffffffffffffffffffffffffff021916908373ffffffffffffffffffffffffffffffffffffffff1602179055508173ffffffffffffffffffffffffffffffffffffffff168173ffffffffffffffffffffffffffffffffffffffff167f8be0079c531659141344cd1fd0a4f28419497f9722a3daafe3b4186f6b6457e060405160405180910390a35050565b6113d88061010d6000396000f3fe608060405234801561001057600080fd5b506004361061007d5760003560e01c80638da5cb5b1161005b5780638da5cb5b146100c6578063c11a5630146100e4578063d914cd4b14610102578063f2fde38b1461011e5761007d565b80633b7d094614610082578063673a2a1f1461009e578063715018a6146100bc575b600080fd5b61009c60048036038101906100979190610d61565b61013a565b005b6100a66101ce565b6040516100b39190611001565b60405180910390f35b6100c46105bf565b005b6100ce610647565b6040516100db9190610fe6565b60405180910390f35b6100ec610670565b6040516100f99190611063565b60405180910390f35b61011c60048036038101906101179190610d61565b610676565b005b61013860048036038101906101339190610d61565b61070a565b005b610142610802565b73ffffffffffffffffffffffffffffffffffffffff16610160610647565b73ffffffffffffffffffffffffffffffffffffffff16146101b6576040517f08c379a00000000000000000000000000000000000000000000000000000000081526004016101ad90611043565b60405180910390fd5b6101ca81600161080a90919063ffffffff16565b5050565b606060006101dc600161083a565b67ffffffffffffffff81111561021b577f4e487b7100000000000000000000000000000000000000000000000000000000600052604160045260246000fd5b60405190808252806020026020018201604052801561025457816020015b610241610bea565b8152602001906001900390816102395790505b5090506000610263600161084f565b905060005b81518163ffffffff1610156105b6576000828263ffffffff16815181106102b8577f4e487b7100000000000000000000000000000000000000000000000000000000600052603260045260246000fd5b602002602001015190506040518060a001604052808273ffffffffffffffffffffffffffffffffffffffff166382df7a3b6040518163ffffffff1660e01b815260040160206040518083038186803b15801561031357600080fd5b505afa158015610327573d6000803e3d6000fd5b505050506040513d601f19601f8201168201806040525081019061034b9190610df4565b63ffffffff1681526020018273ffffffffffffffffffffffffffffffffffffffff166367a1aa4f6040518163ffffffff1660e01b815260040160206040518083038186803b15801561039c57600080fd5b505afa1580156103b0573d6000803e3d6000fd5b505050506040513d601f19601f820116820180604052508101906103d49190610df4565b63ffffffff1681526020018273ffffffffffffffffffffffffffffffffffffffff16637571fcf66040518163ffffffff1660e01b815260040160606040518083038186803b15801561042557600080fd5b505afa158015610439573d6000803e3d6000fd5b505050506040513d601f19601f8201168201806040525081019061045d9190610dcb565b6000015167ffffffffffffffff168152602001848463ffffffff16815181106104af577f4e487b7100000000000000000000000000000000000000000000000000000000600052603260045260246000fd5b602002602001015173ffffffffffffffffffffffffffffffffffffffff1681526020018273ffffffffffffffffffffffffffffffffffffffff16632c779df26040518163ffffffff1660e01b815260040160006040518083038186803b15801561051857600080fd5b505afa15801561052c573d6000803e3d6000fd5b505050506040513d6000823e3d601f19601f820116820180604052508101906105559190610d8a565b815250848363ffffffff1681518110610597577f4e487b7100000000000000000000000000000000000000000000000000000000600052603260045260246000fd5b60200260200101819052505080806105ae90611232565b915050610268565b50819250505090565b6105c7610802565b73ffffffffffffffffffffffffffffffffffffffff166105e5610647565b73ffffffffffffffffffffffffffffffffffffffff161461063b576040517f08c379a000000000000000000000000000000000000000000000000000000000815260040161063290611043565b60405180910390fd5b6106456000610870565b565b60008060009054906101000a900473ffffffffffffffffffffffffffffffffffffffff16905090565b61271081565b61067e610802565b73ffffffffffffffffffffffffffffffffffffffff1661069c610647565b73ffffffffffffffffffffffffffffffffffffffff16146106f2576040517f08c379a00000000000000000000000000000000000000000000000000000000081526004016106e990611043565b60405180910390fd5b61070681600161093490919063ffffffff16565b5050565b610712610802565b73ffffffffffffffffffffffffffffffffffffffff16610730610647565b73ffffffffffffffffffffffffffffffffffffffff1614610786576040517f08c379a000000000000000000000000000000000000000000000000000000000815260040161077d90611043565b60405180910390fd5b600073ffffffffffffffffffffffffffffffffffffffff168173ffffffffffffffffffffffffffffffffffffffff1614156107f6576040517f08c379a00000000000000000000000000000000000000000000000000000000081526004016107ed90611023565b60405180910390fd5b6107ff81610870565b50565b600033905090565b6000610832836000018373ffffffffffffffffffffffffffffffffffffffff1660001b610964565b905092915050565b600061084882600001610aea565b9050919050565b6060600061085f83600001610afb565b905060608190508092505050919050565b60008060009054906101000a900473ffffffffffffffffffffffffffffffffffffffff169050816000806101000a81548173ffffffffffffffffffffffffffffffffffffffff021916908373ffffffffffffffffffffffffffffffffffffffff1602179055508173ffffffffffffffffffffffffffffffffffffffff168173ffffffffffffffffffffffffffffffffffffffff167f8be0079c531659141344cd1fd0a4f28419497f9722a3daafe3b4186f6b6457e060405160405180910390a35050565b600061095c836000018373ffffffffffffffffffffffffffffffffffffffff1660001b610b57565b905092915050565b60008083600101600084815260200190815260200160002054905060008114610ade576000600182610996919061113a565b90506000600186600001805490506109ae919061113a565b9050818114610a695760008660000182815481106109f5577f4e487b7100000000000000000000000000000000000000000000000000000000600052603260045260246000fd5b9060005260206000200154905080876000018481548110610a3f577f4e487b7100000000000000000000000000000000000000000000000000000000600052603260045260246000fd5b90600052602060002001819055508387600101600083815260200190815260200160002081905550505b85600001805480610aa3577f4e487b7100000000000000000000000000000000000000000000000000000000600052603160045260246000fd5b600190038181906000526020600020016000905590558560010160008681526020019081526020016000206000905560019350505050610ae4565b60009150505b92915050565b600081600001805490509050919050565b606081600001805480602002602001604051908101604052809291908181526020018280548015610b4b57602002820191906000526020600020905b815481526020019060010190808311610b37575b50505050509050919050565b6000610b638383610bc7565b610bbc578260000182908060018154018082558091505060019003906000526020600020016000909190919091505582600001805490508360010160008481526020019081526020016000208190555060019050610bc1565b600090505b92915050565b600080836001016000848152602001908152602001600020541415905092915050565b6040518060a00160405280600063ffffffff168152602001600063ffffffff168152602001600067ffffffffffffffff168152602001600073ffffffffffffffffffffffffffffffffffffffff168152602001606081525090565b6000610c58610c53846110a3565b61107e565b905082815260208101848484011115610c7057600080fd5b610c7b8482856111ce565b509392505050565b600081359050610c9281611346565b92915050565b600082601f830112610ca957600080fd5b8151610cb9848260208601610c45565b91505092915050565b600060608284031215610cd457600080fd5b610cde606061107e565b90506000610cee84828501610d4c565b6000830152506020610d0284828501610d22565b6020830152506040610d1684828501610d22565b60408301525092915050565b600081519050610d318161135d565b92915050565b600081519050610d4681611374565b92915050565b600081519050610d5b8161138b565b92915050565b600060208284031215610d7357600080fd5b6000610d8184828501610c83565b91505092915050565b600060208284031215610d9c57600080fd5b600082015167ffffffffffffffff811115610db657600080fd5b610dc284828501610c98565b91505092915050565b600060608284031215610ddd57600080fd5b6000610deb84828501610cc2565b91505092915050565b600060208284031215610e0657600080fd5b6000610e1484828501610d37565b91505092915050565b6000610e298383610f43565b905092915050565b610e3a8161116e565b82525050565b610e498161116e565b82525050565b6000610e5a826110e4565b610e648185611107565b935083602082028501610e76856110d4565b8060005b85811015610eb25784840389528151610e938582610e1d565b9450610e9e836110fa565b925060208a01995050600181019050610e7a565b50829750879550505050505092915050565b6000610ecf826110ef565b610ed98185611118565b9350610ee98185602086016111ce565b610ef2816112bd565b840191505092915050565b6000610f0a602683611129565b9150610f15826112ce565b604082019050919050565b6000610f2d602083611129565b9150610f388261131d565b602082019050919050565b600060a083016000830151610f5b6000860182610fb9565b506020830151610f6e6020860182610fb9565b506040830151610f816040860182610fd7565b506060830151610f946060860182610e31565b5060808301518482036080860152610fac8282610ec4565b9150508091505092915050565b610fc2816111aa565b82525050565b610fd1816111aa565b82525050565b610fe0816111ba565b82525050565b6000602082019050610ffb6000830184610e40565b92915050565b6000602082019050818103600083015261101b8184610e4f565b905092915050565b6000602082019050818103600083015261103c81610efd565b9050919050565b6000602082019050818103600083015261105c81610f20565b9050919050565b60006020820190506110786000830184610fc8565b92915050565b6000611088611099565b90506110948282611201565b919050565b6000604051905090565b600067ffffffffffffffff8211156110be576110bd61128e565b5b6110c7826112bd565b9050602081019050919050565b6000819050602082019050919050565b600081519050919050565b600081519050919050565b6000602082019050919050565b600082825260208201905092915050565b600082825260208201905092915050565b600082825260208201905092915050565b6000611145826111a0565b9150611150836111a0565b9250828210156111635761116261125f565b5b828203905092915050565b600061117982611180565b9050919050565b600073ffffffffffffffffffffffffffffffffffffffff82169050919050565b6000819050919050565b600063ffffffff82169050919050565b600067ffffffffffffffff82169050919050565b60005b838110156111ec5780820151818401526020810190506111d1565b838111156111fb576000848401525b50505050565b61120a826112bd565b810181811067ffffffffffffffff821117156112295761122861128e565b5b80604052505050565b600061123d826111aa565b915063ffffffff8214156112545761125361125f565b5b600182019050919050565b7f4e487b7100000000000000000000000000000000000000000000000000000000600052601160045260246000fd5b7f4e487b7100000000000000000000000000000000000000000000000000000000600052604160045260246000fd5b6000601f19601f8301169050919050565b7f4f776e61626c653a206e6577206f776e657220697320746865207a65726f206160008201527f6464726573730000000000000000000000000000000000000000000000000000602082015250565b7f4f776e61626c653a2063616c6c6572206973206e6f7420746865206f776e6572600082015250565b61134f8161116e565b811461135a57600080fd5b50565b611366816111a0565b811461137157600080fd5b50565b61137d816111aa565b811461138857600080fd5b50565b611394816111ba565b811461139f57600080fd5b5056fea26469706673582212203fbc54ca58b7389e9723144697998263478ebaed1fa8688ac8cacaa46581bec264736f6c63430008040033",
  "linkReferences": {},
  "deployedLinkReferences": {}
}