{
  "_format": "hh-sol-artifact-1",
  "contractName": "TestEpoch",
  "sourceName": "contracts/test-contracts/TestEpoch.sol",
  "abi": [
    {
      "inputs": [],
      "stateMutability": "nonpayable",
      "type": "constructor"
    },
    {
      "inputs": [],
      "name": "getEpochNumber",
      "outputs": [
        {
          "internalType": "uint256",
          "name": "",
          "type": "uint256"
        }
      ],
      "stateMutability": "view",
      "type": "function"
    }
  ],
  "bytecode": "0x608060405234801561001057600080fd5b506101a6806100206000396000f3fe608060405234801561001057600080fd5b506004361061002b5760003560e01c80639a7b3be714610030575b600080fd5b61003861004e565b6040516100459190610134565b60405180910390f35b600073088800000000000000000000000000000000000473ffffffffffffffffffffffffffffffffffffffff1663f4145a836040518163ffffffff1660e01b815260040160206040518083038186803b1580156100aa57600080fd5b505afa1580156100be573d6000803e3d6000fd5b505050506040513d601f19601f820116820180604052508101906100e291906100fc565b905090565b6000815190506100f681610159565b92915050565b60006020828403121561010e57600080fd5b600061011c848285016100e7565b91505092915050565b61012e8161014f565b82525050565b60006020820190506101496000830184610125565b92915050565b6000819050919050565b6101628161014f565b811461016d57600080fd5b5056fea26469706673582212201ef501cebaf860edb6c3cb4d7eaf443df79eada0198e80e013583ea2efe20d8364736f6c63430008040033",
  "linkReferences": {},
  "deployedLinkReferences": {}
}