{
  "_format": "hh-sol-artifact-1",
  "contractName": "StorageLogic",
  "sourceName": "contracts/test-contracts/upgradeable/LogicOne.sol",
  "abi": [
    {
      "inputs": [
        {
          "internalType": "uint256",
          "name": "_value",
          "type": "uint256"
        }
      ],
      "name": "setValue",
      "outputs": [],
      "stateMutability": "nonpayable",
      "type": "function"
    }
  ],
  "bytecode": "0x608060405234801561001057600080fd5b5060dc8061001f6000396000f3fe6080604052348015600f57600080fd5b506004361060285760003560e01c80635524107714602d575b600080fd5b60436004803603810190603f91906062565b6045565b005b8060008190555050565b600081359050605c816092565b92915050565b600060208284031215607357600080fd5b6000607f84828501604f565b91505092915050565b6000819050919050565b6099816088565b811460a357600080fd5b5056fea26469706673582212200de668561cdfe24b9d23ea5fdb22e687e0547856a0c3365c9fddf5ee609db0b164736f6c63430008040033",
  "linkReferences": {},
  "deployedLinkReferences": {}
}