{
  "_format": "hh-sol-artifact-1",
  "contractName": "TestBalance",
  "sourceName": "contracts/test-contracts/TestBalance.sol",
  "abi": [
    {
      "inputs": [],
      "stateMutability": "nonpayable",
      "type": "constructor"
    },
    {
      "inputs": [],
      "name": "afterStake",
      "outputs": [
        {
          "internalType": "uint256",
          "name": "",
          "type": "uint256"
        }
      ],
      "stateMutability": "view",
      "type": "function"
    },
    {
      "inputs": [],
      "name": "beforeStake",
      "outputs": [
        {
          "internalType": "uint256",
          "name": "",
          "type": "uint256"
        }
      ],
      "stateMutability": "view",
      "type": "function"
    },
    {
      "inputs": [
        {
          "internalType": "address",
          "name": "_addr",
          "type": "address"
        }
      ],
      "name": "setContractAddress",
      "outputs": [],
      "stateMutability": "nonpayable",
      "type": "function"
    },
    {
      "inputs": [],
      "name": "stake",
      "outputs": [],
      "stateMutability": "payable",
      "type": "function"
    },
    {
      "inputs": [
        {
          "internalType": "uint256",
          "name": "_value",
          "type": "uint256"
        }
      ],
      "name": "testAssert",
      "outputs": [],
      "stateMutability": "nonpayable",
      "type": "function"
    },
    {
      "inputs": [
        {
          "internalType": "uint256",
          "name": "_value",
          "type": "uint256"
        }
      ],
      "name": "testRequire",
      "outputs": [],
      "stateMutability": "nonpayable",
      "type": "function"
    }
  ],
  "bytecode": "0x608060405234801561001057600080fd5b506104d3806100206000396000f3fe6080604052600436106100555760003560e01c8063246ce3f91461005a5780633a4b66f114610083578063477bddaa1461008d578063660d18a2146100b6578063b8bd717f146100e1578063f71fe2581461010a575b600080fd5b34801561006657600080fd5b50610081600480360381019061007c9190610363565b610135565b005b61008b610174565b005b34801561009957600080fd5b506100b460048036038101906100af919061033a565b610275565b005b3480156100c257600080fd5b506100cb6102b9565b6040516100d891906103de565b60405180910390f35b3480156100ed57600080fd5b5061010860048036038101906101039190610363565b6102bf565b005b34801561011657600080fd5b5061011f61030a565b60405161012c91906103de565b60405180910390f35b600061016a577f4e487b7100000000000000000000000000000000000000000000000000000000600052600160045260246000fd5b8060028190555050565b600360009054906101000a900473ffffffffffffffffffffffffffffffffffffffff1673ffffffffffffffffffffffffffffffffffffffff163160008190555073088800000000000000000000000000000000000273ffffffffffffffffffffffffffffffffffffffff1663b6b55f25346040518263ffffffff1660e01b815260040161020191906103de565b600060405180830381600087803b15801561021b57600080fd5b505af115801561022f573d6000803e3d6000fd5b50505050600360009054906101000a900473ffffffffffffffffffffffffffffffffffffffff1673ffffffffffffffffffffffffffffffffffffffff1631600181905550565b80600360006101000a81548173ffffffffffffffffffffffffffffffffffffffff021916908373ffffffffffffffffffffffffffffffffffffffff16021790555050565b60015481565b6000610300576040517f08c379a00000000000000000000000000000000000000000000000000000000081526004016102f7906103be565b60405180910390fd5b8060028190555050565b60005481565b60008135905061031f8161046f565b92915050565b60008135905061033481610486565b92915050565b60006020828403121561034c57600080fd5b600061035a84828501610310565b91505092915050565b60006020828403121561037557600080fd5b600061038384828501610325565b91505092915050565b60006103996012836103f9565b91506103a482610446565b602082019050919050565b6103b88161043c565b82525050565b600060208201905081810360008301526103d78161038c565b9050919050565b60006020820190506103f360008301846103af565b92915050565b600082825260208201905092915050565b60006104158261041c565b9050919050565b600073ffffffffffffffffffffffffffffffffffffffff82169050919050565b6000819050919050565b7f546573742066616c736520726571756972650000000000000000000000000000600082015250565b6104788161040a565b811461048357600080fd5b50565b61048f8161043c565b811461049a57600080fd5b5056fea2646970667358221220dfd739fce3c5c97813715fd9491b9d63d7c94a3b1edfd0f436e07da3428d9ea264736f6c63430008040033",
  "linkReferences": {},
  "deployedLinkReferences": {}
}