{
  "_format": "hh-sol-artifact-1",
  "contractName": "PoSPool",
  "sourceName": "contracts/PoSPool.sol",
  "abi": [
    {
      "inputs": [],
      "stateMutability": "nonpayable",
      "type": "constructor"
    },
    {
      "inputs": [
        {
          "internalType": "uint256",
          "name": "previous",
          "type": "uint256"
        },
        {
          "internalType": "uint256",
          "name": "current",
          "type": "uint256"
        },
        {
          "internalType": "uint256",
          "name": "blockNumber",
          "type": "uint256"
        }
      ],
      "name": "UnnormalReward",
      "type": "error"
    },
    {
      "anonymous": false,
      "inputs": [
        {
          "indexed": true,
          "internalType": "address",
          "name": "user",
          "type": "address"
        },
        {
          "indexed": false,
          "internalType": "uint256",
          "name": "amount",
          "type": "uint256"
        }
      ],
      "name": "ClaimInterest",
      "type": "event"
    },
    {
      "anonymous": false,
      "inputs": [
        {
          "indexed": true,
          "internalType": "address",
          "name": "user",
          "type": "address"
        },
        {
          "indexed": false,
          "internalType": "uint64",
          "name": "votePower",
          "type": "uint64"
        }
      ],
      "name": "DecreasePoSStake",
      "type": "event"
    },
    {
      "anonymous": false,
      "inputs": [
        {
          "indexed": true,
          "internalType": "address",
          "name": "user",
          "type": "address"
        },
        {
          "indexed": false,
          "internalType": "uint64",
          "name": "votePower",
          "type": "uint64"
        }
      ],
      "name": "IncreasePoSStake",
      "type": "event"
    },
    {
      "anonymous": false,
      "inputs": [
        {
          "indexed": false,
          "internalType": "uint32",
          "name": "ratio",
          "type": "uint32"
        }
      ],
      "name": "RatioChanged",
      "type": "event"
    },
    {
      "anonymous": false,
      "inputs": [
        {
          "indexed": true,
          "internalType": "address",
          "name": "user",
          "type": "address"
        },
        {
          "indexed": false,
          "internalType": "uint64",
          "name": "votePower",
          "type": "uint64"
        }
      ],
      "name": "WithdrawStake",
      "type": "event"
    },
    {
      "inputs": [
        {
          "internalType": "uint256",
          "name": "startBlock",
          "type": "uint256"
        }
      ],
      "name": "_poolAPY",
      "outputs": [
        {
          "internalType": "uint32",
          "name": "",
          "type": "uint32"
        }
      ],
      "stateMutability": "view",
      "type": "function"
    },
    {
      "inputs": [],
      "name": "_poolLockPeriod",
      "outputs": [
        {
          "internalType": "uint64",
          "name": "",
          "type": "uint64"
        }
      ],
      "stateMutability": "view",
      "type": "function"
    },
    {
      "inputs": [],
      "name": "_poolName",
      "outputs": [
        {
          "internalType": "string",
          "name": "",
          "type": "string"
        }
      ],
      "stateMutability": "view",
      "type": "function"
    },
    {
      "inputs": [],
      "name": "_poolRegisted",
      "outputs": [
        {
          "internalType": "bool",
          "name": "",
          "type": "bool"
        }
      ],
      "stateMutability": "view",
      "type": "function"
    },
    {
      "inputs": [
        {
          "internalType": "address",
          "name": "_addr",
          "type": "address"
        }
      ],
      "name": "_posAddressToIdentifier",
      "outputs": [
        {
          "internalType": "bytes32",
          "name": "",
          "type": "bytes32"
        }
      ],
      "stateMutability": "view",
      "type": "function"
    },
    {
      "inputs": [
        {
          "internalType": "uint64",
          "name": "votePower",
          "type": "uint64"
        }
      ],
      "name": "_posRegisterIncreaseStake",
      "outputs": [],
      "stateMutability": "nonpayable",
      "type": "function"
    },
    {
      "inputs": [
        {
          "internalType": "bytes32",
          "name": "indentifier",
          "type": "bytes32"
        },
        {
          "internalType": "uint64",
          "name": "votePower",
          "type": "uint64"
        },
        {
          "internalType": "bytes",
          "name": "blsPubKey",
          "type": "bytes"
        },
        {
          "internalType": "bytes",
          "name": "vrfPubKey",
          "type": "bytes"
        },
        {
          "internalType": "bytes[2]",
          "name": "blsPubKeyProof",
          "type": "bytes[2]"
        }
      ],
      "name": "_posRegisterRegister",
      "outputs": [],
      "stateMutability": "nonpayable",
      "type": "function"
    },
    {
      "inputs": [
        {
          "internalType": "uint64",
          "name": "votePower",
          "type": "uint64"
        }
      ],
      "name": "_posRegisterRetire",
      "outputs": [],
      "stateMutability": "nonpayable",
      "type": "function"
    },
    {
      "inputs": [
        {
          "internalType": "uint256",
          "name": "_amount",
          "type": "uint256"
        }
      ],
      "name": "_stakingDeposit",
      "outputs": [],
      "stateMutability": "nonpayable",
      "type": "function"
    },
    {
      "inputs": [
        {
          "internalType": "uint256",
          "name": "_amount",
          "type": "uint256"
        }
      ],
      "name": "_stakingWithdraw",
      "outputs": [],
      "stateMutability": "nonpayable",
      "type": "function"
    },
    {
      "inputs": [],
      "name": "claimAllInterest",
      "outputs": [],
      "stateMutability": "nonpayable",
      "type": "function"
    },
    {
      "inputs": [
        {
          "internalType": "uint256",
          "name": "amount",
          "type": "uint256"
        }
      ],
      "name": "claimInterest",
      "outputs": [],
      "stateMutability": "nonpayable",
      "type": "function"
    },
    {
      "inputs": [
        {
          "internalType": "uint64",
          "name": "limit",
          "type": "uint64"
        }
      ],
      "name": "collectUserLastVotePowerSectionPagination",
      "outputs": [],
      "stateMutability": "nonpayable",
      "type": "function"
    },
    {
      "inputs": [
        {
          "internalType": "uint64",
          "name": "limit",
          "type": "uint64"
        }
      ],
      "name": "collectUserLatestInterestPagination",
      "outputs": [],
      "stateMutability": "nonpayable",
      "type": "function"
    },
    {
      "inputs": [
        {
          "internalType": "uint256",
          "name": "sectionCount",
          "type": "uint256"
        }
      ],
      "name": "collectUserLatestSectionsInterest",
      "outputs": [],
      "stateMutability": "nonpayable",
      "type": "function"
    },
    {
      "inputs": [
        {
          "internalType": "uint64",
          "name": "votePower",
          "type": "uint64"
        }
      ],
      "name": "decreaseStake",
      "outputs": [],
      "stateMutability": "nonpayable",
      "type": "function"
    },
    {
      "inputs": [
        {
          "internalType": "uint64",
          "name": "votePower",
          "type": "uint64"
        }
      ],
      "name": "increaseStake",
      "outputs": [],
      "stateMutability": "payable",
      "type": "function"
    },
    {
      "inputs": [],
      "name": "poolAPY",
      "outputs": [
        {
          "internalType": "uint32",
          "name": "",
          "type": "uint32"
        }
      ],
      "stateMutability": "view",
      "type": "function"
    },
    {
      "inputs": [],
      "name": "poolSummary",
      "outputs": [
        {
          "internalType": "uint64",
          "name": "available",
          "type": "uint64"
        },
        {
          "internalType": "uint256",
          "name": "interest",
          "type": "uint256"
        },
        {
          "internalType": "uint256",
          "name": "totalInterest",
          "type": "uint256"
        }
      ],
      "stateMutability": "view",
      "type": "function"
    },
    {
      "inputs": [],
      "name": "poolUserShareRatio",
      "outputs": [
        {
          "internalType": "uint32",
          "name": "",
          "type": "uint32"
        }
      ],
      "stateMutability": "view",
      "type": "function"
    },
    {
      "inputs": [],
      "name": "posAddress",
      "outputs": [
        {
          "internalType": "bytes32",
          "name": "",
          "type": "bytes32"
        }
      ],
      "stateMutability": "view",
      "type": "function"
    },
    {
      "inputs": [
        {
          "internalType": "bytes32",
          "name": "indentifier",
          "type": "bytes32"
        },
        {
          "internalType": "uint64",
          "name": "votePower",
          "type": "uint64"
        },
        {
          "internalType": "bytes",
          "name": "blsPubKey",
          "type": "bytes"
        },
        {
          "internalType": "bytes",
          "name": "vrfPubKey",
          "type": "bytes"
        },
        {
          "internalType": "bytes[2]",
          "name": "blsPubKeyProof",
          "type": "bytes[2]"
        }
      ],
      "name": "register",
      "outputs": [],
      "stateMutability": "payable",
      "type": "function"
    },
    {
      "inputs": [
        {
          "internalType": "uint256",
          "name": "count",
          "type": "uint256"
        }
      ],
      "name": "setCfxCountOfOneVote",
      "outputs": [],
      "stateMutability": "nonpayable",
      "type": "function"
    },
    {
      "inputs": [
        {
          "internalType": "uint64",
          "name": "period",
          "type": "uint64"
        }
      ],
      "name": "setLockPeriod",
      "outputs": [],
      "stateMutability": "nonpayable",
      "type": "function"
    },
    {
      "inputs": [
        {
          "internalType": "string",
          "name": "name",
          "type": "string"
        }
      ],
      "name": "setPoolName",
      "outputs": [],
      "stateMutability": "nonpayable",
      "type": "function"
    },
    {
      "inputs": [
        {
          "internalType": "uint32",
          "name": "ratio",
          "type": "uint32"
        }
      ],
      "name": "setPoolUserShareRatio",
      "outputs": [],
      "stateMutability": "nonpayable",
      "type": "function"
    },
    {
      "inputs": [
        {
          "internalType": "address",
          "name": "account",
          "type": "address"
        },
        {
          "internalType": "uint64",
          "name": "offset",
          "type": "uint64"
        },
        {
          "internalType": "uint64",
          "name": "limit",
          "type": "uint64"
        }
      ],
      "name": "userInQueue",
      "outputs": [
        {
          "components": [
            {
              "internalType": "uint64",
              "name": "votePower",
              "type": "uint64"
            },
            {
              "internalType": "uint64",
              "name": "endBlock",
              "type": "uint64"
            }
          ],
          "internalType": "struct VotePowerQueue.QueueNode[]",
          "name": "",
          "type": "tuple[]"
        }
      ],
      "stateMutability": "view",
      "type": "function"
    },
    {
      "inputs": [
        {
          "internalType": "address",
          "name": "account",
          "type": "address"
        }
      ],
      "name": "userInQueue",
      "outputs": [
        {
          "components": [
            {
              "internalType": "uint64",
              "name": "votePower",
              "type": "uint64"
            },
            {
              "internalType": "uint64",
              "name": "endBlock",
              "type": "uint64"
            }
          ],
          "internalType": "struct VotePowerQueue.QueueNode[]",
          "name": "",
          "type": "tuple[]"
        }
      ],
      "stateMutability": "view",
      "type": "function"
    },
    {
      "inputs": [
        {
          "internalType": "address",
          "name": "_address",
          "type": "address"
        }
      ],
      "name": "userInterest",
      "outputs": [
        {
          "internalType": "uint256",
          "name": "",
          "type": "uint256"
        }
      ],
      "stateMutability": "view",
      "type": "function"
    },
    {
      "inputs": [
        {
          "internalType": "address",
          "name": "account",
          "type": "address"
        }
      ],
      "name": "userOutQueue",
      "outputs": [
        {
          "components": [
            {
              "internalType": "uint64",
              "name": "votePower",
              "type": "uint64"
            },
            {
              "internalType": "uint64",
              "name": "endBlock",
              "type": "uint64"
            }
          ],
          "internalType": "struct VotePowerQueue.QueueNode[]",
          "name": "",
          "type": "tuple[]"
        }
      ],
      "stateMutability": "view",
      "type": "function"
    },
    {
      "inputs": [
        {
          "internalType": "address",
          "name": "account",
          "type": "address"
        },
        {
          "internalType": "uint64",
          "name": "offset",
          "type": "uint64"
        },
        {
          "internalType": "uint64",
          "name": "limit",
          "type": "uint64"
        }
      ],
      "name": "userOutQueue",
      "outputs": [
        {
          "components": [
            {
              "internalType": "uint64",
              "name": "votePower",
              "type": "uint64"
            },
            {
              "internalType": "uint64",
              "name": "endBlock",
              "type": "uint64"
            }
          ],
          "internalType": "struct VotePowerQueue.QueueNode[]",
          "name": "",
          "type": "tuple[]"
        }
      ],
      "stateMutability": "view",
      "type": "function"
    },
    {
      "inputs": [
        {
          "internalType": "address",
          "name": "_user",
          "type": "address"
        }
      ],
      "name": "userSummary",
      "outputs": [
        {
          "components": [
            {
              "internalType": "uint64",
              "name": "votes",
              "type": "uint64"
            },
            {
              "internalType": "uint64",
              "name": "available",
              "type": "uint64"
            },
            {
              "internalType": "uint64",
              "name": "locked",
              "type": "uint64"
            },
            {
              "internalType": "uint64",
              "name": "unlocked",
              "type": "uint64"
            },
            {
              "internalType": "uint256",
              "name": "claimedInterest",
              "type": "uint256"
            },
            {
              "internalType": "uint256",
              "name": "currentInterest",
              "type": "uint256"
            }
          ],
          "internalType": "struct PoSPoolStorage.UserSummary",
          "name": "",
          "type": "tuple"
        }
      ],
      "stateMutability": "view",
      "type": "function"
    },
    {
      "inputs": [
        {
          "internalType": "uint64",
          "name": "votePower",
          "type": "uint64"
        }
      ],
      "name": "withdrawStake",
      "outputs": [],
      "stateMutability": "nonpayable",
      "type": "function"
    }
  ],
  "bytecode": "0x60806040526123286000806101000a81548163ffffffff021916908363ffffffff16021790555060076202a30062000038919062000131565b600060056101000a81548167ffffffffffffffff021916908367ffffffffffffffff160217905550683635c9adc5dea000006002556040518060600160405280600067ffffffffffffffff168152602001600081526020016000815250600460008201518160000160006101000a81548167ffffffffffffffff021916908367ffffffffffffffff16021790555060208201518160010155604082015181600201555050348015620000e957600080fd5b5033600360006101000a81548173ffffffffffffffffffffffffffffffffffffffff021916908373ffffffffffffffffffffffffffffffffffffffff160217905550620001bd565b60006200013e826200017a565b91506200014b836200017a565b92508167ffffffffffffffff04831182151516156200016f576200016e6200018e565b5b828202905092915050565b600067ffffffffffffffff82169050919050565b7f4e487b7100000000000000000000000000000000000000000000000000000000600052601160045260246000fd5b616ce680620001cd6000396000f3fe6080604052600436106101ee5760003560e01c806380f818f91161010d578063beb99c1e116100a0578063e2af79281161006f578063e2af7928146106d8578063e335b45114610715578063e3d5b23314610731578063e5e20ccf1461076e578063fdb259c014610797576101ee565b8063beb99c1e1461060c578063d68076c314610635578063dced4de414610672578063de49db63146106af576101ee565b806396b6b59d116100dc57806396b6b59d146105525780639d5633571461057b578063a6698002146105a4578063b4064a25146105e1576101ee565b806380f818f9146104aa5780638270512f146104d357806382df7a3b146104ea578063961545da14610515576101ee565b80632eb375ea1161018557806367a1aa4f1161015457806367a1aa4f1461040057806372b654241461042b5780637571fcf6146104545780637ee8f47314610481576101ee565b80632eb375ea14610346578063336f8e0e1461036f5780634b1b45e6146103ac5780635825761a146103d7576101ee565b806324a3bbe2116101c157806324a3bbe21461028c57806327d8ed3f146102c95780632c779df2146102f25780632ce7777f1461031d576101ee565b806309fecf7f146101f357806310ae08861461020f5780631764618c146102385780632485ce9f14610263575b600080fd5b61020d60048036038101906102089190615ab6565b6107c0565b005b34801561021b57600080fd5b5061023660048036038101906102319190615ab6565b610b2d565b005b34801561024457600080fd5b5061024d610fc7565b60405161025a9190616027565b60405180910390f35b34801561026f57600080fd5b5061028a60048036038101906102859190615ab6565b611025565b005b34801561029857600080fd5b506102b360048036038101906102ae91906158ba565b61162f565b6040516102c09190615fea565b60405180910390f35b3480156102d557600080fd5b506102f060048036038101906102eb9190615ab6565b61167f565b005b3480156102fe57600080fd5b50610307611701565b60405161031491906160ae565b60405180910390f35b34801561032957600080fd5b50610344600480360381019061033f9190615ab6565b61178f565b005b34801561035257600080fd5b5061036d60048036038101906103689190615a64565b611b47565b005b34801561037b57600080fd5b50610396600480360381019061039191906158e3565b611ddb565b6040516103a39190615fea565b60405180910390f35b3480156103b857600080fd5b506103c1611e39565b6040516103ce919061600c565b60405180910390f35b3480156103e357600080fd5b506103fe60048036038101906103f99190615ab6565b611e4c565b005b34801561040c57600080fd5b50610415611ece565b604051610422919061633d565b60405180910390f35b34801561043757600080fd5b50610452600480360381019061044d9190615a23565b611ee2565b005b34801561046057600080fd5b50610469611f8c565b60405161047893929190616373565b60405180910390f35b34801561048d57600080fd5b506104a860048036038101906104a39190615a64565b611fb8565b005b3480156104b657600080fd5b506104d160048036038101906104cc919061595b565b61203a565b005b3480156104df57600080fd5b506104e86120ce565b005b3480156104f657600080fd5b506104ff612179565b60405161050c919061633d565b60405180910390f35b34801561052157600080fd5b5061053c60048036038101906105379190615a64565b6121e2565b604051610549919061633d565b60405180910390f35b34801561055e57600080fd5b5061057960048036038101906105749190615a64565b612464565b005b34801561058757600080fd5b506105a2600480360381019061059d9190615a8d565b612511565b005b3480156105b057600080fd5b506105cb60048036038101906105c691906158e3565b61265e565b6040516105d89190615fea565b60405180910390f35b3480156105ed57600080fd5b506105f66126bc565b6040516106039190616358565b60405180910390f35b34801561061857600080fd5b50610633600480360381019061062e9190615ab6565b6126d6565b005b34801561064157600080fd5b5061065c600480360381019061065791906158ba565b612b12565b60405161066991906162eb565b60405180910390f35b34801561067e57600080fd5b50610699600480360381019061069491906158ba565b612bb0565b6040516106a69190616027565b60405180910390f35b3480156106bb57600080fd5b506106d660048036038101906106d19190615a64565b612c56565b005b3480156106e457600080fd5b506106ff60048036038101906106fa91906158ba565b61320d565b60405161070c9190615fea565b60405180910390f35b61072f600480360381019061072a919061595b565b61325d565b005b34801561073d57600080fd5b50610758600480360381019061075391906158ba565b61361e565b60405161076591906162d0565b60405180910390f35b34801561077a57600080fd5b5061079560048036038101906107909190615ab6565b613843565b005b3480156107a357600080fd5b506107be60048036038101906107b99190615a64565b6138ff565b005b600060049054906101000a900460ff1661080f576040517f08c379a000000000000000000000000000000000000000000000000000000000815260040161080690616170565b60405180910390fd5b60008167ffffffffffffffff161161085c576040517f08c379a0000000000000000000000000000000000000000000000000000000008152600401610853906161d0565b60405180910390fd5b6002548167ffffffffffffffff1661087491906165c0565b34146108b5576040517f08c379a00000000000000000000000000000000000000000000000000000000081526004016108ac906160d0565b60405180910390fd5b6108be346138ff565b6108c78161167f565b3373ffffffffffffffffffffffffffffffffffffffff167fbb9676f2e80ec8fca106973b6eefdfc5fdccc797801bedfc041ad03b89d3748e8260405161090d9190616358565b60405180910390a280600460000160008282829054906101000a900467ffffffffffffffff1661093d9190616551565b92506101000a81548167ffffffffffffffff021916908367ffffffffffffffff16021790555080600d60003373ffffffffffffffffffffffffffffffffffffffff1673ffffffffffffffffffffffffffffffffffffffff16815260200190815260200160002060000160008282829054906101000a900467ffffffffffffffff166109c89190616551565b92506101000a81548167ffffffffffffffff021916908367ffffffffffffffff16021790555080600d60003373ffffffffffffffffffffffffffffffffffffffff1673ffffffffffffffffffffffffffffffffffffffff16815260200190815260200160002060000160088282829054906101000a900467ffffffffffffffff16610a539190616551565b92506101000a81548167ffffffffffffffff021916908367ffffffffffffffff160217905550610b1a60405180604001604052808367ffffffffffffffff168152602001600060059054906101000a900467ffffffffffffffff16610ab6613981565b610ac09190616551565b67ffffffffffffffff16815250600e60003373ffffffffffffffffffffffffffffffffffffffff1673ffffffffffffffffffffffffffffffffffffffff16815260200190815260200160002061398990919063ffffffff16565b610b22613a65565b610b2a613a77565b50565b600060049054906101000a900460ff16610b7c576040517f08c379a0000000000000000000000000000000000000000000000000000000008152600401610b7390616170565b60405180910390fd5b60648167ffffffffffffffff161115610bca576040517f08c379a0000000000000000000000000000000000000000000000000000000008152600401610bc190616130565b60405180910390fd5b6000600c60003373ffffffffffffffffffffffffffffffffffffffff1673ffffffffffffffffffffffffffffffffffffffff1681526020019081526020016000209050600a60000160089054906101000a900467ffffffffffffffff1667ffffffffffffffff168160000160089054906101000a900467ffffffffffffffff1667ffffffffffffffff1610610c94576040517f08c379a0000000000000000000000000000000000000000000000000000000008152600401610c8b90616150565b60405180910390fd5b6000610cc18260000160089054906101000a900467ffffffffffffffff1667ffffffffffffffff16613a89565b905060008382610cd19190616551565b90506007805490508167ffffffffffffffff161115610cf35760078054905090505b6000808390505b8267ffffffffffffffff168167ffffffffffffffff161015610e8457600060078267ffffffffffffffff1681548110610d5c577f4e487b7100000000000000000000000000000000000000000000000000000000600052603260045260246000fd5b90600052602060002090600202016040518060800160405290816000820160009054906101000a900467ffffffffffffffff1667ffffffffffffffff1667ffffffffffffffff1681526020016000820160089054906101000a900467ffffffffffffffff1667ffffffffffffffff1667ffffffffffffffff1681526020016000820160109054906101000a900467ffffffffffffffff1667ffffffffffffffff1667ffffffffffffffff1681526020016001820154815250509050600081606001511415610e2a5750610e71565b6000610e5782606001518860000160009054906101000a900467ffffffffffffffff168460400151613aa6565b9050610e6c8185613b2590919063ffffffff16565b935050505b8080610e7c90616889565b915050610cfa565b50610eda81600d60003373ffffffffffffffffffffffffffffffffffffffff1673ffffffffffffffffffffffffffffffffffffffff16815260200190815260200160002060020154613b2590919063ffffffff16565b600d60003373ffffffffffffffffffffffffffffffffffffffff1673ffffffffffffffffffffffffffffffffffffffff168152602001908152602001600020600201819055506007600183610f2f91906166c4565b67ffffffffffffffff1681548110610f70577f4e487b7100000000000000000000000000000000000000000000000000000000600052603260045260246000fd5b906000526020600020906002020160000160089054906101000a900467ffffffffffffffff168460000160086101000a81548167ffffffffffffffff021916908367ffffffffffffffff1602179055505050505050565b60008060049054906101000a900460ff16611017576040517f08c379a000000000000000000000000000000000000000000000000000000000815260040161100e90616170565b60405180910390fd5b61102030612bb0565b905090565b600060049054906101000a900460ff16611074576040517f08c379a000000000000000000000000000000000000000000000000000000000815260040161106b90616170565b60405180910390fd5b60648167ffffffffffffffff1611156110c2576040517f08c379a00000000000000000000000000000000000000000000000000000000081526004016110b990616130565b60405180910390fd5b6000600860003373ffffffffffffffffffffffffffffffffffffffff1673ffffffffffffffffffffffffffffffffffffffff1681526020019081526020016000209050600081805490501161114c576040517f08c379a000000000000000000000000000000000000000000000000000000000815260040161114390616250565b60405180910390fd5b60006111cb8260018480549050611163919061665c565b8154811061119a577f4e487b7100000000000000000000000000000000000000000000000000000000600052603260045260246000fd5b9060005260206000200160000160009054906101000a900467ffffffffffffffff1667ffffffffffffffff16613a89565b9050600083826111db9190616551565b90506007805490508167ffffffffffffffff1611156111fd5760078054905090505b6000808390505b8267ffffffffffffffff168167ffffffffffffffff1610156113e057600060078267ffffffffffffffff1681548110611266577f4e487b7100000000000000000000000000000000000000000000000000000000600052603260045260246000fd5b90600052602060002090600202016040518060800160405290816000820160009054906101000a900467ffffffffffffffff1667ffffffffffffffff1667ffffffffffffffff1681526020016000820160089054906101000a900467ffffffffffffffff1667ffffffffffffffff1667ffffffffffffffff1681526020016000820160109054906101000a900467ffffffffffffffff1667ffffffffffffffff1667ffffffffffffffff168152602001600182015481525050905060008160600151141561133457506113cd565b60006113b382606001518860018a80549050611350919061665c565b81548110611387577f4e487b7100000000000000000000000000000000000000000000000000000000600052603260045260246000fd5b9060005260206000200160000160109054906101000a900467ffffffffffffffff168460400151613aa6565b90506113c88185613b2590919063ffffffff16565b935050505b80806113d890616889565b915050611204565b5061143681600d60003373ffffffffffffffffffffffffffffffffffffffff1673ffffffffffffffffffffffffffffffffffffffff16815260200190815260200160002060020154613b2590919063ffffffff16565b600d60003373ffffffffffffffffffffffffffffffffffffffff1673ffffffffffffffffffffffffffffffffffffffff168152602001908152602001600020600201819055506007805490508267ffffffffffffffff16141561153557838054806114ca577f4e487b7100000000000000000000000000000000000000000000000000000000600052603160045260246000fd5b60019003818190600052602060002001600080820160006101000a81549067ffffffffffffffff02191690556000820160086101000a81549067ffffffffffffffff02191690556000820160106101000a81549067ffffffffffffffff021916905550509055611628565b600760018361154491906166c4565b67ffffffffffffffff1681548110611585577f4e487b7100000000000000000000000000000000000000000000000000000000600052603260045260246000fd5b906000526020600020906002020160000160089054906101000a900467ffffffffffffffff1684600186805490506115bd919061665c565b815481106115f4577f4e487b7100000000000000000000000000000000000000000000000000000000600052603260045260246000fd5b9060005260206000200160000160006101000a81548167ffffffffffffffff021916908367ffffffffffffffff1602179055505b5050505050565b6060611678600f60008473ffffffffffffffffffffffffffffffffffffffff1673ffffffffffffffffffffffffffffffffffffffff168152602001908152602001600020613b3b565b9050919050565b73088800000000000000000000000000000000000573ffffffffffffffffffffffffffffffffffffffff166309fecf7f826040518263ffffffff1660e01b81526004016116cc9190616358565b600060405180830381600087803b1580156116e657600080fd5b505af11580156116fa573d6000803e3d6000fd5b5050505050565b6001805461170e906167b0565b80601f016020809104026020016040519081016040528092919081815260200182805461173a906167b0565b80156117875780601f1061175c57610100808354040283529160200191611787565b820191906000526020600020905b81548152906001019060200180831161176a57829003601f168201915b505050505081565b600060049054906101000a900460ff166117de576040517f08c379a00000000000000000000000000000000000000000000000000000000081526004016117d590616170565b60405180910390fd5b611825600f60003373ffffffffffffffffffffffffffffffffffffffff1673ffffffffffffffffffffffffffffffffffffffff168152602001908152602001600020613d78565b600d60003373ffffffffffffffffffffffffffffffffffffffff1673ffffffffffffffffffffffffffffffffffffffff16815260200190815260200160002060000160188282829054906101000a900467ffffffffffffffff166118899190616551565b92506101000a81548167ffffffffffffffff021916908367ffffffffffffffff1602179055508067ffffffffffffffff16600d60003373ffffffffffffffffffffffffffffffffffffffff1673ffffffffffffffffffffffffffffffffffffffff16815260200190815260200160002060000160189054906101000a900467ffffffffffffffff1667ffffffffffffffff16101561195c576040517f08c379a0000000000000000000000000000000000000000000000000000000008152600401611953906162b0565b60405180910390fd5b61197c6002548267ffffffffffffffff1661197791906165c0565b611fb8565b80600d60003373ffffffffffffffffffffffffffffffffffffffff1673ffffffffffffffffffffffffffffffffffffffff16815260200190815260200160002060000160188282829054906101000a900467ffffffffffffffff166119e191906166c4565b92506101000a81548167ffffffffffffffff021916908367ffffffffffffffff16021790555080600d60003373ffffffffffffffffffffffffffffffffffffffff1673ffffffffffffffffffffffffffffffffffffffff16815260200190815260200160002060000160008282829054906101000a900467ffffffffffffffff16611a6c91906166c4565b92506101000a81548167ffffffffffffffff021916908367ffffffffffffffff16021790555060003390508073ffffffffffffffffffffffffffffffffffffffff166108fc6002548467ffffffffffffffff16611ac991906165c0565b9081150290604051600060405180830381858888f19350505050158015611af4573d6000803e3d6000fd5b503373ffffffffffffffffffffffffffffffffffffffff167ffbd5b0f12a6385c116526ca96180111a6575ccef6751a640d36d6d80793eced283604051611b3b9190616358565b60405180910390a25050565b600060049054906101000a900460ff16611b96576040517f08c379a0000000000000000000000000000000000000000000000000000000008152600401611b8d90616170565b60405180910390fd5b6000611ba133612b12565b905081811015611be6576040517f08c379a0000000000000000000000000000000000000000000000000000000008152600401611bdd90616290565b60405180910390fd5b611bee613a65565b611bf6613e9d565b611bfe614137565b611c5382600d60003373ffffffffffffffffffffffffffffffffffffffff1673ffffffffffffffffffffffffffffffffffffffff16815260200190815260200160002060010154613b2590919063ffffffff16565b600d60003373ffffffffffffffffffffffffffffffffffffffff1673ffffffffffffffffffffffffffffffffffffffff16815260200190815260200160002060010181905550611cee82600d60003373ffffffffffffffffffffffffffffffffffffffff1673ffffffffffffffffffffffffffffffffffffffff1681526020019081526020016000206002015461427c90919063ffffffff16565b600d60003373ffffffffffffffffffffffffffffffffffffffff1673ffffffffffffffffffffffffffffffffffffffff1681526020019081526020016000206002018190555060003390508073ffffffffffffffffffffffffffffffffffffffff166108fc849081150290604051600060405180830381858888f19350505050158015611d7f573d6000803e3d6000fd5b503373ffffffffffffffffffffffffffffffffffffffff167fbbf701f67a7d285bbd2b9b2dc7a5fee474e6dc3c059183385da6cc9de2be34a984604051611dc691906162eb565b60405180910390a2611dd6614292565b505050565b6060611e308383600f60008873ffffffffffffffffffffffffffffffffffffffff1673ffffffffffffffffffffffffffffffffffffffff16815260200190815260200160002061431d9092919063ffffffff16565b90509392505050565b600060049054906101000a900460ff1681565b73088800000000000000000000000000000000000573ffffffffffffffffffffffffffffffffffffffff1663f49d0638826040518263ffffffff1660e01b8152600401611e999190616358565b600060405180830381600087803b158015611eb357600080fd5b505af1158015611ec7573d6000803e3d6000fd5b5050505050565b60008054906101000a900463ffffffff1681565b600360009054906101000a900473ffffffffffffffffffffffffffffffffffffffff1673ffffffffffffffffffffffffffffffffffffffff163373ffffffffffffffffffffffffffffffffffffffff1614611f72576040517f08c379a0000000000000000000000000000000000000000000000000000000008152600401611f6990616110565b60405180910390fd5b8060019080519060200190611f889291906155b4565b5050565b60048060000160009054906101000a900467ffffffffffffffff16908060010154908060020154905083565b73088800000000000000000000000000000000000273ffffffffffffffffffffffffffffffffffffffff16632e1a7d4d826040518263ffffffff1660e01b815260040161200591906162eb565b600060405180830381600087803b15801561201f57600080fd5b505af1158015612033573d6000803e3d6000fd5b5050505050565b73088800000000000000000000000000000000000573ffffffffffffffffffffffffffffffffffffffff1663e335b451888888888888886040518863ffffffff1660e01b81526004016120939796959493929190616042565b600060405180830381600087803b1580156120ad57600080fd5b505af11580156120c1573d6000803e3d6000fd5b5050505050505050505050565b600060049054906101000a900460ff1661211d576040517f08c379a000000000000000000000000000000000000000000000000000000000815260040161211490616170565b60405180910390fd5b600061212833612b12565b90506000811161216d576040517f08c379a0000000000000000000000000000000000000000000000000000000008152600401612164906161f0565b60405180910390fd5b61217681611b47565b50565b600061016d6202a30061218c919061661a565b67ffffffffffffffff164311156121d2576121cb61016d6202a3006121b1919061661a565b67ffffffffffffffff16436121c6919061665c565b6121e2565b90506121df565b6121dc60006121e2565b90505b90565b600080600090506000806040518060800160405280600a60000160089054906101000a900467ffffffffffffffff1667ffffffffffffffff168152602001612228613981565b67ffffffffffffffff168152602001600a60000160009054906101000a900467ffffffffffffffff1667ffffffffffffffff16815260200161227f600a60010154612271614625565b61427c90919063ffffffff16565b815250905061229f61229082614649565b84613b2590919063ffffffff16565b92506001826122ae91906164fb565b91506000600780549050905060008114156122cf578394505050505061245f565b60005b818110156124445760006007600183856122ec919061665c565b6122f6919061665c565b8154811061232d577f4e487b7100000000000000000000000000000000000000000000000000000000600052603260045260246000fd5b90600052602060002090600202016040518060800160405290816000820160009054906101000a900467ffffffffffffffff1667ffffffffffffffff1667ffffffffffffffff1681526020016000820160089054906101000a900467ffffffffffffffff1667ffffffffffffffff1667ffffffffffffffff1681526020016000820160109054906101000a900467ffffffffffffffff1667ffffffffffffffff1667ffffffffffffffff168152602001600182015481525050905087816020015167ffffffffffffffff1610156124045750612444565b61241f61241082614649565b87613b2590919063ffffffff16565b955060018561242e91906164fb565b945050808061243c90616813565b9150506122d2565b50612458838561474d90919063ffffffff16565b9450505050505b919050565b600360009054906101000a900473ffffffffffffffffffffffffffffffffffffffff1673ffffffffffffffffffffffffffffffffffffffff163373ffffffffffffffffffffffffffffffffffffffff16146124f4576040517f08c379a00000000000000000000000000000000000000000000000000000000081526004016124eb90616110565b60405180910390fd5b670de0b6b3a76400008161250891906165c0565b60028190555050565b600360009054906101000a900473ffffffffffffffffffffffffffffffffffffffff1673ffffffffffffffffffffffffffffffffffffffff163373ffffffffffffffffffffffffffffffffffffffff16146125a1576040517f08c379a000000000000000000000000000000000000000000000000000000000815260040161259890616110565b60405180910390fd5b60008163ffffffff161180156125c5575061271063ffffffff168163ffffffff1611155b612604576040517f08c379a00000000000000000000000000000000000000000000000000000000081526004016125fb906161b0565b60405180910390fd5b806000806101000a81548163ffffffff021916908363ffffffff1602179055507fe58e62b1b669eb56125ef85ed8b558f033d9cc249825f9fb35742df12acd3e7c81604051612653919061633d565b60405180910390a150565b60606126b38383600e60008873ffffffffffffffffffffffffffffffffffffffff1673ffffffffffffffffffffffffffffffffffffffff16815260200190815260200160002061431d9092919063ffffffff16565b90509392505050565b600060059054906101000a900467ffffffffffffffff1681565b600060049054906101000a900460ff16612725576040517f08c379a000000000000000000000000000000000000000000000000000000000815260040161271c90616170565b60405180910390fd5b61276c600e60003373ffffffffffffffffffffffffffffffffffffffff1673ffffffffffffffffffffffffffffffffffffffff168152602001908152602001600020613d78565b600d60003373ffffffffffffffffffffffffffffffffffffffff1673ffffffffffffffffffffffffffffffffffffffff16815260200190815260200160002060000160108282829054906101000a900467ffffffffffffffff166127d09190616551565b92506101000a81548167ffffffffffffffff021916908367ffffffffffffffff1602179055508067ffffffffffffffff16600d60003373ffffffffffffffffffffffffffffffffffffffff1673ffffffffffffffffffffffffffffffffffffffff16815260200190815260200160002060000160109054906101000a900467ffffffffffffffff1667ffffffffffffffff1610156128a3576040517f08c379a000000000000000000000000000000000000000000000000000000000815260040161289a90616190565b60405180910390fd5b6128ac81611e4c565b3373ffffffffffffffffffffffffffffffffffffffff167f73395a3e5d14942cd04b55cee3e03536007f34202bbdfb9c3221e88a90b93ede826040516128f29190616358565b60405180910390a280600460000160008282829054906101000a900467ffffffffffffffff1661292291906166c4565b92506101000a81548167ffffffffffffffff021916908367ffffffffffffffff16021790555080600d60003373ffffffffffffffffffffffffffffffffffffffff1673ffffffffffffffffffffffffffffffffffffffff16815260200190815260200160002060000160088282829054906101000a900467ffffffffffffffff166129ad91906166c4565b92506101000a81548167ffffffffffffffff021916908367ffffffffffffffff16021790555080600d60003373ffffffffffffffffffffffffffffffffffffffff1673ffffffffffffffffffffffffffffffffffffffff16815260200190815260200160002060000160108282829054906101000a900467ffffffffffffffff16612a3891906166c4565b92506101000a81548167ffffffffffffffff021916908367ffffffffffffffff160217905550612aff60405180604001604052808367ffffffffffffffff168152602001600060059054906101000a900467ffffffffffffffff16612a9b613981565b612aa59190616551565b67ffffffffffffffff16815250600f60003373ffffffffffffffffffffffffffffffffffffffff1673ffffffffffffffffffffffffffffffffffffffff16815260200190815260200160002061398990919063ffffffff16565b612b07613a65565b612b0f613a77565b50565b60008060009050612b34612b2584614763565b82613b2590919063ffffffff16565b9050612b51612b4284614cb6565b82613b2590919063ffffffff16565b9050612ba8600d60008573ffffffffffffffffffffffffffffffffffffffff1673ffffffffffffffffffffffffffffffffffffffff1681526020019081526020016000206002015482613b2590919063ffffffff16565b915050919050565b600073088800000000000000000000000000000000000573ffffffffffffffffffffffffffffffffffffffff16636a06ea96836040518263ffffffff1660e01b8152600401612bff9190615fcf565b60206040518083038186803b158015612c1757600080fd5b505afa158015612c2b573d6000803e3d6000fd5b505050506040513d601f19601f82011682018060405250810190612c4f9190615932565b9050919050565b600060049054906101000a900460ff16612ca5576040517f08c379a0000000000000000000000000000000000000000000000000000000008152600401612c9c90616170565b60405180910390fd5b6064811115612ce9576040517f08c379a0000000000000000000000000000000000000000000000000000000008152600401612ce090616130565b60405180910390fd5b6000600860003373ffffffffffffffffffffffffffffffffffffffff1673ffffffffffffffffffffffffffffffffffffffff16815260200190815260200160002090506000818054905011612d73576040517f08c379a0000000000000000000000000000000000000000000000000000000008152600401612d6a90616210565b60405180910390fd5b8181805490501015612d8757808054905091505b6000805b8381101561316c576000836001838680549050612da8919061665c565b612db2919061665c565b81548110612de9577f4e487b7100000000000000000000000000000000000000000000000000000000600052603260045260246000fd5b906000526020600020016040518060600160405290816000820160009054906101000a900467ffffffffffffffff1667ffffffffffffffff1667ffffffffffffffff1681526020016000820160089054906101000a900467ffffffffffffffff1667ffffffffffffffff1667ffffffffffffffff1681526020016000820160109054906101000a900467ffffffffffffffff1667ffffffffffffffff1667ffffffffffffffff168152505090506000612eaf826000015167ffffffffffffffff16613a89565b905060008190505b6007805490508167ffffffffffffffff1610156130b957826020015167ffffffffffffffff1660078267ffffffffffffffff1681548110612f21577f4e487b7100000000000000000000000000000000000000000000000000000000600052603260045260246000fd5b906000526020600020906002020160000160009054906101000a900467ffffffffffffffff1667ffffffffffffffff1610612f5b576130b9565b600060078267ffffffffffffffff1681548110612fa1577f4e487b7100000000000000000000000000000000000000000000000000000000600052603260045260246000fd5b9060005260206000209060020201600101541415612fbe576130a6565b600061308d60078367ffffffffffffffff1681548110613007577f4e487b7100000000000000000000000000000000000000000000000000000000600052603260045260246000fd5b906000526020600020906002020160010154856040015160078567ffffffffffffffff1681548110613062577f4e487b7100000000000000000000000000000000000000000000000000000000600052603260045260246000fd5b906000526020600020906002020160000160109054906101000a900467ffffffffffffffff16613aa6565b90506130a28187613b2590919063ffffffff16565b9550505b80806130b190616889565b915050612eb7565b50848054806130f1577f4e487b7100000000000000000000000000000000000000000000000000000000600052603160045260246000fd5b60019003818190600052602060002001600080820160006101000a81549067ffffffffffffffff02191690556000820160086101000a81549067ffffffffffffffff02191690556000820160106101000a81549067ffffffffffffffff0219169055505090555050808061316490616813565b915050612d8b565b506131c281600d60003373ffffffffffffffffffffffffffffffffffffffff1673ffffffffffffffffffffffffffffffffffffffff16815260200190815260200160002060020154613b2590919063ffffffff16565b600d60003373ffffffffffffffffffffffffffffffffffffffff1673ffffffffffffffffffffffffffffffffffffffff16815260200190815260200160002060020181905550505050565b6060613256600e60008473ffffffffffffffffffffffffffffffffffffffff1673ffffffffffffffffffffffffffffffffffffffff168152602001908152602001600020613b3b565b9050919050565b600360009054906101000a900473ffffffffffffffffffffffffffffffffffffffff1673ffffffffffffffffffffffffffffffffffffffff163373ffffffffffffffffffffffffffffffffffffffff16146132ed576040517f08c379a00000000000000000000000000000000000000000000000000000000081526004016132e490616110565b60405180910390fd5b600060049054906101000a900460ff161561333d576040517f08c379a000000000000000000000000000000000000000000000000000000000815260040161333490616230565b60405180910390fd5b60018667ffffffffffffffff161461338a576040517f08c379a000000000000000000000000000000000000000000000000000000000815260040161338190616270565b60405180910390fd5b6002548667ffffffffffffffff166133a291906165c0565b34146133e3576040517f08c379a00000000000000000000000000000000000000000000000000000000081526004016133da906160f0565b60405180910390fd5b6133ec346138ff565b6133fb8787878787878761203a565b6001600060046101000a81548160ff02191690831515021790555085600460000160008282829054906101000a900467ffffffffffffffff1661343e9190616551565b92506101000a81548167ffffffffffffffff021916908367ffffffffffffffff16021790555085600d60003373ffffffffffffffffffffffffffffffffffffffff1673ffffffffffffffffffffffffffffffffffffffff16815260200190815260200160002060000160008282829054906101000a900467ffffffffffffffff166134c99190616551565b92506101000a81548167ffffffffffffffff021916908367ffffffffffffffff16021790555085600d60003373ffffffffffffffffffffffffffffffffffffffff1673ffffffffffffffffffffffffffffffffffffffff16815260200190815260200160002060000160088282829054906101000a900467ffffffffffffffff166135549190616551565b92506101000a81548167ffffffffffffffff021916908367ffffffffffffffff16021790555085600d60003373ffffffffffffffffffffffffffffffffffffffff1673ffffffffffffffffffffffffffffffffffffffff16815260200190815260200160002060000160108282829054906101000a900467ffffffffffffffff166135df9190616551565b92506101000a81548167ffffffffffffffff021916908367ffffffffffffffff16021790555061360d614fd0565b613615614292565b50505050505050565b61362661563a565b6000600d60008473ffffffffffffffffffffffffffffffffffffffff1673ffffffffffffffffffffffffffffffffffffffff1681526020019081526020016000206040518060c00160405290816000820160009054906101000a900467ffffffffffffffff1667ffffffffffffffff1667ffffffffffffffff1681526020016000820160089054906101000a900467ffffffffffffffff1667ffffffffffffffff1667ffffffffffffffff1681526020016000820160109054906101000a900467ffffffffffffffff1667ffffffffffffffff1667ffffffffffffffff1681526020016000820160189054906101000a900467ffffffffffffffff1667ffffffffffffffff1667ffffffffffffffff168152602001600182015481526020016002820154815250509050613797600e60008573ffffffffffffffffffffffffffffffffffffffff1673ffffffffffffffffffffffffffffffffffffffff168152602001908152602001600020615101565b816040018181516137a89190616551565b91509067ffffffffffffffff16908167ffffffffffffffff168152505061380c600f60008573ffffffffffffffffffffffffffffffffffffffff1673ffffffffffffffffffffffffffffffffffffffff168152602001908152602001600020615101565b8160600181815161381d9190616551565b91509067ffffffffffffffff16908167ffffffffffffffff168152505080915050919050565b600360009054906101000a900473ffffffffffffffffffffffffffffffffffffffff1673ffffffffffffffffffffffffffffffffffffffff163373ffffffffffffffffffffffffffffffffffffffff16146138d3576040517f08c379a00000000000000000000000000000000000000000000000000000000081526004016138ca90616110565b60405180910390fd5b80600060056101000a81548167ffffffffffffffff021916908367ffffffffffffffff16021790555050565b73088800000000000000000000000000000000000273ffffffffffffffffffffffffffffffffffffffff1663b6b55f25826040518263ffffffff1660e01b815260040161394c91906162eb565b600060405180830381600087803b15801561396657600080fd5b505af115801561397a573d6000803e3d6000fd5b5050505050565b600043905090565b8082600101600084600001600881819054906101000a900467ffffffffffffffff16809291906139b890616889565b91906101000a81548167ffffffffffffffff021916908367ffffffffffffffff16021790555067ffffffffffffffff1667ffffffffffffffff16815260200190815260200160002060008201518160000160006101000a81548167ffffffffffffffff021916908367ffffffffffffffff16021790555060208201518160000160086101000a81548167ffffffffffffffff021916908367ffffffffffffffff1602179055509050505050565b613a6d61521c565b613a75614fd0565b565b613a7f613e9d565b613a87614292565b565b600060096000838152602001908152602001600020549050919050565b6000613b1c61271063ffffffff1683613abf919061661a565b67ffffffffffffffff16613b0e60008054906101000a900463ffffffff1663ffffffff16613b008767ffffffffffffffff168961542a90919063ffffffff16565b61542a90919063ffffffff16565b61474d90919063ffffffff16565b90509392505050565b60008183613b3391906164fb565b905092915050565b606060008260000160009054906101000a900467ffffffffffffffff168360000160089054906101000a900467ffffffffffffffff16613b7b91906166c4565b67ffffffffffffffff1667ffffffffffffffff811115613bc4577f4e487b7100000000000000000000000000000000000000000000000000000000600052604160045260246000fd5b604051908082528060200260200182016040528015613bfd57816020015b613bea615698565b815260200190600190039081613be25790505b50905060008360000160009054906101000a900467ffffffffffffffff1690505b8360000160089054906101000a900467ffffffffffffffff1667ffffffffffffffff168167ffffffffffffffff161015613d6e578360010160008267ffffffffffffffff1667ffffffffffffffff1681526020019081526020016000206040518060400160405290816000820160009054906101000a900467ffffffffffffffff1667ffffffffffffffff1667ffffffffffffffff1681526020016000820160089054906101000a900467ffffffffffffffff1667ffffffffffffffff1667ffffffffffffffff1681525050828560000160009054906101000a900467ffffffffffffffff1683613d0f91906166c4565b67ffffffffffffffff1681518110613d50577f4e487b7100000000000000000000000000000000000000000000000000000000600052603260045260246000fd5b60200260200101819052508080613d6690616889565b915050613c1e565b5080915050919050565b6000806000905060008360000160009054906101000a900467ffffffffffffffff1690505b8360000160089054906101000a900467ffffffffffffffff1667ffffffffffffffff168167ffffffffffffffff161015613e9357438460010160008367ffffffffffffffff1667ffffffffffffffff16815260200190815260200160002060000160089054906101000a900467ffffffffffffffff1667ffffffffffffffff161115613e2857613e93565b8360010160008267ffffffffffffffff1667ffffffffffffffff16815260200190815260200160002060000160009054906101000a900467ffffffffffffffff1682613e749190616551565b9150613e7f84615440565b508080613e8b90616889565b915050613d9d565b5080915050919050565b600a60010154613eab614625565b1015613efe57600a60010154613ebf614625565b436040517fd714a6e0000000000000000000000000000000000000000000000000000000008152600401613ef593929190616306565b60405180910390fd5b60078054905060096000600a60000160089054906101000a900467ffffffffffffffff1667ffffffffffffffff168152602001908152602001600020819055506000613f5f600a60010154613f51614625565b61427c90919063ffffffff16565b905060076040518060800160405280600a60000160089054906101000a900467ffffffffffffffff1667ffffffffffffffff168152602001613f9f613981565b67ffffffffffffffff168152602001600a60000160009054906101000a900467ffffffffffffffff1667ffffffffffffffff16815260200183815250908060018154018082558091505060019003906000526020600020906002020160009091909190915060008201518160000160006101000a81548167ffffffffffffffff021916908367ffffffffffffffff16021790555060208201518160000160086101000a81548167ffffffffffffffff021916908367ffffffffffffffff16021790555060408201518160000160106101000a81548167ffffffffffffffff021916908367ffffffffffffffff16021790555060608201518160010155505060006140ef61271063ffffffff166140e160008054906101000a900463ffffffff166127106140cc9190616690565b63ffffffff168561542a90919063ffffffff16565b61474d90919063ffffffff16565b905061410981600460010154613b2590919063ffffffff16565b60046001018190555061412a82600460020154613b2590919063ffffffff16565b6004600201819055505050565b600060049054906101000a900460ff16614186576040517f08c379a000000000000000000000000000000000000000000000000000000000815260040161417d90616170565b60405180910390fd5b600061419133614763565b90506141e881600d60003373ffffffffffffffffffffffffffffffffffffffff1673ffffffffffffffffffffffffffffffffffffffff16815260200190815260200160002060020154613b2590919063ffffffff16565b600d60003373ffffffffffffffffffffffffffffffffffffffff1673ffffffffffffffffffffffffffffffffffffffff16815260200190815260200160002060020181905550600860003373ffffffffffffffffffffffffffffffffffffffff1673ffffffffffffffffffffffffffffffffffffffff168152602001908152602001600020600061427991906156c6565b50565b6000818361428a919061665c565b905092915050565b600460000160009054906101000a900467ffffffffffffffff16600a60000160006101000a81548167ffffffffffffffff021916908367ffffffffffffffff1602179055506142df613981565b600a60000160086101000a81548167ffffffffffffffff021916908367ffffffffffffffff160217905550614312614625565b600a60010181905550565b60606000838560000160009054906101000a900467ffffffffffffffff166143459190616551565b90508460000160089054906101000a900467ffffffffffffffff1667ffffffffffffffff168167ffffffffffffffff16106143fd57600067ffffffffffffffff8111156143bb577f4e487b7100000000000000000000000000000000000000000000000000000000600052604160045260246000fd5b6040519080825280602002602001820160405280156143f457816020015b6143e1615698565b8152602001906001900390816143d95790505b5091505061461e565b6000838261440b9190616551565b67ffffffffffffffff1690508560000160089054906101000a900467ffffffffffffffff1667ffffffffffffffff16811115614467578560000160089054906101000a900467ffffffffffffffff1667ffffffffffffffff1690505b60008267ffffffffffffffff168261447f919061665c565b67ffffffffffffffff8111156144be577f4e487b7100000000000000000000000000000000000000000000000000000000600052604160045260246000fd5b6040519080825280602002602001820160405280156144f757816020015b6144e4615698565b8152602001906001900390816144dc5790505b50905060008390505b828167ffffffffffffffff161015614616578760010160008267ffffffffffffffff1667ffffffffffffffff1681526020019081526020016000206040518060400160405290816000820160009054906101000a900467ffffffffffffffff1667ffffffffffffffff1667ffffffffffffffff1681526020016000820160089054906101000a900467ffffffffffffffff1667ffffffffffffffff1667ffffffffffffffff16815250508285836145b791906166c4565b67ffffffffffffffff16815181106145f8577f4e487b7100000000000000000000000000000000000000000000000000000000600052603260045260246000fd5b6020026020010181905250808061460e90616889565b915050614500565b508093505050505b9392505050565b6000803090508073ffffffffffffffffffffffffffffffffffffffff163191505090565b6000808260000151836020015161466091906166c4565b67ffffffffffffffff16905060008360600151148061467f5750600081145b8061469857506000836040015167ffffffffffffffff16145b156146a7576000915050614748565b60006146cc600254856040015167ffffffffffffffff1661542a90919063ffffffff16565b9050600061473f836147318461472361016d6202a3006146ec919061661a565b67ffffffffffffffff1661471561271063ffffffff168c6060015161542a90919063ffffffff16565b61542a90919063ffffffff16565b61474d90919063ffffffff16565b61474d90919063ffffffff16565b90508093505050505b919050565b6000818361475b919061658f565b905092915050565b600080600090506000600860008573ffffffffffffffffffffffffffffffffffffffff1673ffffffffffffffffffffffffffffffffffffffff168152602001908152602001600020805480602002602001604051908101604052809291908181526020016000905b8282101561488f578382906000526020600020016040518060600160405290816000820160009054906101000a900467ffffffffffffffff1667ffffffffffffffff1667ffffffffffffffff1681526020016000820160089054906101000a900467ffffffffffffffff1667ffffffffffffffff1667ffffffffffffffff1681526020016000820160109054906101000a900467ffffffffffffffff1667ffffffffffffffff1667ffffffffffffffff1681525050815260200190600101906147cb565b5050505090506000815114156148a9578192505050614cb1565b6000614903826000815181106148e8577f4e487b7100000000000000000000000000000000000000000000000000000000600052603260045260246000fd5b60200260200101516000015167ffffffffffffffff16613a89565b905060008190505b6007805490508167ffffffffffffffff161015614ca957600060078267ffffffffffffffff1681548110614968577f4e487b7100000000000000000000000000000000000000000000000000000000600052603260045260246000fd5b90600052602060002090600202016040518060800160405290816000820160009054906101000a900467ffffffffffffffff1667ffffffffffffffff1667ffffffffffffffff1681526020016000820160089054906101000a900467ffffffffffffffff1667ffffffffffffffff1667ffffffffffffffff1681526020016000820160109054906101000a900467ffffffffffffffff1667ffffffffffffffff1667ffffffffffffffff1681526020016001820154815250509050600081606001511415614a365750614c96565b60005b84518163ffffffff161015614c9357816020015167ffffffffffffffff16858263ffffffff1681518110614a96577f4e487b7100000000000000000000000000000000000000000000000000000000600052603260045260246000fd5b60200260200101516000015167ffffffffffffffff1610614ab657614c93565b816000015167ffffffffffffffff16858263ffffffff1681518110614b04577f4e487b7100000000000000000000000000000000000000000000000000000000600052603260045260246000fd5b60200260200101516020015167ffffffffffffffff1611614b2457614c80565b6000826000015167ffffffffffffffff16868363ffffffff1681518110614b74577f4e487b7100000000000000000000000000000000000000000000000000000000600052603260045260246000fd5b60200260200101516000015167ffffffffffffffff1611158015614bfa5750826020015167ffffffffffffffff16868363ffffffff1681518110614be1577f4e487b7100000000000000000000000000000000000000000000000000000000600052603260045260246000fd5b60200260200101516020015167ffffffffffffffff1610155b905080614c075750614c80565b6000614c668460600151888563ffffffff1681518110614c50577f4e487b7100000000000000000000000000000000000000000000000000000000600052603260045260246000fd5b6020026020010151604001518660400151613aa6565b9050614c7b8189613b2590919063ffffffff16565b975050505b8080614c8b9061685c565b915050614a39565b50505b8080614ca190616889565b91505061490b565b508293505050505b919050565b600080600090506000600c60008573ffffffffffffffffffffffffffffffffffffffff1673ffffffffffffffffffffffffffffffffffffffff1681526020019081526020016000206040518060400160405290816000820160009054906101000a900467ffffffffffffffff1667ffffffffffffffff1667ffffffffffffffff1681526020016000820160089054906101000a900467ffffffffffffffff1667ffffffffffffffff1667ffffffffffffffff16815250509050600a60000160089054906101000a900467ffffffffffffffff1667ffffffffffffffff16816020015167ffffffffffffffff1611158015614dbb5750600a60010154614db9614625565b115b15614e27576000614de1600a60010154614dd3614625565b61427c90919063ffffffff16565b90506000614e0d828460000151600a60000160009054906101000a900467ffffffffffffffff16613aa6565b9050614e228185613b2590919063ffffffff16565b935050505b6000614e40826020015167ffffffffffffffff16613a89565b905060008167ffffffffffffffff161415614e6057829350505050614fcb565b60008190505b6007805490508167ffffffffffffffff161015614fc357600060078267ffffffffffffffff1681548110614ec3577f4e487b7100000000000000000000000000000000000000000000000000000000600052603260045260246000fd5b90600052602060002090600202016040518060800160405290816000820160009054906101000a900467ffffffffffffffff1667ffffffffffffffff1667ffffffffffffffff1681526020016000820160089054906101000a900467ffffffffffffffff1667ffffffffffffffff1667ffffffffffffffff1681526020016000820160109054906101000a900467ffffffffffffffff1667ffffffffffffffff1667ffffffffffffffff16815260200160018201548152505090506000614f97826060015186600001518460400151613aa6565b9050614fac8187613b2590919063ffffffff16565b955050508080614fbb90616889565b915050614e66565b508293505050505b919050565b600d60003373ffffffffffffffffffffffffffffffffffffffff1673ffffffffffffffffffffffffffffffffffffffff16815260200190815260200160002060000160089054906101000a900467ffffffffffffffff16600c60003373ffffffffffffffffffffffffffffffffffffffff1673ffffffffffffffffffffffffffffffffffffffff16815260200190815260200160002060000160006101000a81548167ffffffffffffffff021916908367ffffffffffffffff160217905550615097613981565b600c60003373ffffffffffffffffffffffffffffffffffffffff1673ffffffffffffffffffffffffffffffffffffffff16815260200190815260200160002060000160086101000a81548167ffffffffffffffff021916908367ffffffffffffffff160217905550565b6000806000905060008360000160009054906101000a900467ffffffffffffffff1690505b8360000160089054906101000a900467ffffffffffffffff1667ffffffffffffffff168167ffffffffffffffff16101561521257438460010160008367ffffffffffffffff1667ffffffffffffffff16815260200190815260200160002060000160089054906101000a900467ffffffffffffffff1667ffffffffffffffff1611156151b157615212565b8360010160008267ffffffffffffffff1667ffffffffffffffff16815260200190815260200160002060000160009054906101000a900467ffffffffffffffff16826151fd9190616551565b9150808061520a90616889565b915050615126565b5080915050919050565b6000600c60003373ffffffffffffffffffffffffffffffffffffffff1673ffffffffffffffffffffffffffffffffffffffff1681526020019081526020016000206040518060400160405290816000820160009054906101000a900467ffffffffffffffff1667ffffffffffffffff1667ffffffffffffffff1681526020016000820160089054906101000a900467ffffffffffffffff1667ffffffffffffffff1667ffffffffffffffff168152505090506000816000015167ffffffffffffffff1614156152eb5750615428565b600860003373ffffffffffffffffffffffffffffffffffffffff1673ffffffffffffffffffffffffffffffffffffffff1681526020019081526020016000206040518060600160405280836020015167ffffffffffffffff168152602001615351613981565b67ffffffffffffffff168152602001836000015167ffffffffffffffff168152509080600181540180825580915050600190039060005260206000200160009091909190915060008201518160000160006101000a81548167ffffffffffffffff021916908367ffffffffffffffff16021790555060208201518160000160086101000a81548167ffffffffffffffff021916908367ffffffffffffffff16021790555060408201518160000160106101000a81548167ffffffffffffffff021916908367ffffffffffffffff1602179055505050505b565b6000818361543891906165c0565b905092915050565b615448615698565b60008260010160008460000160009054906101000a900467ffffffffffffffff1667ffffffffffffffff1667ffffffffffffffff1681526020019081526020016000206040518060400160405290816000820160009054906101000a900467ffffffffffffffff1667ffffffffffffffff1667ffffffffffffffff1681526020016000820160089054906101000a900467ffffffffffffffff1667ffffffffffffffff1667ffffffffffffffff1681525050905082600101600084600001600081819054906101000a900467ffffffffffffffff168092919061552a90616889565b91906101000a81548167ffffffffffffffff021916908367ffffffffffffffff16021790555067ffffffffffffffff1667ffffffffffffffff168152602001908152602001600020600080820160006101000a81549067ffffffffffffffff02191690556000820160086101000a81549067ffffffffffffffff0219169055505080915050919050565b8280546155c0906167b0565b90600052602060002090601f0160209004810192826155e25760008555615629565b82601f106155fb57805160ff1916838001178555615629565b82800160010185558215615629579182015b8281111561562857825182559160200191906001019061560d565b5b50905061563691906156e7565b5090565b6040518060c00160405280600067ffffffffffffffff168152602001600067ffffffffffffffff168152602001600067ffffffffffffffff168152602001600067ffffffffffffffff16815260200160008152602001600081525090565b6040518060400160405280600067ffffffffffffffff168152602001600067ffffffffffffffff1681525090565b50805460008255906000526020600020908101906156e49190615704565b50565b5b808211156157005760008160009055506001016156e8565b5090565b5b8082111561576857600080820160006101000a81549067ffffffffffffffff02191690556000820160086101000a81549067ffffffffffffffff02191690556000820160106101000a81549067ffffffffffffffff021916905550600101615705565b5090565b600061577f61577a846163cf565b6163aa565b90508281526020810184848401111561579757600080fd5b6157a284828561676e565b509392505050565b6000813590506157b981616c3d565b92915050565b6000819050826020600202820111156157d757600080fd5b92915050565b6000813590506157ec81616c54565b92915050565b60008151905061580181616c54565b92915050565b60008083601f84011261581957600080fd5b8235905067ffffffffffffffff81111561583257600080fd5b60208301915083600182028301111561584a57600080fd5b9250929050565b600082601f83011261586257600080fd5b813561587284826020860161576c565b91505092915050565b60008135905061588a81616c6b565b92915050565b60008135905061589f81616c82565b92915050565b6000813590506158b481616c99565b92915050565b6000602082840312156158cc57600080fd5b60006158da848285016157aa565b91505092915050565b6000806000606084860312156158f857600080fd5b6000615906868287016157aa565b9350506020615917868287016158a5565b9250506040615928868287016158a5565b9150509250925092565b60006020828403121561594457600080fd5b6000615952848285016157f2565b91505092915050565b600080600080600080600060a0888a03121561597657600080fd5b60006159848a828b016157dd565b97505060206159958a828b016158a5565b965050604088013567ffffffffffffffff8111156159b257600080fd5b6159be8a828b01615807565b9550955050606088013567ffffffffffffffff8111156159dd57600080fd5b6159e98a828b01615807565b9350935050608088013567ffffffffffffffff811115615a0857600080fd5b615a148a828b016157bf565b91505092959891949750929550565b600060208284031215615a3557600080fd5b600082013567ffffffffffffffff811115615a4f57600080fd5b615a5b84828501615851565b91505092915050565b600060208284031215615a7657600080fd5b6000615a848482850161587b565b91505092915050565b600060208284031215615a9f57600080fd5b6000615aad84828501615890565b91505092915050565b600060208284031215615ac857600080fd5b6000615ad6848285016158a5565b91505092915050565b6000615aec848484615c17565b90509392505050565b6000615b018383615eda565b60408301905092915050565b615b16816166f8565b82525050565b6000615b278261641a565b615b318185616455565b935083602082028501615b4385616400565b8060005b85811015615b89578484038952615b5e82846164a4565b615b69868284615adf565b9550615b748461643b565b935060208b019a505050600181019050615b47565b50829750879550505050505092915050565b6000615ba682616425565b615bb08185616460565b9350615bbb8361640a565b8060005b83811015615bec578151615bd38882615af5565b9750615bde83616448565b925050600181019050615bbf565b5085935050505092915050565b615c028161670a565b82525050565b615c1181616716565b82525050565b6000615c238385616471565b9350615c3083858461676e565b615c3983616976565b840190509392505050565b6000615c508385616482565b9350615c5d83858461676e565b615c6683616976565b840190509392505050565b6000615c7c82616430565b615c868185616493565b9350615c9681856020860161677d565b615c9f81616976565b840191505092915050565b6000615cb7602a83616493565b9150615cc282616987565b604082019050919050565b6000615cda601c83616493565b9150615ce5826169d6565b602082019050919050565b6000615cfd601b83616493565b9150615d08826169ff565b602082019050919050565b6000615d20601883616493565b9150615d2b82616a28565b602082019050919050565b6000615d43601083616493565b9150615d4e82616a51565b602082019050919050565b6000615d66601483616493565b9150615d7182616a7a565b602082019050919050565b6000615d89601483616493565b9150615d9482616aa3565b602082019050919050565b6000615dac601783616493565b9150615db782616acc565b602082019050919050565b6000615dcf601683616493565b9150615dda82616af5565b602082019050919050565b6000615df2601583616493565b9150615dfd82616b1e565b602082019050919050565b6000615e15600b83616493565b9150615e2082616b47565b602082019050919050565b6000615e38601883616493565b9150615e4382616b70565b602082019050919050565b6000615e5b601583616493565b9150615e6682616b99565b602082019050919050565b6000615e7e601583616493565b9150615e8982616bc2565b602082019050919050565b6000615ea1601383616493565b9150615eac82616beb565b602082019050919050565b6000615ec4601683616493565b9150615ecf82616c14565b602082019050919050565b604082016000820151615ef06000850182615fb1565b506020820151615f036020850182615fb1565b50505050565b60c082016000820151615f1f6000850182615fb1565b506020820151615f326020850182615fb1565b506040820151615f456040850182615fb1565b506060820151615f586060850182615fb1565b506080820151615f6b6080850182615f84565b5060a0820151615f7e60a0850182615f84565b50505050565b615f8d81616740565b82525050565b615f9c81616740565b82525050565b615fab8161674a565b82525050565b615fba8161675a565b82525050565b615fc98161675a565b82525050565b6000602082019050615fe46000830184615b0d565b92915050565b600060208201905081810360008301526160048184615b9b565b905092915050565b60006020820190506160216000830184615bf9565b92915050565b600060208201905061603c6000830184615c08565b92915050565b600060a082019050616057600083018a615c08565b6160646020830189615fc0565b8181036040830152616077818789615c44565b9050818103606083015261608c818587615c44565b905081810360808301526160a08184615b1c565b905098975050505050505050565b600060208201905081810360008301526160c88184615c71565b905092915050565b600060208201905081810360008301526160e981615caa565b9050919050565b6000602082019050818103600083015261610981615ccd565b9050919050565b6000602082019050818103600083015261612981615cf0565b9050919050565b6000602082019050818103600083015261614981615d13565b9050919050565b6000602082019050818103600083015261616981615d36565b9050919050565b6000602082019050818103600083015261618981615d59565b9050919050565b600060208201905081810360008301526161a981615d7c565b9050919050565b600060208201905081810360008301526161c981615d9f565b9050919050565b600060208201905081810360008301526161e981615dc2565b9050919050565b6000602082019050818103600083015261620981615de5565b9050919050565b6000602082019050818103600083015261622981615e08565b9050919050565b6000602082019050818103600083015261624981615e2b565b9050919050565b6000602082019050818103600083015261626981615e4e565b9050919050565b6000602082019050818103600083015261628981615e71565b9050919050565b600060208201905081810360008301526162a981615e94565b9050919050565b600060208201905081810360008301526162c981615eb7565b9050919050565b600060c0820190506162e56000830184615f09565b92915050565b60006020820190506163006000830184615f93565b92915050565b600060608201905061631b6000830186615f93565b6163286020830185615f93565b6163356040830184615f93565b949350505050565b60006020820190506163526000830184615fa2565b92915050565b600060208201905061636d6000830184615fc0565b92915050565b60006060820190506163886000830186615fc0565b6163956020830185615f93565b6163a26040830184615f93565b949350505050565b60006163b46163c5565b90506163c082826167e2565b919050565b6000604051905090565b600067ffffffffffffffff8211156163ea576163e9616947565b5b6163f382616976565b9050602081019050919050565b6000819050919050565b6000819050602082019050919050565b600060029050919050565b600081519050919050565b600081519050919050565b6000602082019050919050565b6000602082019050919050565b600081905092915050565b600082825260208201905092915050565b600082825260208201905092915050565b600082825260208201905092915050565b600082825260208201905092915050565b600080833560016020038436030381126164bd57600080fd5b83810192508235915060208301925067ffffffffffffffff8211156164e157600080fd5b6001820236038413156164f357600080fd5b509250929050565b600061650682616740565b915061651183616740565b9250827fffffffffffffffffffffffffffffffffffffffffffffffffffffffffffffffff03821115616546576165456168ba565b5b828201905092915050565b600061655c8261675a565b91506165678361675a565b92508267ffffffffffffffff03821115616584576165836168ba565b5b828201905092915050565b600061659a82616740565b91506165a583616740565b9250826165b5576165b46168e9565b5b828204905092915050565b60006165cb82616740565b91506165d683616740565b9250817fffffffffffffffffffffffffffffffffffffffffffffffffffffffffffffffff048311821515161561660f5761660e6168ba565b5b828202905092915050565b60006166258261675a565b91506166308361675a565b92508167ffffffffffffffff0483118215151615616651576166506168ba565b5b828202905092915050565b600061666782616740565b915061667283616740565b925082821015616685576166846168ba565b5b828203905092915050565b600061669b8261674a565b91506166a68361674a565b9250828210156166b9576166b86168ba565b5b828203905092915050565b60006166cf8261675a565b91506166da8361675a565b9250828210156166ed576166ec6168ba565b5b828203905092915050565b600061670382616720565b9050919050565b60008115159050919050565b6000819050919050565b600073ffffffffffffffffffffffffffffffffffffffff82169050919050565b6000819050919050565b600063ffffffff82169050919050565b600067ffffffffffffffff82169050919050565b82818337600083830152505050565b60005b8381101561679b578082015181840152602081019050616780565b838111156167aa576000848401525b50505050565b600060028204905060018216806167c857607f821691505b602082108114156167dc576167db616918565b5b50919050565b6167eb82616976565b810181811067ffffffffffffffff8211171561680a57616809616947565b5b80604052505050565b600061681e82616740565b91507fffffffffffffffffffffffffffffffffffffffffffffffffffffffffffffffff821415616851576168506168ba565b5b600182019050919050565b60006168678261674a565b915063ffffffff82141561687e5761687d6168ba565b5b600182019050919050565b60006168948261675a565b915067ffffffffffffffff8214156168af576168ae6168ba565b5b600182019050919050565b7f4e487b7100000000000000000000000000000000000000000000000000000000600052601160045260246000fd5b7f4e487b7100000000000000000000000000000000000000000000000000000000600052601260045260246000fd5b7f4e487b7100000000000000000000000000000000000000000000000000000000600052602260045260246000fd5b7f4e487b7100000000000000000000000000000000000000000000000000000000600052604160045260246000fd5b6000601f19601f8301169050919050565b7f6d73672e76616c75652073686f756c6420626520766f7465506f776572202a2060008201527f3130303020657468657200000000000000000000000000000000000000000000602082015250565b7f6d73672e76616c75652073686f756c6420626520313030302043465800000000600082015250565b7f4f6e6c7920706f6f6c2061646d696e2063616e20646f20746869730000000000600082015250565b7f4d61782073656374696f6e20636f756e74206973203130300000000000000000600082015250565b7f4e6f206e657720757365722073686f7400000000000000000000000000000000600082015250565b7f506f6f6c206973206e6f74207265676973746564000000000000000000000000600082015250565b7f4c6f636b6564206973206e6f7420656e6f756768000000000000000000000000600082015250565b7f726174696f2073686f756c6420626520312d3130303030000000000000000000600082015250565b7f4d696e696d616c20766f7465506f776572206973203100000000000000000000600082015250565b7f4e6f20636c61696d61626c6520696e7465726573740000000000000000000000600082015250565b7f4e6f2073656374696f6e73000000000000000000000000000000000000000000600082015250565b7f506f6f6c20697320616c72656164792072656769737465640000000000000000600082015250565b7f4e6f20766f746520706f7765722073656374696f6e0000000000000000000000600082015250565b7f766f7465506f7765722073686f756c6420626520310000000000000000000000600082015250565b7f496e746572657374206e6f7420656e6f75676800000000000000000000000000600082015250565b7f556e6c6f636b6564206973206e6f7420656e6f75676800000000000000000000600082015250565b616c46816166f8565b8114616c5157600080fd5b50565b616c5d81616716565b8114616c6857600080fd5b50565b616c7481616740565b8114616c7f57600080fd5b50565b616c8b8161674a565b8114616c9657600080fd5b50565b616ca28161675a565b8114616cad57600080fd5b5056fea2646970667358221220127b4d2964f5c8c2b7de3cc6561c024912b1aa734ef23f552c37eacd7264916764736f6c63430008040033",
  "linkReferences": {},
  "deployedLinkReferences": {}
}