{
  "_format": "hh-sol-artifact-1",
  "contractName": "PoSPool",
  "sourceName": "contracts/PoSPool.sol",
  "abi": [
    {
      "inputs": [],
      "stateMutability": "nonpayable",
      "type": "constructor"
    },
    {
      "inputs": [
        {
          "internalType": "uint256",
          "name": "previous",
          "type": "uint256"
        },
        {
          "internalType": "uint256",
          "name": "current",
          "type": "uint256"
        },
        {
          "internalType": "uint256",
          "name": "blockNumber",
          "type": "uint256"
        }
      ],
      "name": "UnnormalReward",
      "type": "error"
    },
    {
      "anonymous": false,
      "inputs": [
        {
          "indexed": true,
          "internalType": "address",
          "name": "user",
          "type": "address"
        },
        {
          "indexed": false,
          "internalType": "uint256",
          "name": "amount",
          "type": "uint256"
        }
      ],
      "name": "ClaimInterest",
      "type": "event"
    },
    {
      "anonymous": false,
      "inputs": [
        {
          "indexed": true,
          "internalType": "address",
          "name": "user",
          "type": "address"
        },
        {
          "indexed": false,
          "internalType": "uint64",
          "name": "votePower",
          "type": "uint64"
        }
      ],
      "name": "DecreasePoSStake",
      "type": "event"
    },
    {
      "anonymous": false,
      "inputs": [
        {
          "indexed": true,
          "internalType": "address",
          "name": "user",
          "type": "address"
        },
        {
          "indexed": false,
          "internalType": "uint64",
          "name": "votePower",
          "type": "uint64"
        }
      ],
      "name": "IncreasePoSStake",
      "type": "event"
    },
    {
      "anonymous": false,
      "inputs": [
        {
          "indexed": false,
          "internalType": "uint32",
          "name": "ratio",
          "type": "uint32"
        }
      ],
      "name": "RatioChanged",
      "type": "event"
    },
    {
      "anonymous": false,
      "inputs": [
        {
          "indexed": true,
          "internalType": "address",
          "name": "user",
          "type": "address"
        },
        {
          "indexed": false,
          "internalType": "uint64",
          "name": "votePower",
          "type": "uint64"
        }
      ],
      "name": "WithdrawStake",
      "type": "event"
    },
    {
      "inputs": [
        {
          "internalType": "uint256",
          "name": "startBlock",
          "type": "uint256"
        }
      ],
      "name": "_poolAPY",
      "outputs": [
        {
          "internalType": "uint32",
          "name": "",
          "type": "uint32"
        }
      ],
      "stateMutability": "view",
      "type": "function"
    },
    {
      "inputs": [],
      "name": "_poolLockPeriod",
      "outputs": [
        {
          "internalType": "uint64",
          "name": "",
          "type": "uint64"
        }
      ],
      "stateMutability": "view",
      "type": "function"
    },
    {
      "inputs": [],
      "name": "_poolName",
      "outputs": [
        {
          "internalType": "string",
          "name": "",
          "type": "string"
        }
      ],
      "stateMutability": "view",
      "type": "function"
    },
    {
      "inputs": [],
      "name": "_poolRegisted",
      "outputs": [
        {
          "internalType": "bool",
          "name": "",
          "type": "bool"
        }
      ],
      "stateMutability": "view",
      "type": "function"
    },
    {
      "inputs": [
        {
          "internalType": "address",
          "name": "_addr",
          "type": "address"
        }
      ],
      "name": "_posAddressToIdentifier",
      "outputs": [
        {
          "internalType": "bytes32",
          "name": "",
          "type": "bytes32"
        }
      ],
      "stateMutability": "view",
      "type": "function"
    },
    {
      "inputs": [
        {
          "internalType": "uint64",
          "name": "votePower",
          "type": "uint64"
        }
      ],
      "name": "_posRegisterIncreaseStake",
      "outputs": [],
      "stateMutability": "nonpayable",
      "type": "function"
    },
    {
      "inputs": [
        {
          "internalType": "bytes32",
          "name": "indentifier",
          "type": "bytes32"
        },
        {
          "internalType": "uint64",
          "name": "votePower",
          "type": "uint64"
        },
        {
          "internalType": "bytes",
          "name": "blsPubKey",
          "type": "bytes"
        },
        {
          "internalType": "bytes",
          "name": "vrfPubKey",
          "type": "bytes"
        },
        {
          "internalType": "bytes[2]",
          "name": "blsPubKeyProof",
          "type": "bytes[2]"
        }
      ],
      "name": "_posRegisterRegister",
      "outputs": [],
      "stateMutability": "nonpayable",
      "type": "function"
    },
    {
      "inputs": [
        {
          "internalType": "uint64",
          "name": "votePower",
          "type": "uint64"
        }
      ],
      "name": "_posRegisterRetire",
      "outputs": [],
      "stateMutability": "nonpayable",
      "type": "function"
    },
    {
      "inputs": [
        {
          "internalType": "uint256",
          "name": "_amount",
          "type": "uint256"
        }
      ],
      "name": "_stakingDeposit",
      "outputs": [],
      "stateMutability": "nonpayable",
      "type": "function"
    },
    {
      "inputs": [
        {
          "internalType": "uint256",
          "name": "_amount",
          "type": "uint256"
        }
      ],
      "name": "_stakingWithdraw",
      "outputs": [],
      "stateMutability": "nonpayable",
      "type": "function"
    },
    {
      "inputs": [],
      "name": "claimAllInterest",
      "outputs": [],
      "stateMutability": "nonpayable",
      "type": "function"
    },
    {
      "inputs": [
        {
          "internalType": "uint256",
          "name": "amount",
          "type": "uint256"
        }
      ],
      "name": "claimInterest",
      "outputs": [],
      "stateMutability": "nonpayable",
      "type": "function"
    },
    {
      "inputs": [
        {
          "internalType": "uint64",
          "name": "limit",
          "type": "uint64"
        }
      ],
      "name": "collectUserLastVotePowerSectionPagination",
      "outputs": [],
      "stateMutability": "nonpayable",
      "type": "function"
    },
    {
      "inputs": [
        {
          "internalType": "uint64",
          "name": "limit",
          "type": "uint64"
        }
      ],
      "name": "collectUserLatestInterestPagination",
      "outputs": [],
      "stateMutability": "nonpayable",
      "type": "function"
    },
    {
      "inputs": [
        {
          "internalType": "uint256",
          "name": "sectionCount",
          "type": "uint256"
        }
      ],
      "name": "collectUserLatestSectionsInterest",
      "outputs": [],
      "stateMutability": "nonpayable",
      "type": "function"
    },
    {
      "inputs": [
        {
          "internalType": "uint64",
          "name": "votePower",
          "type": "uint64"
        }
      ],
      "name": "decreaseStake",
      "outputs": [],
      "stateMutability": "nonpayable",
      "type": "function"
    },
    {
      "inputs": [
        {
          "internalType": "uint64",
          "name": "votePower",
          "type": "uint64"
        }
      ],
      "name": "increaseStake",
      "outputs": [],
      "stateMutability": "payable",
      "type": "function"
    },
    {
      "inputs": [],
      "name": "poolAPY",
      "outputs": [
        {
          "internalType": "uint32",
          "name": "",
          "type": "uint32"
        }
      ],
      "stateMutability": "view",
      "type": "function"
    },
    {
      "inputs": [],
      "name": "poolSummary",
      "outputs": [
        {
          "internalType": "uint64",
          "name": "available",
          "type": "uint64"
        },
        {
          "internalType": "uint256",
          "name": "interest",
          "type": "uint256"
        },
        {
          "internalType": "uint256",
          "name": "totalInterest",
          "type": "uint256"
        }
      ],
      "stateMutability": "view",
      "type": "function"
    },
    {
      "inputs": [],
      "name": "poolUserShareRatio",
      "outputs": [
        {
          "internalType": "uint32",
          "name": "",
          "type": "uint32"
        }
      ],
      "stateMutability": "view",
      "type": "function"
    },
    {
      "inputs": [],
      "name": "posAddress",
      "outputs": [
        {
          "internalType": "bytes32",
          "name": "",
          "type": "bytes32"
        }
      ],
      "stateMutability": "view",
      "type": "function"
    },
    {
      "inputs": [
        {
          "internalType": "bytes32",
          "name": "indentifier",
          "type": "bytes32"
        },
        {
          "internalType": "uint64",
          "name": "votePower",
          "type": "uint64"
        },
        {
          "internalType": "bytes",
          "name": "blsPubKey",
          "type": "bytes"
        },
        {
          "internalType": "bytes",
          "name": "vrfPubKey",
          "type": "bytes"
        },
        {
          "internalType": "bytes[2]",
          "name": "blsPubKeyProof",
          "type": "bytes[2]"
        }
      ],
      "name": "register",
      "outputs": [],
      "stateMutability": "payable",
      "type": "function"
    },
    {
      "inputs": [
        {
          "internalType": "uint256",
          "name": "count",
          "type": "uint256"
        }
      ],
      "name": "setCfxCountOfOneVote",
      "outputs": [],
      "stateMutability": "nonpayable",
      "type": "function"
    },
    {
      "inputs": [
        {
          "internalType": "uint64",
          "name": "period",
          "type": "uint64"
        }
      ],
      "name": "setLockPeriod",
      "outputs": [],
      "stateMutability": "nonpayable",
      "type": "function"
    },
    {
      "inputs": [
        {
          "internalType": "string",
          "name": "name",
          "type": "string"
        }
      ],
      "name": "setPoolName",
      "outputs": [],
      "stateMutability": "nonpayable",
      "type": "function"
    },
    {
      "inputs": [
        {
          "internalType": "uint32",
          "name": "ratio",
          "type": "uint32"
        }
      ],
      "name": "setPoolUserShareRatio",
      "outputs": [],
      "stateMutability": "nonpayable",
      "type": "function"
    },
    {
      "inputs": [
        {
          "internalType": "address",
          "name": "account",
          "type": "address"
        },
        {
          "internalType": "uint64",
          "name": "offset",
          "type": "uint64"
        },
        {
          "internalType": "uint64",
          "name": "limit",
          "type": "uint64"
        }
      ],
      "name": "userInQueue",
      "outputs": [
        {
          "components": [
            {
              "internalType": "uint64",
              "name": "votePower",
              "type": "uint64"
            },
            {
              "internalType": "uint64",
              "name": "endBlock",
              "type": "uint64"
            }
          ],
          "internalType": "struct VotePowerQueue.QueueNode[]",
          "name": "",
          "type": "tuple[]"
        }
      ],
      "stateMutability": "view",
      "type": "function"
    },
    {
      "inputs": [
        {
          "internalType": "address",
          "name": "account",
          "type": "address"
        }
      ],
      "name": "userInQueue",
      "outputs": [
        {
          "components": [
            {
              "internalType": "uint64",
              "name": "votePower",
              "type": "uint64"
            },
            {
              "internalType": "uint64",
              "name": "endBlock",
              "type": "uint64"
            }
          ],
          "internalType": "struct VotePowerQueue.QueueNode[]",
          "name": "",
          "type": "tuple[]"
        }
      ],
      "stateMutability": "view",
      "type": "function"
    },
    {
      "inputs": [
        {
          "internalType": "address",
          "name": "_address",
          "type": "address"
        }
      ],
      "name": "userInterest",
      "outputs": [
        {
          "internalType": "uint256",
          "name": "",
          "type": "uint256"
        }
      ],
      "stateMutability": "view",
      "type": "function"
    },
    {
      "inputs": [
        {
          "internalType": "address",
          "name": "account",
          "type": "address"
        }
      ],
      "name": "userOutQueue",
      "outputs": [
        {
          "components": [
            {
              "internalType": "uint64",
              "name": "votePower",
              "type": "uint64"
            },
            {
              "internalType": "uint64",
              "name": "endBlock",
              "type": "uint64"
            }
          ],
          "internalType": "struct VotePowerQueue.QueueNode[]",
          "name": "",
          "type": "tuple[]"
        }
      ],
      "stateMutability": "view",
      "type": "function"
    },
    {
      "inputs": [
        {
          "internalType": "address",
          "name": "account",
          "type": "address"
        },
        {
          "internalType": "uint64",
          "name": "offset",
          "type": "uint64"
        },
        {
          "internalType": "uint64",
          "name": "limit",
          "type": "uint64"
        }
      ],
      "name": "userOutQueue",
      "outputs": [
        {
          "components": [
            {
              "internalType": "uint64",
              "name": "votePower",
              "type": "uint64"
            },
            {
              "internalType": "uint64",
              "name": "endBlock",
              "type": "uint64"
            }
          ],
          "internalType": "struct VotePowerQueue.QueueNode[]",
          "name": "",
          "type": "tuple[]"
        }
      ],
      "stateMutability": "view",
      "type": "function"
    },
    {
      "inputs": [
        {
          "internalType": "address",
          "name": "_user",
          "type": "address"
        }
      ],
      "name": "userSummary",
      "outputs": [
        {
          "components": [
            {
              "internalType": "uint64",
              "name": "votes",
              "type": "uint64"
            },
            {
              "internalType": "uint64",
              "name": "available",
              "type": "uint64"
            },
            {
              "internalType": "uint64",
              "name": "locked",
              "type": "uint64"
            },
            {
              "internalType": "uint64",
              "name": "unlocked",
              "type": "uint64"
            },
            {
              "internalType": "uint256",
              "name": "claimedInterest",
              "type": "uint256"
            },
            {
              "internalType": "uint256",
              "name": "currentInterest",
              "type": "uint256"
            }
          ],
          "internalType": "struct PoSPool.UserSummary",
          "name": "",
          "type": "tuple"
        }
      ],
      "stateMutability": "view",
      "type": "function"
    },
    {
      "inputs": [
        {
          "internalType": "uint64",
          "name": "votePower",
          "type": "uint64"
        }
      ],
      "name": "withdrawStake",
      "outputs": [],
      "stateMutability": "nonpayable",
      "type": "function"
    }
  ],
  "bytecode": "0x608060405260076202a30062000016919062000132565b600060056101000a81548167ffffffffffffffff021916908367ffffffffffffffff160217905550683635c9adc5dea000006002553480156200005857600080fd5b5033600360006101000a81548173ffffffffffffffffffffffffffffffffffffffff021916908373ffffffffffffffffffffffffffffffffffffffff1602179055506123286000806101000a81548163ffffffff021916908363ffffffff1602179055506040518060600160405280600067ffffffffffffffff168152602001600081526020016000815250600460008201518160000160006101000a81548167ffffffffffffffff021916908367ffffffffffffffff1602179055506020820151816001015560408201518160020155905050620001be565b60006200013f826200017b565b91506200014c836200017b565b92508167ffffffffffffffff048311821515161562000170576200016f6200018f565b5b828202905092915050565b600067ffffffffffffffff82169050919050565b7f4e487b7100000000000000000000000000000000000000000000000000000000600052601160045260246000fd5b616ccc80620001ce6000396000f3fe6080604052600436106101ee5760003560e01c806380f818f91161010d578063beb99c1e116100a0578063e2af79281161006f578063e2af7928146106d8578063e335b45114610715578063e3d5b23314610731578063e5e20ccf1461076e578063fdb259c014610797576101ee565b8063beb99c1e1461060c578063d68076c314610635578063dced4de414610672578063de49db63146106af576101ee565b806396b6b59d116100dc57806396b6b59d146105525780639d5633571461057b578063a6698002146105a4578063b4064a25146105e1576101ee565b806380f818f9146104aa5780638270512f146104d357806382df7a3b146104ea578063961545da14610515576101ee565b80632eb375ea1161018557806367a1aa4f1161015457806367a1aa4f1461040057806372b654241461042b5780637571fcf6146104545780637ee8f47314610481576101ee565b80632eb375ea14610346578063336f8e0e1461036f5780634b1b45e6146103ac5780635825761a146103d7576101ee565b806324a3bbe2116101c157806324a3bbe21461028c57806327d8ed3f146102c95780632c779df2146102f25780632ce7777f1461031d576101ee565b806309fecf7f146101f357806310ae08861461020f5780631764618c146102385780632485ce9f14610263575b600080fd5b61020d60048036038101906102089190615a9c565b6107c0565b005b34801561021b57600080fd5b5061023660048036038101906102319190615a9c565b610b2a565b005b34801561024457600080fd5b5061024d610fc4565b60405161025a919061600d565b60405180910390f35b34801561026f57600080fd5b5061028a60048036038101906102859190615a9c565b611022565b005b34801561029857600080fd5b506102b360048036038101906102ae91906158a0565b61162c565b6040516102c09190615fd0565b60405180910390f35b3480156102d557600080fd5b506102f060048036038101906102eb9190615a9c565b61167c565b005b3480156102fe57600080fd5b506103076116fe565b6040516103149190616094565b60405180910390f35b34801561032957600080fd5b50610344600480360381019061033f9190615a9c565b61178c565b005b34801561035257600080fd5b5061036d60048036038101906103689190615a4a565b611b44565b005b34801561037b57600080fd5b50610396600480360381019061039191906158c9565b611dd8565b6040516103a39190615fd0565b60405180910390f35b3480156103b857600080fd5b506103c1611e2c565b6040516103ce9190615ff2565b60405180910390f35b3480156103e357600080fd5b506103fe60048036038101906103f99190615a9c565b611e3f565b005b34801561040c57600080fd5b50610415611ec1565b6040516104229190616323565b60405180910390f35b34801561043757600080fd5b50610452600480360381019061044d9190615a09565b611ed5565b005b34801561046057600080fd5b50610469611f7f565b60405161047893929190616359565b60405180910390f35b34801561048d57600080fd5b506104a860048036038101906104a39190615a4a565b611fab565b005b3480156104b657600080fd5b506104d160048036038101906104cc9190615941565b61202d565b005b3480156104df57600080fd5b506104e86120c1565b005b3480156104f657600080fd5b506104ff61216c565b60405161050c9190616323565b60405180910390f35b34801561052157600080fd5b5061053c60048036038101906105379190615a4a565b6121d5565b6040516105499190616323565b60405180910390f35b34801561055e57600080fd5b5061057960048036038101906105749190615a4a565b612457565b005b34801561058757600080fd5b506105a2600480360381019061059d9190615a73565b612504565b005b3480156105b057600080fd5b506105cb60048036038101906105c691906158c9565b612651565b6040516105d89190615fd0565b60405180910390f35b3480156105ed57600080fd5b506105f66126a5565b604051610603919061633e565b60405180910390f35b34801561061857600080fd5b50610633600480360381019061062e9190615a9c565b6126bf565b005b34801561064157600080fd5b5061065c600480360381019061065791906158a0565b612af8565b60405161066991906162d1565b60405180910390f35b34801561067e57600080fd5b50610699600480360381019061069491906158a0565b612b96565b6040516106a6919061600d565b60405180910390f35b3480156106bb57600080fd5b506106d660048036038101906106d19190615a4a565b612c3c565b005b3480156106e457600080fd5b506106ff60048036038101906106fa91906158a0565b6131f3565b60405161070c9190615fd0565b60405180910390f35b61072f600480360381019061072a9190615941565b613243565b005b34801561073d57600080fd5b50610758600480360381019061075391906158a0565b613604565b60405161076591906162b6565b60405180910390f35b34801561077a57600080fd5b5061079560048036038101906107909190615a9c565b613829565b005b3480156107a357600080fd5b506107be60048036038101906107b99190615a4a565b6138e5565b005b600060049054906101000a900460ff1661080f576040517f08c379a000000000000000000000000000000000000000000000000000000000815260040161080690616156565b60405180910390fd5b60008167ffffffffffffffff161161085c576040517f08c379a0000000000000000000000000000000000000000000000000000000008152600401610853906161b6565b60405180910390fd5b6002548167ffffffffffffffff1661087491906165a6565b34146108b5576040517f08c379a00000000000000000000000000000000000000000000000000000000081526004016108ac906160b6565b60405180910390fd5b6108be346138e5565b6108c78161167c565b3373ffffffffffffffffffffffffffffffffffffffff167fbb9676f2e80ec8fca106973b6eefdfc5fdccc797801bedfc041ad03b89d3748e8260405161090d919061633e565b60405180910390a280600460000160008282829054906101000a900467ffffffffffffffff1661093d9190616537565b92506101000a81548167ffffffffffffffff021916908367ffffffffffffffff16021790555080600d60003373ffffffffffffffffffffffffffffffffffffffff1673ffffffffffffffffffffffffffffffffffffffff16815260200190815260200160002060000160008282829054906101000a900467ffffffffffffffff166109c89190616537565b92506101000a81548167ffffffffffffffff021916908367ffffffffffffffff16021790555080600d60003373ffffffffffffffffffffffffffffffffffffffff1673ffffffffffffffffffffffffffffffffffffffff16815260200190815260200160002060000160088282829054906101000a900467ffffffffffffffff16610a539190616537565b92506101000a81548167ffffffffffffffff021916908367ffffffffffffffff1602179055506000600e60003373ffffffffffffffffffffffffffffffffffffffff1673ffffffffffffffffffffffffffffffffffffffff1681526020019081526020016000209050610b168160405180604001604052808567ffffffffffffffff168152602001600060059054906101000a900467ffffffffffffffff16610afa613967565b610b049190616537565b67ffffffffffffffff1681525061396f565b610b1e613a4b565b610b26613a5d565b5050565b600060049054906101000a900460ff16610b79576040517f08c379a0000000000000000000000000000000000000000000000000000000008152600401610b7090616156565b60405180910390fd5b60648167ffffffffffffffff161115610bc7576040517f08c379a0000000000000000000000000000000000000000000000000000000008152600401610bbe90616116565b60405180910390fd5b6000600c60003373ffffffffffffffffffffffffffffffffffffffff1673ffffffffffffffffffffffffffffffffffffffff1681526020019081526020016000209050600a60000160089054906101000a900467ffffffffffffffff1667ffffffffffffffff168160000160089054906101000a900467ffffffffffffffff1667ffffffffffffffff1610610c91576040517f08c379a0000000000000000000000000000000000000000000000000000000008152600401610c8890616136565b60405180910390fd5b6000610cbe8260000160089054906101000a900467ffffffffffffffff1667ffffffffffffffff16613a6f565b905060008382610cce9190616537565b90506007805490508167ffffffffffffffff161115610cf05760078054905090505b6000808390505b8267ffffffffffffffff168167ffffffffffffffff161015610e8157600060078267ffffffffffffffff1681548110610d59577f4e487b7100000000000000000000000000000000000000000000000000000000600052603260045260246000fd5b90600052602060002090600202016040518060800160405290816000820160009054906101000a900467ffffffffffffffff1667ffffffffffffffff1667ffffffffffffffff1681526020016000820160089054906101000a900467ffffffffffffffff1667ffffffffffffffff1667ffffffffffffffff1681526020016000820160109054906101000a900467ffffffffffffffff1667ffffffffffffffff1667ffffffffffffffff1681526020016001820154815250509050600081606001511415610e275750610e6e565b6000610e5482606001518860000160009054906101000a900467ffffffffffffffff168460400151613a8c565b9050610e698185613b0b90919063ffffffff16565b935050505b8080610e799061686f565b915050610cf7565b50610ed781600d60003373ffffffffffffffffffffffffffffffffffffffff1673ffffffffffffffffffffffffffffffffffffffff16815260200190815260200160002060020154613b0b90919063ffffffff16565b600d60003373ffffffffffffffffffffffffffffffffffffffff1673ffffffffffffffffffffffffffffffffffffffff168152602001908152602001600020600201819055506007600183610f2c91906166aa565b67ffffffffffffffff1681548110610f6d577f4e487b7100000000000000000000000000000000000000000000000000000000600052603260045260246000fd5b906000526020600020906002020160000160089054906101000a900467ffffffffffffffff168460000160086101000a81548167ffffffffffffffff021916908367ffffffffffffffff1602179055505050505050565b60008060049054906101000a900460ff16611014576040517f08c379a000000000000000000000000000000000000000000000000000000000815260040161100b90616156565b60405180910390fd5b61101d30612b96565b905090565b600060049054906101000a900460ff16611071576040517f08c379a000000000000000000000000000000000000000000000000000000000815260040161106890616156565b60405180910390fd5b60648167ffffffffffffffff1611156110bf576040517f08c379a00000000000000000000000000000000000000000000000000000000081526004016110b690616116565b60405180910390fd5b6000600860003373ffffffffffffffffffffffffffffffffffffffff1673ffffffffffffffffffffffffffffffffffffffff16815260200190815260200160002090506000818054905011611149576040517f08c379a000000000000000000000000000000000000000000000000000000000815260040161114090616236565b60405180910390fd5b60006111c882600184805490506111609190616642565b81548110611197577f4e487b7100000000000000000000000000000000000000000000000000000000600052603260045260246000fd5b9060005260206000200160000160009054906101000a900467ffffffffffffffff1667ffffffffffffffff16613a6f565b9050600083826111d89190616537565b90506007805490508167ffffffffffffffff1611156111fa5760078054905090505b6000808390505b8267ffffffffffffffff168167ffffffffffffffff1610156113dd57600060078267ffffffffffffffff1681548110611263577f4e487b7100000000000000000000000000000000000000000000000000000000600052603260045260246000fd5b90600052602060002090600202016040518060800160405290816000820160009054906101000a900467ffffffffffffffff1667ffffffffffffffff1667ffffffffffffffff1681526020016000820160089054906101000a900467ffffffffffffffff1667ffffffffffffffff1667ffffffffffffffff1681526020016000820160109054906101000a900467ffffffffffffffff1667ffffffffffffffff1667ffffffffffffffff168152602001600182015481525050905060008160600151141561133157506113ca565b60006113b082606001518860018a8054905061134d9190616642565b81548110611384577f4e487b7100000000000000000000000000000000000000000000000000000000600052603260045260246000fd5b9060005260206000200160000160109054906101000a900467ffffffffffffffff168460400151613a8c565b90506113c58185613b0b90919063ffffffff16565b935050505b80806113d59061686f565b915050611201565b5061143381600d60003373ffffffffffffffffffffffffffffffffffffffff1673ffffffffffffffffffffffffffffffffffffffff16815260200190815260200160002060020154613b0b90919063ffffffff16565b600d60003373ffffffffffffffffffffffffffffffffffffffff1673ffffffffffffffffffffffffffffffffffffffff168152602001908152602001600020600201819055506007805490508267ffffffffffffffff16141561153257838054806114c7577f4e487b7100000000000000000000000000000000000000000000000000000000600052603160045260246000fd5b60019003818190600052602060002001600080820160006101000a81549067ffffffffffffffff02191690556000820160086101000a81549067ffffffffffffffff02191690556000820160106101000a81549067ffffffffffffffff021916905550509055611625565b600760018361154191906166aa565b67ffffffffffffffff1681548110611582577f4e487b7100000000000000000000000000000000000000000000000000000000600052603260045260246000fd5b906000526020600020906002020160000160089054906101000a900467ffffffffffffffff1684600186805490506115ba9190616642565b815481106115f1577f4e487b7100000000000000000000000000000000000000000000000000000000600052603260045260246000fd5b9060005260206000200160000160006101000a81548167ffffffffffffffff021916908367ffffffffffffffff1602179055505b5050505050565b6060611675600f60008473ffffffffffffffffffffffffffffffffffffffff1673ffffffffffffffffffffffffffffffffffffffff168152602001908152602001600020613b21565b9050919050565b73088800000000000000000000000000000000000573ffffffffffffffffffffffffffffffffffffffff166309fecf7f826040518263ffffffff1660e01b81526004016116c9919061633e565b600060405180830381600087803b1580156116e357600080fd5b505af11580156116f7573d6000803e3d6000fd5b5050505050565b6001805461170b90616796565b80601f016020809104026020016040519081016040528092919081815260200182805461173790616796565b80156117845780601f1061175957610100808354040283529160200191611784565b820191906000526020600020905b81548152906001019060200180831161176757829003601f168201915b505050505081565b600060049054906101000a900460ff166117db576040517f08c379a00000000000000000000000000000000000000000000000000000000081526004016117d290616156565b60405180910390fd5b611822600f60003373ffffffffffffffffffffffffffffffffffffffff1673ffffffffffffffffffffffffffffffffffffffff168152602001908152602001600020613d5e565b600d60003373ffffffffffffffffffffffffffffffffffffffff1673ffffffffffffffffffffffffffffffffffffffff16815260200190815260200160002060000160188282829054906101000a900467ffffffffffffffff166118869190616537565b92506101000a81548167ffffffffffffffff021916908367ffffffffffffffff1602179055508067ffffffffffffffff16600d60003373ffffffffffffffffffffffffffffffffffffffff1673ffffffffffffffffffffffffffffffffffffffff16815260200190815260200160002060000160189054906101000a900467ffffffffffffffff1667ffffffffffffffff161015611959576040517f08c379a000000000000000000000000000000000000000000000000000000000815260040161195090616296565b60405180910390fd5b6119796002548267ffffffffffffffff1661197491906165a6565b611fab565b80600d60003373ffffffffffffffffffffffffffffffffffffffff1673ffffffffffffffffffffffffffffffffffffffff16815260200190815260200160002060000160188282829054906101000a900467ffffffffffffffff166119de91906166aa565b92506101000a81548167ffffffffffffffff021916908367ffffffffffffffff16021790555080600d60003373ffffffffffffffffffffffffffffffffffffffff1673ffffffffffffffffffffffffffffffffffffffff16815260200190815260200160002060000160008282829054906101000a900467ffffffffffffffff16611a6991906166aa565b92506101000a81548167ffffffffffffffff021916908367ffffffffffffffff16021790555060003390508073ffffffffffffffffffffffffffffffffffffffff166108fc6002548467ffffffffffffffff16611ac691906165a6565b9081150290604051600060405180830381858888f19350505050158015611af1573d6000803e3d6000fd5b503373ffffffffffffffffffffffffffffffffffffffff167ffbd5b0f12a6385c116526ca96180111a6575ccef6751a640d36d6d80793eced283604051611b38919061633e565b60405180910390a25050565b600060049054906101000a900460ff16611b93576040517f08c379a0000000000000000000000000000000000000000000000000000000008152600401611b8a90616156565b60405180910390fd5b6000611b9e33612af8565b905081811015611be3576040517f08c379a0000000000000000000000000000000000000000000000000000000008152600401611bda90616276565b60405180910390fd5b611beb613a4b565b611bf3613e83565b611bfb61411d565b611c5082600d60003373ffffffffffffffffffffffffffffffffffffffff1673ffffffffffffffffffffffffffffffffffffffff16815260200190815260200160002060010154613b0b90919063ffffffff16565b600d60003373ffffffffffffffffffffffffffffffffffffffff1673ffffffffffffffffffffffffffffffffffffffff16815260200190815260200160002060010181905550611ceb82600d60003373ffffffffffffffffffffffffffffffffffffffff1673ffffffffffffffffffffffffffffffffffffffff1681526020019081526020016000206002015461426290919063ffffffff16565b600d60003373ffffffffffffffffffffffffffffffffffffffff1673ffffffffffffffffffffffffffffffffffffffff1681526020019081526020016000206002018190555060003390508073ffffffffffffffffffffffffffffffffffffffff166108fc849081150290604051600060405180830381858888f19350505050158015611d7c573d6000803e3d6000fd5b503373ffffffffffffffffffffffffffffffffffffffff167fbbf701f67a7d285bbd2b9b2dc7a5fee474e6dc3c059183385da6cc9de2be34a984604051611dc391906162d1565b60405180910390a2611dd3614278565b505050565b6060611e23600f60008673ffffffffffffffffffffffffffffffffffffffff1673ffffffffffffffffffffffffffffffffffffffff1681526020019081526020016000208484614303565b90509392505050565b600060049054906101000a900460ff1681565b73088800000000000000000000000000000000000573ffffffffffffffffffffffffffffffffffffffff1663f49d0638826040518263ffffffff1660e01b8152600401611e8c919061633e565b600060405180830381600087803b158015611ea657600080fd5b505af1158015611eba573d6000803e3d6000fd5b5050505050565b60008054906101000a900463ffffffff1681565b600360009054906101000a900473ffffffffffffffffffffffffffffffffffffffff1673ffffffffffffffffffffffffffffffffffffffff163373ffffffffffffffffffffffffffffffffffffffff1614611f65576040517f08c379a0000000000000000000000000000000000000000000000000000000008152600401611f5c906160f6565b60405180910390fd5b8060019080519060200190611f7b92919061559a565b5050565b60048060000160009054906101000a900467ffffffffffffffff16908060010154908060020154905083565b73088800000000000000000000000000000000000273ffffffffffffffffffffffffffffffffffffffff16632e1a7d4d826040518263ffffffff1660e01b8152600401611ff891906162d1565b600060405180830381600087803b15801561201257600080fd5b505af1158015612026573d6000803e3d6000fd5b5050505050565b73088800000000000000000000000000000000000573ffffffffffffffffffffffffffffffffffffffff1663e335b451888888888888886040518863ffffffff1660e01b81526004016120869796959493929190616028565b600060405180830381600087803b1580156120a057600080fd5b505af11580156120b4573d6000803e3d6000fd5b5050505050505050505050565b600060049054906101000a900460ff16612110576040517f08c379a000000000000000000000000000000000000000000000000000000000815260040161210790616156565b60405180910390fd5b600061211b33612af8565b905060008111612160576040517f08c379a0000000000000000000000000000000000000000000000000000000008152600401612157906161d6565b60405180910390fd5b61216981611b44565b50565b600061016d6202a30061217f9190616600565b67ffffffffffffffff164311156121c5576121be61016d6202a3006121a49190616600565b67ffffffffffffffff16436121b99190616642565b6121d5565b90506121d2565b6121cf60006121d5565b90505b90565b600080600090506000806040518060800160405280600a60000160089054906101000a900467ffffffffffffffff1667ffffffffffffffff16815260200161221b613967565b67ffffffffffffffff168152602001600a60000160009054906101000a900467ffffffffffffffff1667ffffffffffffffff168152602001612272600a6001015461226461460b565b61426290919063ffffffff16565b81525090506122926122838261462f565b84613b0b90919063ffffffff16565b92506001826122a191906164e1565b91506000600780549050905060008114156122c25783945050505050612452565b60005b818110156124375760006007600183856122df9190616642565b6122e99190616642565b81548110612320577f4e487b7100000000000000000000000000000000000000000000000000000000600052603260045260246000fd5b90600052602060002090600202016040518060800160405290816000820160009054906101000a900467ffffffffffffffff1667ffffffffffffffff1667ffffffffffffffff1681526020016000820160089054906101000a900467ffffffffffffffff1667ffffffffffffffff1667ffffffffffffffff1681526020016000820160109054906101000a900467ffffffffffffffff1667ffffffffffffffff1667ffffffffffffffff168152602001600182015481525050905087816020015167ffffffffffffffff1610156123f75750612437565b6124126124038261462f565b87613b0b90919063ffffffff16565b955060018561242191906164e1565b945050808061242f906167f9565b9150506122c5565b5061244b838561473390919063ffffffff16565b9450505050505b919050565b600360009054906101000a900473ffffffffffffffffffffffffffffffffffffffff1673ffffffffffffffffffffffffffffffffffffffff163373ffffffffffffffffffffffffffffffffffffffff16146124e7576040517f08c379a00000000000000000000000000000000000000000000000000000000081526004016124de906160f6565b60405180910390fd5b670de0b6b3a7640000816124fb91906165a6565b60028190555050565b600360009054906101000a900473ffffffffffffffffffffffffffffffffffffffff1673ffffffffffffffffffffffffffffffffffffffff163373ffffffffffffffffffffffffffffffffffffffff1614612594576040517f08c379a000000000000000000000000000000000000000000000000000000000815260040161258b906160f6565b60405180910390fd5b60008163ffffffff161180156125b8575061271063ffffffff168163ffffffff1611155b6125f7576040517f08c379a00000000000000000000000000000000000000000000000000000000081526004016125ee90616196565b60405180910390fd5b806000806101000a81548163ffffffff021916908363ffffffff1602179055507fe58e62b1b669eb56125ef85ed8b558f033d9cc249825f9fb35742df12acd3e7c816040516126469190616323565b60405180910390a150565b606061269c600e60008673ffffffffffffffffffffffffffffffffffffffff1673ffffffffffffffffffffffffffffffffffffffff1681526020019081526020016000208484614303565b90509392505050565b600060059054906101000a900467ffffffffffffffff1681565b600060049054906101000a900460ff1661270e576040517f08c379a000000000000000000000000000000000000000000000000000000000815260040161270590616156565b60405180910390fd5b612755600e60003373ffffffffffffffffffffffffffffffffffffffff1673ffffffffffffffffffffffffffffffffffffffff168152602001908152602001600020613d5e565b600d60003373ffffffffffffffffffffffffffffffffffffffff1673ffffffffffffffffffffffffffffffffffffffff16815260200190815260200160002060000160108282829054906101000a900467ffffffffffffffff166127b99190616537565b92506101000a81548167ffffffffffffffff021916908367ffffffffffffffff1602179055508067ffffffffffffffff16600d60003373ffffffffffffffffffffffffffffffffffffffff1673ffffffffffffffffffffffffffffffffffffffff16815260200190815260200160002060000160109054906101000a900467ffffffffffffffff1667ffffffffffffffff16101561288c576040517f08c379a000000000000000000000000000000000000000000000000000000000815260040161288390616176565b60405180910390fd5b61289581611e3f565b3373ffffffffffffffffffffffffffffffffffffffff167f73395a3e5d14942cd04b55cee3e03536007f34202bbdfb9c3221e88a90b93ede826040516128db919061633e565b60405180910390a280600460000160008282829054906101000a900467ffffffffffffffff1661290b91906166aa565b92506101000a81548167ffffffffffffffff021916908367ffffffffffffffff16021790555080600d60003373ffffffffffffffffffffffffffffffffffffffff1673ffffffffffffffffffffffffffffffffffffffff16815260200190815260200160002060000160088282829054906101000a900467ffffffffffffffff1661299691906166aa565b92506101000a81548167ffffffffffffffff021916908367ffffffffffffffff16021790555080600d60003373ffffffffffffffffffffffffffffffffffffffff1673ffffffffffffffffffffffffffffffffffffffff16815260200190815260200160002060000160108282829054906101000a900467ffffffffffffffff16612a2191906166aa565b92506101000a81548167ffffffffffffffff021916908367ffffffffffffffff1602179055506000600f60003373ffffffffffffffffffffffffffffffffffffffff1673ffffffffffffffffffffffffffffffffffffffff1681526020019081526020016000209050612ae48160405180604001604052808567ffffffffffffffff168152602001600060059054906101000a900467ffffffffffffffff16612ac8613967565b612ad29190616537565b67ffffffffffffffff1681525061396f565b612aec613a4b565b612af4613a5d565b5050565b60008060009050612b1a612b0b84614749565b82613b0b90919063ffffffff16565b9050612b37612b2884614c9c565b82613b0b90919063ffffffff16565b9050612b8e600d60008573ffffffffffffffffffffffffffffffffffffffff1673ffffffffffffffffffffffffffffffffffffffff1681526020019081526020016000206002015482613b0b90919063ffffffff16565b915050919050565b600073088800000000000000000000000000000000000573ffffffffffffffffffffffffffffffffffffffff16636a06ea96836040518263ffffffff1660e01b8152600401612be59190615fb5565b60206040518083038186803b158015612bfd57600080fd5b505afa158015612c11573d6000803e3d6000fd5b505050506040513d601f19601f82011682018060405250810190612c359190615918565b9050919050565b600060049054906101000a900460ff16612c8b576040517f08c379a0000000000000000000000000000000000000000000000000000000008152600401612c8290616156565b60405180910390fd5b6064811115612ccf576040517f08c379a0000000000000000000000000000000000000000000000000000000008152600401612cc690616116565b60405180910390fd5b6000600860003373ffffffffffffffffffffffffffffffffffffffff1673ffffffffffffffffffffffffffffffffffffffff16815260200190815260200160002090506000818054905011612d59576040517f08c379a0000000000000000000000000000000000000000000000000000000008152600401612d50906161f6565b60405180910390fd5b8181805490501015612d6d57808054905091505b6000805b83811015613152576000836001838680549050612d8e9190616642565b612d989190616642565b81548110612dcf577f4e487b7100000000000000000000000000000000000000000000000000000000600052603260045260246000fd5b906000526020600020016040518060600160405290816000820160009054906101000a900467ffffffffffffffff1667ffffffffffffffff1667ffffffffffffffff1681526020016000820160089054906101000a900467ffffffffffffffff1667ffffffffffffffff1667ffffffffffffffff1681526020016000820160109054906101000a900467ffffffffffffffff1667ffffffffffffffff1667ffffffffffffffff168152505090506000612e95826000015167ffffffffffffffff16613a6f565b905060008190505b6007805490508167ffffffffffffffff16101561309f57826020015167ffffffffffffffff1660078267ffffffffffffffff1681548110612f07577f4e487b7100000000000000000000000000000000000000000000000000000000600052603260045260246000fd5b906000526020600020906002020160000160009054906101000a900467ffffffffffffffff1667ffffffffffffffff1610612f415761309f565b600060078267ffffffffffffffff1681548110612f87577f4e487b7100000000000000000000000000000000000000000000000000000000600052603260045260246000fd5b9060005260206000209060020201600101541415612fa45761308c565b600061307360078367ffffffffffffffff1681548110612fed577f4e487b7100000000000000000000000000000000000000000000000000000000600052603260045260246000fd5b906000526020600020906002020160010154856040015160078567ffffffffffffffff1681548110613048577f4e487b7100000000000000000000000000000000000000000000000000000000600052603260045260246000fd5b906000526020600020906002020160000160109054906101000a900467ffffffffffffffff16613a8c565b90506130888187613b0b90919063ffffffff16565b9550505b80806130979061686f565b915050612e9d565b50848054806130d7577f4e487b7100000000000000000000000000000000000000000000000000000000600052603160045260246000fd5b60019003818190600052602060002001600080820160006101000a81549067ffffffffffffffff02191690556000820160086101000a81549067ffffffffffffffff02191690556000820160106101000a81549067ffffffffffffffff0219169055505090555050808061314a906167f9565b915050612d71565b506131a881600d60003373ffffffffffffffffffffffffffffffffffffffff1673ffffffffffffffffffffffffffffffffffffffff16815260200190815260200160002060020154613b0b90919063ffffffff16565b600d60003373ffffffffffffffffffffffffffffffffffffffff1673ffffffffffffffffffffffffffffffffffffffff16815260200190815260200160002060020181905550505050565b606061323c600e60008473ffffffffffffffffffffffffffffffffffffffff1673ffffffffffffffffffffffffffffffffffffffff168152602001908152602001600020613b21565b9050919050565b600360009054906101000a900473ffffffffffffffffffffffffffffffffffffffff1673ffffffffffffffffffffffffffffffffffffffff163373ffffffffffffffffffffffffffffffffffffffff16146132d3576040517f08c379a00000000000000000000000000000000000000000000000000000000081526004016132ca906160f6565b60405180910390fd5b600060049054906101000a900460ff1615613323576040517f08c379a000000000000000000000000000000000000000000000000000000000815260040161331a90616216565b60405180910390fd5b60018667ffffffffffffffff1614613370576040517f08c379a000000000000000000000000000000000000000000000000000000000815260040161336790616256565b60405180910390fd5b6002548667ffffffffffffffff1661338891906165a6565b34146133c9576040517f08c379a00000000000000000000000000000000000000000000000000000000081526004016133c0906160d6565b60405180910390fd5b6133d2346138e5565b6133e18787878787878761202d565b6001600060046101000a81548160ff02191690831515021790555085600460000160008282829054906101000a900467ffffffffffffffff166134249190616537565b92506101000a81548167ffffffffffffffff021916908367ffffffffffffffff16021790555085600d60003373ffffffffffffffffffffffffffffffffffffffff1673ffffffffffffffffffffffffffffffffffffffff16815260200190815260200160002060000160008282829054906101000a900467ffffffffffffffff166134af9190616537565b92506101000a81548167ffffffffffffffff021916908367ffffffffffffffff16021790555085600d60003373ffffffffffffffffffffffffffffffffffffffff1673ffffffffffffffffffffffffffffffffffffffff16815260200190815260200160002060000160088282829054906101000a900467ffffffffffffffff1661353a9190616537565b92506101000a81548167ffffffffffffffff021916908367ffffffffffffffff16021790555085600d60003373ffffffffffffffffffffffffffffffffffffffff1673ffffffffffffffffffffffffffffffffffffffff16815260200190815260200160002060000160108282829054906101000a900467ffffffffffffffff166135c59190616537565b92506101000a81548167ffffffffffffffff021916908367ffffffffffffffff1602179055506135f3614fb6565b6135fb614278565b50505050505050565b61360c615620565b6000600d60008473ffffffffffffffffffffffffffffffffffffffff1673ffffffffffffffffffffffffffffffffffffffff1681526020019081526020016000206040518060c00160405290816000820160009054906101000a900467ffffffffffffffff1667ffffffffffffffff1667ffffffffffffffff1681526020016000820160089054906101000a900467ffffffffffffffff1667ffffffffffffffff1667ffffffffffffffff1681526020016000820160109054906101000a900467ffffffffffffffff1667ffffffffffffffff1667ffffffffffffffff1681526020016000820160189054906101000a900467ffffffffffffffff1667ffffffffffffffff1667ffffffffffffffff16815260200160018201548152602001600282015481525050905061377d600e60008573ffffffffffffffffffffffffffffffffffffffff1673ffffffffffffffffffffffffffffffffffffffff1681526020019081526020016000206150e7565b8160400181815161378e9190616537565b91509067ffffffffffffffff16908167ffffffffffffffff16815250506137f2600f60008573ffffffffffffffffffffffffffffffffffffffff1673ffffffffffffffffffffffffffffffffffffffff1681526020019081526020016000206150e7565b816060018181516138039190616537565b91509067ffffffffffffffff16908167ffffffffffffffff168152505080915050919050565b600360009054906101000a900473ffffffffffffffffffffffffffffffffffffffff1673ffffffffffffffffffffffffffffffffffffffff163373ffffffffffffffffffffffffffffffffffffffff16146138b9576040517f08c379a00000000000000000000000000000000000000000000000000000000081526004016138b0906160f6565b60405180910390fd5b80600060056101000a81548167ffffffffffffffff021916908367ffffffffffffffff16021790555050565b73088800000000000000000000000000000000000273ffffffffffffffffffffffffffffffffffffffff1663b6b55f25826040518263ffffffff1660e01b815260040161393291906162d1565b600060405180830381600087803b15801561394c57600080fd5b505af1158015613960573d6000803e3d6000fd5b5050505050565b600043905090565b8082600101600084600001600881819054906101000a900467ffffffffffffffff168092919061399e9061686f565b91906101000a81548167ffffffffffffffff021916908367ffffffffffffffff16021790555067ffffffffffffffff1667ffffffffffffffff16815260200190815260200160002060008201518160000160006101000a81548167ffffffffffffffff021916908367ffffffffffffffff16021790555060208201518160000160086101000a81548167ffffffffffffffff021916908367ffffffffffffffff1602179055509050505050565b613a53615202565b613a5b614fb6565b565b613a65613e83565b613a6d614278565b565b600060096000838152602001908152602001600020549050919050565b6000613b0261271063ffffffff1683613aa59190616600565b67ffffffffffffffff16613af460008054906101000a900463ffffffff1663ffffffff16613ae68767ffffffffffffffff168961541090919063ffffffff16565b61541090919063ffffffff16565b61473390919063ffffffff16565b90509392505050565b60008183613b1991906164e1565b905092915050565b606060008260000160009054906101000a900467ffffffffffffffff168360000160089054906101000a900467ffffffffffffffff16613b6191906166aa565b67ffffffffffffffff1667ffffffffffffffff811115613baa577f4e487b7100000000000000000000000000000000000000000000000000000000600052604160045260246000fd5b604051908082528060200260200182016040528015613be357816020015b613bd061567e565b815260200190600190039081613bc85790505b50905060008360000160009054906101000a900467ffffffffffffffff1690505b8360000160089054906101000a900467ffffffffffffffff1667ffffffffffffffff168167ffffffffffffffff161015613d54578360010160008267ffffffffffffffff1667ffffffffffffffff1681526020019081526020016000206040518060400160405290816000820160009054906101000a900467ffffffffffffffff1667ffffffffffffffff1667ffffffffffffffff1681526020016000820160089054906101000a900467ffffffffffffffff1667ffffffffffffffff1667ffffffffffffffff1681525050828560000160009054906101000a900467ffffffffffffffff1683613cf591906166aa565b67ffffffffffffffff1681518110613d36577f4e487b7100000000000000000000000000000000000000000000000000000000600052603260045260246000fd5b60200260200101819052508080613d4c9061686f565b915050613c04565b5080915050919050565b6000806000905060008360000160009054906101000a900467ffffffffffffffff1690505b8360000160089054906101000a900467ffffffffffffffff1667ffffffffffffffff168167ffffffffffffffff161015613e7957438460010160008367ffffffffffffffff1667ffffffffffffffff16815260200190815260200160002060000160089054906101000a900467ffffffffffffffff1667ffffffffffffffff161115613e0e57613e79565b8360010160008267ffffffffffffffff1667ffffffffffffffff16815260200190815260200160002060000160009054906101000a900467ffffffffffffffff1682613e5a9190616537565b9150613e6584615426565b508080613e719061686f565b915050613d83565b5080915050919050565b600a60010154613e9161460b565b1015613ee457600a60010154613ea561460b565b436040517fd714a6e0000000000000000000000000000000000000000000000000000000008152600401613edb939291906162ec565b60405180910390fd5b60078054905060096000600a60000160089054906101000a900467ffffffffffffffff1667ffffffffffffffff168152602001908152602001600020819055506000613f45600a60010154613f3761460b565b61426290919063ffffffff16565b905060076040518060800160405280600a60000160089054906101000a900467ffffffffffffffff1667ffffffffffffffff168152602001613f85613967565b67ffffffffffffffff168152602001600a60000160009054906101000a900467ffffffffffffffff1667ffffffffffffffff16815260200183815250908060018154018082558091505060019003906000526020600020906002020160009091909190915060008201518160000160006101000a81548167ffffffffffffffff021916908367ffffffffffffffff16021790555060208201518160000160086101000a81548167ffffffffffffffff021916908367ffffffffffffffff16021790555060408201518160000160106101000a81548167ffffffffffffffff021916908367ffffffffffffffff16021790555060608201518160010155505060006140d561271063ffffffff166140c760008054906101000a900463ffffffff166127106140b29190616676565b63ffffffff168561541090919063ffffffff16565b61473390919063ffffffff16565b90506140ef81600460010154613b0b90919063ffffffff16565b60046001018190555061411082600460020154613b0b90919063ffffffff16565b6004600201819055505050565b600060049054906101000a900460ff1661416c576040517f08c379a000000000000000000000000000000000000000000000000000000000815260040161416390616156565b60405180910390fd5b600061417733614749565b90506141ce81600d60003373ffffffffffffffffffffffffffffffffffffffff1673ffffffffffffffffffffffffffffffffffffffff16815260200190815260200160002060020154613b0b90919063ffffffff16565b600d60003373ffffffffffffffffffffffffffffffffffffffff1673ffffffffffffffffffffffffffffffffffffffff16815260200190815260200160002060020181905550600860003373ffffffffffffffffffffffffffffffffffffffff1673ffffffffffffffffffffffffffffffffffffffff168152602001908152602001600020600061425f91906156ac565b50565b600081836142709190616642565b905092915050565b600460000160009054906101000a900467ffffffffffffffff16600a60000160006101000a81548167ffffffffffffffff021916908367ffffffffffffffff1602179055506142c5613967565b600a60000160086101000a81548167ffffffffffffffff021916908367ffffffffffffffff1602179055506142f861460b565b600a60010181905550565b60606000838560000160009054906101000a900467ffffffffffffffff1661432b9190616537565b90508460000160089054906101000a900467ffffffffffffffff1667ffffffffffffffff168167ffffffffffffffff16106143e357600067ffffffffffffffff8111156143a1577f4e487b7100000000000000000000000000000000000000000000000000000000600052604160045260246000fd5b6040519080825280602002602001820160405280156143da57816020015b6143c761567e565b8152602001906001900390816143bf5790505b50915050614604565b600083826143f19190616537565b67ffffffffffffffff1690508560000160089054906101000a900467ffffffffffffffff1667ffffffffffffffff1681111561444d578560000160089054906101000a900467ffffffffffffffff1667ffffffffffffffff1690505b60008267ffffffffffffffff16826144659190616642565b67ffffffffffffffff8111156144a4577f4e487b7100000000000000000000000000000000000000000000000000000000600052604160045260246000fd5b6040519080825280602002602001820160405280156144dd57816020015b6144ca61567e565b8152602001906001900390816144c25790505b50905060008390505b828167ffffffffffffffff1610156145fc578760010160008267ffffffffffffffff1667ffffffffffffffff1681526020019081526020016000206040518060400160405290816000820160009054906101000a900467ffffffffffffffff1667ffffffffffffffff1667ffffffffffffffff1681526020016000820160089054906101000a900467ffffffffffffffff1667ffffffffffffffff1667ffffffffffffffff168152505082858361459d91906166aa565b67ffffffffffffffff16815181106145de577f4e487b7100000000000000000000000000000000000000000000000000000000600052603260045260246000fd5b602002602001018190525080806145f49061686f565b9150506144e6565b508093505050505b9392505050565b6000803090508073ffffffffffffffffffffffffffffffffffffffff163191505090565b6000808260000151836020015161464691906166aa565b67ffffffffffffffff1690506000836060015114806146655750600081145b8061467e57506000836040015167ffffffffffffffff16145b1561468d57600091505061472e565b60006146b2600254856040015167ffffffffffffffff1661541090919063ffffffff16565b90506000614725836147178461470961016d6202a3006146d29190616600565b67ffffffffffffffff166146fb61271063ffffffff168c6060015161541090919063ffffffff16565b61541090919063ffffffff16565b61473390919063ffffffff16565b61473390919063ffffffff16565b90508093505050505b919050565b600081836147419190616575565b905092915050565b600080600090506000600860008573ffffffffffffffffffffffffffffffffffffffff1673ffffffffffffffffffffffffffffffffffffffff168152602001908152602001600020805480602002602001604051908101604052809291908181526020016000905b82821015614875578382906000526020600020016040518060600160405290816000820160009054906101000a900467ffffffffffffffff1667ffffffffffffffff1667ffffffffffffffff1681526020016000820160089054906101000a900467ffffffffffffffff1667ffffffffffffffff1667ffffffffffffffff1681526020016000820160109054906101000a900467ffffffffffffffff1667ffffffffffffffff1667ffffffffffffffff1681525050815260200190600101906147b1565b50505050905060008151141561488f578192505050614c97565b60006148e9826000815181106148ce577f4e487b7100000000000000000000000000000000000000000000000000000000600052603260045260246000fd5b60200260200101516000015167ffffffffffffffff16613a6f565b905060008190505b6007805490508167ffffffffffffffff161015614c8f57600060078267ffffffffffffffff168154811061494e577f4e487b7100000000000000000000000000000000000000000000000000000000600052603260045260246000fd5b90600052602060002090600202016040518060800160405290816000820160009054906101000a900467ffffffffffffffff1667ffffffffffffffff1667ffffffffffffffff1681526020016000820160089054906101000a900467ffffffffffffffff1667ffffffffffffffff1667ffffffffffffffff1681526020016000820160109054906101000a900467ffffffffffffffff1667ffffffffffffffff1667ffffffffffffffff1681526020016001820154815250509050600081606001511415614a1c5750614c7c565b60005b84518163ffffffff161015614c7957816020015167ffffffffffffffff16858263ffffffff1681518110614a7c577f4e487b7100000000000000000000000000000000000000000000000000000000600052603260045260246000fd5b60200260200101516000015167ffffffffffffffff1610614a9c57614c79565b816000015167ffffffffffffffff16858263ffffffff1681518110614aea577f4e487b7100000000000000000000000000000000000000000000000000000000600052603260045260246000fd5b60200260200101516020015167ffffffffffffffff1611614b0a57614c66565b6000826000015167ffffffffffffffff16868363ffffffff1681518110614b5a577f4e487b7100000000000000000000000000000000000000000000000000000000600052603260045260246000fd5b60200260200101516000015167ffffffffffffffff1611158015614be05750826020015167ffffffffffffffff16868363ffffffff1681518110614bc7577f4e487b7100000000000000000000000000000000000000000000000000000000600052603260045260246000fd5b60200260200101516020015167ffffffffffffffff1610155b905080614bed5750614c66565b6000614c4c8460600151888563ffffffff1681518110614c36577f4e487b7100000000000000000000000000000000000000000000000000000000600052603260045260246000fd5b6020026020010151604001518660400151613a8c565b9050614c618189613b0b90919063ffffffff16565b975050505b8080614c7190616842565b915050614a1f565b50505b8080614c879061686f565b9150506148f1565b508293505050505b919050565b600080600090506000600c60008573ffffffffffffffffffffffffffffffffffffffff1673ffffffffffffffffffffffffffffffffffffffff1681526020019081526020016000206040518060400160405290816000820160009054906101000a900467ffffffffffffffff1667ffffffffffffffff1667ffffffffffffffff1681526020016000820160089054906101000a900467ffffffffffffffff1667ffffffffffffffff1667ffffffffffffffff16815250509050600a60000160089054906101000a900467ffffffffffffffff1667ffffffffffffffff16816020015167ffffffffffffffff1611158015614da15750600a60010154614d9f61460b565b115b15614e0d576000614dc7600a60010154614db961460b565b61426290919063ffffffff16565b90506000614df3828460000151600a60000160009054906101000a900467ffffffffffffffff16613a8c565b9050614e088185613b0b90919063ffffffff16565b935050505b6000614e26826020015167ffffffffffffffff16613a6f565b905060008167ffffffffffffffff161415614e4657829350505050614fb1565b60008190505b6007805490508167ffffffffffffffff161015614fa957600060078267ffffffffffffffff1681548110614ea9577f4e487b7100000000000000000000000000000000000000000000000000000000600052603260045260246000fd5b90600052602060002090600202016040518060800160405290816000820160009054906101000a900467ffffffffffffffff1667ffffffffffffffff1667ffffffffffffffff1681526020016000820160089054906101000a900467ffffffffffffffff1667ffffffffffffffff1667ffffffffffffffff1681526020016000820160109054906101000a900467ffffffffffffffff1667ffffffffffffffff1667ffffffffffffffff16815260200160018201548152505090506000614f7d826060015186600001518460400151613a8c565b9050614f928187613b0b90919063ffffffff16565b955050508080614fa19061686f565b915050614e4c565b508293505050505b919050565b600d60003373ffffffffffffffffffffffffffffffffffffffff1673ffffffffffffffffffffffffffffffffffffffff16815260200190815260200160002060000160089054906101000a900467ffffffffffffffff16600c60003373ffffffffffffffffffffffffffffffffffffffff1673ffffffffffffffffffffffffffffffffffffffff16815260200190815260200160002060000160006101000a81548167ffffffffffffffff021916908367ffffffffffffffff16021790555061507d613967565b600c60003373ffffffffffffffffffffffffffffffffffffffff1673ffffffffffffffffffffffffffffffffffffffff16815260200190815260200160002060000160086101000a81548167ffffffffffffffff021916908367ffffffffffffffff160217905550565b6000806000905060008360000160009054906101000a900467ffffffffffffffff1690505b8360000160089054906101000a900467ffffffffffffffff1667ffffffffffffffff168167ffffffffffffffff1610156151f857438460010160008367ffffffffffffffff1667ffffffffffffffff16815260200190815260200160002060000160089054906101000a900467ffffffffffffffff1667ffffffffffffffff161115615197576151f8565b8360010160008267ffffffffffffffff1667ffffffffffffffff16815260200190815260200160002060000160009054906101000a900467ffffffffffffffff16826151e39190616537565b915080806151f09061686f565b91505061510c565b5080915050919050565b6000600c60003373ffffffffffffffffffffffffffffffffffffffff1673ffffffffffffffffffffffffffffffffffffffff1681526020019081526020016000206040518060400160405290816000820160009054906101000a900467ffffffffffffffff1667ffffffffffffffff1667ffffffffffffffff1681526020016000820160089054906101000a900467ffffffffffffffff1667ffffffffffffffff1667ffffffffffffffff168152505090506000816000015167ffffffffffffffff1614156152d1575061540e565b600860003373ffffffffffffffffffffffffffffffffffffffff1673ffffffffffffffffffffffffffffffffffffffff1681526020019081526020016000206040518060600160405280836020015167ffffffffffffffff168152602001615337613967565b67ffffffffffffffff168152602001836000015167ffffffffffffffff168152509080600181540180825580915050600190039060005260206000200160009091909190915060008201518160000160006101000a81548167ffffffffffffffff021916908367ffffffffffffffff16021790555060208201518160000160086101000a81548167ffffffffffffffff021916908367ffffffffffffffff16021790555060408201518160000160106101000a81548167ffffffffffffffff021916908367ffffffffffffffff1602179055505050505b565b6000818361541e91906165a6565b905092915050565b61542e61567e565b60008260010160008460000160009054906101000a900467ffffffffffffffff1667ffffffffffffffff1667ffffffffffffffff1681526020019081526020016000206040518060400160405290816000820160009054906101000a900467ffffffffffffffff1667ffffffffffffffff1667ffffffffffffffff1681526020016000820160089054906101000a900467ffffffffffffffff1667ffffffffffffffff1667ffffffffffffffff1681525050905082600101600084600001600081819054906101000a900467ffffffffffffffff16809291906155109061686f565b91906101000a81548167ffffffffffffffff021916908367ffffffffffffffff16021790555067ffffffffffffffff1667ffffffffffffffff168152602001908152602001600020600080820160006101000a81549067ffffffffffffffff02191690556000820160086101000a81549067ffffffffffffffff0219169055505080915050919050565b8280546155a690616796565b90600052602060002090601f0160209004810192826155c8576000855561560f565b82601f106155e157805160ff191683800117855561560f565b8280016001018555821561560f579182015b8281111561560e5782518255916020019190600101906155f3565b5b50905061561c91906156cd565b5090565b6040518060c00160405280600067ffffffffffffffff168152602001600067ffffffffffffffff168152602001600067ffffffffffffffff168152602001600067ffffffffffffffff16815260200160008152602001600081525090565b6040518060400160405280600067ffffffffffffffff168152602001600067ffffffffffffffff1681525090565b50805460008255906000526020600020908101906156ca91906156ea565b50565b5b808211156156e65760008160009055506001016156ce565b5090565b5b8082111561574e57600080820160006101000a81549067ffffffffffffffff02191690556000820160086101000a81549067ffffffffffffffff02191690556000820160106101000a81549067ffffffffffffffff0219169055506001016156eb565b5090565b6000615765615760846163b5565b616390565b90508281526020810184848401111561577d57600080fd5b615788848285616754565b509392505050565b60008135905061579f81616c23565b92915050565b6000819050826020600202820111156157bd57600080fd5b92915050565b6000813590506157d281616c3a565b92915050565b6000815190506157e781616c3a565b92915050565b60008083601f8401126157ff57600080fd5b8235905067ffffffffffffffff81111561581857600080fd5b60208301915083600182028301111561583057600080fd5b9250929050565b600082601f83011261584857600080fd5b8135615858848260208601615752565b91505092915050565b60008135905061587081616c51565b92915050565b60008135905061588581616c68565b92915050565b60008135905061589a81616c7f565b92915050565b6000602082840312156158b257600080fd5b60006158c084828501615790565b91505092915050565b6000806000606084860312156158de57600080fd5b60006158ec86828701615790565b93505060206158fd8682870161588b565b925050604061590e8682870161588b565b9150509250925092565b60006020828403121561592a57600080fd5b6000615938848285016157d8565b91505092915050565b600080600080600080600060a0888a03121561595c57600080fd5b600061596a8a828b016157c3565b975050602061597b8a828b0161588b565b965050604088013567ffffffffffffffff81111561599857600080fd5b6159a48a828b016157ed565b9550955050606088013567ffffffffffffffff8111156159c357600080fd5b6159cf8a828b016157ed565b9350935050608088013567ffffffffffffffff8111156159ee57600080fd5b6159fa8a828b016157a5565b91505092959891949750929550565b600060208284031215615a1b57600080fd5b600082013567ffffffffffffffff811115615a3557600080fd5b615a4184828501615837565b91505092915050565b600060208284031215615a5c57600080fd5b6000615a6a84828501615861565b91505092915050565b600060208284031215615a8557600080fd5b6000615a9384828501615876565b91505092915050565b600060208284031215615aae57600080fd5b6000615abc8482850161588b565b91505092915050565b6000615ad2848484615bfd565b90509392505050565b6000615ae78383615ec0565b60408301905092915050565b615afc816166de565b82525050565b6000615b0d82616400565b615b17818561643b565b935083602082028501615b29856163e6565b8060005b85811015615b6f578484038952615b44828461648a565b615b4f868284615ac5565b9550615b5a84616421565b935060208b019a505050600181019050615b2d565b50829750879550505050505092915050565b6000615b8c8261640b565b615b968185616446565b9350615ba1836163f0565b8060005b83811015615bd2578151615bb98882615adb565b9750615bc48361642e565b925050600181019050615ba5565b5085935050505092915050565b615be8816166f0565b82525050565b615bf7816166fc565b82525050565b6000615c098385616457565b9350615c16838584616754565b615c1f8361695c565b840190509392505050565b6000615c368385616468565b9350615c43838584616754565b615c4c8361695c565b840190509392505050565b6000615c6282616416565b615c6c8185616479565b9350615c7c818560208601616763565b615c858161695c565b840191505092915050565b6000615c9d602a83616479565b9150615ca88261696d565b604082019050919050565b6000615cc0601c83616479565b9150615ccb826169bc565b602082019050919050565b6000615ce3601b83616479565b9150615cee826169e5565b602082019050919050565b6000615d06601883616479565b9150615d1182616a0e565b602082019050919050565b6000615d29601083616479565b9150615d3482616a37565b602082019050919050565b6000615d4c601483616479565b9150615d5782616a60565b602082019050919050565b6000615d6f601483616479565b9150615d7a82616a89565b602082019050919050565b6000615d92601783616479565b9150615d9d82616ab2565b602082019050919050565b6000615db5601683616479565b9150615dc082616adb565b602082019050919050565b6000615dd8601583616479565b9150615de382616b04565b602082019050919050565b6000615dfb600b83616479565b9150615e0682616b2d565b602082019050919050565b6000615e1e601883616479565b9150615e2982616b56565b602082019050919050565b6000615e41601583616479565b9150615e4c82616b7f565b602082019050919050565b6000615e64601583616479565b9150615e6f82616ba8565b602082019050919050565b6000615e87601383616479565b9150615e9282616bd1565b602082019050919050565b6000615eaa601683616479565b9150615eb582616bfa565b602082019050919050565b604082016000820151615ed66000850182615f97565b506020820151615ee96020850182615f97565b50505050565b60c082016000820151615f056000850182615f97565b506020820151615f186020850182615f97565b506040820151615f2b6040850182615f97565b506060820151615f3e6060850182615f97565b506080820151615f516080850182615f6a565b5060a0820151615f6460a0850182615f6a565b50505050565b615f7381616726565b82525050565b615f8281616726565b82525050565b615f9181616730565b82525050565b615fa081616740565b82525050565b615faf81616740565b82525050565b6000602082019050615fca6000830184615af3565b92915050565b60006020820190508181036000830152615fea8184615b81565b905092915050565b60006020820190506160076000830184615bdf565b92915050565b60006020820190506160226000830184615bee565b92915050565b600060a08201905061603d600083018a615bee565b61604a6020830189615fa6565b818103604083015261605d818789615c2a565b90508181036060830152616072818587615c2a565b905081810360808301526160868184615b02565b905098975050505050505050565b600060208201905081810360008301526160ae8184615c57565b905092915050565b600060208201905081810360008301526160cf81615c90565b9050919050565b600060208201905081810360008301526160ef81615cb3565b9050919050565b6000602082019050818103600083015261610f81615cd6565b9050919050565b6000602082019050818103600083015261612f81615cf9565b9050919050565b6000602082019050818103600083015261614f81615d1c565b9050919050565b6000602082019050818103600083015261616f81615d3f565b9050919050565b6000602082019050818103600083015261618f81615d62565b9050919050565b600060208201905081810360008301526161af81615d85565b9050919050565b600060208201905081810360008301526161cf81615da8565b9050919050565b600060208201905081810360008301526161ef81615dcb565b9050919050565b6000602082019050818103600083015261620f81615dee565b9050919050565b6000602082019050818103600083015261622f81615e11565b9050919050565b6000602082019050818103600083015261624f81615e34565b9050919050565b6000602082019050818103600083015261626f81615e57565b9050919050565b6000602082019050818103600083015261628f81615e7a565b9050919050565b600060208201905081810360008301526162af81615e9d565b9050919050565b600060c0820190506162cb6000830184615eef565b92915050565b60006020820190506162e66000830184615f79565b92915050565b60006060820190506163016000830186615f79565b61630e6020830185615f79565b61631b6040830184615f79565b949350505050565b60006020820190506163386000830184615f88565b92915050565b60006020820190506163536000830184615fa6565b92915050565b600060608201905061636e6000830186615fa6565b61637b6020830185615f79565b6163886040830184615f79565b949350505050565b600061639a6163ab565b90506163a682826167c8565b919050565b6000604051905090565b600067ffffffffffffffff8211156163d0576163cf61692d565b5b6163d98261695c565b9050602081019050919050565b6000819050919050565b6000819050602082019050919050565b600060029050919050565b600081519050919050565b600081519050919050565b6000602082019050919050565b6000602082019050919050565b600081905092915050565b600082825260208201905092915050565b600082825260208201905092915050565b600082825260208201905092915050565b600082825260208201905092915050565b600080833560016020038436030381126164a357600080fd5b83810192508235915060208301925067ffffffffffffffff8211156164c757600080fd5b6001820236038413156164d957600080fd5b509250929050565b60006164ec82616726565b91506164f783616726565b9250827fffffffffffffffffffffffffffffffffffffffffffffffffffffffffffffffff0382111561652c5761652b6168a0565b5b828201905092915050565b600061654282616740565b915061654d83616740565b92508267ffffffffffffffff0382111561656a576165696168a0565b5b828201905092915050565b600061658082616726565b915061658b83616726565b92508261659b5761659a6168cf565b5b828204905092915050565b60006165b182616726565b91506165bc83616726565b9250817fffffffffffffffffffffffffffffffffffffffffffffffffffffffffffffffff04831182151516156165f5576165f46168a0565b5b828202905092915050565b600061660b82616740565b915061661683616740565b92508167ffffffffffffffff0483118215151615616637576166366168a0565b5b828202905092915050565b600061664d82616726565b915061665883616726565b92508282101561666b5761666a6168a0565b5b828203905092915050565b600061668182616730565b915061668c83616730565b92508282101561669f5761669e6168a0565b5b828203905092915050565b60006166b582616740565b91506166c083616740565b9250828210156166d3576166d26168a0565b5b828203905092915050565b60006166e982616706565b9050919050565b60008115159050919050565b6000819050919050565b600073ffffffffffffffffffffffffffffffffffffffff82169050919050565b6000819050919050565b600063ffffffff82169050919050565b600067ffffffffffffffff82169050919050565b82818337600083830152505050565b60005b83811015616781578082015181840152602081019050616766565b83811115616790576000848401525b50505050565b600060028204905060018216806167ae57607f821691505b602082108114156167c2576167c16168fe565b5b50919050565b6167d18261695c565b810181811067ffffffffffffffff821117156167f0576167ef61692d565b5b80604052505050565b600061680482616726565b91507fffffffffffffffffffffffffffffffffffffffffffffffffffffffffffffffff821415616837576168366168a0565b5b600182019050919050565b600061684d82616730565b915063ffffffff821415616864576168636168a0565b5b600182019050919050565b600061687a82616740565b915067ffffffffffffffff821415616895576168946168a0565b5b600182019050919050565b7f4e487b7100000000000000000000000000000000000000000000000000000000600052601160045260246000fd5b7f4e487b7100000000000000000000000000000000000000000000000000000000600052601260045260246000fd5b7f4e487b7100000000000000000000000000000000000000000000000000000000600052602260045260246000fd5b7f4e487b7100000000000000000000000000000000000000000000000000000000600052604160045260246000fd5b6000601f19601f8301169050919050565b7f6d73672e76616c75652073686f756c6420626520766f7465506f776572202a2060008201527f3130303020657468657200000000000000000000000000000000000000000000602082015250565b7f6d73672e76616c75652073686f756c6420626520313030302043465800000000600082015250565b7f4f6e6c7920706f6f6c2061646d696e2063616e20646f20746869730000000000600082015250565b7f4d61782073656374696f6e20636f756e74206973203130300000000000000000600082015250565b7f4e6f206e657720757365722073686f7400000000000000000000000000000000600082015250565b7f506f6f6c206973206e6f74207265676973746564000000000000000000000000600082015250565b7f4c6f636b6564206973206e6f7420656e6f756768000000000000000000000000600082015250565b7f726174696f2073686f756c6420626520312d3130303030000000000000000000600082015250565b7f4d696e696d616c20766f7465506f776572206973203100000000000000000000600082015250565b7f4e6f20636c61696d61626c6520696e7465726573740000000000000000000000600082015250565b7f4e6f2073656374696f6e73000000000000000000000000000000000000000000600082015250565b7f506f6f6c20697320616c72656164792072656769737465640000000000000000600082015250565b7f4e6f20766f746520706f7765722073656374696f6e0000000000000000000000600082015250565b7f766f7465506f7765722073686f756c6420626520310000000000000000000000600082015250565b7f496e746572657374206e6f7420656e6f75676800000000000000000000000000600082015250565b7f556e6c6f636b6564206973206e6f7420656e6f75676800000000000000000000600082015250565b616c2c816166de565b8114616c3757600080fd5b50565b616c43816166fc565b8114616c4e57600080fd5b50565b616c5a81616726565b8114616c6557600080fd5b50565b616c7181616730565b8114616c7c57600080fd5b50565b616c8881616740565b8114616c9357600080fd5b5056fea2646970667358221220fd9bed2a26a80de1eeaaed08aedeef54a0be927b647fbe0a3f538a07d4adf9df64736f6c63430008040033",
  "linkReferences": {},
  "deployedLinkReferences": {}
}