{
  "_format": "hh-sol-artifact-1",
  "contractName": "PoolManager",
  "sourceName": "contracts/PoolManager.sol",
  "abi": [
    {
      "anonymous": false,
      "inputs": [
        {
          "indexed": true,
          "internalType": "address",
          "name": "previousOwner",
          "type": "address"
        },
        {
          "indexed": true,
          "internalType": "address",
          "name": "newOwner",
          "type": "address"
        }
      ],
      "name": "OwnershipTransferred",
      "type": "event"
    },
    {
      "inputs": [
        {
          "internalType": "address",
          "name": "poolAddress",
          "type": "address"
        }
      ],
      "name": "addPool",
      "outputs": [],
      "stateMutability": "nonpayable",
      "type": "function"
    },
    {
      "inputs": [],
      "name": "getPoolAddresses",
      "outputs": [
        {
          "internalType": "address[]",
          "name": "",
          "type": "address[]"
        }
      ],
      "stateMutability": "view",
      "type": "function"
    },
    {
      "inputs": [],
      "name": "getPools",
      "outputs": [
        {
          "components": [
            {
              "internalType": "uint32",
              "name": "apy",
              "type": "uint32"
            },
            {
              "internalType": "uint64",
              "name": "fee",
              "type": "uint64"
            },
            {
              "internalType": "uint64",
              "name": "totalAvailable",
              "type": "uint64"
            },
            {
              "internalType": "address",
              "name": "poolAddress",
              "type": "address"
            },
            {
              "internalType": "string",
              "name": "name",
              "type": "string"
            }
          ],
          "internalType": "struct PoolManager.PoolInfo[]",
          "name": "",
          "type": "tuple[]"
        }
      ],
      "stateMutability": "view",
      "type": "function"
    },
    {
      "inputs": [],
      "name": "owner",
      "outputs": [
        {
          "internalType": "address",
          "name": "",
          "type": "address"
        }
      ],
      "stateMutability": "view",
      "type": "function"
    },
    {
      "inputs": [
        {
          "internalType": "address",
          "name": "poolAddress",
          "type": "address"
        }
      ],
      "name": "removePool",
      "outputs": [],
      "stateMutability": "nonpayable",
      "type": "function"
    },
    {
      "inputs": [],
      "name": "renounceOwnership",
      "outputs": [],
      "stateMutability": "nonpayable",
      "type": "function"
    },
    {
      "inputs": [
        {
          "internalType": "address",
          "name": "newOwner",
          "type": "address"
        }
      ],
      "name": "transferOwnership",
      "outputs": [],
      "stateMutability": "nonpayable",
      "type": "function"
    }
  ],
  "bytecode": "0x608060405234801561001057600080fd5b5061002d61002261003260201b60201c565b61003a60201b60201c565b6100fe565b600033905090565b60008060009054906101000a900473ffffffffffffffffffffffffffffffffffffffff169050816000806101000a81548173ffffffffffffffffffffffffffffffffffffffff021916908373ffffffffffffffffffffffffffffffffffffffff1602179055508173ffffffffffffffffffffffffffffffffffffffff168173ffffffffffffffffffffffffffffffffffffffff167f8be0079c531659141344cd1fd0a4f28419497f9722a3daafe3b4186f6b6457e060405160405180910390a35050565b6114bb8061010d6000396000f3fe608060405234801561001057600080fd5b506004361061007d5760003560e01c80638da5cb5b1161005b5780638da5cb5b146100c6578063d914cd4b146100e4578063e4b6db4c14610100578063f2fde38b1461011e5761007d565b80633b7d094614610082578063673a2a1f1461009e578063715018a6146100bc575b600080fd5b61009c60048036038101906100979190610d74565b61013a565b005b6100a66101ce565b6040516100b391906110c6565b60405180910390f35b6100c46105c3565b005b6100ce61064b565b6040516100db9190611089565b60405180910390f35b6100fe60048036038101906100f99190610d74565b610674565b005b610108610708565b60405161011591906110a4565b60405180910390f35b61013860048036038101906101339190610d74565b610719565b005b610142610811565b73ffffffffffffffffffffffffffffffffffffffff1661016061064b565b73ffffffffffffffffffffffffffffffffffffffff16146101b6576040517f08c379a00000000000000000000000000000000000000000000000000000000081526004016101ad90611108565b60405180910390fd5b6101ca81600161081990919063ffffffff16565b5050565b606060006101dc6001610849565b67ffffffffffffffff81111561021b577f4e487b7100000000000000000000000000000000000000000000000000000000600052604160045260246000fd5b60405190808252806020026020018201604052801561025457816020015b610241610bf9565b8152602001906001900390816102395790505b5090506000610263600161085e565b905060005b81518163ffffffff1610156105ba576000828263ffffffff16815181106102b8577f4e487b7100000000000000000000000000000000000000000000000000000000600052603260045260246000fd5b602002602001015190506040518060a001604052808273ffffffffffffffffffffffffffffffffffffffff166382df7a3b6040518163ffffffff1660e01b815260040160206040518083038186803b15801561031357600080fd5b505afa158015610327573d6000803e3d6000fd5b505050506040513d601f19601f8201168201806040525081019061034b9190610e07565b63ffffffff1681526020018273ffffffffffffffffffffffffffffffffffffffff166367a1aa4f6040518163ffffffff1660e01b815260040160206040518083038186803b15801561039c57600080fd5b505afa1580156103b0573d6000803e3d6000fd5b505050506040513d601f19601f820116820180604052508101906103d49190610e30565b67ffffffffffffffff1681526020018273ffffffffffffffffffffffffffffffffffffffff16637571fcf66040518163ffffffff1660e01b815260040160606040518083038186803b15801561042957600080fd5b505afa15801561043d573d6000803e3d6000fd5b505050506040513d601f19601f820116820180604052508101906104619190610dde565b6000015167ffffffffffffffff168152602001848463ffffffff16815181106104b3577f4e487b7100000000000000000000000000000000000000000000000000000000600052603260045260246000fd5b602002602001015173ffffffffffffffffffffffffffffffffffffffff1681526020018273ffffffffffffffffffffffffffffffffffffffff1663f3466dfa6040518163ffffffff1660e01b815260040160006040518083038186803b15801561051c57600080fd5b505afa158015610530573d6000803e3d6000fd5b505050506040513d6000823e3d601f19601f820116820180604052508101906105599190610d9d565b815250848363ffffffff168151811061059b577f4e487b7100000000000000000000000000000000000000000000000000000000600052603260045260246000fd5b60200260200101819052505080806105b290611315565b915050610268565b50819250505090565b6105cb610811565b73ffffffffffffffffffffffffffffffffffffffff166105e961064b565b73ffffffffffffffffffffffffffffffffffffffff161461063f576040517f08c379a000000000000000000000000000000000000000000000000000000000815260040161063690611108565b60405180910390fd5b610649600061087f565b565b60008060009054906101000a900473ffffffffffffffffffffffffffffffffffffffff16905090565b61067c610811565b73ffffffffffffffffffffffffffffffffffffffff1661069a61064b565b73ffffffffffffffffffffffffffffffffffffffff16146106f0576040517f08c379a00000000000000000000000000000000000000000000000000000000081526004016106e790611108565b60405180910390fd5b61070481600161094390919063ffffffff16565b5050565b6060610714600161085e565b905090565b610721610811565b73ffffffffffffffffffffffffffffffffffffffff1661073f61064b565b73ffffffffffffffffffffffffffffffffffffffff1614610795576040517f08c379a000000000000000000000000000000000000000000000000000000000815260040161078c90611108565b60405180910390fd5b600073ffffffffffffffffffffffffffffffffffffffff168173ffffffffffffffffffffffffffffffffffffffff161415610805576040517f08c379a00000000000000000000000000000000000000000000000000000000081526004016107fc906110e8565b60405180910390fd5b61080e8161087f565b50565b600033905090565b6000610841836000018373ffffffffffffffffffffffffffffffffffffffff1660001b610973565b905092915050565b600061085782600001610af9565b9050919050565b6060600061086e83600001610b0a565b905060608190508092505050919050565b60008060009054906101000a900473ffffffffffffffffffffffffffffffffffffffff169050816000806101000a81548173ffffffffffffffffffffffffffffffffffffffff021916908373ffffffffffffffffffffffffffffffffffffffff1602179055508173ffffffffffffffffffffffffffffffffffffffff168173ffffffffffffffffffffffffffffffffffffffff167f8be0079c531659141344cd1fd0a4f28419497f9722a3daafe3b4186f6b6457e060405160405180910390a35050565b600061096b836000018373ffffffffffffffffffffffffffffffffffffffff1660001b610b66565b905092915050565b60008083600101600084815260200190815260200160002054905060008114610aed5760006001826109a5919061121d565b90506000600186600001805490506109bd919061121d565b9050818114610a78576000866000018281548110610a04577f4e487b7100000000000000000000000000000000000000000000000000000000600052603260045260246000fd5b9060005260206000200154905080876000018481548110610a4e577f4e487b7100000000000000000000000000000000000000000000000000000000600052603260045260246000fd5b90600052602060002001819055508387600101600083815260200190815260200160002081905550505b85600001805480610ab2577f4e487b7100000000000000000000000000000000000000000000000000000000600052603160045260246000fd5b600190038181906000526020600020016000905590558560010160008681526020019081526020016000206000905560019350505050610af3565b60009150505b92915050565b600081600001805490509050919050565b606081600001805480602002602001604051908101604052809291908181526020018280548015610b5a57602002820191906000526020600020905b815481526020019060010190808311610b46575b50505050509050919050565b6000610b728383610bd6565b610bcb578260000182908060018154018082558091505060019003906000526020600020016000909190919091505582600001805490508360010160008481526020019081526020016000208190555060019050610bd0565b600090505b92915050565b600080836001016000848152602001908152602001600020541415905092915050565b6040518060a00160405280600063ffffffff168152602001600067ffffffffffffffff168152602001600067ffffffffffffffff168152602001600073ffffffffffffffffffffffffffffffffffffffff168152602001606081525090565b6000610c6b610c668461114d565b611128565b905082815260208101848484011115610c8357600080fd5b610c8e8482856112b1565b509392505050565b600081359050610ca581611429565b92915050565b600082601f830112610cbc57600080fd5b8151610ccc848260208601610c58565b91505092915050565b600060608284031215610ce757600080fd5b610cf16060611128565b90506000610d0184828501610d5f565b6000830152506020610d1584828501610d35565b6020830152506040610d2984828501610d35565b60408301525092915050565b600081519050610d4481611440565b92915050565b600081519050610d5981611457565b92915050565b600081519050610d6e8161146e565b92915050565b600060208284031215610d8657600080fd5b6000610d9484828501610c96565b91505092915050565b600060208284031215610daf57600080fd5b600082015167ffffffffffffffff811115610dc957600080fd5b610dd584828501610cab565b91505092915050565b600060608284031215610df057600080fd5b6000610dfe84828501610cd5565b91505092915050565b600060208284031215610e1957600080fd5b6000610e2784828501610d4a565b91505092915050565b600060208284031215610e4257600080fd5b6000610e5084828501610d5f565b91505092915050565b6000610e658383610e85565b60208301905092915050565b6000610e7d8383610ff5565b905092915050565b610e8e81611251565b82525050565b610e9d81611251565b82525050565b6000610eae8261119e565b610eb881856111d9565b9350610ec38361117e565b8060005b83811015610ef4578151610edb8882610e59565b9750610ee6836111bf565b925050600181019050610ec7565b5085935050505092915050565b6000610f0c826111a9565b610f1681856111ea565b935083602082028501610f288561118e565b8060005b85811015610f645784840389528151610f458582610e71565b9450610f50836111cc565b925060208a01995050600181019050610f2c565b50829750879550505050505092915050565b6000610f81826111b4565b610f8b81856111fb565b9350610f9b8185602086016112b1565b610fa4816113a0565b840191505092915050565b6000610fbc60268361120c565b9150610fc7826113b1565b604082019050919050565b6000610fdf60208361120c565b9150610fea82611400565b602082019050919050565b600060a08301600083015161100d600086018261106b565b506020830151611020602086018261107a565b506040830151611033604086018261107a565b5060608301516110466060860182610e85565b506080830151848203608086015261105e8282610f76565b9150508091505092915050565b6110748161128d565b82525050565b6110838161129d565b82525050565b600060208201905061109e6000830184610e94565b92915050565b600060208201905081810360008301526110be8184610ea3565b905092915050565b600060208201905081810360008301526110e08184610f01565b905092915050565b6000602082019050818103600083015261110181610faf565b9050919050565b6000602082019050818103600083015261112181610fd2565b9050919050565b6000611132611143565b905061113e82826112e4565b919050565b6000604051905090565b600067ffffffffffffffff82111561116857611167611371565b5b611171826113a0565b9050602081019050919050565b6000819050602082019050919050565b6000819050602082019050919050565b600081519050919050565b600081519050919050565b600081519050919050565b6000602082019050919050565b6000602082019050919050565b600082825260208201905092915050565b600082825260208201905092915050565b600082825260208201905092915050565b600082825260208201905092915050565b600061122882611283565b915061123383611283565b92508282101561124657611245611342565b5b828203905092915050565b600061125c82611263565b9050919050565b600073ffffffffffffffffffffffffffffffffffffffff82169050919050565b6000819050919050565b600063ffffffff82169050919050565b600067ffffffffffffffff82169050919050565b60005b838110156112cf5780820151818401526020810190506112b4565b838111156112de576000848401525b50505050565b6112ed826113a0565b810181811067ffffffffffffffff8211171561130c5761130b611371565b5b80604052505050565b60006113208261128d565b915063ffffffff82141561133757611336611342565b5b600182019050919050565b7f4e487b7100000000000000000000000000000000000000000000000000000000600052601160045260246000fd5b7f4e487b7100000000000000000000000000000000000000000000000000000000600052604160045260246000fd5b6000601f19601f8301169050919050565b7f4f776e61626c653a206e6577206f776e657220697320746865207a65726f206160008201527f6464726573730000000000000000000000000000000000000000000000000000602082015250565b7f4f776e61626c653a2063616c6c6572206973206e6f7420746865206f776e6572600082015250565b61143281611251565b811461143d57600080fd5b50565b61144981611283565b811461145457600080fd5b50565b6114608161128d565b811461146b57600080fd5b50565b6114778161129d565b811461148257600080fd5b5056fea2646970667358221220d81fca2240c75879b3dd0acf05ace511337e7db78dee384642157e32eaeace1d64736f6c63430008040033",
  "linkReferences": {},
  "deployedLinkReferences": {}
}