{
  "_format": "hh-sol-artifact-1",
  "contractName": "PoolManager",
  "sourceName": "contracts/PoolManager.sol",
  "abi": [
    {
      "anonymous": false,
      "inputs": [
        {
          "indexed": true,
          "internalType": "address",
          "name": "previousOwner",
          "type": "address"
        },
        {
          "indexed": true,
          "internalType": "address",
          "name": "newOwner",
          "type": "address"
        }
      ],
      "name": "OwnershipTransferred",
      "type": "event"
    },
    {
      "inputs": [
        {
          "internalType": "address",
          "name": "poolAddress",
          "type": "address"
        }
      ],
      "name": "addPool",
      "outputs": [],
      "stateMutability": "nonpayable",
      "type": "function"
    },
    {
      "inputs": [
        {
          "internalType": "address",
          "name": "",
          "type": "address"
        }
      ],
      "name": "eSpacePoolAddresses",
      "outputs": [
        {
          "internalType": "address",
          "name": "",
          "type": "address"
        }
      ],
      "stateMutability": "view",
      "type": "function"
    },
    {
      "inputs": [],
      "name": "getPoolAddresses",
      "outputs": [
        {
          "internalType": "address[]",
          "name": "",
          "type": "address[]"
        }
      ],
      "stateMutability": "view",
      "type": "function"
    },
    {
      "inputs": [],
      "name": "getPools",
      "outputs": [
        {
          "components": [
            {
              "internalType": "uint32",
              "name": "apy",
              "type": "uint32"
            },
            {
              "internalType": "uint64",
              "name": "fee",
              "type": "uint64"
            },
            {
              "internalType": "uint64",
              "name": "totalAvailable",
              "type": "uint64"
            },
            {
              "internalType": "address",
              "name": "poolAddress",
              "type": "address"
            },
            {
              "internalType": "string",
              "name": "name",
              "type": "string"
            }
          ],
          "internalType": "struct PoolManager.PoolInfo[]",
          "name": "",
          "type": "tuple[]"
        }
      ],
      "stateMutability": "view",
      "type": "function"
    },
    {
      "inputs": [],
      "name": "owner",
      "outputs": [
        {
          "internalType": "address",
          "name": "",
          "type": "address"
        }
      ],
      "stateMutability": "view",
      "type": "function"
    },
    {
      "inputs": [
        {
          "internalType": "address",
          "name": "poolAddress",
          "type": "address"
        }
      ],
      "name": "removePool",
      "outputs": [],
      "stateMutability": "nonpayable",
      "type": "function"
    },
    {
      "inputs": [],
      "name": "renounceOwnership",
      "outputs": [],
      "stateMutability": "nonpayable",
      "type": "function"
    },
    {
      "inputs": [
        {
          "internalType": "address",
          "name": "core",
          "type": "address"
        },
        {
          "internalType": "address",
          "name": "espace",
          "type": "address"
        }
      ],
      "name": "setEspacePool",
      "outputs": [],
      "stateMutability": "nonpayable",
      "type": "function"
    },
    {
      "inputs": [
        {
          "internalType": "address",
          "name": "newOwner",
          "type": "address"
        }
      ],
      "name": "transferOwnership",
      "outputs": [],
      "stateMutability": "nonpayable",
      "type": "function"
    }
  ],
  "bytecode": "0x608060405234801561001057600080fd5b5061002d61002261003260201b60201c565b61003a60201b60201c565b6100fe565b600033905090565b60008060009054906101000a900473ffffffffffffffffffffffffffffffffffffffff169050816000806101000a81548173ffffffffffffffffffffffffffffffffffffffff021916908373ffffffffffffffffffffffffffffffffffffffff1602179055508173ffffffffffffffffffffffffffffffffffffffff168173ffffffffffffffffffffffffffffffffffffffff167f8be0079c531659141344cd1fd0a4f28419497f9722a3daafe3b4186f6b6457e060405160405180910390a35050565b61168a8061010d6000396000f3fe608060405234801561001057600080fd5b50600436106100935760003560e01c80638da5cb5b116100665780638da5cb5b1461010c578063d914cd4b1461012a578063e4b6db4c14610146578063ec291b3014610164578063f2fde38b1461018057610093565b80633b7d0946146100985780633edcfa67146100b4578063673a2a1f146100e4578063715018a614610102575b600080fd5b6100b260048036038101906100ad9190610f07565b61019c565b005b6100ce60048036038101906100c99190610f07565b610230565b6040516100db9190611258565b60405180910390f35b6100ec610263565b6040516100f99190611295565b60405180910390f35b61010a610658565b005b6101146106e0565b6040516101219190611258565b60405180910390f35b610144600480360381019061013f9190610f07565b610709565b005b61014e61079d565b60405161015b9190611273565b60405180910390f35b61017e60048036038101906101799190610f30565b6107ae565b005b61019a60048036038101906101959190610f07565b6108ac565b005b6101a46109a4565b73ffffffffffffffffffffffffffffffffffffffff166101c26106e0565b73ffffffffffffffffffffffffffffffffffffffff1614610218576040517f08c379a000000000000000000000000000000000000000000000000000000000815260040161020f906112d7565b60405180910390fd5b61022c8160016109ac90919063ffffffff16565b5050565b60036020528060005260406000206000915054906101000a900473ffffffffffffffffffffffffffffffffffffffff1681565b6060600061027160016109dc565b67ffffffffffffffff8111156102b0577f4e487b7100000000000000000000000000000000000000000000000000000000600052604160045260246000fd5b6040519080825280602002602001820160405280156102e957816020015b6102d6610d8c565b8152602001906001900390816102ce5790505b50905060006102f860016109f1565b905060005b81518163ffffffff16101561064f576000828263ffffffff168151811061034d577f4e487b7100000000000000000000000000000000000000000000000000000000600052603260045260246000fd5b602002602001015190506040518060a001604052808273ffffffffffffffffffffffffffffffffffffffff166382df7a3b6040518163ffffffff1660e01b815260040160206040518083038186803b1580156103a857600080fd5b505afa1580156103bc573d6000803e3d6000fd5b505050506040513d601f19601f820116820180604052508101906103e09190610fd6565b63ffffffff1681526020018273ffffffffffffffffffffffffffffffffffffffff1663e83f90286040518163ffffffff1660e01b815260040160206040518083038186803b15801561043157600080fd5b505afa158015610445573d6000803e3d6000fd5b505050506040513d601f19601f820116820180604052508101906104699190610fff565b67ffffffffffffffff1681526020018273ffffffffffffffffffffffffffffffffffffffff16637571fcf66040518163ffffffff1660e01b815260040160606040518083038186803b1580156104be57600080fd5b505afa1580156104d2573d6000803e3d6000fd5b505050506040513d601f19601f820116820180604052508101906104f69190610fad565b6000015167ffffffffffffffff168152602001848463ffffffff1681518110610548577f4e487b7100000000000000000000000000000000000000000000000000000000600052603260045260246000fd5b602002602001015173ffffffffffffffffffffffffffffffffffffffff1681526020018273ffffffffffffffffffffffffffffffffffffffff1663f3466dfa6040518163ffffffff1660e01b815260040160006040518083038186803b1580156105b157600080fd5b505afa1580156105c5573d6000803e3d6000fd5b505050506040513d6000823e3d601f19601f820116820180604052508101906105ee9190610f6c565b815250848363ffffffff1681518110610630577f4e487b7100000000000000000000000000000000000000000000000000000000600052603260045260246000fd5b6020026020010181905250508080610647906114e4565b9150506102fd565b50819250505090565b6106606109a4565b73ffffffffffffffffffffffffffffffffffffffff1661067e6106e0565b73ffffffffffffffffffffffffffffffffffffffff16146106d4576040517f08c379a00000000000000000000000000000000000000000000000000000000081526004016106cb906112d7565b60405180910390fd5b6106de6000610a12565b565b60008060009054906101000a900473ffffffffffffffffffffffffffffffffffffffff16905090565b6107116109a4565b73ffffffffffffffffffffffffffffffffffffffff1661072f6106e0565b73ffffffffffffffffffffffffffffffffffffffff1614610785576040517f08c379a000000000000000000000000000000000000000000000000000000000815260040161077c906112d7565b60405180910390fd5b610799816001610ad690919063ffffffff16565b5050565b60606107a960016109f1565b905090565b6107b66109a4565b73ffffffffffffffffffffffffffffffffffffffff166107d46106e0565b73ffffffffffffffffffffffffffffffffffffffff161461082a576040517f08c379a0000000000000000000000000000000000000000000000000000000008152600401610821906112d7565b60405180910390fd5b80600360008473ffffffffffffffffffffffffffffffffffffffff1673ffffffffffffffffffffffffffffffffffffffff16815260200190815260200160002060006101000a81548173ffffffffffffffffffffffffffffffffffffffff021916908373ffffffffffffffffffffffffffffffffffffffff1602179055505050565b6108b46109a4565b73ffffffffffffffffffffffffffffffffffffffff166108d26106e0565b73ffffffffffffffffffffffffffffffffffffffff1614610928576040517f08c379a000000000000000000000000000000000000000000000000000000000815260040161091f906112d7565b60405180910390fd5b600073ffffffffffffffffffffffffffffffffffffffff168173ffffffffffffffffffffffffffffffffffffffff161415610998576040517f08c379a000000000000000000000000000000000000000000000000000000000815260040161098f906112b7565b60405180910390fd5b6109a181610a12565b50565b600033905090565b60006109d4836000018373ffffffffffffffffffffffffffffffffffffffff1660001b610b06565b905092915050565b60006109ea82600001610c8c565b9050919050565b60606000610a0183600001610c9d565b905060608190508092505050919050565b60008060009054906101000a900473ffffffffffffffffffffffffffffffffffffffff169050816000806101000a81548173ffffffffffffffffffffffffffffffffffffffff021916908373ffffffffffffffffffffffffffffffffffffffff1602179055508173ffffffffffffffffffffffffffffffffffffffff168173ffffffffffffffffffffffffffffffffffffffff167f8be0079c531659141344cd1fd0a4f28419497f9722a3daafe3b4186f6b6457e060405160405180910390a35050565b6000610afe836000018373ffffffffffffffffffffffffffffffffffffffff1660001b610cf9565b905092915050565b60008083600101600084815260200190815260200160002054905060008114610c80576000600182610b3891906113ec565b9050600060018660000180549050610b5091906113ec565b9050818114610c0b576000866000018281548110610b97577f4e487b7100000000000000000000000000000000000000000000000000000000600052603260045260246000fd5b9060005260206000200154905080876000018481548110610be1577f4e487b7100000000000000000000000000000000000000000000000000000000600052603260045260246000fd5b90600052602060002001819055508387600101600083815260200190815260200160002081905550505b85600001805480610c45577f4e487b7100000000000000000000000000000000000000000000000000000000600052603160045260246000fd5b600190038181906000526020600020016000905590558560010160008681526020019081526020016000206000905560019350505050610c86565b60009150505b92915050565b600081600001805490509050919050565b606081600001805480602002602001604051908101604052809291908181526020018280548015610ced57602002820191906000526020600020905b815481526020019060010190808311610cd9575b50505050509050919050565b6000610d058383610d69565b610d5e578260000182908060018154018082558091505060019003906000526020600020016000909190919091505582600001805490508360010160008481526020019081526020016000208190555060019050610d63565b600090505b92915050565b600080836001016000848152602001908152602001600020541415905092915050565b6040518060a00160405280600063ffffffff168152602001600067ffffffffffffffff168152602001600067ffffffffffffffff168152602001600073ffffffffffffffffffffffffffffffffffffffff168152602001606081525090565b6000610dfe610df98461131c565b6112f7565b905082815260208101848484011115610e1657600080fd5b610e21848285611480565b509392505050565b600081359050610e38816115f8565b92915050565b600082601f830112610e4f57600080fd5b8151610e5f848260208601610deb565b91505092915050565b600060608284031215610e7a57600080fd5b610e8460606112f7565b90506000610e9484828501610ef2565b6000830152506020610ea884828501610ec8565b6020830152506040610ebc84828501610ec8565b60408301525092915050565b600081519050610ed78161160f565b92915050565b600081519050610eec81611626565b92915050565b600081519050610f018161163d565b92915050565b600060208284031215610f1957600080fd5b6000610f2784828501610e29565b91505092915050565b60008060408385031215610f4357600080fd5b6000610f5185828601610e29565b9250506020610f6285828601610e29565b9150509250929050565b600060208284031215610f7e57600080fd5b600082015167ffffffffffffffff811115610f9857600080fd5b610fa484828501610e3e565b91505092915050565b600060608284031215610fbf57600080fd5b6000610fcd84828501610e68565b91505092915050565b600060208284031215610fe857600080fd5b6000610ff684828501610edd565b91505092915050565b60006020828403121561101157600080fd5b600061101f84828501610ef2565b91505092915050565b60006110348383611054565b60208301905092915050565b600061104c83836111c4565b905092915050565b61105d81611420565b82525050565b61106c81611420565b82525050565b600061107d8261136d565b61108781856113a8565b93506110928361134d565b8060005b838110156110c35781516110aa8882611028565b97506110b58361138e565b925050600181019050611096565b5085935050505092915050565b60006110db82611378565b6110e581856113b9565b9350836020820285016110f78561135d565b8060005b8581101561113357848403895281516111148582611040565b945061111f8361139b565b925060208a019950506001810190506110fb565b50829750879550505050505092915050565b600061115082611383565b61115a81856113ca565b935061116a818560208601611480565b6111738161156f565b840191505092915050565b600061118b6026836113db565b915061119682611580565b604082019050919050565b60006111ae6020836113db565b91506111b9826115cf565b602082019050919050565b600060a0830160008301516111dc600086018261123a565b5060208301516111ef6020860182611249565b5060408301516112026040860182611249565b5060608301516112156060860182611054565b506080830151848203608086015261122d8282611145565b9150508091505092915050565b6112438161145c565b82525050565b6112528161146c565b82525050565b600060208201905061126d6000830184611063565b92915050565b6000602082019050818103600083015261128d8184611072565b905092915050565b600060208201905081810360008301526112af81846110d0565b905092915050565b600060208201905081810360008301526112d08161117e565b9050919050565b600060208201905081810360008301526112f0816111a1565b9050919050565b6000611301611312565b905061130d82826114b3565b919050565b6000604051905090565b600067ffffffffffffffff82111561133757611336611540565b5b6113408261156f565b9050602081019050919050565b6000819050602082019050919050565b6000819050602082019050919050565b600081519050919050565b600081519050919050565b600081519050919050565b6000602082019050919050565b6000602082019050919050565b600082825260208201905092915050565b600082825260208201905092915050565b600082825260208201905092915050565b600082825260208201905092915050565b60006113f782611452565b915061140283611452565b92508282101561141557611414611511565b5b828203905092915050565b600061142b82611432565b9050919050565b600073ffffffffffffffffffffffffffffffffffffffff82169050919050565b6000819050919050565b600063ffffffff82169050919050565b600067ffffffffffffffff82169050919050565b60005b8381101561149e578082015181840152602081019050611483565b838111156114ad576000848401525b50505050565b6114bc8261156f565b810181811067ffffffffffffffff821117156114db576114da611540565b5b80604052505050565b60006114ef8261145c565b915063ffffffff82141561150657611505611511565b5b600182019050919050565b7f4e487b7100000000000000000000000000000000000000000000000000000000600052601160045260246000fd5b7f4e487b7100000000000000000000000000000000000000000000000000000000600052604160045260246000fd5b6000601f19601f8301169050919050565b7f4f776e61626c653a206e6577206f776e657220697320746865207a65726f206160008201527f6464726573730000000000000000000000000000000000000000000000000000602082015250565b7f4f776e61626c653a2063616c6c6572206973206e6f7420746865206f776e6572600082015250565b61160181611420565b811461160c57600080fd5b50565b61161881611452565b811461162357600080fd5b50565b61162f8161145c565b811461163a57600080fd5b50565b6116468161146c565b811461165157600080fd5b5056fea2646970667358221220534d8718d456404402c966307bc07aa30d0c7aeb8c5229877550af1f2cf04c2a64736f6c63430008040033",
  "linkReferences": {},
  "deployedLinkReferences": {}
}