{
  "_format": "hh-sol-artifact-1",
  "contractName": "PoSPoolStorage",
  "sourceName": "contracts/PoSPoolStorage.sol",
  "abi": [
    {
      "inputs": [],
      "name": "_poolLockPeriod",
      "outputs": [
        {
          "internalType": "uint64",
          "name": "",
          "type": "uint64"
        }
      ],
      "stateMutability": "view",
      "type": "function"
    },
    {
      "inputs": [],
      "name": "_poolName",
      "outputs": [
        {
          "internalType": "string",
          "name": "",
          "type": "string"
        }
      ],
      "stateMutability": "view",
      "type": "function"
    },
    {
      "inputs": [],
      "name": "_poolRegisted",
      "outputs": [
        {
          "internalType": "bool",
          "name": "",
          "type": "bool"
        }
      ],
      "stateMutability": "view",
      "type": "function"
    },
    {
      "inputs": [],
      "name": "poolSummary",
      "outputs": [
        {
          "internalType": "uint64",
          "name": "available",
          "type": "uint64"
        },
        {
          "internalType": "uint256",
          "name": "interest",
          "type": "uint256"
        },
        {
          "internalType": "uint256",
          "name": "totalInterest",
          "type": "uint256"
        }
      ],
      "stateMutability": "view",
      "type": "function"
    },
    {
      "inputs": [],
      "name": "poolUserShareRatio",
      "outputs": [
        {
          "internalType": "uint32",
          "name": "",
          "type": "uint32"
        }
      ],
      "stateMutability": "view",
      "type": "function"
    }
  ],
  "bytecode": "0x60806040526123286000806101000a81548163ffffffff021916908363ffffffff16021790555060076202a30061003691906100ec565b600060056101000a81548167ffffffffffffffff021916908367ffffffffffffffff160217905550683635c9adc5dea000006002556040518060600160405280600067ffffffffffffffff168152602001600081526020016000815250600460008201518160000160006101000a81548167ffffffffffffffff021916908367ffffffffffffffff160217905550602082015181600101556040820151816002015550503480156100e657600080fd5b50610171565b60006100f78261012e565b91506101028361012e565b92508167ffffffffffffffff048311821515161561012357610122610142565b5b828202905092915050565b600067ffffffffffffffff82169050919050565b7f4e487b7100000000000000000000000000000000000000000000000000000000600052601160045260246000fd5b61043f806101806000396000f3fe608060405234801561001057600080fd5b50600436106100575760003560e01c80632c779df21461005c5780634b1b45e61461007a57806367a1aa4f146100985780637571fcf6146100b6578063b4064a25146100d6575b600080fd5b6100646100f4565b604051610071919061027f565b60405180910390f35b610082610182565b60405161008f9190610264565b60405180910390f35b6100a0610195565b6040516100ad91906102a1565b60405180910390f35b6100be6101a9565b6040516100cd939291906102d7565b60405180910390f35b6100de6101d5565b6040516100eb91906102bc565b60405180910390f35b6001805461010190610397565b80601f016020809104026020016040519081016040528092919081815260200182805461012d90610397565b801561017a5780601f1061014f5761010080835404028352916020019161017a565b820191906000526020600020905b81548152906001019060200180831161015d57829003601f168201915b505050505081565b600060049054906101000a900460ff1681565b60008054906101000a900463ffffffff1681565b60048060000160009054906101000a900467ffffffffffffffff16908060010154908060020154905083565b600060059054906101000a900467ffffffffffffffff1681565b6101f88161032a565b82525050565b60006102098261030e565b6102138185610319565b9350610223818560208601610364565b61022c816103f8565b840191505092915050565b61024081610336565b82525050565b61024f81610340565b82525050565b61025e81610350565b82525050565b600060208201905061027960008301846101ef565b92915050565b6000602082019050818103600083015261029981846101fe565b905092915050565b60006020820190506102b66000830184610246565b92915050565b60006020820190506102d16000830184610255565b92915050565b60006060820190506102ec6000830186610255565b6102f96020830185610237565b6103066040830184610237565b949350505050565b600081519050919050565b600082825260208201905092915050565b60008115159050919050565b6000819050919050565b600063ffffffff82169050919050565b600067ffffffffffffffff82169050919050565b60005b83811015610382578082015181840152602081019050610367565b83811115610391576000848401525b50505050565b600060028204905060018216806103af57607f821691505b602082108114156103c3576103c26103c9565b5b50919050565b7f4e487b7100000000000000000000000000000000000000000000000000000000600052602260045260246000fd5b6000601f19601f830116905091905056fea2646970667358221220015fac766ea05bf033d2db75aa276117c396619f99a1765b7b3fc350798ed65664736f6c63430008040033",
  "linkReferences": {},
  "deployedLinkReferences": {}
}