{
  "_format": "hh-sol-artifact-1",
  "contractName": "MockStaking",
  "sourceName": "contracts/mocks/Staking.sol",
  "abi": [
    {
      "inputs": [],
      "stateMutability": "nonpayable",
      "type": "constructor"
    },
    {
      "inputs": [],
      "name": "_addInterest",
      "outputs": [],
      "stateMutability": "payable",
      "type": "function"
    },
    {
      "inputs": [
        {
          "internalType": "address",
          "name": "_user",
          "type": "address"
        }
      ],
      "name": "_sendUserInterest",
      "outputs": [],
      "stateMutability": "payable",
      "type": "function"
    },
    {
      "inputs": [
        {
          "internalType": "uint256",
          "name": "amount",
          "type": "uint256"
        }
      ],
      "name": "deposit",
      "outputs": [],
      "stateMutability": "payable",
      "type": "function"
    },
    {
      "inputs": [
        {
          "internalType": "address",
          "name": "user",
          "type": "address"
        },
        {
          "internalType": "uint256",
          "name": "blockNumber",
          "type": "uint256"
        }
      ],
      "name": "getLockedStakingBalance",
      "outputs": [
        {
          "internalType": "uint256",
          "name": "",
          "type": "uint256"
        }
      ],
      "stateMutability": "pure",
      "type": "function"
    },
    {
      "inputs": [
        {
          "internalType": "address",
          "name": "user",
          "type": "address"
        }
      ],
      "name": "getStakingBalance",
      "outputs": [
        {
          "internalType": "uint256",
          "name": "",
          "type": "uint256"
        }
      ],
      "stateMutability": "view",
      "type": "function"
    },
    {
      "inputs": [
        {
          "internalType": "address",
          "name": "user",
          "type": "address"
        },
        {
          "internalType": "uint256",
          "name": "blockNumber",
          "type": "uint256"
        }
      ],
      "name": "getVotePower",
      "outputs": [
        {
          "internalType": "uint256",
          "name": "",
          "type": "uint256"
        }
      ],
      "stateMutability": "pure",
      "type": "function"
    },
    {
      "inputs": [
        {
          "internalType": "uint256",
          "name": "amount",
          "type": "uint256"
        },
        {
          "internalType": "uint256",
          "name": "unlockBlockNumber",
          "type": "uint256"
        }
      ],
      "name": "voteLock",
      "outputs": [],
      "stateMutability": "nonpayable",
      "type": "function"
    },
    {
      "inputs": [
        {
          "internalType": "uint256",
          "name": "amount",
          "type": "uint256"
        }
      ],
      "name": "withdraw",
      "outputs": [],
      "stateMutability": "nonpayable",
      "type": "function"
    }
  ],
  "bytecode": "0x608060405234801561001057600080fd5b50336000806101000a81548173ffffffffffffffffffffffffffffffffffffffff021916908373ffffffffffffffffffffffffffffffffffffffff160217905550610cbd806100606000396000f3fe60806040526004361061007b5760003560e01c8063b3657ee71161004e578063b3657ee71461012b578063b6b55f2514610168578063c90abac814610184578063ffd6c7c3146101c15761007b565b80632e1a7d4d1461008057806344a51d6d146100a9578063515395a3146100d2578063b04ef9c2146100ee575b600080fd5b34801561008c57600080fd5b506100a760048036038101906100a291906107ee565b6101cb565b005b3480156100b557600080fd5b506100d060048036038101906100cb9190610817565b610332565b005b6100ec60048036038101906100e79190610789565b610377565b005b3480156100fa57600080fd5b5061011560048036038101906101109190610789565b610544565b60405161012291906109b1565b60405180910390f35b34801561013757600080fd5b50610152600480360381019061014d91906107b2565b61058d565b60405161015f91906109b1565b60405180910390f35b610182600480360381019061017d91906107ee565b610595565b005b34801561019057600080fd5b506101ab60048036038101906101a691906107b2565b61066f565b6040516101b891906109b1565b60405180910390f35b6101c9610677565b005b80600160003373ffffffffffffffffffffffffffffffffffffffff1673ffffffffffffffffffffffffffffffffffffffff16815260200190815260200160002054101561024d576040517f08c379a000000000000000000000000000000000000000000000000000000000815260040161024490610931565b60405180910390fd5b61029f81600160003373ffffffffffffffffffffffffffffffffffffffff1673ffffffffffffffffffffffffffffffffffffffff1681526020019081526020016000205461070790919063ffffffff16565b600160003373ffffffffffffffffffffffffffffffffffffffff1673ffffffffffffffffffffffffffffffffffffffff1681526020019081526020016000208190555060003390508073ffffffffffffffffffffffffffffffffffffffff166108fc839081150290604051600060405180830381858888f1935050505015801561032d573d6000803e3d6000fd5b505050565b6000610373576040517f08c379a000000000000000000000000000000000000000000000000000000000815260040161036a90610951565b60405180910390fd5b5050565b60008054906101000a900473ffffffffffffffffffffffffffffffffffffffff1673ffffffffffffffffffffffffffffffffffffffff163373ffffffffffffffffffffffffffffffffffffffff1614610405576040517f08c379a00000000000000000000000000000000000000000000000000000000081526004016103fc90610991565b60405180910390fd5b6000600160008373ffffffffffffffffffffffffffffffffffffffff1673ffffffffffffffffffffffffffffffffffffffff1681526020019081526020016000205411610487576040517f08c379a000000000000000000000000000000000000000000000000000000000815260040161047e90610911565b60405180910390fd5b60006104f16127106104e3610190600160008773ffffffffffffffffffffffffffffffffffffffff1673ffffffffffffffffffffffffffffffffffffffff1681526020019081526020016000205461071d90919063ffffffff16565b61073390919063ffffffff16565b905060008290508073ffffffffffffffffffffffffffffffffffffffff166108fc839081150290604051600060405180830381858888f1935050505015801561053e573d6000803e3d6000fd5b50505050565b6000600160008373ffffffffffffffffffffffffffffffffffffffff1673ffffffffffffffffffffffffffffffffffffffff168152602001908152602001600020549050919050565b600092915050565b8034146105d7576040517f08c379a00000000000000000000000000000000000000000000000000000000081526004016105ce90610971565b60405180910390fd5b61062981600160003373ffffffffffffffffffffffffffffffffffffffff1673ffffffffffffffffffffffffffffffffffffffff1681526020019081526020016000205461074990919063ffffffff16565b600160003373ffffffffffffffffffffffffffffffffffffffff1673ffffffffffffffffffffffffffffffffffffffff1681526020019081526020016000208190555050565b600092915050565b60008054906101000a900473ffffffffffffffffffffffffffffffffffffffff1673ffffffffffffffffffffffffffffffffffffffff163373ffffffffffffffffffffffffffffffffffffffff1614610705576040517f08c379a00000000000000000000000000000000000000000000000000000000081526004016106fc90610991565b60405180910390fd5b565b600081836107159190610abe565b905092915050565b6000818361072b9190610a64565b905092915050565b600081836107419190610a33565b905092915050565b6000818361075791906109dd565b905092915050565b60008135905061076e81610c59565b92915050565b60008135905061078381610c70565b92915050565b60006020828403121561079b57600080fd5b60006107a98482850161075f565b91505092915050565b600080604083850312156107c557600080fd5b60006107d38582860161075f565b92505060206107e485828601610774565b9150509250929050565b60006020828403121561080057600080fd5b600061080e84828501610774565b91505092915050565b6000806040838503121561082a57600080fd5b600061083885828601610774565b925050602061084985828601610774565b9150509250929050565b6000610860601b836109cc565b915061086b82610b8c565b602082019050919050565b60006108836014836109cc565b915061088e82610bb5565b602082019050919050565b60006108a6600f836109cc565b91506108b182610bde565b602082019050919050565b60006108c9600d836109cc565b91506108d482610c07565b602082019050919050565b60006108ec601b836109cc565b91506108f782610c30565b602082019050919050565b61090b81610b24565b82525050565b6000602082019050818103600083015261092a81610853565b9050919050565b6000602082019050818103600083015261094a81610876565b9050919050565b6000602082019050818103600083015261096a81610899565b9050919050565b6000602082019050818103600083015261098a816108bc565b9050919050565b600060208201905081810360008301526109aa816108df565b9050919050565b60006020820190506109c66000830184610902565b92915050565b600082825260208201905092915050565b60006109e882610b24565b91506109f383610b24565b9250827fffffffffffffffffffffffffffffffffffffffffffffffffffffffffffffffff03821115610a2857610a27610b2e565b5b828201905092915050565b6000610a3e82610b24565b9150610a4983610b24565b925082610a5957610a58610b5d565b5b828204905092915050565b6000610a6f82610b24565b9150610a7a83610b24565b9250817fffffffffffffffffffffffffffffffffffffffffffffffffffffffffffffffff0483118215151615610ab357610ab2610b2e565b5b828202905092915050565b6000610ac982610b24565b9150610ad483610b24565b925082821015610ae757610ae6610b2e565b5b828203905092915050565b6000610afd82610b04565b9050919050565b600073ffffffffffffffffffffffffffffffffffffffff82169050919050565b6000819050919050565b7f4e487b7100000000000000000000000000000000000000000000000000000000600052601160045260246000fd5b7f4e487b7100000000000000000000000000000000000000000000000000000000600052601260045260246000fd5b7f5573657220686173206e6f207374616b696e672062616c616e63650000000000600082015250565b7f496e73756666696369656e742062616c616e6365000000000000000000000000600082015250565b7f4e6f7420696d706c656d656e7465640000000000000000000000000000000000600082015250565b7f496e76616c69642076616c756500000000000000000000000000000000000000600082015250565b7f4f6e6c792061646d696e2063616e2061646420696e7465726573740000000000600082015250565b610c6281610af2565b8114610c6d57600080fd5b50565b610c7981610b24565b8114610c8457600080fd5b5056fea2646970667358221220116a9e0f917e1aa76bbc4b1b76f5ca5c5e96d96590e880245c2ff7f9383c28fa64736f6c63430008040033",
  "linkReferences": {},
  "deployedLinkReferences": {}
}