{
  "_format": "hh-sol-artifact-1",
  "contractName": "StorageProxy",
  "sourceName": "contracts/test-contracts/upgradeable/Proxy.sol",
  "abi": [
    {
      "stateMutability": "payable",
      "type": "fallback"
    },
    {
      "inputs": [
        {
          "internalType": "address",
          "name": "_addr",
          "type": "address"
        }
      ],
      "name": "setLogicAddress",
      "outputs": [],
      "stateMutability": "nonpayable",
      "type": "function"
    },
    {
      "stateMutability": "payable",
      "type": "receive"
    }
  ],
  "bytecode": "0x608060405234801561001057600080fd5b506101d1806100206000396000f3fe6080604052600436106100225760003560e01c8063fdcfc3ef1461003b57610031565b366100315761002f610064565b005b610039610064565b005b34801561004757600080fd5b50610062600480360381019061005d9190610129565b61007e565b005b61006c6100c2565b61007c6100776100c4565b6100ee565b565b80600160006101000a81548173ffffffffffffffffffffffffffffffffffffffff021916908373ffffffffffffffffffffffffffffffffffffffff16021790555050565b565b6000600160009054906101000a900473ffffffffffffffffffffffffffffffffffffffff16905090565b3660008037600080366000845af43d6000803e806000811461010f573d6000f35b3d6000fd5b60008135905061012381610184565b92915050565b60006020828403121561013b57600080fd5b600061014984828501610114565b91505092915050565b600061015d82610164565b9050919050565b600073ffffffffffffffffffffffffffffffffffffffff82169050919050565b61018d81610152565b811461019857600080fd5b5056fea2646970667358221220921d712e67d93c76bf69460407660cbbf5aea52d9288687b2a6d0b01684bc6b364736f6c63430008040033",
  "linkReferences": {},
  "deployedLinkReferences": {}
}