{
  "_format": "hh-sol-artifact-1",
  "contractName": "InternalContractHandle",
  "sourceName": "contracts/InternalContractHandle.sol",
  "abi": [
    {
      "inputs": [
        {
          "internalType": "address",
          "name": "_addr",
          "type": "address"
        }
      ],
      "name": "_posAddressToIdentifier",
      "outputs": [
        {
          "internalType": "bytes32",
          "name": "",
          "type": "bytes32"
        }
      ],
      "stateMutability": "view",
      "type": "function"
    },
    {
      "inputs": [
        {
          "internalType": "uint64",
          "name": "votePower",
          "type": "uint64"
        }
      ],
      "name": "_posRegisterIncreaseStake",
      "outputs": [],
      "stateMutability": "nonpayable",
      "type": "function"
    },
    {
      "inputs": [
        {
          "internalType": "bytes32",
          "name": "indentifier",
          "type": "bytes32"
        },
        {
          "internalType": "uint64",
          "name": "votePower",
          "type": "uint64"
        },
        {
          "internalType": "bytes",
          "name": "blsPubKey",
          "type": "bytes"
        },
        {
          "internalType": "bytes",
          "name": "vrfPubKey",
          "type": "bytes"
        },
        {
          "internalType": "bytes[2]",
          "name": "blsPubKeyProof",
          "type": "bytes[2]"
        }
      ],
      "name": "_posRegisterRegister",
      "outputs": [],
      "stateMutability": "nonpayable",
      "type": "function"
    },
    {
      "inputs": [
        {
          "internalType": "uint64",
          "name": "votePower",
          "type": "uint64"
        }
      ],
      "name": "_posRegisterRetire",
      "outputs": [],
      "stateMutability": "nonpayable",
      "type": "function"
    },
    {
      "inputs": [
        {
          "internalType": "uint256",
          "name": "_amount",
          "type": "uint256"
        }
      ],
      "name": "_stakingDeposit",
      "outputs": [],
      "stateMutability": "nonpayable",
      "type": "function"
    },
    {
      "inputs": [
        {
          "internalType": "uint256",
          "name": "_amount",
          "type": "uint256"
        }
      ],
      "name": "_stakingWithdraw",
      "outputs": [],
      "stateMutability": "nonpayable",
      "type": "function"
    }
  ],
  "bytecode": "0x608060405234801561001057600080fd5b50610a57806100206000396000f3fe608060405234801561001057600080fd5b50600436106100625760003560e01c806327d8ed3f146100675780635825761a146100835780637ee8f4731461009f57806380f818f9146100bb578063dced4de4146100d7578063fdb259c014610107575b600080fd5b610081600480360381019061007c9190610679565b610123565b005b61009d60048036038101906100989190610679565b6101a5565b005b6100b960048036038101906100b49190610650565b610227565b005b6100d560048036038101906100d09190610588565b6102a9565b005b6100f160048036038101906100ec9190610536565b61033d565b6040516100fe91906107e8565b60405180910390f35b610121600480360381019061011c9190610650565b6103e3565b005b73088800000000000000000000000000000000000573ffffffffffffffffffffffffffffffffffffffff166309fecf7f826040518263ffffffff1660e01b8152600401610170919061088a565b600060405180830381600087803b15801561018a57600080fd5b505af115801561019e573d6000803e3d6000fd5b5050505050565b73088800000000000000000000000000000000000573ffffffffffffffffffffffffffffffffffffffff1663f49d0638826040518263ffffffff1660e01b81526004016101f2919061088a565b600060405180830381600087803b15801561020c57600080fd5b505af1158015610220573d6000803e3d6000fd5b5050505050565b73088800000000000000000000000000000000000273ffffffffffffffffffffffffffffffffffffffff16632e1a7d4d826040518263ffffffff1660e01b8152600401610274919061086f565b600060405180830381600087803b15801561028e57600080fd5b505af11580156102a2573d6000803e3d6000fd5b5050505050565b73088800000000000000000000000000000000000573ffffffffffffffffffffffffffffffffffffffff1663e335b451888888888888886040518863ffffffff1660e01b81526004016103029796959493929190610803565b600060405180830381600087803b15801561031c57600080fd5b505af1158015610330573d6000803e3d6000fd5b5050505050505050505050565b600073088800000000000000000000000000000000000573ffffffffffffffffffffffffffffffffffffffff16636a06ea96836040518263ffffffff1660e01b815260040161038c91906107cd565b60206040518083038186803b1580156103a457600080fd5b505afa1580156103b8573d6000803e3d6000fd5b505050506040513d601f19601f820116820180604052508101906103dc919061055f565b9050919050565b73088800000000000000000000000000000000000273ffffffffffffffffffffffffffffffffffffffff1663b6b55f25826040518263ffffffff1660e01b8152600401610430919061086f565b600060405180830381600087803b15801561044a57600080fd5b505af115801561045e573d6000803e3d6000fd5b5050505050565b600081359050610474816109c5565b92915050565b60008190508260206002028201111561049257600080fd5b92915050565b6000813590506104a7816109dc565b92915050565b6000815190506104bc816109dc565b92915050565b60008083601f8401126104d457600080fd5b8235905067ffffffffffffffff8111156104ed57600080fd5b60208301915083600182028301111561050557600080fd5b9250929050565b60008135905061051b816109f3565b92915050565b60008135905061053081610a0a565b92915050565b60006020828403121561054857600080fd5b600061055684828501610465565b91505092915050565b60006020828403121561057157600080fd5b600061057f848285016104ad565b91505092915050565b600080600080600080600060a0888a0312156105a357600080fd5b60006105b18a828b01610498565b97505060206105c28a828b01610521565b965050604088013567ffffffffffffffff8111156105df57600080fd5b6105eb8a828b016104c2565b9550955050606088013567ffffffffffffffff81111561060a57600080fd5b6106168a828b016104c2565b9350935050608088013567ffffffffffffffff81111561063557600080fd5b6106418a828b0161047a565b91505092959891949750929550565b60006020828403121561066257600080fd5b60006106708482850161050c565b91505092915050565b60006020828403121561068b57600080fd5b600061069984828501610521565b91505092915050565b60006106af848484610755565b90509392505050565b6106c18161094b565b82525050565b60006106d2826108af565b6106dc81856108c7565b9350836020820285016106ee856108a5565b8060005b8581101561073457848403895261070982846108f4565b6107148682846106a2565b955061071f846108ba565b935060208b019a5050506001810190506106f2565b50829750879550505050505092915050565b61074f8161095d565b82525050565b600061076183856108d2565b935061076e8385846109a5565b610777836109b4565b840190509392505050565b600061078e83856108e3565b935061079b8385846109a5565b6107a4836109b4565b840190509392505050565b6107b881610987565b82525050565b6107c781610991565b82525050565b60006020820190506107e260008301846106b8565b92915050565b60006020820190506107fd6000830184610746565b92915050565b600060a082019050610818600083018a610746565b61082560208301896107be565b8181036040830152610838818789610782565b9050818103606083015261084d818587610782565b9050818103608083015261086181846106c7565b905098975050505050505050565b600060208201905061088460008301846107af565b92915050565b600060208201905061089f60008301846107be565b92915050565b6000819050919050565b600060029050919050565b6000602082019050919050565b600081905092915050565b600082825260208201905092915050565b600082825260208201905092915050565b6000808335600160200384360303811261090d57600080fd5b83810192508235915060208301925067ffffffffffffffff82111561093157600080fd5b60018202360384131561094357600080fd5b509250929050565b600061095682610967565b9050919050565b6000819050919050565b600073ffffffffffffffffffffffffffffffffffffffff82169050919050565b6000819050919050565b600067ffffffffffffffff82169050919050565b82818337600083830152505050565b6000601f19601f8301169050919050565b6109ce8161094b565b81146109d957600080fd5b50565b6109e58161095d565b81146109f057600080fd5b50565b6109fc81610987565b8114610a0757600080fd5b50565b610a1381610991565b8114610a1e57600080fd5b5056fea26469706673582212207e148c996c378b0e2a75631f47250e3e4baa627cf1d0bbba5feb065912d6766864736f6c63430008040033",
  "linkReferences": {},
  "deployedLinkReferences": {}
}