{
  "_format": "hh-sol-artifact-1",
  "contractName": "MockPoSRegister",
  "sourceName": "contracts/mocks/PoSRegister.sol",
  "abi": [
    {
      "anonymous": false,
      "inputs": [
        {
          "indexed": true,
          "internalType": "bytes32",
          "name": "identifier",
          "type": "bytes32"
        },
        {
          "indexed": false,
          "internalType": "uint64",
          "name": "votePower",
          "type": "uint64"
        }
      ],
      "name": "IncreaseStake",
      "type": "event"
    },
    {
      "anonymous": false,
      "inputs": [
        {
          "indexed": true,
          "internalType": "bytes32",
          "name": "identifier",
          "type": "bytes32"
        },
        {
          "indexed": false,
          "internalType": "bytes",
          "name": "blsPubKey",
          "type": "bytes"
        },
        {
          "indexed": false,
          "internalType": "bytes",
          "name": "vrfPubKey",
          "type": "bytes"
        }
      ],
      "name": "Register",
      "type": "event"
    },
    {
      "anonymous": false,
      "inputs": [
        {
          "indexed": true,
          "internalType": "bytes32",
          "name": "identifier",
          "type": "bytes32"
        },
        {
          "indexed": false,
          "internalType": "uint64",
          "name": "votePower",
          "type": "uint64"
        }
      ],
      "name": "Retire",
      "type": "event"
    },
    {
      "inputs": [
        {
          "internalType": "address",
          "name": "addr",
          "type": "address"
        }
      ],
      "name": "addressToIdentifier",
      "outputs": [
        {
          "internalType": "bytes32",
          "name": "",
          "type": "bytes32"
        }
      ],
      "stateMutability": "view",
      "type": "function"
    },
    {
      "inputs": [
        {
          "internalType": "bytes32",
          "name": "identifier",
          "type": "bytes32"
        }
      ],
      "name": "getVotes",
      "outputs": [
        {
          "internalType": "uint256",
          "name": "",
          "type": "uint256"
        },
        {
          "internalType": "uint256",
          "name": "",
          "type": "uint256"
        }
      ],
      "stateMutability": "view",
      "type": "function"
    },
    {
      "inputs": [
        {
          "internalType": "bytes32",
          "name": "identifier",
          "type": "bytes32"
        }
      ],
      "name": "identifierToAddress",
      "outputs": [
        {
          "internalType": "address",
          "name": "",
          "type": "address"
        }
      ],
      "stateMutability": "view",
      "type": "function"
    },
    {
      "inputs": [
        {
          "internalType": "uint64",
          "name": "votePower",
          "type": "uint64"
        }
      ],
      "name": "increaseStake",
      "outputs": [],
      "stateMutability": "nonpayable",
      "type": "function"
    },
    {
      "inputs": [
        {
          "internalType": "bytes32",
          "name": "indentifier",
          "type": "bytes32"
        },
        {
          "internalType": "uint64",
          "name": "votePower",
          "type": "uint64"
        },
        {
          "internalType": "bytes",
          "name": "blsPubKey",
          "type": "bytes"
        },
        {
          "internalType": "bytes",
          "name": "vrfPubKey",
          "type": "bytes"
        },
        {
          "internalType": "bytes[2]",
          "name": "blsPubKeyProof",
          "type": "bytes[2]"
        }
      ],
      "name": "register",
      "outputs": [],
      "stateMutability": "nonpayable",
      "type": "function"
    },
    {
      "inputs": [
        {
          "internalType": "uint64",
          "name": "votePower",
          "type": "uint64"
        }
      ],
      "name": "retire",
      "outputs": [],
      "stateMutability": "nonpayable",
      "type": "function"
    }
  ],
  "bytecode": "0x608060405234801561001057600080fd5b50610a31806100206000396000f3fe608060405234801561001057600080fd5b50600436106100625760003560e01c806309fecf7f146100675780634c051100146100835780636a06ea96146100b4578063e335b451146100e4578063e9e4aa4614610100578063f49d063814610130575b600080fd5b610081600480360381019061007c9190610777565b61014c565b005b61009d60048036038101906100989190610686565b61024d565b6040516100ab92919061087a565b60405180910390f35b6100ce60048036038101906100c9919061065d565b610354565b6040516100db9190610824565b60405180910390f35b6100fe60048036038101906100f991906106af565b61039c565b005b61011a60048036038101906101159190610686565b610478565b6040516101279190610809565b60405180910390f35b61014a60048036038101906101459190610777565b6104b5565b005b80600260003373ffffffffffffffffffffffffffffffffffffffff1673ffffffffffffffffffffffffffffffffffffffff16815260200190815260200160002060008282829054906101000a900467ffffffffffffffff166101ae91906108cf565b92506101000a81548167ffffffffffffffff021916908367ffffffffffffffff1602179055506000803373ffffffffffffffffffffffffffffffffffffffff1673ffffffffffffffffffffffffffffffffffffffff168152602001908152602001600020547ff3c864b056b7be307e1c31ecda0d1009a81237a041d4c0aa86dd746b3d95e5fa8260405161024291906108a3565b60405180910390a250565b60008060006001600085815260200190815260200160002060009054906101000a900473ffffffffffffffffffffffffffffffffffffffff169050600260008273ffffffffffffffffffffffffffffffffffffffff1673ffffffffffffffffffffffffffffffffffffffff16815260200190815260200160002060009054906101000a900467ffffffffffffffff16600360008373ffffffffffffffffffffffffffffffffffffffff1673ffffffffffffffffffffffffffffffffffffffff16815260200190815260200160002060009054906101000a900467ffffffffffffffff168167ffffffffffffffff1691508067ffffffffffffffff1690509250925050915091565b60008060008373ffffffffffffffffffffffffffffffffffffffff1673ffffffffffffffffffffffffffffffffffffffff168152602001908152602001600020549050919050565b866000803373ffffffffffffffffffffffffffffffffffffffff1673ffffffffffffffffffffffffffffffffffffffff16815260200190815260200160002081905550336001600089815260200190815260200160002060006101000a81548173ffffffffffffffffffffffffffffffffffffffff021916908373ffffffffffffffffffffffffffffffffffffffff160217905550867ffa22f8d384b83c1eb6b054363e69a87aeee49f73a75b227582b42faeed33330f86868686604051610467949392919061083f565b60405180910390a250505050505050565b60006001600083815260200190815260200160002060009054906101000a900473ffffffffffffffffffffffffffffffffffffffff169050919050565b80600360003373ffffffffffffffffffffffffffffffffffffffff1673ffffffffffffffffffffffffffffffffffffffff16815260200190815260200160002060008282829054906101000a900467ffffffffffffffff1661051791906108cf565b92506101000a81548167ffffffffffffffff021916908367ffffffffffffffff1602179055506000803373ffffffffffffffffffffffffffffffffffffffff1673ffffffffffffffffffffffffffffffffffffffff168152602001908152602001600020547fcacdde07b9b8b72ddf74a509c278044aaf2dfcfa4e3822a35a122e8e961f3a7c826040516105ab91906108a3565b60405180910390a250565b6000813590506105c5816109b6565b92915050565b6000819050826020600202820111156105e357600080fd5b92915050565b6000813590506105f8816109cd565b92915050565b60008083601f84011261061057600080fd5b8235905067ffffffffffffffff81111561062957600080fd5b60208301915083600182028301111561064157600080fd5b9250929050565b600081359050610657816109e4565b92915050565b60006020828403121561066f57600080fd5b600061067d848285016105b6565b91505092915050565b60006020828403121561069857600080fd5b60006106a6848285016105e9565b91505092915050565b600080600080600080600060a0888a0312156106ca57600080fd5b60006106d88a828b016105e9565b97505060206106e98a828b01610648565b965050604088013567ffffffffffffffff81111561070657600080fd5b6107128a828b016105fe565b9550955050606088013567ffffffffffffffff81111561073157600080fd5b61073d8a828b016105fe565b9350935050608088013567ffffffffffffffff81111561075c57600080fd5b6107688a828b016105cb565b91505092959891949750929550565b60006020828403121561078957600080fd5b600061079784828501610648565b91505092915050565b6107a98161090d565b82525050565b6107b88161091f565b82525050565b60006107ca83856108be565b93506107d7838584610967565b6107e0836109a5565b840190509392505050565b6107f481610949565b82525050565b61080381610953565b82525050565b600060208201905061081e60008301846107a0565b92915050565b600060208201905061083960008301846107af565b92915050565b6000604082019050818103600083015261085a8186886107be565b9050818103602083015261086f8184866107be565b905095945050505050565b600060408201905061088f60008301856107eb565b61089c60208301846107eb565b9392505050565b60006020820190506108b860008301846107fa565b92915050565b600082825260208201905092915050565b60006108da82610953565b91506108e583610953565b92508267ffffffffffffffff0382111561090257610901610976565b5b828201905092915050565b600061091882610929565b9050919050565b6000819050919050565b600073ffffffffffffffffffffffffffffffffffffffff82169050919050565b6000819050919050565b600067ffffffffffffffff82169050919050565b82818337600083830152505050565b7f4e487b7100000000000000000000000000000000000000000000000000000000600052601160045260246000fd5b6000601f19601f8301169050919050565b6109bf8161090d565b81146109ca57600080fd5b50565b6109d68161091f565b81146109e157600080fd5b50565b6109ed81610953565b81146109f857600080fd5b5056fea2646970667358221220c48e5a1fabcfd8f20e8172b009cb9323af366e95f036daf8d06ead6f038cb1a564736f6c63430008040033",
  "linkReferences": {},
  "deployedLinkReferences": {}
}