{
  "_format": "hh-sol-artifact-1",
  "contractName": "TestArray",
  "sourceName": "contracts/test-contracts/TestArray.sol",
  "abi": [
    {
      "inputs": [],
      "stateMutability": "nonpayable",
      "type": "constructor"
    },
    {
      "inputs": [],
      "name": "del",
      "outputs": [],
      "stateMutability": "nonpayable",
      "type": "function"
    },
    {
      "inputs": [],
      "name": "pop",
      "outputs": [],
      "stateMutability": "nonpayable",
      "type": "function"
    },
    {
      "inputs": [
        {
          "internalType": "uint256",
          "name": "value",
          "type": "uint256"
        }
      ],
      "name": "push",
      "outputs": [],
      "stateMutability": "nonpayable",
      "type": "function"
    }
  ],
  "bytecode": "0x608060405234801561001057600080fd5b506103f6806100206000396000f3fe608060405234801561001057600080fd5b50600436106100415760003560e01c8063959ac48414610046578063a4ece52c14610062578063b6588ffd1461006c575b600080fd5b610060600480360381019061005b919061029e565b610076565b005b61006a6100a2565b005b610074610136565b005b600081908060018154018082558091505060019003906000526020600020016000909190919091505550565b60008054806100da577f4e487b7100000000000000000000000000000000000000000000000000000000600052603160045260246000fd5b600190038181906000526020600020016000905590556101346040518060400160405280600c81526020017f6172726179206c656e67746800000000000000000000000000000000000000008152506000805490506101c4565b565b60008081548110610170577f4e487b7100000000000000000000000000000000000000000000000000000000600052603260045260246000fd5b90600052602060002001600090556101c26040518060400160405280600c81526020017f6172726179206c656e67746800000000000000000000000000000000000000008152506000805490506101c4565b565b61025c82826040516024016101da92919061030f565b6040516020818303038152906040527f9710a9d0000000000000000000000000000000000000000000000000000000007bffffffffffffffffffffffffffffffffffffffffffffffffffffffff19166020820180517bffffffffffffffffffffffffffffffffffffffffffffffffffffffff8381831617835250505050610260565b5050565b60008151905060006a636f6e736f6c652e6c6f679050602083016000808483855afa5050505050565b600081359050610298816103a9565b92915050565b6000602082840312156102b057600080fd5b60006102be84828501610289565b91505092915050565b60006102d28261033f565b6102dc818561034a565b93506102ec818560208601610365565b6102f581610398565b840191505092915050565b6103098161035b565b82525050565b6000604082019050818103600083015261032981856102c7565b90506103386020830184610300565b9392505050565b600081519050919050565b600082825260208201905092915050565b6000819050919050565b60005b83811015610383578082015181840152602081019050610368565b83811115610392576000848401525b50505050565b6000601f19601f8301169050919050565b6103b28161035b565b81146103bd57600080fd5b5056fea2646970667358221220e3c1c2d5767ceafdeed260b19c1a9116b0885590ecf6b301837ffba5b0aa3b3764736f6c63430008040033",
  "linkReferences": {},
  "deployedLinkReferences": {}
}