{
  "_format": "hh-sol-artifact-1",
  "contractName": "PoSPoolDebug",
  "sourceName": "contracts/PoSPoolDebug.sol",
  "abi": [
    {
      "inputs": [
        {
          "internalType": "address",
          "name": "_stakingAddress",
          "type": "address"
        },
        {
          "internalType": "address",
          "name": "_posRegisterAddress",
          "type": "address"
        }
      ],
      "stateMutability": "nonpayable",
      "type": "constructor"
    },
    {
      "inputs": [
        {
          "internalType": "uint256",
          "name": "previous",
          "type": "uint256"
        },
        {
          "internalType": "uint256",
          "name": "current",
          "type": "uint256"
        },
        {
          "internalType": "uint256",
          "name": "blockNumber",
          "type": "uint256"
        }
      ],
      "name": "UnnormalReward",
      "type": "error"
    },
    {
      "anonymous": false,
      "inputs": [
        {
          "indexed": true,
          "internalType": "address",
          "name": "user",
          "type": "address"
        },
        {
          "indexed": false,
          "internalType": "uint256",
          "name": "amount",
          "type": "uint256"
        }
      ],
      "name": "ClaimInterest",
      "type": "event"
    },
    {
      "anonymous": false,
      "inputs": [
        {
          "indexed": true,
          "internalType": "address",
          "name": "user",
          "type": "address"
        },
        {
          "indexed": false,
          "internalType": "uint64",
          "name": "votePower",
          "type": "uint64"
        }
      ],
      "name": "DecreasePoSStake",
      "type": "event"
    },
    {
      "anonymous": false,
      "inputs": [
        {
          "indexed": true,
          "internalType": "address",
          "name": "user",
          "type": "address"
        },
        {
          "indexed": false,
          "internalType": "uint64",
          "name": "votePower",
          "type": "uint64"
        }
      ],
      "name": "IncreasePoSStake",
      "type": "event"
    },
    {
      "anonymous": false,
      "inputs": [
        {
          "indexed": false,
          "internalType": "uint32",
          "name": "ratio",
          "type": "uint32"
        }
      ],
      "name": "RatioChanged",
      "type": "event"
    },
    {
      "anonymous": false,
      "inputs": [
        {
          "indexed": true,
          "internalType": "address",
          "name": "user",
          "type": "address"
        },
        {
          "indexed": false,
          "internalType": "uint64",
          "name": "votePower",
          "type": "uint64"
        }
      ],
      "name": "WithdrawStake",
      "type": "event"
    },
    {
      "inputs": [],
      "name": "_lastRewardSection",
      "outputs": [
        {
          "components": [
            {
              "internalType": "uint64",
              "name": "startBlock",
              "type": "uint64"
            },
            {
              "internalType": "uint64",
              "name": "endBlock",
              "type": "uint64"
            },
            {
              "internalType": "uint64",
              "name": "available",
              "type": "uint64"
            },
            {
              "internalType": "uint256",
              "name": "reward",
              "type": "uint256"
            }
          ],
          "internalType": "struct PoSPool.RewardSection",
          "name": "",
          "type": "tuple"
        }
      ],
      "stateMutability": "view",
      "type": "function"
    },
    {
      "inputs": [
        {
          "internalType": "address",
          "name": "_address",
          "type": "address"
        }
      ],
      "name": "_lastVotePowerSection",
      "outputs": [
        {
          "components": [
            {
              "internalType": "uint64",
              "name": "startBlock",
              "type": "uint64"
            },
            {
              "internalType": "uint64",
              "name": "endBlock",
              "type": "uint64"
            },
            {
              "internalType": "uint64",
              "name": "available",
              "type": "uint64"
            }
          ],
          "internalType": "struct PoSPool.VotePowerSection",
          "name": "",
          "type": "tuple"
        }
      ],
      "stateMutability": "view",
      "type": "function"
    },
    {
      "inputs": [
        {
          "internalType": "uint256",
          "name": "startBlock",
          "type": "uint256"
        }
      ],
      "name": "_poolAPY",
      "outputs": [
        {
          "internalType": "uint32",
          "name": "",
          "type": "uint32"
        }
      ],
      "stateMutability": "view",
      "type": "function"
    },
    {
      "inputs": [],
      "name": "_poolLockPeriod",
      "outputs": [
        {
          "internalType": "uint64",
          "name": "",
          "type": "uint64"
        }
      ],
      "stateMutability": "view",
      "type": "function"
    },
    {
      "inputs": [],
      "name": "_poolName",
      "outputs": [
        {
          "internalType": "string",
          "name": "",
          "type": "string"
        }
      ],
      "stateMutability": "view",
      "type": "function"
    },
    {
      "inputs": [],
      "name": "_poolRegisted",
      "outputs": [
        {
          "internalType": "bool",
          "name": "",
          "type": "bool"
        }
      ],
      "stateMutability": "view",
      "type": "function"
    },
    {
      "inputs": [],
      "name": "_poolShot",
      "outputs": [
        {
          "components": [
            {
              "internalType": "uint64",
              "name": "available",
              "type": "uint64"
            },
            {
              "internalType": "uint64",
              "name": "blockNumber",
              "type": "uint64"
            },
            {
              "internalType": "uint256",
              "name": "balance",
              "type": "uint256"
            }
          ],
          "internalType": "struct PoSPool.PoolShot",
          "name": "",
          "type": "tuple"
        }
      ],
      "stateMutability": "view",
      "type": "function"
    },
    {
      "inputs": [
        {
          "internalType": "uint64",
          "name": "votePower",
          "type": "uint64"
        }
      ],
      "name": "_posRegisterIncreaseStake",
      "outputs": [],
      "stateMutability": "nonpayable",
      "type": "function"
    },
    {
      "inputs": [
        {
          "internalType": "bytes32",
          "name": "indentifier",
          "type": "bytes32"
        },
        {
          "internalType": "uint64",
          "name": "votePower",
          "type": "uint64"
        },
        {
          "internalType": "bytes",
          "name": "blsPubKey",
          "type": "bytes"
        },
        {
          "internalType": "bytes",
          "name": "vrfPubKey",
          "type": "bytes"
        },
        {
          "internalType": "bytes[2]",
          "name": "blsPubKeyProof",
          "type": "bytes[2]"
        }
      ],
      "name": "_posRegisterRegister",
      "outputs": [],
      "stateMutability": "nonpayable",
      "type": "function"
    },
    {
      "inputs": [
        {
          "internalType": "uint64",
          "name": "votePower",
          "type": "uint64"
        }
      ],
      "name": "_posRegisterRetire",
      "outputs": [],
      "stateMutability": "nonpayable",
      "type": "function"
    },
    {
      "inputs": [],
      "name": "_rewardSections",
      "outputs": [
        {
          "components": [
            {
              "internalType": "uint64",
              "name": "startBlock",
              "type": "uint64"
            },
            {
              "internalType": "uint64",
              "name": "endBlock",
              "type": "uint64"
            },
            {
              "internalType": "uint64",
              "name": "available",
              "type": "uint64"
            },
            {
              "internalType": "uint256",
              "name": "reward",
              "type": "uint256"
            }
          ],
          "internalType": "struct PoSPool.RewardSection[]",
          "name": "",
          "type": "tuple[]"
        }
      ],
      "stateMutability": "view",
      "type": "function"
    },
    {
      "inputs": [
        {
          "internalType": "uint256",
          "name": "_amount",
          "type": "uint256"
        }
      ],
      "name": "_stakingDeposit",
      "outputs": [],
      "stateMutability": "nonpayable",
      "type": "function"
    },
    {
      "inputs": [
        {
          "internalType": "uint256",
          "name": "_amount",
          "type": "uint256"
        }
      ],
      "name": "_stakingWithdraw",
      "outputs": [],
      "stateMutability": "nonpayable",
      "type": "function"
    },
    {
      "inputs": [
        {
          "internalType": "address",
          "name": "_address",
          "type": "address"
        },
        {
          "internalType": "bool",
          "name": "inOrOut",
          "type": "bool"
        }
      ],
      "name": "_userInOutQueue",
      "outputs": [
        {
          "components": [
            {
              "internalType": "uint64",
              "name": "votePower",
              "type": "uint64"
            },
            {
              "internalType": "uint64",
              "name": "endBlock",
              "type": "uint64"
            }
          ],
          "internalType": "struct VotePowerQueue.QueueNode[]",
          "name": "",
          "type": "tuple[]"
        }
      ],
      "stateMutability": "view",
      "type": "function"
    },
    {
      "inputs": [
        {
          "internalType": "address",
          "name": "_address",
          "type": "address"
        }
      ],
      "name": "_userShot",
      "outputs": [
        {
          "components": [
            {
              "internalType": "uint64",
              "name": "available",
              "type": "uint64"
            },
            {
              "internalType": "uint64",
              "name": "blockNumber",
              "type": "uint64"
            }
          ],
          "internalType": "struct PoSPool.UserShot",
          "name": "",
          "type": "tuple"
        }
      ],
      "stateMutability": "view",
      "type": "function"
    },
    {
      "inputs": [
        {
          "internalType": "address",
          "name": "_address",
          "type": "address"
        }
      ],
      "name": "_votePowerSections",
      "outputs": [
        {
          "components": [
            {
              "internalType": "uint64",
              "name": "startBlock",
              "type": "uint64"
            },
            {
              "internalType": "uint64",
              "name": "endBlock",
              "type": "uint64"
            },
            {
              "internalType": "uint64",
              "name": "available",
              "type": "uint64"
            }
          ],
          "internalType": "struct PoSPool.VotePowerSection[]",
          "name": "",
          "type": "tuple[]"
        }
      ],
      "stateMutability": "view",
      "type": "function"
    },
    {
      "inputs": [],
      "name": "claimAllInterest",
      "outputs": [],
      "stateMutability": "nonpayable",
      "type": "function"
    },
    {
      "inputs": [
        {
          "internalType": "uint256",
          "name": "amount",
          "type": "uint256"
        }
      ],
      "name": "claimInterest",
      "outputs": [],
      "stateMutability": "nonpayable",
      "type": "function"
    },
    {
      "inputs": [
        {
          "internalType": "uint64",
          "name": "limit",
          "type": "uint64"
        }
      ],
      "name": "collectUserLastVotePowerSectionPagination",
      "outputs": [],
      "stateMutability": "nonpayable",
      "type": "function"
    },
    {
      "inputs": [
        {
          "internalType": "uint64",
          "name": "limit",
          "type": "uint64"
        }
      ],
      "name": "collectUserLatestInterestPagination",
      "outputs": [],
      "stateMutability": "nonpayable",
      "type": "function"
    },
    {
      "inputs": [
        {
          "internalType": "uint256",
          "name": "sectionCount",
          "type": "uint256"
        }
      ],
      "name": "collectUserLatestSectionsInterest",
      "outputs": [],
      "stateMutability": "nonpayable",
      "type": "function"
    },
    {
      "inputs": [
        {
          "internalType": "uint64",
          "name": "votePower",
          "type": "uint64"
        }
      ],
      "name": "decreaseStake",
      "outputs": [],
      "stateMutability": "nonpayable",
      "type": "function"
    },
    {
      "inputs": [
        {
          "internalType": "uint64",
          "name": "votePower",
          "type": "uint64"
        }
      ],
      "name": "increaseStake",
      "outputs": [],
      "stateMutability": "payable",
      "type": "function"
    },
    {
      "inputs": [],
      "name": "poolAPY",
      "outputs": [
        {
          "internalType": "uint32",
          "name": "",
          "type": "uint32"
        }
      ],
      "stateMutability": "view",
      "type": "function"
    },
    {
      "inputs": [],
      "name": "poolSummary",
      "outputs": [
        {
          "internalType": "uint64",
          "name": "available",
          "type": "uint64"
        },
        {
          "internalType": "uint256",
          "name": "interest",
          "type": "uint256"
        },
        {
          "internalType": "uint256",
          "name": "totalInterest",
          "type": "uint256"
        }
      ],
      "stateMutability": "view",
      "type": "function"
    },
    {
      "inputs": [],
      "name": "poolUserShareRatio",
      "outputs": [
        {
          "internalType": "uint32",
          "name": "",
          "type": "uint32"
        }
      ],
      "stateMutability": "view",
      "type": "function"
    },
    {
      "inputs": [],
      "name": "posAddress",
      "outputs": [
        {
          "internalType": "bytes32",
          "name": "",
          "type": "bytes32"
        }
      ],
      "stateMutability": "view",
      "type": "function"
    },
    {
      "inputs": [
        {
          "internalType": "bytes32",
          "name": "indentifier",
          "type": "bytes32"
        },
        {
          "internalType": "uint64",
          "name": "votePower",
          "type": "uint64"
        },
        {
          "internalType": "bytes",
          "name": "blsPubKey",
          "type": "bytes"
        },
        {
          "internalType": "bytes",
          "name": "vrfPubKey",
          "type": "bytes"
        },
        {
          "internalType": "bytes[2]",
          "name": "blsPubKeyProof",
          "type": "bytes[2]"
        }
      ],
      "name": "register",
      "outputs": [],
      "stateMutability": "payable",
      "type": "function"
    },
    {
      "inputs": [
        {
          "internalType": "uint256",
          "name": "count",
          "type": "uint256"
        }
      ],
      "name": "setCfxCountOfOneVote",
      "outputs": [],
      "stateMutability": "nonpayable",
      "type": "function"
    },
    {
      "inputs": [
        {
          "internalType": "uint64",
          "name": "period",
          "type": "uint64"
        }
      ],
      "name": "setLockPeriod",
      "outputs": [],
      "stateMutability": "nonpayable",
      "type": "function"
    },
    {
      "inputs": [
        {
          "internalType": "string",
          "name": "name",
          "type": "string"
        }
      ],
      "name": "setPoolName",
      "outputs": [],
      "stateMutability": "nonpayable",
      "type": "function"
    },
    {
      "inputs": [
        {
          "internalType": "uint32",
          "name": "ratio",
          "type": "uint32"
        }
      ],
      "name": "setPoolUserShareRatio",
      "outputs": [],
      "stateMutability": "nonpayable",
      "type": "function"
    },
    {
      "inputs": [
        {
          "internalType": "address",
          "name": "account",
          "type": "address"
        },
        {
          "internalType": "uint64",
          "name": "offset",
          "type": "uint64"
        },
        {
          "internalType": "uint64",
          "name": "limit",
          "type": "uint64"
        }
      ],
      "name": "userInQueue",
      "outputs": [
        {
          "components": [
            {
              "internalType": "uint64",
              "name": "votePower",
              "type": "uint64"
            },
            {
              "internalType": "uint64",
              "name": "endBlock",
              "type": "uint64"
            }
          ],
          "internalType": "struct VotePowerQueue.QueueNode[]",
          "name": "",
          "type": "tuple[]"
        }
      ],
      "stateMutability": "view",
      "type": "function"
    },
    {
      "inputs": [
        {
          "internalType": "address",
          "name": "account",
          "type": "address"
        }
      ],
      "name": "userInQueue",
      "outputs": [
        {
          "components": [
            {
              "internalType": "uint64",
              "name": "votePower",
              "type": "uint64"
            },
            {
              "internalType": "uint64",
              "name": "endBlock",
              "type": "uint64"
            }
          ],
          "internalType": "struct VotePowerQueue.QueueNode[]",
          "name": "",
          "type": "tuple[]"
        }
      ],
      "stateMutability": "view",
      "type": "function"
    },
    {
      "inputs": [
        {
          "internalType": "address",
          "name": "_address",
          "type": "address"
        }
      ],
      "name": "userInterest",
      "outputs": [
        {
          "internalType": "uint256",
          "name": "",
          "type": "uint256"
        }
      ],
      "stateMutability": "view",
      "type": "function"
    },
    {
      "inputs": [
        {
          "internalType": "address",
          "name": "account",
          "type": "address"
        }
      ],
      "name": "userOutQueue",
      "outputs": [
        {
          "components": [
            {
              "internalType": "uint64",
              "name": "votePower",
              "type": "uint64"
            },
            {
              "internalType": "uint64",
              "name": "endBlock",
              "type": "uint64"
            }
          ],
          "internalType": "struct VotePowerQueue.QueueNode[]",
          "name": "",
          "type": "tuple[]"
        }
      ],
      "stateMutability": "view",
      "type": "function"
    },
    {
      "inputs": [
        {
          "internalType": "address",
          "name": "account",
          "type": "address"
        },
        {
          "internalType": "uint64",
          "name": "offset",
          "type": "uint64"
        },
        {
          "internalType": "uint64",
          "name": "limit",
          "type": "uint64"
        }
      ],
      "name": "userOutQueue",
      "outputs": [
        {
          "components": [
            {
              "internalType": "uint64",
              "name": "votePower",
              "type": "uint64"
            },
            {
              "internalType": "uint64",
              "name": "endBlock",
              "type": "uint64"
            }
          ],
          "internalType": "struct VotePowerQueue.QueueNode[]",
          "name": "",
          "type": "tuple[]"
        }
      ],
      "stateMutability": "view",
      "type": "function"
    },
    {
      "inputs": [
        {
          "internalType": "address",
          "name": "_user",
          "type": "address"
        }
      ],
      "name": "userSummary",
      "outputs": [
        {
          "components": [
            {
              "internalType": "uint64",
              "name": "votes",
              "type": "uint64"
            },
            {
              "internalType": "uint64",
              "name": "available",
              "type": "uint64"
            },
            {
              "internalType": "uint64",
              "name": "locked",
              "type": "uint64"
            },
            {
              "internalType": "uint64",
              "name": "unlocked",
              "type": "uint64"
            },
            {
              "internalType": "uint256",
              "name": "claimedInterest",
              "type": "uint256"
            },
            {
              "internalType": "uint256",
              "name": "currentInterest",
              "type": "uint256"
            }
          ],
          "internalType": "struct PoSPool.UserSummary",
          "name": "",
          "type": "tuple"
        }
      ],
      "stateMutability": "view",
      "type": "function"
    },
    {
      "inputs": [
        {
          "internalType": "uint64",
          "name": "votePower",
          "type": "uint64"
        }
      ],
      "name": "withdrawStake",
      "outputs": [],
      "stateMutability": "nonpayable",
      "type": "function"
    },
    {
      "stateMutability": "payable",
      "type": "receive"
    }
  ],
  "bytecode": "0x608060405260076202a30062000016919062000233565b600060056101000a81548167ffffffffffffffff021916908367ffffffffffffffff160217905550683635c9adc5dea000006002553480156200005857600080fd5b5060405162007ec538038062007ec583398181016040528101906200007e9190620001f2565b33600360006101000a81548173ffffffffffffffffffffffffffffffffffffffff021916908373ffffffffffffffffffffffffffffffffffffffff1602179055506123286000806101000a81548163ffffffff021916908363ffffffff1602179055506040518060600160405280600067ffffffffffffffff168152602001600081526020016000815250600460008201518160000160006101000a81548167ffffffffffffffff021916908367ffffffffffffffff160217905550602082015181600101556040820151816002015590505081601060006101000a81548173ffffffffffffffffffffffffffffffffffffffff021916908373ffffffffffffffffffffffffffffffffffffffff16021790555080601160006101000a81548173ffffffffffffffffffffffffffffffffffffffff021916908373ffffffffffffffffffffffffffffffffffffffff16021790555050506200030d565b600081519050620001ec81620002f3565b92915050565b600080604083850312156200020657600080fd5b60006200021685828601620001db565b92505060206200022985828601620001db565b9150509250929050565b60006200024082620002b0565b91506200024d83620002b0565b92508167ffffffffffffffff0483118215151615620002715762000270620002c4565b5b828202905092915050565b6000620002898262000290565b9050919050565b600073ffffffffffffffffffffffffffffffffffffffff82169050919050565b600067ffffffffffffffff82169050919050565b7f4e487b7100000000000000000000000000000000000000000000000000000000600052601160045260246000fd5b620002fe816200027c565b81146200030a57600080fd5b50565b617ba8806200031d6000396000f3fe6080604052600436106102345760003560e01c806377f6baed1161012e578063b4064a25116100ab578063e2af79281161006f578063e2af79281461085d578063e335b4511461089a578063e3d5b233146108b6578063e5e20ccf146108f3578063fdb259c01461091c5761023b565b8063b4064a2514610778578063beb99c1e146107a3578063c9107d44146107cc578063d68076c3146107f7578063de49db63146108345761023b565b806391d34133116100f257806391d3413314610681578063961545da146106ac57806396b6b59d146106e95780639d56335714610712578063a66980021461073b5761023b565b806377f6baed146105b05780637ee8f473146105ed57806380f818f9146106165780638270512f1461063f57806382df7a3b146106565761023b565b8063336f8e0e116101bc5780635825761a116101805780635825761a146104c95780635c0eeedb146104f257806367a1aa4f1461052f57806372b654241461055a5780637571fcf6146105835761023b565b8063336f8e0e146103bc578063457fc4e2146103f957806346608a24146104245780634b1b45e6146104615780635101deb01461048c5761023b565b806324a3bbe21161020357806324a3bbe2146102d957806327d8ed3f146103165780632c779df21461033f5780632ce7777f1461036a5780632eb375ea146103935761023b565b806309fecf7f1461024057806310ae08861461025c5780631764618c146102855780632485ce9f146102b05761023b565b3661023b57005b600080fd5b61025a60048036038101906102559190616620565b610945565b005b34801561026857600080fd5b50610283600480360381019061027e9190616620565b610caf565b005b34801561029157600080fd5b5061029a611149565b6040516102a79190616e3d565b60405180910390f35b3480156102bc57600080fd5b506102d760048036038101906102d29190616620565b61123b565b005b3480156102e557600080fd5b5061030060048036038101906102fb91906163e8565b611845565b60405161030d9190616dbc565b60405180910390f35b34801561032257600080fd5b5061033d60048036038101906103389190616620565b611895565b005b34801561034b57600080fd5b50610354611925565b6040516103619190616ec4565b60405180910390f35b34801561037657600080fd5b50610391600480360381019061038c9190616620565b6119b3565b005b34801561039f57600080fd5b506103ba60048036038101906103b591906165ce565b611d6b565b005b3480156103c857600080fd5b506103e360048036038101906103de919061644d565b611fff565b6040516103f09190616dbc565b60405180910390f35b34801561040557600080fd5b5061040e612053565b60405161041b91906170e1565b60405180910390f35b34801561043057600080fd5b5061044b60048036038101906104469190616411565b612164565b6040516104589190616dbc565b60405180910390f35b34801561046d57600080fd5b50610476612424565b6040516104839190616e22565b60405180910390f35b34801561049857600080fd5b506104b360048036038101906104ae91906163e8565b612437565b6040516104c09190616e00565b60405180910390f35b3480156104d557600080fd5b506104f060048036038101906104eb9190616620565b612567565b005b3480156104fe57600080fd5b50610519600480360381019061051491906163e8565b6125f7565b60405161052691906170fc565b60405180910390f35b34801561053b57600080fd5b506105446126b4565b604051610551919061719f565b60405180910390f35b34801561056657600080fd5b50610581600480360381019061057c919061658d565b6126c8565b005b34801561058f57600080fd5b50610598612772565b6040516105a7939291906171d5565b60405180910390f35b3480156105bc57600080fd5b506105d760048036038101906105d291906163e8565b61279e565b6040516105e49190617132565b60405180910390f35b3480156105f957600080fd5b50610614600480360381019061060f91906165ce565b61291d565b005b34801561062257600080fd5b5061063d600480360381019061063891906164c5565b6129ad565b005b34801561064b57600080fd5b50610654612a4f565b005b34801561066257600080fd5b5061066b612afa565b604051610678919061719f565b60405180910390f35b34801561068d57600080fd5b50610696612b63565b6040516106a391906170c6565b60405180910390f35b3480156106b857600080fd5b506106d360048036038101906106ce91906165ce565b612beb565b6040516106e0919061719f565b60405180910390f35b3480156106f557600080fd5b50610710600480360381019061070b91906165ce565b612e6d565b005b34801561071e57600080fd5b50610739600480360381019061073491906165f7565b612f1a565b005b34801561074757600080fd5b50610762600480360381019061075d919061644d565b613067565b60405161076f9190616dbc565b60405180910390f35b34801561078457600080fd5b5061078d6130bb565b60405161079a91906171ba565b60405180910390f35b3480156107af57600080fd5b506107ca60048036038101906107c59190616620565b6130d5565b005b3480156107d857600080fd5b506107e161350e565b6040516107ee9190616dde565b60405180910390f35b34801561080357600080fd5b5061081e600480360381019061081991906163e8565b61360d565b60405161082b919061714d565b60405180910390f35b34801561084057600080fd5b5061085b600480360381019061085691906165ce565b6136ab565b005b34801561086957600080fd5b50610884600480360381019061087f91906163e8565b613c2f565b6040516108919190616dbc565b60405180910390f35b6108b460048036038101906108af91906164c5565b613c7f565b005b3480156108c257600080fd5b506108dd60048036038101906108d891906163e8565b614040565b6040516108ea9190617117565b60405180910390f35b3480156108ff57600080fd5b5061091a60048036038101906109159190616620565b614265565b005b34801561092857600080fd5b50610943600480360381019061093e91906165ce565b614321565b005b600060049054906101000a900460ff16610994576040517f08c379a000000000000000000000000000000000000000000000000000000000815260040161098b90616f86565b60405180910390fd5b60008167ffffffffffffffff16116109e1576040517f08c379a00000000000000000000000000000000000000000000000000000000081526004016109d890616fe6565b60405180910390fd5b6002548167ffffffffffffffff166109f99190617494565b3414610a3a576040517f08c379a0000000000000000000000000000000000000000000000000000000008152600401610a3190616ee6565b60405180910390fd5b610a4334614321565b610a4c81611895565b3373ffffffffffffffffffffffffffffffffffffffff167fbb9676f2e80ec8fca106973b6eefdfc5fdccc797801bedfc041ad03b89d3748e82604051610a9291906171ba565b60405180910390a280600460000160008282829054906101000a900467ffffffffffffffff16610ac29190617425565b92506101000a81548167ffffffffffffffff021916908367ffffffffffffffff16021790555080600d60003373ffffffffffffffffffffffffffffffffffffffff1673ffffffffffffffffffffffffffffffffffffffff16815260200190815260200160002060000160008282829054906101000a900467ffffffffffffffff16610b4d9190617425565b92506101000a81548167ffffffffffffffff021916908367ffffffffffffffff16021790555080600d60003373ffffffffffffffffffffffffffffffffffffffff1673ffffffffffffffffffffffffffffffffffffffff16815260200190815260200160002060000160088282829054906101000a900467ffffffffffffffff16610bd89190617425565b92506101000a81548167ffffffffffffffff021916908367ffffffffffffffff1602179055506000600e60003373ffffffffffffffffffffffffffffffffffffffff1673ffffffffffffffffffffffffffffffffffffffff1681526020019081526020016000209050610c9b8160405180604001604052808567ffffffffffffffff168152602001600060059054906101000a900467ffffffffffffffff16610c7f6143b2565b610c899190617425565b67ffffffffffffffff168152506143ba565b610ca3614496565b610cab6144a8565b5050565b600060049054906101000a900460ff16610cfe576040517f08c379a0000000000000000000000000000000000000000000000000000000008152600401610cf590616f86565b60405180910390fd5b60648167ffffffffffffffff161115610d4c576040517f08c379a0000000000000000000000000000000000000000000000000000000008152600401610d4390616f46565b60405180910390fd5b6000600c60003373ffffffffffffffffffffffffffffffffffffffff1673ffffffffffffffffffffffffffffffffffffffff1681526020019081526020016000209050600a60000160089054906101000a900467ffffffffffffffff1667ffffffffffffffff168160000160089054906101000a900467ffffffffffffffff1667ffffffffffffffff1610610e16576040517f08c379a0000000000000000000000000000000000000000000000000000000008152600401610e0d90616f66565b60405180910390fd5b6000610e438260000160089054906101000a900467ffffffffffffffff1667ffffffffffffffff166144ba565b905060008382610e539190617425565b90506007805490508167ffffffffffffffff161115610e755760078054905090505b6000808390505b8267ffffffffffffffff168167ffffffffffffffff16101561100657600060078267ffffffffffffffff1681548110610ede577f4e487b7100000000000000000000000000000000000000000000000000000000600052603260045260246000fd5b90600052602060002090600202016040518060800160405290816000820160009054906101000a900467ffffffffffffffff1667ffffffffffffffff1667ffffffffffffffff1681526020016000820160089054906101000a900467ffffffffffffffff1667ffffffffffffffff1667ffffffffffffffff1681526020016000820160109054906101000a900467ffffffffffffffff1667ffffffffffffffff1667ffffffffffffffff1681526020016001820154815250509050600081606001511415610fac5750610ff3565b6000610fd982606001518860000160009054906101000a900467ffffffffffffffff1684604001516144d7565b9050610fee818561455690919063ffffffff16565b935050505b8080610ffe9061775d565b915050610e7c565b5061105c81600d60003373ffffffffffffffffffffffffffffffffffffffff1673ffffffffffffffffffffffffffffffffffffffff1681526020019081526020016000206002015461455690919063ffffffff16565b600d60003373ffffffffffffffffffffffffffffffffffffffff1673ffffffffffffffffffffffffffffffffffffffff1681526020019081526020016000206002018190555060076001836110b19190617598565b67ffffffffffffffff16815481106110f2577f4e487b7100000000000000000000000000000000000000000000000000000000600052603260045260246000fd5b906000526020600020906002020160000160089054906101000a900467ffffffffffffffff168460000160086101000a81548167ffffffffffffffff021916908367ffffffffffffffff1602179055505050505050565b60008060049054906101000a900460ff16611199576040517f08c379a000000000000000000000000000000000000000000000000000000000815260040161119090616f86565b60405180910390fd5b73088800000000000000000000000000000000000573ffffffffffffffffffffffffffffffffffffffff16636a06ea96306040518263ffffffff1660e01b81526004016111e69190616da1565b60206040518083038186803b1580156111fe57600080fd5b505afa158015611212573d6000803e3d6000fd5b505050506040513d601f19601f82011682018060405250810190611236919061649c565b905090565b600060049054906101000a900460ff1661128a576040517f08c379a000000000000000000000000000000000000000000000000000000000815260040161128190616f86565b60405180910390fd5b60648167ffffffffffffffff1611156112d8576040517f08c379a00000000000000000000000000000000000000000000000000000000081526004016112cf90616f46565b60405180910390fd5b6000600860003373ffffffffffffffffffffffffffffffffffffffff1673ffffffffffffffffffffffffffffffffffffffff16815260200190815260200160002090506000818054905011611362576040517f08c379a000000000000000000000000000000000000000000000000000000000815260040161135990617046565b60405180910390fd5b60006113e182600184805490506113799190617530565b815481106113b0577f4e487b7100000000000000000000000000000000000000000000000000000000600052603260045260246000fd5b9060005260206000200160000160009054906101000a900467ffffffffffffffff1667ffffffffffffffff166144ba565b9050600083826113f19190617425565b90506007805490508167ffffffffffffffff1611156114135760078054905090505b6000808390505b8267ffffffffffffffff168167ffffffffffffffff1610156115f657600060078267ffffffffffffffff168154811061147c577f4e487b7100000000000000000000000000000000000000000000000000000000600052603260045260246000fd5b90600052602060002090600202016040518060800160405290816000820160009054906101000a900467ffffffffffffffff1667ffffffffffffffff1667ffffffffffffffff1681526020016000820160089054906101000a900467ffffffffffffffff1667ffffffffffffffff1667ffffffffffffffff1681526020016000820160109054906101000a900467ffffffffffffffff1667ffffffffffffffff1667ffffffffffffffff168152602001600182015481525050905060008160600151141561154a57506115e3565b60006115c982606001518860018a805490506115669190617530565b8154811061159d577f4e487b7100000000000000000000000000000000000000000000000000000000600052603260045260246000fd5b9060005260206000200160000160109054906101000a900467ffffffffffffffff1684604001516144d7565b90506115de818561455690919063ffffffff16565b935050505b80806115ee9061775d565b91505061141a565b5061164c81600d60003373ffffffffffffffffffffffffffffffffffffffff1673ffffffffffffffffffffffffffffffffffffffff1681526020019081526020016000206002015461455690919063ffffffff16565b600d60003373ffffffffffffffffffffffffffffffffffffffff1673ffffffffffffffffffffffffffffffffffffffff168152602001908152602001600020600201819055506007805490508267ffffffffffffffff16141561174b57838054806116e0577f4e487b7100000000000000000000000000000000000000000000000000000000600052603160045260246000fd5b60019003818190600052602060002001600080820160006101000a81549067ffffffffffffffff02191690556000820160086101000a81549067ffffffffffffffff02191690556000820160106101000a81549067ffffffffffffffff02191690555050905561183e565b600760018361175a9190617598565b67ffffffffffffffff168154811061179b577f4e487b7100000000000000000000000000000000000000000000000000000000600052603260045260246000fd5b906000526020600020906002020160000160089054906101000a900467ffffffffffffffff1684600186805490506117d39190617530565b8154811061180a577f4e487b7100000000000000000000000000000000000000000000000000000000600052603260045260246000fd5b9060005260206000200160000160006101000a81548167ffffffffffffffff021916908367ffffffffffffffff1602179055505b5050505050565b606061188e600f60008473ffffffffffffffffffffffffffffffffffffffff1673ffffffffffffffffffffffffffffffffffffffff16815260200190815260200160002061456c565b9050919050565b601160009054906101000a900473ffffffffffffffffffffffffffffffffffffffff1673ffffffffffffffffffffffffffffffffffffffff166309fecf7f826040518263ffffffff1660e01b81526004016118f091906171ba565b600060405180830381600087803b15801561190a57600080fd5b505af115801561191e573d6000803e3d6000fd5b5050505050565b6001805461193290617684565b80601f016020809104026020016040519081016040528092919081815260200182805461195e90617684565b80156119ab5780601f10611980576101008083540402835291602001916119ab565b820191906000526020600020905b81548152906001019060200180831161198e57829003601f168201915b505050505081565b600060049054906101000a900460ff16611a02576040517f08c379a00000000000000000000000000000000000000000000000000000000081526004016119f990616f86565b60405180910390fd5b611a49600f60003373ffffffffffffffffffffffffffffffffffffffff1673ffffffffffffffffffffffffffffffffffffffff1681526020019081526020016000206147a9565b600d60003373ffffffffffffffffffffffffffffffffffffffff1673ffffffffffffffffffffffffffffffffffffffff16815260200190815260200160002060000160188282829054906101000a900467ffffffffffffffff16611aad9190617425565b92506101000a81548167ffffffffffffffff021916908367ffffffffffffffff1602179055508067ffffffffffffffff16600d60003373ffffffffffffffffffffffffffffffffffffffff1673ffffffffffffffffffffffffffffffffffffffff16815260200190815260200160002060000160189054906101000a900467ffffffffffffffff1667ffffffffffffffff161015611b80576040517f08c379a0000000000000000000000000000000000000000000000000000000008152600401611b77906170a6565b60405180910390fd5b611ba06002548267ffffffffffffffff16611b9b9190617494565b61291d565b80600d60003373ffffffffffffffffffffffffffffffffffffffff1673ffffffffffffffffffffffffffffffffffffffff16815260200190815260200160002060000160188282829054906101000a900467ffffffffffffffff16611c059190617598565b92506101000a81548167ffffffffffffffff021916908367ffffffffffffffff16021790555080600d60003373ffffffffffffffffffffffffffffffffffffffff1673ffffffffffffffffffffffffffffffffffffffff16815260200190815260200160002060000160008282829054906101000a900467ffffffffffffffff16611c909190617598565b92506101000a81548167ffffffffffffffff021916908367ffffffffffffffff16021790555060003390508073ffffffffffffffffffffffffffffffffffffffff166108fc6002548467ffffffffffffffff16611ced9190617494565b9081150290604051600060405180830381858888f19350505050158015611d18573d6000803e3d6000fd5b503373ffffffffffffffffffffffffffffffffffffffff167ffbd5b0f12a6385c116526ca96180111a6575ccef6751a640d36d6d80793eced283604051611d5f91906171ba565b60405180910390a25050565b600060049054906101000a900460ff16611dba576040517f08c379a0000000000000000000000000000000000000000000000000000000008152600401611db190616f86565b60405180910390fd5b6000611dc53361360d565b905081811015611e0a576040517f08c379a0000000000000000000000000000000000000000000000000000000008152600401611e0190617086565b60405180910390fd5b611e12614496565b611e1a6148ce565b611e22614b68565b611e7782600d60003373ffffffffffffffffffffffffffffffffffffffff1673ffffffffffffffffffffffffffffffffffffffff1681526020019081526020016000206001015461455690919063ffffffff16565b600d60003373ffffffffffffffffffffffffffffffffffffffff1673ffffffffffffffffffffffffffffffffffffffff16815260200190815260200160002060010181905550611f1282600d60003373ffffffffffffffffffffffffffffffffffffffff1673ffffffffffffffffffffffffffffffffffffffff16815260200190815260200160002060020154614cad90919063ffffffff16565b600d60003373ffffffffffffffffffffffffffffffffffffffff1673ffffffffffffffffffffffffffffffffffffffff1681526020019081526020016000206002018190555060003390508073ffffffffffffffffffffffffffffffffffffffff166108fc849081150290604051600060405180830381858888f19350505050158015611fa3573d6000803e3d6000fd5b503373ffffffffffffffffffffffffffffffffffffffff167fbbf701f67a7d285bbd2b9b2dc7a5fee474e6dc3c059183385da6cc9de2be34a984604051611fea919061714d565b60405180910390a2611ffa614cc3565b505050565b606061204a600f60008673ffffffffffffffffffffffffffffffffffffffff1673ffffffffffffffffffffffffffffffffffffffff1681526020019081526020016000208484614d4e565b90509392505050565b61205b615fe5565b6007600160078054905061206f9190617530565b815481106120a6577f4e487b7100000000000000000000000000000000000000000000000000000000600052603260045260246000fd5b90600052602060002090600202016040518060800160405290816000820160009054906101000a900467ffffffffffffffff1667ffffffffffffffff1667ffffffffffffffff1681526020016000820160089054906101000a900467ffffffffffffffff1667ffffffffffffffff1667ffffffffffffffff1681526020016000820160109054906101000a900467ffffffffffffffff1667ffffffffffffffff1667ffffffffffffffff168152602001600182015481525050905090565b6060600082156121b457600e60008573ffffffffffffffffffffffffffffffffffffffff1673ffffffffffffffffffffffffffffffffffffffff16815260200190815260200160002090506121f6565b600f60008573ffffffffffffffffffffffffffffffffffffffff1673ffffffffffffffffffffffffffffffffffffffff16815260200190815260200160002090505b60008160000160009054906101000a900467ffffffffffffffff168260000160089054906101000a900467ffffffffffffffff166122349190617598565b905060008167ffffffffffffffff1667ffffffffffffffff811115612282577f4e487b7100000000000000000000000000000000000000000000000000000000600052604160045260246000fd5b6040519080825280602002602001820160405280156122bb57816020015b6122a861602b565b8152602001906001900390816122a05790505b5090506000808460000160009054906101000a900467ffffffffffffffff1690505b8460000160089054906101000a900467ffffffffffffffff1667ffffffffffffffff168167ffffffffffffffff161015612416578460010160008267ffffffffffffffff1667ffffffffffffffff1681526020019081526020016000206040518060400160405290816000820160009054906101000a900467ffffffffffffffff1667ffffffffffffffff1667ffffffffffffffff1681526020016000820160089054906101000a900467ffffffffffffffff1667ffffffffffffffff1667ffffffffffffffff16815250508383806123b59061775d565b945067ffffffffffffffff16815181106123f8577f4e487b7100000000000000000000000000000000000000000000000000000000600052603260045260246000fd5b6020026020010181905250808061240e9061775d565b9150506122dd565b508194505050505092915050565b600060049054906101000a900460ff1681565b6060600860008373ffffffffffffffffffffffffffffffffffffffff1673ffffffffffffffffffffffffffffffffffffffff168152602001908152602001600020805480602002602001604051908101604052809291908181526020016000905b8282101561255c578382906000526020600020016040518060600160405290816000820160009054906101000a900467ffffffffffffffff1667ffffffffffffffff1667ffffffffffffffff1681526020016000820160089054906101000a900467ffffffffffffffff1667ffffffffffffffff1667ffffffffffffffff1681526020016000820160109054906101000a900467ffffffffffffffff1667ffffffffffffffff1667ffffffffffffffff168152505081526020019060010190612498565b505050509050919050565b601160009054906101000a900473ffffffffffffffffffffffffffffffffffffffff1673ffffffffffffffffffffffffffffffffffffffff1663f49d0638826040518263ffffffff1660e01b81526004016125c291906171ba565b600060405180830381600087803b1580156125dc57600080fd5b505af11580156125f0573d6000803e3d6000fd5b5050505050565b6125ff616059565b600c60008373ffffffffffffffffffffffffffffffffffffffff1673ffffffffffffffffffffffffffffffffffffffff1681526020019081526020016000206040518060400160405290816000820160009054906101000a900467ffffffffffffffff1667ffffffffffffffff1667ffffffffffffffff1681526020016000820160089054906101000a900467ffffffffffffffff1667ffffffffffffffff1667ffffffffffffffff16815250509050919050565b60008054906101000a900463ffffffff1681565b600360009054906101000a900473ffffffffffffffffffffffffffffffffffffffff1673ffffffffffffffffffffffffffffffffffffffff163373ffffffffffffffffffffffffffffffffffffffff1614612758576040517f08c379a000000000000000000000000000000000000000000000000000000000815260040161274f90616f26565b60405180910390fd5b806001908051906020019061276e929190616087565b5050565b60048060000160009054906101000a900467ffffffffffffffff16908060010154908060020154905083565b6127a661610d565b600860008373ffffffffffffffffffffffffffffffffffffffff1673ffffffffffffffffffffffffffffffffffffffff1681526020019081526020016000206001600860008573ffffffffffffffffffffffffffffffffffffffff1673ffffffffffffffffffffffffffffffffffffffff168152602001908152602001600020805490506128349190617530565b8154811061286b577f4e487b7100000000000000000000000000000000000000000000000000000000600052603260045260246000fd5b906000526020600020016040518060600160405290816000820160009054906101000a900467ffffffffffffffff1667ffffffffffffffff1667ffffffffffffffff1681526020016000820160089054906101000a900467ffffffffffffffff1667ffffffffffffffff1667ffffffffffffffff1681526020016000820160109054906101000a900467ffffffffffffffff1667ffffffffffffffff1667ffffffffffffffff16815250509050919050565b601060009054906101000a900473ffffffffffffffffffffffffffffffffffffffff1673ffffffffffffffffffffffffffffffffffffffff16632e1a7d4d826040518263ffffffff1660e01b8152600401612978919061714d565b600060405180830381600087803b15801561299257600080fd5b505af11580156129a6573d6000803e3d6000fd5b5050505050565b601160009054906101000a900473ffffffffffffffffffffffffffffffffffffffff1673ffffffffffffffffffffffffffffffffffffffff1663e335b451888888888888886040518863ffffffff1660e01b8152600401612a149796959493929190616e58565b600060405180830381600087803b158015612a2e57600080fd5b505af1158015612a42573d6000803e3d6000fd5b5050505050505050505050565b600060049054906101000a900460ff16612a9e576040517f08c379a0000000000000000000000000000000000000000000000000000000008152600401612a9590616f86565b60405180910390fd5b6000612aa93361360d565b905060008111612aee576040517f08c379a0000000000000000000000000000000000000000000000000000000008152600401612ae590617006565b60405180910390fd5b612af781611d6b565b50565b600061016d6202a300612b0d91906174ee565b67ffffffffffffffff16431115612b5357612b4c61016d6202a300612b3291906174ee565b67ffffffffffffffff1643612b479190617530565b612beb565b9050612b60565b612b5d6000612beb565b90505b90565b612b6b61614c565b600a6040518060600160405290816000820160009054906101000a900467ffffffffffffffff1667ffffffffffffffff1667ffffffffffffffff1681526020016000820160089054906101000a900467ffffffffffffffff1667ffffffffffffffff1667ffffffffffffffff168152602001600182015481525050905090565b600080600090506000806040518060800160405280600a60000160089054906101000a900467ffffffffffffffff1667ffffffffffffffff168152602001612c316143b2565b67ffffffffffffffff168152602001600a60000160009054906101000a900467ffffffffffffffff1667ffffffffffffffff168152602001612c88600a60010154612c7a615056565b614cad90919063ffffffff16565b8152509050612ca8612c998261507a565b8461455690919063ffffffff16565b9250600182612cb791906173cf565b9150600060078054905090506000811415612cd85783945050505050612e68565b60005b81811015612e4d576000600760018385612cf59190617530565b612cff9190617530565b81548110612d36577f4e487b7100000000000000000000000000000000000000000000000000000000600052603260045260246000fd5b90600052602060002090600202016040518060800160405290816000820160009054906101000a900467ffffffffffffffff1667ffffffffffffffff1667ffffffffffffffff1681526020016000820160089054906101000a900467ffffffffffffffff1667ffffffffffffffff1667ffffffffffffffff1681526020016000820160109054906101000a900467ffffffffffffffff1667ffffffffffffffff1667ffffffffffffffff168152602001600182015481525050905087816020015167ffffffffffffffff161015612e0d5750612e4d565b612e28612e198261507a565b8761455690919063ffffffff16565b9550600185612e3791906173cf565b9450508080612e45906176e7565b915050612cdb565b50612e61838561517e90919063ffffffff16565b9450505050505b919050565b600360009054906101000a900473ffffffffffffffffffffffffffffffffffffffff1673ffffffffffffffffffffffffffffffffffffffff163373ffffffffffffffffffffffffffffffffffffffff1614612efd576040517f08c379a0000000000000000000000000000000000000000000000000000000008152600401612ef490616f26565b60405180910390fd5b670de0b6b3a764000081612f119190617494565b60028190555050565b600360009054906101000a900473ffffffffffffffffffffffffffffffffffffffff1673ffffffffffffffffffffffffffffffffffffffff163373ffffffffffffffffffffffffffffffffffffffff1614612faa576040517f08c379a0000000000000000000000000000000000000000000000000000000008152600401612fa190616f26565b60405180910390fd5b60008163ffffffff16118015612fce575061271063ffffffff168163ffffffff1611155b61300d576040517f08c379a000000000000000000000000000000000000000000000000000000000815260040161300490616fc6565b60405180910390fd5b806000806101000a81548163ffffffff021916908363ffffffff1602179055507fe58e62b1b669eb56125ef85ed8b558f033d9cc249825f9fb35742df12acd3e7c8160405161305c919061719f565b60405180910390a150565b60606130b2600e60008673ffffffffffffffffffffffffffffffffffffffff1673ffffffffffffffffffffffffffffffffffffffff1681526020019081526020016000208484614d4e565b90509392505050565b600060059054906101000a900467ffffffffffffffff1681565b600060049054906101000a900460ff16613124576040517f08c379a000000000000000000000000000000000000000000000000000000000815260040161311b90616f86565b60405180910390fd5b61316b600e60003373ffffffffffffffffffffffffffffffffffffffff1673ffffffffffffffffffffffffffffffffffffffff1681526020019081526020016000206147a9565b600d60003373ffffffffffffffffffffffffffffffffffffffff1673ffffffffffffffffffffffffffffffffffffffff16815260200190815260200160002060000160108282829054906101000a900467ffffffffffffffff166131cf9190617425565b92506101000a81548167ffffffffffffffff021916908367ffffffffffffffff1602179055508067ffffffffffffffff16600d60003373ffffffffffffffffffffffffffffffffffffffff1673ffffffffffffffffffffffffffffffffffffffff16815260200190815260200160002060000160109054906101000a900467ffffffffffffffff1667ffffffffffffffff1610156132a2576040517f08c379a000000000000000000000000000000000000000000000000000000000815260040161329990616fa6565b60405180910390fd5b6132ab81612567565b3373ffffffffffffffffffffffffffffffffffffffff167f73395a3e5d14942cd04b55cee3e03536007f34202bbdfb9c3221e88a90b93ede826040516132f191906171ba565b60405180910390a280600460000160008282829054906101000a900467ffffffffffffffff166133219190617598565b92506101000a81548167ffffffffffffffff021916908367ffffffffffffffff16021790555080600d60003373ffffffffffffffffffffffffffffffffffffffff1673ffffffffffffffffffffffffffffffffffffffff16815260200190815260200160002060000160088282829054906101000a900467ffffffffffffffff166133ac9190617598565b92506101000a81548167ffffffffffffffff021916908367ffffffffffffffff16021790555080600d60003373ffffffffffffffffffffffffffffffffffffffff1673ffffffffffffffffffffffffffffffffffffffff16815260200190815260200160002060000160108282829054906101000a900467ffffffffffffffff166134379190617598565b92506101000a81548167ffffffffffffffff021916908367ffffffffffffffff1602179055506000600f60003373ffffffffffffffffffffffffffffffffffffffff1673ffffffffffffffffffffffffffffffffffffffff16815260200190815260200160002090506134fa8160405180604001604052808567ffffffffffffffff168152602001600060059054906101000a900467ffffffffffffffff166134de6143b2565b6134e89190617425565b67ffffffffffffffff168152506143ba565b613502614496565b61350a6144a8565b5050565b60606007805480602002602001604051908101604052809291908181526020016000905b8282101561360457838290600052602060002090600202016040518060800160405290816000820160009054906101000a900467ffffffffffffffff1667ffffffffffffffff1667ffffffffffffffff1681526020016000820160089054906101000a900467ffffffffffffffff1667ffffffffffffffff1667ffffffffffffffff1681526020016000820160109054906101000a900467ffffffffffffffff1667ffffffffffffffff1667ffffffffffffffff16815260200160018201548152505081526020019060010190613532565b50505050905090565b6000806000905061362f61362084615194565b8261455690919063ffffffff16565b905061364c61363d846156e7565b8261455690919063ffffffff16565b90506136a3600d60008573ffffffffffffffffffffffffffffffffffffffff1673ffffffffffffffffffffffffffffffffffffffff168152602001908152602001600020600201548261455690919063ffffffff16565b915050919050565b600060049054906101000a900460ff166136fa576040517f08c379a00000000000000000000000000000000000000000000000000000000081526004016136f190616f86565b60405180910390fd5b606481111561373e576040517f08c379a000000000000000000000000000000000000000000000000000000000815260040161373590616f46565b60405180910390fd5b600080600860003373ffffffffffffffffffffffffffffffffffffffff1673ffffffffffffffffffffffffffffffffffffffff1681526020019081526020016000209050600081805490509050600081141561379c57505050613c2c565b838110156137ac57818054905093505b60005b84811015613b8c57600083600183856137c89190617530565b6137d29190617530565b81548110613809577f4e487b7100000000000000000000000000000000000000000000000000000000600052603260045260246000fd5b906000526020600020016040518060600160405290816000820160009054906101000a900467ffffffffffffffff1667ffffffffffffffff1667ffffffffffffffff1681526020016000820160089054906101000a900467ffffffffffffffff1667ffffffffffffffff1667ffffffffffffffff1681526020016000820160109054906101000a900467ffffffffffffffff1667ffffffffffffffff1667ffffffffffffffff1681525050905060006138cf826000015167ffffffffffffffff166144ba565b905060008190505b6007805490508167ffffffffffffffff161015613ad957826020015167ffffffffffffffff1660078267ffffffffffffffff1681548110613941577f4e487b7100000000000000000000000000000000000000000000000000000000600052603260045260246000fd5b906000526020600020906002020160000160009054906101000a900467ffffffffffffffff1667ffffffffffffffff161061397b57613ad9565b600060078267ffffffffffffffff16815481106139c1577f4e487b7100000000000000000000000000000000000000000000000000000000600052603260045260246000fd5b90600052602060002090600202016001015414156139de57613ac6565b6000613aad60078367ffffffffffffffff1681548110613a27577f4e487b7100000000000000000000000000000000000000000000000000000000600052603260045260246000fd5b906000526020600020906002020160010154856040015160078567ffffffffffffffff1681548110613a82577f4e487b7100000000000000000000000000000000000000000000000000000000600052603260045260246000fd5b906000526020600020906002020160000160109054906101000a900467ffffffffffffffff166144d7565b9050613ac2818961455690919063ffffffff16565b9750505b8080613ad19061775d565b9150506138d7565b5084805480613b11577f4e487b7100000000000000000000000000000000000000000000000000000000600052603160045260246000fd5b60019003818190600052602060002001600080820160006101000a81549067ffffffffffffffff02191690556000820160086101000a81549067ffffffffffffffff02191690556000820160106101000a81549067ffffffffffffffff02191690555050905550508080613b84906176e7565b9150506137af565b50613be283600d60003373ffffffffffffffffffffffffffffffffffffffff1673ffffffffffffffffffffffffffffffffffffffff1681526020019081526020016000206002015461455690919063ffffffff16565b600d60003373ffffffffffffffffffffffffffffffffffffffff1673ffffffffffffffffffffffffffffffffffffffff168152602001908152602001600020600201819055505050505b50565b6060613c78600e60008473ffffffffffffffffffffffffffffffffffffffff1673ffffffffffffffffffffffffffffffffffffffff16815260200190815260200160002061456c565b9050919050565b600360009054906101000a900473ffffffffffffffffffffffffffffffffffffffff1673ffffffffffffffffffffffffffffffffffffffff163373ffffffffffffffffffffffffffffffffffffffff1614613d0f576040517f08c379a0000000000000000000000000000000000000000000000000000000008152600401613d0690616f26565b60405180910390fd5b600060049054906101000a900460ff1615613d5f576040517f08c379a0000000000000000000000000000000000000000000000000000000008152600401613d5690617026565b60405180910390fd5b60018667ffffffffffffffff1614613dac576040517f08c379a0000000000000000000000000000000000000000000000000000000008152600401613da390617066565b60405180910390fd5b6002548667ffffffffffffffff16613dc49190617494565b3414613e05576040517f08c379a0000000000000000000000000000000000000000000000000000000008152600401613dfc90616f06565b60405180910390fd5b613e0e34614321565b613e1d878787878787876129ad565b6001600060046101000a81548160ff02191690831515021790555085600460000160008282829054906101000a900467ffffffffffffffff16613e609190617425565b92506101000a81548167ffffffffffffffff021916908367ffffffffffffffff16021790555085600d60003373ffffffffffffffffffffffffffffffffffffffff1673ffffffffffffffffffffffffffffffffffffffff16815260200190815260200160002060000160008282829054906101000a900467ffffffffffffffff16613eeb9190617425565b92506101000a81548167ffffffffffffffff021916908367ffffffffffffffff16021790555085600d60003373ffffffffffffffffffffffffffffffffffffffff1673ffffffffffffffffffffffffffffffffffffffff16815260200190815260200160002060000160088282829054906101000a900467ffffffffffffffff16613f769190617425565b92506101000a81548167ffffffffffffffff021916908367ffffffffffffffff16021790555085600d60003373ffffffffffffffffffffffffffffffffffffffff1673ffffffffffffffffffffffffffffffffffffffff16815260200190815260200160002060000160108282829054906101000a900467ffffffffffffffff166140019190617425565b92506101000a81548167ffffffffffffffff021916908367ffffffffffffffff16021790555061402f615a01565b614037614cc3565b50505050505050565b614048616181565b6000600d60008473ffffffffffffffffffffffffffffffffffffffff1673ffffffffffffffffffffffffffffffffffffffff1681526020019081526020016000206040518060c00160405290816000820160009054906101000a900467ffffffffffffffff1667ffffffffffffffff1667ffffffffffffffff1681526020016000820160089054906101000a900467ffffffffffffffff1667ffffffffffffffff1667ffffffffffffffff1681526020016000820160109054906101000a900467ffffffffffffffff1667ffffffffffffffff1667ffffffffffffffff1681526020016000820160189054906101000a900467ffffffffffffffff1667ffffffffffffffff1667ffffffffffffffff1681526020016001820154815260200160028201548152505090506141b9600e60008573ffffffffffffffffffffffffffffffffffffffff1673ffffffffffffffffffffffffffffffffffffffff168152602001908152602001600020615b32565b816040018181516141ca9190617425565b91509067ffffffffffffffff16908167ffffffffffffffff168152505061422e600f60008573ffffffffffffffffffffffffffffffffffffffff1673ffffffffffffffffffffffffffffffffffffffff168152602001908152602001600020615b32565b8160600181815161423f9190617425565b91509067ffffffffffffffff16908167ffffffffffffffff168152505080915050919050565b600360009054906101000a900473ffffffffffffffffffffffffffffffffffffffff1673ffffffffffffffffffffffffffffffffffffffff163373ffffffffffffffffffffffffffffffffffffffff16146142f5576040517f08c379a00000000000000000000000000000000000000000000000000000000081526004016142ec90616f26565b60405180910390fd5b80600060056101000a81548167ffffffffffffffff021916908367ffffffffffffffff16021790555050565b601060009054906101000a900473ffffffffffffffffffffffffffffffffffffffff1673ffffffffffffffffffffffffffffffffffffffff1663b6b55f2582836040518363ffffffff1660e01b815260040161437d919061714d565b6000604051808303818588803b15801561439657600080fd5b505af11580156143aa573d6000803e3d6000fd5b505050505050565b600043905090565b8082600101600084600001600881819054906101000a900467ffffffffffffffff16809291906143e99061775d565b91906101000a81548167ffffffffffffffff021916908367ffffffffffffffff16021790555067ffffffffffffffff1667ffffffffffffffff16815260200190815260200160002060008201518160000160006101000a81548167ffffffffffffffff021916908367ffffffffffffffff16021790555060208201518160000160086101000a81548167ffffffffffffffff021916908367ffffffffffffffff1602179055509050505050565b61449e615c4d565b6144a6615a01565b565b6144b06148ce565b6144b8614cc3565b565b600060096000838152602001908152602001600020549050919050565b600061454d61271063ffffffff16836144f091906174ee565b67ffffffffffffffff1661453f60008054906101000a900463ffffffff1663ffffffff166145318767ffffffffffffffff1689615e5b90919063ffffffff16565b615e5b90919063ffffffff16565b61517e90919063ffffffff16565b90509392505050565b6000818361456491906173cf565b905092915050565b606060008260000160009054906101000a900467ffffffffffffffff168360000160089054906101000a900467ffffffffffffffff166145ac9190617598565b67ffffffffffffffff1667ffffffffffffffff8111156145f5577f4e487b7100000000000000000000000000000000000000000000000000000000600052604160045260246000fd5b60405190808252806020026020018201604052801561462e57816020015b61461b61602b565b8152602001906001900390816146135790505b50905060008360000160009054906101000a900467ffffffffffffffff1690505b8360000160089054906101000a900467ffffffffffffffff1667ffffffffffffffff168167ffffffffffffffff16101561479f578360010160008267ffffffffffffffff1667ffffffffffffffff1681526020019081526020016000206040518060400160405290816000820160009054906101000a900467ffffffffffffffff1667ffffffffffffffff1667ffffffffffffffff1681526020016000820160089054906101000a900467ffffffffffffffff1667ffffffffffffffff1667ffffffffffffffff1681525050828560000160009054906101000a900467ffffffffffffffff16836147409190617598565b67ffffffffffffffff1681518110614781577f4e487b7100000000000000000000000000000000000000000000000000000000600052603260045260246000fd5b602002602001018190525080806147979061775d565b91505061464f565b5080915050919050565b6000806000905060008360000160009054906101000a900467ffffffffffffffff1690505b8360000160089054906101000a900467ffffffffffffffff1667ffffffffffffffff168167ffffffffffffffff1610156148c457438460010160008367ffffffffffffffff1667ffffffffffffffff16815260200190815260200160002060000160089054906101000a900467ffffffffffffffff1667ffffffffffffffff161115614859576148c4565b8360010160008267ffffffffffffffff1667ffffffffffffffff16815260200190815260200160002060000160009054906101000a900467ffffffffffffffff16826148a59190617425565b91506148b084615e71565b5080806148bc9061775d565b9150506147ce565b5080915050919050565b600a600101546148dc615056565b101561492f57600a600101546148f0615056565b436040517fd714a6e000000000000000000000000000000000000000000000000000000000815260040161492693929190617168565b60405180910390fd5b60078054905060096000600a60000160089054906101000a900467ffffffffffffffff1667ffffffffffffffff168152602001908152602001600020819055506000614990600a60010154614982615056565b614cad90919063ffffffff16565b905060076040518060800160405280600a60000160089054906101000a900467ffffffffffffffff1667ffffffffffffffff1681526020016149d06143b2565b67ffffffffffffffff168152602001600a60000160009054906101000a900467ffffffffffffffff1667ffffffffffffffff16815260200183815250908060018154018082558091505060019003906000526020600020906002020160009091909190915060008201518160000160006101000a81548167ffffffffffffffff021916908367ffffffffffffffff16021790555060208201518160000160086101000a81548167ffffffffffffffff021916908367ffffffffffffffff16021790555060408201518160000160106101000a81548167ffffffffffffffff021916908367ffffffffffffffff1602179055506060820151816001015550506000614b2061271063ffffffff16614b1260008054906101000a900463ffffffff16612710614afd9190617564565b63ffffffff1685615e5b90919063ffffffff16565b61517e90919063ffffffff16565b9050614b3a8160046001015461455690919063ffffffff16565b600460010181905550614b5b8260046002015461455690919063ffffffff16565b6004600201819055505050565b600060049054906101000a900460ff16614bb7576040517f08c379a0000000000000000000000000000000000000000000000000000000008152600401614bae90616f86565b60405180910390fd5b6000614bc233615194565b9050614c1981600d60003373ffffffffffffffffffffffffffffffffffffffff1673ffffffffffffffffffffffffffffffffffffffff1681526020019081526020016000206002015461455690919063ffffffff16565b600d60003373ffffffffffffffffffffffffffffffffffffffff1673ffffffffffffffffffffffffffffffffffffffff16815260200190815260200160002060020181905550600860003373ffffffffffffffffffffffffffffffffffffffff1673ffffffffffffffffffffffffffffffffffffffff1681526020019081526020016000206000614caa91906161df565b50565b60008183614cbb9190617530565b905092915050565b600460000160009054906101000a900467ffffffffffffffff16600a60000160006101000a81548167ffffffffffffffff021916908367ffffffffffffffff160217905550614d106143b2565b600a60000160086101000a81548167ffffffffffffffff021916908367ffffffffffffffff160217905550614d43615056565b600a60010181905550565b60606000838560000160009054906101000a900467ffffffffffffffff16614d769190617425565b90508460000160089054906101000a900467ffffffffffffffff1667ffffffffffffffff168167ffffffffffffffff1610614e2e57600067ffffffffffffffff811115614dec577f4e487b7100000000000000000000000000000000000000000000000000000000600052604160045260246000fd5b604051908082528060200260200182016040528015614e2557816020015b614e1261602b565b815260200190600190039081614e0a5790505b5091505061504f565b60008382614e3c9190617425565b67ffffffffffffffff1690508560000160089054906101000a900467ffffffffffffffff1667ffffffffffffffff16811115614e98578560000160089054906101000a900467ffffffffffffffff1667ffffffffffffffff1690505b60008267ffffffffffffffff1682614eb09190617530565b67ffffffffffffffff811115614eef577f4e487b7100000000000000000000000000000000000000000000000000000000600052604160045260246000fd5b604051908082528060200260200182016040528015614f2857816020015b614f1561602b565b815260200190600190039081614f0d5790505b50905060008390505b828167ffffffffffffffff161015615047578760010160008267ffffffffffffffff1667ffffffffffffffff1681526020019081526020016000206040518060400160405290816000820160009054906101000a900467ffffffffffffffff1667ffffffffffffffff1667ffffffffffffffff1681526020016000820160089054906101000a900467ffffffffffffffff1667ffffffffffffffff1667ffffffffffffffff1681525050828583614fe89190617598565b67ffffffffffffffff1681518110615029577f4e487b7100000000000000000000000000000000000000000000000000000000600052603260045260246000fd5b6020026020010181905250808061503f9061775d565b915050614f31565b508093505050505b9392505050565b6000803090508073ffffffffffffffffffffffffffffffffffffffff163191505090565b600080826000015183602001516150919190617598565b67ffffffffffffffff1690506000836060015114806150b05750600081145b806150c957506000836040015167ffffffffffffffff16145b156150d8576000915050615179565b60006150fd600254856040015167ffffffffffffffff16615e5b90919063ffffffff16565b90506000615170836151628461515461016d6202a30061511d91906174ee565b67ffffffffffffffff1661514661271063ffffffff168c60600151615e5b90919063ffffffff16565b615e5b90919063ffffffff16565b61517e90919063ffffffff16565b61517e90919063ffffffff16565b90508093505050505b919050565b6000818361518c9190617463565b905092915050565b600080600090506000600860008573ffffffffffffffffffffffffffffffffffffffff1673ffffffffffffffffffffffffffffffffffffffff168152602001908152602001600020805480602002602001604051908101604052809291908181526020016000905b828210156152c0578382906000526020600020016040518060600160405290816000820160009054906101000a900467ffffffffffffffff1667ffffffffffffffff1667ffffffffffffffff1681526020016000820160089054906101000a900467ffffffffffffffff1667ffffffffffffffff1667ffffffffffffffff1681526020016000820160109054906101000a900467ffffffffffffffff1667ffffffffffffffff1667ffffffffffffffff1681525050815260200190600101906151fc565b5050505090506000815114156152da5781925050506156e2565b600061533482600081518110615319577f4e487b7100000000000000000000000000000000000000000000000000000000600052603260045260246000fd5b60200260200101516000015167ffffffffffffffff166144ba565b905060008190505b6007805490508167ffffffffffffffff1610156156da57600060078267ffffffffffffffff1681548110615399577f4e487b7100000000000000000000000000000000000000000000000000000000600052603260045260246000fd5b90600052602060002090600202016040518060800160405290816000820160009054906101000a900467ffffffffffffffff1667ffffffffffffffff1667ffffffffffffffff1681526020016000820160089054906101000a900467ffffffffffffffff1667ffffffffffffffff1667ffffffffffffffff1681526020016000820160109054906101000a900467ffffffffffffffff1667ffffffffffffffff1667ffffffffffffffff168152602001600182015481525050905060008160600151141561546757506156c7565b60005b84518163ffffffff1610156156c457816020015167ffffffffffffffff16858263ffffffff16815181106154c7577f4e487b7100000000000000000000000000000000000000000000000000000000600052603260045260246000fd5b60200260200101516000015167ffffffffffffffff16106154e7576156c4565b816000015167ffffffffffffffff16858263ffffffff1681518110615535577f4e487b7100000000000000000000000000000000000000000000000000000000600052603260045260246000fd5b60200260200101516020015167ffffffffffffffff1611615555576156b1565b6000826000015167ffffffffffffffff16868363ffffffff16815181106155a5577f4e487b7100000000000000000000000000000000000000000000000000000000600052603260045260246000fd5b60200260200101516000015167ffffffffffffffff161115801561562b5750826020015167ffffffffffffffff16868363ffffffff1681518110615612577f4e487b7100000000000000000000000000000000000000000000000000000000600052603260045260246000fd5b60200260200101516020015167ffffffffffffffff1610155b90508061563857506156b1565b60006156978460600151888563ffffffff1681518110615681577f4e487b7100000000000000000000000000000000000000000000000000000000600052603260045260246000fd5b60200260200101516040015186604001516144d7565b90506156ac818961455690919063ffffffff16565b975050505b80806156bc90617730565b91505061546a565b50505b80806156d29061775d565b91505061533c565b508293505050505b919050565b600080600090506000600c60008573ffffffffffffffffffffffffffffffffffffffff1673ffffffffffffffffffffffffffffffffffffffff1681526020019081526020016000206040518060400160405290816000820160009054906101000a900467ffffffffffffffff1667ffffffffffffffff1667ffffffffffffffff1681526020016000820160089054906101000a900467ffffffffffffffff1667ffffffffffffffff1667ffffffffffffffff16815250509050600a60000160089054906101000a900467ffffffffffffffff1667ffffffffffffffff16816020015167ffffffffffffffff16111580156157ec5750600a600101546157ea615056565b115b15615858576000615812600a60010154615804615056565b614cad90919063ffffffff16565b9050600061583e828460000151600a60000160009054906101000a900467ffffffffffffffff166144d7565b9050615853818561455690919063ffffffff16565b935050505b6000615871826020015167ffffffffffffffff166144ba565b905060008167ffffffffffffffff161415615891578293505050506159fc565b60008190505b6007805490508167ffffffffffffffff1610156159f457600060078267ffffffffffffffff16815481106158f4577f4e487b7100000000000000000000000000000000000000000000000000000000600052603260045260246000fd5b90600052602060002090600202016040518060800160405290816000820160009054906101000a900467ffffffffffffffff1667ffffffffffffffff1667ffffffffffffffff1681526020016000820160089054906101000a900467ffffffffffffffff1667ffffffffffffffff1667ffffffffffffffff1681526020016000820160109054906101000a900467ffffffffffffffff1667ffffffffffffffff1667ffffffffffffffff168152602001600182015481525050905060006159c88260600151866000015184604001516144d7565b90506159dd818761455690919063ffffffff16565b9550505080806159ec9061775d565b915050615897565b508293505050505b919050565b600d60003373ffffffffffffffffffffffffffffffffffffffff1673ffffffffffffffffffffffffffffffffffffffff16815260200190815260200160002060000160089054906101000a900467ffffffffffffffff16600c60003373ffffffffffffffffffffffffffffffffffffffff1673ffffffffffffffffffffffffffffffffffffffff16815260200190815260200160002060000160006101000a81548167ffffffffffffffff021916908367ffffffffffffffff160217905550615ac86143b2565b600c60003373ffffffffffffffffffffffffffffffffffffffff1673ffffffffffffffffffffffffffffffffffffffff16815260200190815260200160002060000160086101000a81548167ffffffffffffffff021916908367ffffffffffffffff160217905550565b6000806000905060008360000160009054906101000a900467ffffffffffffffff1690505b8360000160089054906101000a900467ffffffffffffffff1667ffffffffffffffff168167ffffffffffffffff161015615c4357438460010160008367ffffffffffffffff1667ffffffffffffffff16815260200190815260200160002060000160089054906101000a900467ffffffffffffffff1667ffffffffffffffff161115615be257615c43565b8360010160008267ffffffffffffffff1667ffffffffffffffff16815260200190815260200160002060000160009054906101000a900467ffffffffffffffff1682615c2e9190617425565b91508080615c3b9061775d565b915050615b57565b5080915050919050565b6000600c60003373ffffffffffffffffffffffffffffffffffffffff1673ffffffffffffffffffffffffffffffffffffffff1681526020019081526020016000206040518060400160405290816000820160009054906101000a900467ffffffffffffffff1667ffffffffffffffff1667ffffffffffffffff1681526020016000820160089054906101000a900467ffffffffffffffff1667ffffffffffffffff1667ffffffffffffffff168152505090506000816000015167ffffffffffffffff161415615d1c5750615e59565b600860003373ffffffffffffffffffffffffffffffffffffffff1673ffffffffffffffffffffffffffffffffffffffff1681526020019081526020016000206040518060600160405280836020015167ffffffffffffffff168152602001615d826143b2565b67ffffffffffffffff168152602001836000015167ffffffffffffffff168152509080600181540180825580915050600190039060005260206000200160009091909190915060008201518160000160006101000a81548167ffffffffffffffff021916908367ffffffffffffffff16021790555060208201518160000160086101000a81548167ffffffffffffffff021916908367ffffffffffffffff16021790555060408201518160000160106101000a81548167ffffffffffffffff021916908367ffffffffffffffff1602179055505050505b565b60008183615e699190617494565b905092915050565b615e7961602b565b60008260010160008460000160009054906101000a900467ffffffffffffffff1667ffffffffffffffff1667ffffffffffffffff1681526020019081526020016000206040518060400160405290816000820160009054906101000a900467ffffffffffffffff1667ffffffffffffffff1667ffffffffffffffff1681526020016000820160089054906101000a900467ffffffffffffffff1667ffffffffffffffff1667ffffffffffffffff1681525050905082600101600084600001600081819054906101000a900467ffffffffffffffff1680929190615f5b9061775d565b91906101000a81548167ffffffffffffffff021916908367ffffffffffffffff16021790555067ffffffffffffffff1667ffffffffffffffff168152602001908152602001600020600080820160006101000a81549067ffffffffffffffff02191690556000820160086101000a81549067ffffffffffffffff0219169055505080915050919050565b6040518060800160405280600067ffffffffffffffff168152602001600067ffffffffffffffff168152602001600067ffffffffffffffff168152602001600081525090565b6040518060400160405280600067ffffffffffffffff168152602001600067ffffffffffffffff1681525090565b6040518060400160405280600067ffffffffffffffff168152602001600067ffffffffffffffff1681525090565b82805461609390617684565b90600052602060002090601f0160209004810192826160b557600085556160fc565b82601f106160ce57805160ff19168380011785556160fc565b828001600101855582156160fc579182015b828111156160fb5782518255916020019190600101906160e0565b5b5090506161099190616200565b5090565b6040518060600160405280600067ffffffffffffffff168152602001600067ffffffffffffffff168152602001600067ffffffffffffffff1681525090565b6040518060600160405280600067ffffffffffffffff168152602001600067ffffffffffffffff168152602001600081525090565b6040518060c00160405280600067ffffffffffffffff168152602001600067ffffffffffffffff168152602001600067ffffffffffffffff168152602001600067ffffffffffffffff16815260200160008152602001600081525090565b50805460008255906000526020600020908101906161fd919061621d565b50565b5b80821115616219576000816000905550600101616201565b5090565b5b8082111561628157600080820160006101000a81549067ffffffffffffffff02191690556000820160086101000a81549067ffffffffffffffff02191690556000820160106101000a81549067ffffffffffffffff02191690555060010161621e565b5090565b600061629861629384617231565b61720c565b9050828152602081018484840111156162b057600080fd5b6162bb848285617642565b509392505050565b6000813590506162d281617ae8565b92915050565b6000819050826020600202820111156162f057600080fd5b92915050565b60008135905061630581617aff565b92915050565b60008135905061631a81617b16565b92915050565b60008151905061632f81617b16565b92915050565b60008083601f84011261634757600080fd5b8235905067ffffffffffffffff81111561636057600080fd5b60208301915083600182028301111561637857600080fd5b9250929050565b600082601f83011261639057600080fd5b81356163a0848260208601616285565b91505092915050565b6000813590506163b881617b2d565b92915050565b6000813590506163cd81617b44565b92915050565b6000813590506163e281617b5b565b92915050565b6000602082840312156163fa57600080fd5b6000616408848285016162c3565b91505092915050565b6000806040838503121561642457600080fd5b6000616432858286016162c3565b9250506020616443858286016162f6565b9150509250929050565b60008060006060848603121561646257600080fd5b6000616470868287016162c3565b9350506020616481868287016163d3565b9250506040616492868287016163d3565b9150509250925092565b6000602082840312156164ae57600080fd5b60006164bc84828501616320565b91505092915050565b600080600080600080600060a0888a0312156164e057600080fd5b60006164ee8a828b0161630b565b97505060206164ff8a828b016163d3565b965050604088013567ffffffffffffffff81111561651c57600080fd5b6165288a828b01616335565b9550955050606088013567ffffffffffffffff81111561654757600080fd5b6165538a828b01616335565b9350935050608088013567ffffffffffffffff81111561657257600080fd5b61657e8a828b016162d8565b91505092959891949750929550565b60006020828403121561659f57600080fd5b600082013567ffffffffffffffff8111156165b957600080fd5b6165c58482850161637f565b91505092915050565b6000602082840312156165e057600080fd5b60006165ee848285016163a9565b91505092915050565b60006020828403121561660957600080fd5b6000616617848285016163be565b91505092915050565b60006020828403121561663257600080fd5b6000616640848285016163d3565b91505092915050565b600061665684848461686d565b90509392505050565b600061666b8383616b4f565b60408301905092915050565b60006166838383616b7e565b60808301905092915050565b600061669b8383616cd2565b60608301905092915050565b6166b0816175cc565b82525050565b60006166c18261729c565b6166cb8185617307565b9350836020820285016166dd85617262565b8060005b858110156167235784840389526166f88284617378565b616703868284616649565b955061670e846172d3565b935060208b019a5050506001810190506166e1565b50829750879550505050505092915050565b6000616740826172a7565b61674a8185617312565b93506167558361726c565b8060005b8381101561678657815161676d888261665f565b9750616778836172e0565b925050600181019050616759565b5085935050505092915050565b600061679e826172b2565b6167a88185617323565b93506167b38361727c565b8060005b838110156167e45781516167cb8882616677565b97506167d6836172ed565b9250506001810190506167b7565b5085935050505092915050565b60006167fc826172bd565b6168068185617334565b93506168118361728c565b8060005b83811015616842578151616829888261668f565b9750616834836172fa565b925050600181019050616815565b5085935050505092915050565b616858816175de565b82525050565b616867816175ea565b82525050565b60006168798385617345565b9350616886838584617642565b61688f8361784a565b840190509392505050565b60006168a68385617356565b93506168b3838584617642565b6168bc8361784a565b840190509392505050565b60006168d2826172c8565b6168dc8185617367565b93506168ec818560208601617651565b6168f58161784a565b840191505092915050565b600061690d602a83617367565b91506169188261785b565b604082019050919050565b6000616930601c83617367565b915061693b826178aa565b602082019050919050565b6000616953601b83617367565b915061695e826178d3565b602082019050919050565b6000616976601883617367565b9150616981826178fc565b602082019050919050565b6000616999601083617367565b91506169a482617925565b602082019050919050565b60006169bc601483617367565b91506169c78261794e565b602082019050919050565b60006169df601483617367565b91506169ea82617977565b602082019050919050565b6000616a02601783617367565b9150616a0d826179a0565b602082019050919050565b6000616a25601683617367565b9150616a30826179c9565b602082019050919050565b6000616a48601583617367565b9150616a53826179f2565b602082019050919050565b6000616a6b601883617367565b9150616a7682617a1b565b602082019050919050565b6000616a8e601583617367565b9150616a9982617a44565b602082019050919050565b6000616ab1601583617367565b9150616abc82617a6d565b602082019050919050565b6000616ad4601383617367565b9150616adf82617a96565b602082019050919050565b6000616af7601683617367565b9150616b0282617abf565b602082019050919050565b606082016000820151616b236000850182616d83565b506020820151616b366020850182616d83565b506040820151616b496040850182616d56565b50505050565b604082016000820151616b656000850182616d83565b506020820151616b786020850182616d83565b50505050565b608082016000820151616b946000850182616d83565b506020820151616ba76020850182616d83565b506040820151616bba6040850182616d83565b506060820151616bcd6060850182616d56565b50505050565b608082016000820151616be96000850182616d83565b506020820151616bfc6020850182616d83565b506040820151616c0f6040850182616d83565b506060820151616c226060850182616d56565b50505050565b604082016000820151616c3e6000850182616d83565b506020820151616c516020850182616d83565b50505050565b60c082016000820151616c6d6000850182616d83565b506020820151616c806020850182616d83565b506040820151616c936040850182616d83565b506060820151616ca66060850182616d83565b506080820151616cb96080850182616d56565b5060a0820151616ccc60a0850182616d56565b50505050565b606082016000820151616ce86000850182616d83565b506020820151616cfb6020850182616d83565b506040820151616d0e6040850182616d83565b50505050565b606082016000820151616d2a6000850182616d83565b506020820151616d3d6020850182616d83565b506040820151616d506040850182616d83565b50505050565b616d5f81617614565b82525050565b616d6e81617614565b82525050565b616d7d8161761e565b82525050565b616d8c8161762e565b82525050565b616d9b8161762e565b82525050565b6000602082019050616db660008301846166a7565b92915050565b60006020820190508181036000830152616dd68184616735565b905092915050565b60006020820190508181036000830152616df88184616793565b905092915050565b60006020820190508181036000830152616e1a81846167f1565b905092915050565b6000602082019050616e37600083018461684f565b92915050565b6000602082019050616e52600083018461685e565b92915050565b600060a082019050616e6d600083018a61685e565b616e7a6020830189616d92565b8181036040830152616e8d81878961689a565b90508181036060830152616ea281858761689a565b90508181036080830152616eb681846166b6565b905098975050505050505050565b60006020820190508181036000830152616ede81846168c7565b905092915050565b60006020820190508181036000830152616eff81616900565b9050919050565b60006020820190508181036000830152616f1f81616923565b9050919050565b60006020820190508181036000830152616f3f81616946565b9050919050565b60006020820190508181036000830152616f5f81616969565b9050919050565b60006020820190508181036000830152616f7f8161698c565b9050919050565b60006020820190508181036000830152616f9f816169af565b9050919050565b60006020820190508181036000830152616fbf816169d2565b9050919050565b60006020820190508181036000830152616fdf816169f5565b9050919050565b60006020820190508181036000830152616fff81616a18565b9050919050565b6000602082019050818103600083015261701f81616a3b565b9050919050565b6000602082019050818103600083015261703f81616a5e565b9050919050565b6000602082019050818103600083015261705f81616a81565b9050919050565b6000602082019050818103600083015261707f81616aa4565b9050919050565b6000602082019050818103600083015261709f81616ac7565b9050919050565b600060208201905081810360008301526170bf81616aea565b9050919050565b60006060820190506170db6000830184616b0d565b92915050565b60006080820190506170f66000830184616bd3565b92915050565b60006040820190506171116000830184616c28565b92915050565b600060c08201905061712c6000830184616c57565b92915050565b60006060820190506171476000830184616d14565b92915050565b60006020820190506171626000830184616d65565b92915050565b600060608201905061717d6000830186616d65565b61718a6020830185616d65565b6171976040830184616d65565b949350505050565b60006020820190506171b46000830184616d74565b92915050565b60006020820190506171cf6000830184616d92565b92915050565b60006060820190506171ea6000830186616d92565b6171f76020830185616d65565b6172046040830184616d65565b949350505050565b6000617216617227565b905061722282826176b6565b919050565b6000604051905090565b600067ffffffffffffffff82111561724c5761724b61781b565b5b6172558261784a565b9050602081019050919050565b6000819050919050565b6000819050602082019050919050565b6000819050602082019050919050565b6000819050602082019050919050565b600060029050919050565b600081519050919050565b600081519050919050565b600081519050919050565b600081519050919050565b6000602082019050919050565b6000602082019050919050565b6000602082019050919050565b6000602082019050919050565b600081905092915050565b600082825260208201905092915050565b600082825260208201905092915050565b600082825260208201905092915050565b600082825260208201905092915050565b600082825260208201905092915050565b600082825260208201905092915050565b6000808335600160200384360303811261739157600080fd5b83810192508235915060208301925067ffffffffffffffff8211156173b557600080fd5b6001820236038413156173c757600080fd5b509250929050565b60006173da82617614565b91506173e583617614565b9250827fffffffffffffffffffffffffffffffffffffffffffffffffffffffffffffffff0382111561741a5761741961778e565b5b828201905092915050565b60006174308261762e565b915061743b8361762e565b92508267ffffffffffffffff038211156174585761745761778e565b5b828201905092915050565b600061746e82617614565b915061747983617614565b925082617489576174886177bd565b5b828204905092915050565b600061749f82617614565b91506174aa83617614565b9250817fffffffffffffffffffffffffffffffffffffffffffffffffffffffffffffffff04831182151516156174e3576174e261778e565b5b828202905092915050565b60006174f98261762e565b91506175048361762e565b92508167ffffffffffffffff04831182151516156175255761752461778e565b5b828202905092915050565b600061753b82617614565b915061754683617614565b9250828210156175595761755861778e565b5b828203905092915050565b600061756f8261761e565b915061757a8361761e565b92508282101561758d5761758c61778e565b5b828203905092915050565b60006175a38261762e565b91506175ae8361762e565b9250828210156175c1576175c061778e565b5b828203905092915050565b60006175d7826175f4565b9050919050565b60008115159050919050565b6000819050919050565b600073ffffffffffffffffffffffffffffffffffffffff82169050919050565b6000819050919050565b600063ffffffff82169050919050565b600067ffffffffffffffff82169050919050565b82818337600083830152505050565b60005b8381101561766f578082015181840152602081019050617654565b8381111561767e576000848401525b50505050565b6000600282049050600182168061769c57607f821691505b602082108114156176b0576176af6177ec565b5b50919050565b6176bf8261784a565b810181811067ffffffffffffffff821117156176de576176dd61781b565b5b80604052505050565b60006176f282617614565b91507fffffffffffffffffffffffffffffffffffffffffffffffffffffffffffffffff8214156177255761772461778e565b5b600182019050919050565b600061773b8261761e565b915063ffffffff8214156177525761775161778e565b5b600182019050919050565b60006177688261762e565b915067ffffffffffffffff8214156177835761778261778e565b5b600182019050919050565b7f4e487b7100000000000000000000000000000000000000000000000000000000600052601160045260246000fd5b7f4e487b7100000000000000000000000000000000000000000000000000000000600052601260045260246000fd5b7f4e487b7100000000000000000000000000000000000000000000000000000000600052602260045260246000fd5b7f4e487b7100000000000000000000000000000000000000000000000000000000600052604160045260246000fd5b6000601f19601f8301169050919050565b7f6d73672e76616c75652073686f756c6420626520766f7465506f776572202a2060008201527f3130303020657468657200000000000000000000000000000000000000000000602082015250565b7f6d73672e76616c75652073686f756c6420626520313030302043465800000000600082015250565b7f4f6e6c7920706f6f6c2061646d696e2063616e20646f20746869730000000000600082015250565b7f4d61782073656374696f6e20636f756e74206973203130300000000000000000600082015250565b7f4e6f206e657720757365722073686f7400000000000000000000000000000000600082015250565b7f506f6f6c206973206e6f74207265676973746564000000000000000000000000600082015250565b7f4c6f636b6564206973206e6f7420656e6f756768000000000000000000000000600082015250565b7f726174696f2073686f756c6420626520312d3130303030000000000000000000600082015250565b7f4d696e696d616c20766f7465506f776572206973203100000000000000000000600082015250565b7f4e6f20636c61696d61626c6520696e7465726573740000000000000000000000600082015250565b7f506f6f6c20697320616c72656164792072656769737465640000000000000000600082015250565b7f4e6f20766f746520706f7765722073656374696f6e0000000000000000000000600082015250565b7f766f7465506f7765722073686f756c6420626520310000000000000000000000600082015250565b7f496e746572657374206e6f7420656e6f75676800000000000000000000000000600082015250565b7f556e6c6f636b6564206973206e6f7420656e6f75676800000000000000000000600082015250565b617af1816175cc565b8114617afc57600080fd5b50565b617b08816175de565b8114617b1357600080fd5b50565b617b1f816175ea565b8114617b2a57600080fd5b50565b617b3681617614565b8114617b4157600080fd5b50565b617b4d8161761e565b8114617b5857600080fd5b50565b617b648161762e565b8114617b6f57600080fd5b5056fea2646970667358221220d9de3fd388157291f982907715060c4d83100fadee8412533a6d4ab75e63a21a64736f6c63430008040033",
  "linkReferences": {},
  "deployedLinkReferences": {}
}