{
  "_format": "hh-sol-artifact-1",
  "contractName": "PoSPoolDebug",
  "sourceName": "contracts/PoSPoolDebug.sol",
  "abi": [
    {
      "inputs": [
        {
          "internalType": "address",
          "name": "_stakingAddress",
          "type": "address"
        },
        {
          "internalType": "address",
          "name": "_posRegisterAddress",
          "type": "address"
        }
      ],
      "stateMutability": "nonpayable",
      "type": "constructor"
    },
    {
      "inputs": [
        {
          "internalType": "uint256",
          "name": "previous",
          "type": "uint256"
        },
        {
          "internalType": "uint256",
          "name": "current",
          "type": "uint256"
        },
        {
          "internalType": "uint256",
          "name": "blockNumber",
          "type": "uint256"
        }
      ],
      "name": "UnnormalReward",
      "type": "error"
    },
    {
      "anonymous": false,
      "inputs": [
        {
          "indexed": true,
          "internalType": "address",
          "name": "user",
          "type": "address"
        },
        {
          "indexed": false,
          "internalType": "uint256",
          "name": "amount",
          "type": "uint256"
        }
      ],
      "name": "ClaimInterest",
      "type": "event"
    },
    {
      "anonymous": false,
      "inputs": [
        {
          "indexed": true,
          "internalType": "address",
          "name": "user",
          "type": "address"
        },
        {
          "indexed": false,
          "internalType": "uint64",
          "name": "votePower",
          "type": "uint64"
        }
      ],
      "name": "DecreasePoSStake",
      "type": "event"
    },
    {
      "anonymous": false,
      "inputs": [
        {
          "indexed": true,
          "internalType": "address",
          "name": "user",
          "type": "address"
        },
        {
          "indexed": false,
          "internalType": "uint64",
          "name": "votePower",
          "type": "uint64"
        }
      ],
      "name": "IncreasePoSStake",
      "type": "event"
    },
    {
      "anonymous": false,
      "inputs": [
        {
          "indexed": false,
          "internalType": "uint32",
          "name": "ratio",
          "type": "uint32"
        }
      ],
      "name": "RatioChanged",
      "type": "event"
    },
    {
      "anonymous": false,
      "inputs": [
        {
          "indexed": true,
          "internalType": "address",
          "name": "user",
          "type": "address"
        },
        {
          "indexed": false,
          "internalType": "uint64",
          "name": "votePower",
          "type": "uint64"
        }
      ],
      "name": "WithdrawStake",
      "type": "event"
    },
    {
      "inputs": [],
      "name": "_lastRewardSection",
      "outputs": [
        {
          "components": [
            {
              "internalType": "uint64",
              "name": "startBlock",
              "type": "uint64"
            },
            {
              "internalType": "uint64",
              "name": "endBlock",
              "type": "uint64"
            },
            {
              "internalType": "uint64",
              "name": "available",
              "type": "uint64"
            },
            {
              "internalType": "uint256",
              "name": "reward",
              "type": "uint256"
            }
          ],
          "internalType": "struct PoSPoolStorage.RewardSection",
          "name": "",
          "type": "tuple"
        }
      ],
      "stateMutability": "view",
      "type": "function"
    },
    {
      "inputs": [
        {
          "internalType": "address",
          "name": "_address",
          "type": "address"
        }
      ],
      "name": "_lastVotePowerSection",
      "outputs": [
        {
          "components": [
            {
              "internalType": "uint64",
              "name": "startBlock",
              "type": "uint64"
            },
            {
              "internalType": "uint64",
              "name": "endBlock",
              "type": "uint64"
            },
            {
              "internalType": "uint64",
              "name": "available",
              "type": "uint64"
            }
          ],
          "internalType": "struct PoSPoolStorage.VotePowerSection",
          "name": "",
          "type": "tuple"
        }
      ],
      "stateMutability": "view",
      "type": "function"
    },
    {
      "inputs": [
        {
          "internalType": "uint256",
          "name": "startBlock",
          "type": "uint256"
        }
      ],
      "name": "_poolAPY",
      "outputs": [
        {
          "internalType": "uint32",
          "name": "",
          "type": "uint32"
        }
      ],
      "stateMutability": "view",
      "type": "function"
    },
    {
      "inputs": [],
      "name": "_poolLockPeriod",
      "outputs": [
        {
          "internalType": "uint64",
          "name": "",
          "type": "uint64"
        }
      ],
      "stateMutability": "view",
      "type": "function"
    },
    {
      "inputs": [],
      "name": "_poolName",
      "outputs": [
        {
          "internalType": "string",
          "name": "",
          "type": "string"
        }
      ],
      "stateMutability": "view",
      "type": "function"
    },
    {
      "inputs": [],
      "name": "_poolRegisted",
      "outputs": [
        {
          "internalType": "bool",
          "name": "",
          "type": "bool"
        }
      ],
      "stateMutability": "view",
      "type": "function"
    },
    {
      "inputs": [],
      "name": "_poolShot",
      "outputs": [
        {
          "components": [
            {
              "internalType": "uint64",
              "name": "available",
              "type": "uint64"
            },
            {
              "internalType": "uint64",
              "name": "blockNumber",
              "type": "uint64"
            },
            {
              "internalType": "uint256",
              "name": "balance",
              "type": "uint256"
            }
          ],
          "internalType": "struct PoSPoolStorage.PoolShot",
          "name": "",
          "type": "tuple"
        }
      ],
      "stateMutability": "view",
      "type": "function"
    },
    {
      "inputs": [
        {
          "internalType": "address",
          "name": "_addr",
          "type": "address"
        }
      ],
      "name": "_posAddressToIdentifier",
      "outputs": [
        {
          "internalType": "bytes32",
          "name": "",
          "type": "bytes32"
        }
      ],
      "stateMutability": "view",
      "type": "function"
    },
    {
      "inputs": [
        {
          "internalType": "uint64",
          "name": "votePower",
          "type": "uint64"
        }
      ],
      "name": "_posRegisterIncreaseStake",
      "outputs": [],
      "stateMutability": "nonpayable",
      "type": "function"
    },
    {
      "inputs": [
        {
          "internalType": "bytes32",
          "name": "indentifier",
          "type": "bytes32"
        },
        {
          "internalType": "uint64",
          "name": "votePower",
          "type": "uint64"
        },
        {
          "internalType": "bytes",
          "name": "blsPubKey",
          "type": "bytes"
        },
        {
          "internalType": "bytes",
          "name": "vrfPubKey",
          "type": "bytes"
        },
        {
          "internalType": "bytes[2]",
          "name": "blsPubKeyProof",
          "type": "bytes[2]"
        }
      ],
      "name": "_posRegisterRegister",
      "outputs": [],
      "stateMutability": "nonpayable",
      "type": "function"
    },
    {
      "inputs": [
        {
          "internalType": "uint64",
          "name": "votePower",
          "type": "uint64"
        }
      ],
      "name": "_posRegisterRetire",
      "outputs": [],
      "stateMutability": "nonpayable",
      "type": "function"
    },
    {
      "inputs": [],
      "name": "_rewardSections",
      "outputs": [
        {
          "components": [
            {
              "internalType": "uint64",
              "name": "startBlock",
              "type": "uint64"
            },
            {
              "internalType": "uint64",
              "name": "endBlock",
              "type": "uint64"
            },
            {
              "internalType": "uint64",
              "name": "available",
              "type": "uint64"
            },
            {
              "internalType": "uint256",
              "name": "reward",
              "type": "uint256"
            }
          ],
          "internalType": "struct PoSPoolStorage.RewardSection[]",
          "name": "",
          "type": "tuple[]"
        }
      ],
      "stateMutability": "view",
      "type": "function"
    },
    {
      "inputs": [
        {
          "internalType": "uint256",
          "name": "_amount",
          "type": "uint256"
        }
      ],
      "name": "_stakingDeposit",
      "outputs": [],
      "stateMutability": "nonpayable",
      "type": "function"
    },
    {
      "inputs": [
        {
          "internalType": "uint256",
          "name": "_amount",
          "type": "uint256"
        }
      ],
      "name": "_stakingWithdraw",
      "outputs": [],
      "stateMutability": "nonpayable",
      "type": "function"
    },
    {
      "inputs": [
        {
          "internalType": "address",
          "name": "_address",
          "type": "address"
        }
      ],
      "name": "_userShot",
      "outputs": [
        {
          "components": [
            {
              "internalType": "uint64",
              "name": "available",
              "type": "uint64"
            },
            {
              "internalType": "uint64",
              "name": "blockNumber",
              "type": "uint64"
            }
          ],
          "internalType": "struct PoSPoolStorage.UserShot",
          "name": "",
          "type": "tuple"
        }
      ],
      "stateMutability": "view",
      "type": "function"
    },
    {
      "inputs": [
        {
          "internalType": "address",
          "name": "_address",
          "type": "address"
        }
      ],
      "name": "_votePowerSections",
      "outputs": [
        {
          "components": [
            {
              "internalType": "uint64",
              "name": "startBlock",
              "type": "uint64"
            },
            {
              "internalType": "uint64",
              "name": "endBlock",
              "type": "uint64"
            },
            {
              "internalType": "uint64",
              "name": "available",
              "type": "uint64"
            }
          ],
          "internalType": "struct PoSPoolStorage.VotePowerSection[]",
          "name": "",
          "type": "tuple[]"
        }
      ],
      "stateMutability": "view",
      "type": "function"
    },
    {
      "inputs": [],
      "name": "claimAllInterest",
      "outputs": [],
      "stateMutability": "nonpayable",
      "type": "function"
    },
    {
      "inputs": [
        {
          "internalType": "uint256",
          "name": "amount",
          "type": "uint256"
        }
      ],
      "name": "claimInterest",
      "outputs": [],
      "stateMutability": "nonpayable",
      "type": "function"
    },
    {
      "inputs": [
        {
          "internalType": "uint64",
          "name": "limit",
          "type": "uint64"
        }
      ],
      "name": "collectUserLastVotePowerSectionPagination",
      "outputs": [],
      "stateMutability": "nonpayable",
      "type": "function"
    },
    {
      "inputs": [
        {
          "internalType": "uint64",
          "name": "limit",
          "type": "uint64"
        }
      ],
      "name": "collectUserLatestInterestPagination",
      "outputs": [],
      "stateMutability": "nonpayable",
      "type": "function"
    },
    {
      "inputs": [
        {
          "internalType": "uint256",
          "name": "sectionCount",
          "type": "uint256"
        }
      ],
      "name": "collectUserLatestSectionsInterest",
      "outputs": [],
      "stateMutability": "nonpayable",
      "type": "function"
    },
    {
      "inputs": [
        {
          "internalType": "uint64",
          "name": "votePower",
          "type": "uint64"
        }
      ],
      "name": "decreaseStake",
      "outputs": [],
      "stateMutability": "nonpayable",
      "type": "function"
    },
    {
      "inputs": [
        {
          "internalType": "uint64",
          "name": "votePower",
          "type": "uint64"
        }
      ],
      "name": "increaseStake",
      "outputs": [],
      "stateMutability": "payable",
      "type": "function"
    },
    {
      "inputs": [],
      "name": "poolAPY",
      "outputs": [
        {
          "internalType": "uint32",
          "name": "",
          "type": "uint32"
        }
      ],
      "stateMutability": "view",
      "type": "function"
    },
    {
      "inputs": [],
      "name": "poolSummary",
      "outputs": [
        {
          "internalType": "uint64",
          "name": "available",
          "type": "uint64"
        },
        {
          "internalType": "uint256",
          "name": "interest",
          "type": "uint256"
        },
        {
          "internalType": "uint256",
          "name": "totalInterest",
          "type": "uint256"
        }
      ],
      "stateMutability": "view",
      "type": "function"
    },
    {
      "inputs": [],
      "name": "poolUserShareRatio",
      "outputs": [
        {
          "internalType": "uint32",
          "name": "",
          "type": "uint32"
        }
      ],
      "stateMutability": "view",
      "type": "function"
    },
    {
      "inputs": [],
      "name": "posAddress",
      "outputs": [
        {
          "internalType": "bytes32",
          "name": "",
          "type": "bytes32"
        }
      ],
      "stateMutability": "view",
      "type": "function"
    },
    {
      "inputs": [
        {
          "internalType": "bytes32",
          "name": "indentifier",
          "type": "bytes32"
        },
        {
          "internalType": "uint64",
          "name": "votePower",
          "type": "uint64"
        },
        {
          "internalType": "bytes",
          "name": "blsPubKey",
          "type": "bytes"
        },
        {
          "internalType": "bytes",
          "name": "vrfPubKey",
          "type": "bytes"
        },
        {
          "internalType": "bytes[2]",
          "name": "blsPubKeyProof",
          "type": "bytes[2]"
        }
      ],
      "name": "register",
      "outputs": [],
      "stateMutability": "payable",
      "type": "function"
    },
    {
      "inputs": [
        {
          "internalType": "uint256",
          "name": "count",
          "type": "uint256"
        }
      ],
      "name": "setCfxCountOfOneVote",
      "outputs": [],
      "stateMutability": "nonpayable",
      "type": "function"
    },
    {
      "inputs": [
        {
          "internalType": "uint64",
          "name": "period",
          "type": "uint64"
        }
      ],
      "name": "setLockPeriod",
      "outputs": [],
      "stateMutability": "nonpayable",
      "type": "function"
    },
    {
      "inputs": [
        {
          "internalType": "string",
          "name": "name",
          "type": "string"
        }
      ],
      "name": "setPoolName",
      "outputs": [],
      "stateMutability": "nonpayable",
      "type": "function"
    },
    {
      "inputs": [
        {
          "internalType": "uint32",
          "name": "ratio",
          "type": "uint32"
        }
      ],
      "name": "setPoolUserShareRatio",
      "outputs": [],
      "stateMutability": "nonpayable",
      "type": "function"
    },
    {
      "inputs": [
        {
          "internalType": "address",
          "name": "account",
          "type": "address"
        },
        {
          "internalType": "uint64",
          "name": "offset",
          "type": "uint64"
        },
        {
          "internalType": "uint64",
          "name": "limit",
          "type": "uint64"
        }
      ],
      "name": "userInQueue",
      "outputs": [
        {
          "components": [
            {
              "internalType": "uint64",
              "name": "votePower",
              "type": "uint64"
            },
            {
              "internalType": "uint64",
              "name": "endBlock",
              "type": "uint64"
            }
          ],
          "internalType": "struct VotePowerQueue.QueueNode[]",
          "name": "",
          "type": "tuple[]"
        }
      ],
      "stateMutability": "view",
      "type": "function"
    },
    {
      "inputs": [
        {
          "internalType": "address",
          "name": "account",
          "type": "address"
        }
      ],
      "name": "userInQueue",
      "outputs": [
        {
          "components": [
            {
              "internalType": "uint64",
              "name": "votePower",
              "type": "uint64"
            },
            {
              "internalType": "uint64",
              "name": "endBlock",
              "type": "uint64"
            }
          ],
          "internalType": "struct VotePowerQueue.QueueNode[]",
          "name": "",
          "type": "tuple[]"
        }
      ],
      "stateMutability": "view",
      "type": "function"
    },
    {
      "inputs": [
        {
          "internalType": "address",
          "name": "_address",
          "type": "address"
        }
      ],
      "name": "userInterest",
      "outputs": [
        {
          "internalType": "uint256",
          "name": "",
          "type": "uint256"
        }
      ],
      "stateMutability": "view",
      "type": "function"
    },
    {
      "inputs": [
        {
          "internalType": "address",
          "name": "account",
          "type": "address"
        }
      ],
      "name": "userOutQueue",
      "outputs": [
        {
          "components": [
            {
              "internalType": "uint64",
              "name": "votePower",
              "type": "uint64"
            },
            {
              "internalType": "uint64",
              "name": "endBlock",
              "type": "uint64"
            }
          ],
          "internalType": "struct VotePowerQueue.QueueNode[]",
          "name": "",
          "type": "tuple[]"
        }
      ],
      "stateMutability": "view",
      "type": "function"
    },
    {
      "inputs": [
        {
          "internalType": "address",
          "name": "account",
          "type": "address"
        },
        {
          "internalType": "uint64",
          "name": "offset",
          "type": "uint64"
        },
        {
          "internalType": "uint64",
          "name": "limit",
          "type": "uint64"
        }
      ],
      "name": "userOutQueue",
      "outputs": [
        {
          "components": [
            {
              "internalType": "uint64",
              "name": "votePower",
              "type": "uint64"
            },
            {
              "internalType": "uint64",
              "name": "endBlock",
              "type": "uint64"
            }
          ],
          "internalType": "struct VotePowerQueue.QueueNode[]",
          "name": "",
          "type": "tuple[]"
        }
      ],
      "stateMutability": "view",
      "type": "function"
    },
    {
      "inputs": [
        {
          "internalType": "address",
          "name": "_user",
          "type": "address"
        }
      ],
      "name": "userSummary",
      "outputs": [
        {
          "components": [
            {
              "internalType": "uint64",
              "name": "votes",
              "type": "uint64"
            },
            {
              "internalType": "uint64",
              "name": "available",
              "type": "uint64"
            },
            {
              "internalType": "uint64",
              "name": "locked",
              "type": "uint64"
            },
            {
              "internalType": "uint64",
              "name": "unlocked",
              "type": "uint64"
            },
            {
              "internalType": "uint256",
              "name": "claimedInterest",
              "type": "uint256"
            },
            {
              "internalType": "uint256",
              "name": "currentInterest",
              "type": "uint256"
            }
          ],
          "internalType": "struct PoSPoolStorage.UserSummary",
          "name": "",
          "type": "tuple"
        }
      ],
      "stateMutability": "view",
      "type": "function"
    },
    {
      "inputs": [
        {
          "internalType": "uint64",
          "name": "votePower",
          "type": "uint64"
        }
      ],
      "name": "withdrawStake",
      "outputs": [],
      "stateMutability": "nonpayable",
      "type": "function"
    },
    {
      "stateMutability": "payable",
      "type": "receive"
    }
  ],
  "bytecode": "0x60806040526123286000806101000a81548163ffffffff021916908363ffffffff16021790555060076202a30062000038919062000232565b600060056101000a81548167ffffffffffffffff021916908367ffffffffffffffff160217905550683635c9adc5dea000006002556040518060600160405280600067ffffffffffffffff168152602001600081526020016000815250600460008201518160000160006101000a81548167ffffffffffffffff021916908367ffffffffffffffff16021790555060208201518160010155604082015181600201555050348015620000e957600080fd5b5060405162007c6738038062007c6783398181016040528101906200010f9190620001f1565b33600360006101000a81548173ffffffffffffffffffffffffffffffffffffffff021916908373ffffffffffffffffffffffffffffffffffffffff16021790555081601060006101000a81548173ffffffffffffffffffffffffffffffffffffffff021916908373ffffffffffffffffffffffffffffffffffffffff16021790555080601160006101000a81548173ffffffffffffffffffffffffffffffffffffffff021916908373ffffffffffffffffffffffffffffffffffffffff16021790555050506200030c565b600081519050620001eb81620002f2565b92915050565b600080604083850312156200020557600080fd5b60006200021585828601620001da565b92505060206200022885828601620001da565b9150509250929050565b60006200023f82620002af565b91506200024c83620002af565b92508167ffffffffffffffff048311821515161562000270576200026f620002c3565b5b828202905092915050565b600062000288826200028f565b9050919050565b600073ffffffffffffffffffffffffffffffffffffffff82169050919050565b600067ffffffffffffffff82169050919050565b7f4e487b7100000000000000000000000000000000000000000000000000000000600052601160045260246000fd5b620002fd816200027b565b81146200030957600080fd5b50565b61794b806200031c6000396000f3fe6080604052600436106102345760003560e01c80637ee8f4731161012e578063beb99c1e116100ab578063e2af79281161006f578063e2af79281461085d578063e335b4511461089a578063e3d5b233146108b6578063e5e20ccf146108f3578063fdb259c01461091c5761023b565b8063beb99c1e14610766578063c9107d441461078f578063d68076c3146107ba578063dced4de4146107f7578063de49db63146108345761023b565b8063961545da116100f2578063961545da1461066f57806396b6b59d146106ac5780639d563357146106d5578063a6698002146106fe578063b4064a251461073b5761023b565b80637ee8f473146105b057806380f818f9146105d95780638270512f1461060257806382df7a3b1461061957806391d34133146106445761023b565b8063336f8e0e116101bc5780635c0eeedb116101805780635c0eeedb146104b557806367a1aa4f146104f257806372b654241461051d5780637571fcf61461054657806377f6baed146105735761023b565b8063336f8e0e146103bc578063457fc4e2146103f95780634b1b45e6146104245780635101deb01461044f5780635825761a1461048c5761023b565b806324a3bbe21161020357806324a3bbe2146102d957806327d8ed3f146103165780632c779df21461033f5780632ce7777f1461036a5780632eb375ea146103935761023b565b806309fecf7f1461024057806310ae08861461025c5780631764618c146102855780632485ce9f146102b05761023b565b3661023b57005b600080fd5b61025a6004803603810190610255919061636e565b610945565b005b34801561026857600080fd5b50610283600480360381019061027e919061636e565b610cb2565b005b34801561029157600080fd5b5061029a61114c565b6040516102a79190616bae565b60405180910390f35b3480156102bc57600080fd5b506102d760048036038101906102d2919061636e565b6111aa565b005b3480156102e557600080fd5b5061030060048036038101906102fb9190616172565b6117b4565b60405161030d9190616b2d565b60405180910390f35b34801561032257600080fd5b5061033d6004803603810190610338919061636e565b611804565b005b34801561034b57600080fd5b50610354611894565b6040516103619190616c35565b60405180910390f35b34801561037657600080fd5b50610391600480360381019061038c919061636e565b611922565b005b34801561039f57600080fd5b506103ba60048036038101906103b5919061631c565b611cda565b005b3480156103c857600080fd5b506103e360048036038101906103de919061619b565b611f6e565b6040516103f09190616b2d565b60405180910390f35b34801561040557600080fd5b5061040e611fcc565b60405161041b9190616e72565b60405180910390f35b34801561043057600080fd5b506104396120dd565b6040516104469190616b93565b60405180910390f35b34801561045b57600080fd5b5061047660048036038101906104719190616172565b6120f0565b6040516104839190616b71565b60405180910390f35b34801561049857600080fd5b506104b360048036038101906104ae919061636e565b612220565b005b3480156104c157600080fd5b506104dc60048036038101906104d79190616172565b6122b0565b6040516104e99190616e8d565b60405180910390f35b3480156104fe57600080fd5b5061050761236d565b6040516105149190616f30565b60405180910390f35b34801561052957600080fd5b50610544600480360381019061053f91906162db565b612381565b005b34801561055257600080fd5b5061055b61242b565b60405161056a93929190616f66565b60405180910390f35b34801561057f57600080fd5b5061059a60048036038101906105959190616172565b612457565b6040516105a79190616ec3565b60405180910390f35b3480156105bc57600080fd5b506105d760048036038101906105d2919061631c565b6125d6565b005b3480156105e557600080fd5b5061060060048036038101906105fb9190616213565b612666565b005b34801561060e57600080fd5b50610617612708565b005b34801561062557600080fd5b5061062e6127b3565b60405161063b9190616f30565b60405180910390f35b34801561065057600080fd5b5061065961281c565b6040516106669190616e57565b60405180910390f35b34801561067b57600080fd5b506106966004803603810190610691919061631c565b6128a4565b6040516106a39190616f30565b60405180910390f35b3480156106b857600080fd5b506106d360048036038101906106ce919061631c565b612b26565b005b3480156106e157600080fd5b506106fc60048036038101906106f79190616345565b612bd3565b005b34801561070a57600080fd5b506107256004803603810190610720919061619b565b612d20565b6040516107329190616b2d565b60405180910390f35b34801561074757600080fd5b50610750612d7e565b60405161075d9190616f4b565b60405180910390f35b34801561077257600080fd5b5061078d6004803603810190610788919061636e565b612d98565b005b34801561079b57600080fd5b506107a46131d4565b6040516107b19190616b4f565b60405180910390f35b3480156107c657600080fd5b506107e160048036038101906107dc9190616172565b6132d3565b6040516107ee9190616ede565b60405180910390f35b34801561080357600080fd5b5061081e60048036038101906108199190616172565b613371565b60405161082b9190616bae565b60405180910390f35b34801561084057600080fd5b5061085b6004803603810190610856919061631c565b613417565b005b34801561086957600080fd5b50610884600480360381019061087f9190616172565b6139ce565b6040516108919190616b2d565b60405180910390f35b6108b460048036038101906108af9190616213565b613a1e565b005b3480156108c257600080fd5b506108dd60048036038101906108d89190616172565b613ddf565b6040516108ea9190616ea8565b60405180910390f35b3480156108ff57600080fd5b5061091a6004803603810190610915919061636e565b614004565b005b34801561092857600080fd5b50610943600480360381019061093e919061631c565b6140c0565b005b600060049054906101000a900460ff16610994576040517f08c379a000000000000000000000000000000000000000000000000000000000815260040161098b90616cf7565b60405180910390fd5b60008167ffffffffffffffff16116109e1576040517f08c379a00000000000000000000000000000000000000000000000000000000081526004016109d890616d57565b60405180910390fd5b6002548167ffffffffffffffff166109f99190617225565b3414610a3a576040517f08c379a0000000000000000000000000000000000000000000000000000000008152600401610a3190616c57565b60405180910390fd5b610a43346140c0565b610a4c81611804565b3373ffffffffffffffffffffffffffffffffffffffff167fbb9676f2e80ec8fca106973b6eefdfc5fdccc797801bedfc041ad03b89d3748e82604051610a929190616f4b565b60405180910390a280600460000160008282829054906101000a900467ffffffffffffffff16610ac291906171b6565b92506101000a81548167ffffffffffffffff021916908367ffffffffffffffff16021790555080600d60003373ffffffffffffffffffffffffffffffffffffffff1673ffffffffffffffffffffffffffffffffffffffff16815260200190815260200160002060000160008282829054906101000a900467ffffffffffffffff16610b4d91906171b6565b92506101000a81548167ffffffffffffffff021916908367ffffffffffffffff16021790555080600d60003373ffffffffffffffffffffffffffffffffffffffff1673ffffffffffffffffffffffffffffffffffffffff16815260200190815260200160002060000160088282829054906101000a900467ffffffffffffffff16610bd891906171b6565b92506101000a81548167ffffffffffffffff021916908367ffffffffffffffff160217905550610c9f60405180604001604052808367ffffffffffffffff168152602001600060059054906101000a900467ffffffffffffffff16610c3b614151565b610c4591906171b6565b67ffffffffffffffff16815250600e60003373ffffffffffffffffffffffffffffffffffffffff1673ffffffffffffffffffffffffffffffffffffffff16815260200190815260200160002061415990919063ffffffff16565b610ca7614235565b610caf614247565b50565b600060049054906101000a900460ff16610d01576040517f08c379a0000000000000000000000000000000000000000000000000000000008152600401610cf890616cf7565b60405180910390fd5b60648167ffffffffffffffff161115610d4f576040517f08c379a0000000000000000000000000000000000000000000000000000000008152600401610d4690616cb7565b60405180910390fd5b6000600c60003373ffffffffffffffffffffffffffffffffffffffff1673ffffffffffffffffffffffffffffffffffffffff1681526020019081526020016000209050600a60000160089054906101000a900467ffffffffffffffff1667ffffffffffffffff168160000160089054906101000a900467ffffffffffffffff1667ffffffffffffffff1610610e19576040517f08c379a0000000000000000000000000000000000000000000000000000000008152600401610e1090616cd7565b60405180910390fd5b6000610e468260000160089054906101000a900467ffffffffffffffff1667ffffffffffffffff16614259565b905060008382610e5691906171b6565b90506007805490508167ffffffffffffffff161115610e785760078054905090505b6000808390505b8267ffffffffffffffff168167ffffffffffffffff16101561100957600060078267ffffffffffffffff1681548110610ee1577f4e487b7100000000000000000000000000000000000000000000000000000000600052603260045260246000fd5b90600052602060002090600202016040518060800160405290816000820160009054906101000a900467ffffffffffffffff1667ffffffffffffffff1667ffffffffffffffff1681526020016000820160089054906101000a900467ffffffffffffffff1667ffffffffffffffff1667ffffffffffffffff1681526020016000820160109054906101000a900467ffffffffffffffff1667ffffffffffffffff1667ffffffffffffffff1681526020016001820154815250509050600081606001511415610faf5750610ff6565b6000610fdc82606001518860000160009054906101000a900467ffffffffffffffff168460400151614276565b9050610ff181856142f590919063ffffffff16565b935050505b8080611001906174ee565b915050610e7f565b5061105f81600d60003373ffffffffffffffffffffffffffffffffffffffff1673ffffffffffffffffffffffffffffffffffffffff168152602001908152602001600020600201546142f590919063ffffffff16565b600d60003373ffffffffffffffffffffffffffffffffffffffff1673ffffffffffffffffffffffffffffffffffffffff1681526020019081526020016000206002018190555060076001836110b49190617329565b67ffffffffffffffff16815481106110f5577f4e487b7100000000000000000000000000000000000000000000000000000000600052603260045260246000fd5b906000526020600020906002020160000160089054906101000a900467ffffffffffffffff168460000160086101000a81548167ffffffffffffffff021916908367ffffffffffffffff1602179055505050505050565b60008060049054906101000a900460ff1661119c576040517f08c379a000000000000000000000000000000000000000000000000000000000815260040161119390616cf7565b60405180910390fd5b6111a530613371565b905090565b600060049054906101000a900460ff166111f9576040517f08c379a00000000000000000000000000000000000000000000000000000000081526004016111f090616cf7565b60405180910390fd5b60648167ffffffffffffffff161115611247576040517f08c379a000000000000000000000000000000000000000000000000000000000815260040161123e90616cb7565b60405180910390fd5b6000600860003373ffffffffffffffffffffffffffffffffffffffff1673ffffffffffffffffffffffffffffffffffffffff168152602001908152602001600020905060008180549050116112d1576040517f08c379a00000000000000000000000000000000000000000000000000000000081526004016112c890616dd7565b60405180910390fd5b600061135082600184805490506112e891906172c1565b8154811061131f577f4e487b7100000000000000000000000000000000000000000000000000000000600052603260045260246000fd5b9060005260206000200160000160009054906101000a900467ffffffffffffffff1667ffffffffffffffff16614259565b90506000838261136091906171b6565b90506007805490508167ffffffffffffffff1611156113825760078054905090505b6000808390505b8267ffffffffffffffff168167ffffffffffffffff16101561156557600060078267ffffffffffffffff16815481106113eb577f4e487b7100000000000000000000000000000000000000000000000000000000600052603260045260246000fd5b90600052602060002090600202016040518060800160405290816000820160009054906101000a900467ffffffffffffffff1667ffffffffffffffff1667ffffffffffffffff1681526020016000820160089054906101000a900467ffffffffffffffff1667ffffffffffffffff1667ffffffffffffffff1681526020016000820160109054906101000a900467ffffffffffffffff1667ffffffffffffffff1667ffffffffffffffff16815260200160018201548152505090506000816060015114156114b95750611552565b600061153882606001518860018a805490506114d591906172c1565b8154811061150c577f4e487b7100000000000000000000000000000000000000000000000000000000600052603260045260246000fd5b9060005260206000200160000160109054906101000a900467ffffffffffffffff168460400151614276565b905061154d81856142f590919063ffffffff16565b935050505b808061155d906174ee565b915050611389565b506115bb81600d60003373ffffffffffffffffffffffffffffffffffffffff1673ffffffffffffffffffffffffffffffffffffffff168152602001908152602001600020600201546142f590919063ffffffff16565b600d60003373ffffffffffffffffffffffffffffffffffffffff1673ffffffffffffffffffffffffffffffffffffffff168152602001908152602001600020600201819055506007805490508267ffffffffffffffff1614156116ba578380548061164f577f4e487b7100000000000000000000000000000000000000000000000000000000600052603160045260246000fd5b60019003818190600052602060002001600080820160006101000a81549067ffffffffffffffff02191690556000820160086101000a81549067ffffffffffffffff02191690556000820160106101000a81549067ffffffffffffffff0219169055505090556117ad565b60076001836116c99190617329565b67ffffffffffffffff168154811061170a577f4e487b7100000000000000000000000000000000000000000000000000000000600052603260045260246000fd5b906000526020600020906002020160000160089054906101000a900467ffffffffffffffff16846001868054905061174291906172c1565b81548110611779577f4e487b7100000000000000000000000000000000000000000000000000000000600052603260045260246000fd5b9060005260206000200160000160006101000a81548167ffffffffffffffff021916908367ffffffffffffffff1602179055505b5050505050565b60606117fd600f60008473ffffffffffffffffffffffffffffffffffffffff1673ffffffffffffffffffffffffffffffffffffffff16815260200190815260200160002061430b565b9050919050565b601160009054906101000a900473ffffffffffffffffffffffffffffffffffffffff1673ffffffffffffffffffffffffffffffffffffffff166309fecf7f826040518263ffffffff1660e01b815260040161185f9190616f4b565b600060405180830381600087803b15801561187957600080fd5b505af115801561188d573d6000803e3d6000fd5b5050505050565b600180546118a190617415565b80601f01602080910402602001604051908101604052809291908181526020018280546118cd90617415565b801561191a5780601f106118ef5761010080835404028352916020019161191a565b820191906000526020600020905b8154815290600101906020018083116118fd57829003601f168201915b505050505081565b600060049054906101000a900460ff16611971576040517f08c379a000000000000000000000000000000000000000000000000000000000815260040161196890616cf7565b60405180910390fd5b6119b8600f60003373ffffffffffffffffffffffffffffffffffffffff1673ffffffffffffffffffffffffffffffffffffffff168152602001908152602001600020614548565b600d60003373ffffffffffffffffffffffffffffffffffffffff1673ffffffffffffffffffffffffffffffffffffffff16815260200190815260200160002060000160188282829054906101000a900467ffffffffffffffff16611a1c91906171b6565b92506101000a81548167ffffffffffffffff021916908367ffffffffffffffff1602179055508067ffffffffffffffff16600d60003373ffffffffffffffffffffffffffffffffffffffff1673ffffffffffffffffffffffffffffffffffffffff16815260200190815260200160002060000160189054906101000a900467ffffffffffffffff1667ffffffffffffffff161015611aef576040517f08c379a0000000000000000000000000000000000000000000000000000000008152600401611ae690616e37565b60405180910390fd5b611b0f6002548267ffffffffffffffff16611b0a9190617225565b6125d6565b80600d60003373ffffffffffffffffffffffffffffffffffffffff1673ffffffffffffffffffffffffffffffffffffffff16815260200190815260200160002060000160188282829054906101000a900467ffffffffffffffff16611b749190617329565b92506101000a81548167ffffffffffffffff021916908367ffffffffffffffff16021790555080600d60003373ffffffffffffffffffffffffffffffffffffffff1673ffffffffffffffffffffffffffffffffffffffff16815260200190815260200160002060000160008282829054906101000a900467ffffffffffffffff16611bff9190617329565b92506101000a81548167ffffffffffffffff021916908367ffffffffffffffff16021790555060003390508073ffffffffffffffffffffffffffffffffffffffff166108fc6002548467ffffffffffffffff16611c5c9190617225565b9081150290604051600060405180830381858888f19350505050158015611c87573d6000803e3d6000fd5b503373ffffffffffffffffffffffffffffffffffffffff167ffbd5b0f12a6385c116526ca96180111a6575ccef6751a640d36d6d80793eced283604051611cce9190616f4b565b60405180910390a25050565b600060049054906101000a900460ff16611d29576040517f08c379a0000000000000000000000000000000000000000000000000000000008152600401611d2090616cf7565b60405180910390fd5b6000611d34336132d3565b905081811015611d79576040517f08c379a0000000000000000000000000000000000000000000000000000000008152600401611d7090616e17565b60405180910390fd5b611d81614235565b611d8961466d565b611d91614907565b611de682600d60003373ffffffffffffffffffffffffffffffffffffffff1673ffffffffffffffffffffffffffffffffffffffff168152602001908152602001600020600101546142f590919063ffffffff16565b600d60003373ffffffffffffffffffffffffffffffffffffffff1673ffffffffffffffffffffffffffffffffffffffff16815260200190815260200160002060010181905550611e8182600d60003373ffffffffffffffffffffffffffffffffffffffff1673ffffffffffffffffffffffffffffffffffffffff16815260200190815260200160002060020154614a4c90919063ffffffff16565b600d60003373ffffffffffffffffffffffffffffffffffffffff1673ffffffffffffffffffffffffffffffffffffffff1681526020019081526020016000206002018190555060003390508073ffffffffffffffffffffffffffffffffffffffff166108fc849081150290604051600060405180830381858888f19350505050158015611f12573d6000803e3d6000fd5b503373ffffffffffffffffffffffffffffffffffffffff167fbbf701f67a7d285bbd2b9b2dc7a5fee474e6dc3c059183385da6cc9de2be34a984604051611f599190616ede565b60405180910390a2611f69614a62565b505050565b6060611fc38383600f60008873ffffffffffffffffffffffffffffffffffffffff1673ffffffffffffffffffffffffffffffffffffffff168152602001908152602001600020614aed9092919063ffffffff16565b90509392505050565b611fd4615d84565b60076001600780549050611fe891906172c1565b8154811061201f577f4e487b7100000000000000000000000000000000000000000000000000000000600052603260045260246000fd5b90600052602060002090600202016040518060800160405290816000820160009054906101000a900467ffffffffffffffff1667ffffffffffffffff1667ffffffffffffffff1681526020016000820160089054906101000a900467ffffffffffffffff1667ffffffffffffffff1667ffffffffffffffff1681526020016000820160109054906101000a900467ffffffffffffffff1667ffffffffffffffff1667ffffffffffffffff168152602001600182015481525050905090565b600060049054906101000a900460ff1681565b6060600860008373ffffffffffffffffffffffffffffffffffffffff1673ffffffffffffffffffffffffffffffffffffffff168152602001908152602001600020805480602002602001604051908101604052809291908181526020016000905b82821015612215578382906000526020600020016040518060600160405290816000820160009054906101000a900467ffffffffffffffff1667ffffffffffffffff1667ffffffffffffffff1681526020016000820160089054906101000a900467ffffffffffffffff1667ffffffffffffffff1667ffffffffffffffff1681526020016000820160109054906101000a900467ffffffffffffffff1667ffffffffffffffff1667ffffffffffffffff168152505081526020019060010190612151565b505050509050919050565b601160009054906101000a900473ffffffffffffffffffffffffffffffffffffffff1673ffffffffffffffffffffffffffffffffffffffff1663f49d0638826040518263ffffffff1660e01b815260040161227b9190616f4b565b600060405180830381600087803b15801561229557600080fd5b505af11580156122a9573d6000803e3d6000fd5b5050505050565b6122b8615dca565b600c60008373ffffffffffffffffffffffffffffffffffffffff1673ffffffffffffffffffffffffffffffffffffffff1681526020019081526020016000206040518060400160405290816000820160009054906101000a900467ffffffffffffffff1667ffffffffffffffff1667ffffffffffffffff1681526020016000820160089054906101000a900467ffffffffffffffff1667ffffffffffffffff1667ffffffffffffffff16815250509050919050565b60008054906101000a900463ffffffff1681565b600360009054906101000a900473ffffffffffffffffffffffffffffffffffffffff1673ffffffffffffffffffffffffffffffffffffffff163373ffffffffffffffffffffffffffffffffffffffff1614612411576040517f08c379a000000000000000000000000000000000000000000000000000000000815260040161240890616c97565b60405180910390fd5b8060019080519060200190612427929190615df8565b5050565b60048060000160009054906101000a900467ffffffffffffffff16908060010154908060020154905083565b61245f615e7e565b600860008373ffffffffffffffffffffffffffffffffffffffff1673ffffffffffffffffffffffffffffffffffffffff1681526020019081526020016000206001600860008573ffffffffffffffffffffffffffffffffffffffff1673ffffffffffffffffffffffffffffffffffffffff168152602001908152602001600020805490506124ed91906172c1565b81548110612524577f4e487b7100000000000000000000000000000000000000000000000000000000600052603260045260246000fd5b906000526020600020016040518060600160405290816000820160009054906101000a900467ffffffffffffffff1667ffffffffffffffff1667ffffffffffffffff1681526020016000820160089054906101000a900467ffffffffffffffff1667ffffffffffffffff1667ffffffffffffffff1681526020016000820160109054906101000a900467ffffffffffffffff1667ffffffffffffffff1667ffffffffffffffff16815250509050919050565b601060009054906101000a900473ffffffffffffffffffffffffffffffffffffffff1673ffffffffffffffffffffffffffffffffffffffff16632e1a7d4d826040518263ffffffff1660e01b81526004016126319190616ede565b600060405180830381600087803b15801561264b57600080fd5b505af115801561265f573d6000803e3d6000fd5b5050505050565b601160009054906101000a900473ffffffffffffffffffffffffffffffffffffffff1673ffffffffffffffffffffffffffffffffffffffff1663e335b451888888888888886040518863ffffffff1660e01b81526004016126cd9796959493929190616bc9565b600060405180830381600087803b1580156126e757600080fd5b505af11580156126fb573d6000803e3d6000fd5b5050505050505050505050565b600060049054906101000a900460ff16612757576040517f08c379a000000000000000000000000000000000000000000000000000000000815260040161274e90616cf7565b60405180910390fd5b6000612762336132d3565b9050600081116127a7576040517f08c379a000000000000000000000000000000000000000000000000000000000815260040161279e90616d77565b60405180910390fd5b6127b081611cda565b50565b600061016d6202a3006127c6919061727f565b67ffffffffffffffff1643111561280c5761280561016d6202a3006127eb919061727f565b67ffffffffffffffff164361280091906172c1565b6128a4565b9050612819565b61281660006128a4565b90505b90565b612824615ebd565b600a6040518060600160405290816000820160009054906101000a900467ffffffffffffffff1667ffffffffffffffff1667ffffffffffffffff1681526020016000820160089054906101000a900467ffffffffffffffff1667ffffffffffffffff1667ffffffffffffffff168152602001600182015481525050905090565b600080600090506000806040518060800160405280600a60000160089054906101000a900467ffffffffffffffff1667ffffffffffffffff1681526020016128ea614151565b67ffffffffffffffff168152602001600a60000160009054906101000a900467ffffffffffffffff1667ffffffffffffffff168152602001612941600a60010154612933614df5565b614a4c90919063ffffffff16565b815250905061296161295282614e19565b846142f590919063ffffffff16565b92506001826129709190617160565b91506000600780549050905060008114156129915783945050505050612b21565b60005b81811015612b065760006007600183856129ae91906172c1565b6129b891906172c1565b815481106129ef577f4e487b7100000000000000000000000000000000000000000000000000000000600052603260045260246000fd5b90600052602060002090600202016040518060800160405290816000820160009054906101000a900467ffffffffffffffff1667ffffffffffffffff1667ffffffffffffffff1681526020016000820160089054906101000a900467ffffffffffffffff1667ffffffffffffffff1667ffffffffffffffff1681526020016000820160109054906101000a900467ffffffffffffffff1667ffffffffffffffff1667ffffffffffffffff168152602001600182015481525050905087816020015167ffffffffffffffff161015612ac65750612b06565b612ae1612ad282614e19565b876142f590919063ffffffff16565b9550600185612af09190617160565b9450508080612afe90617478565b915050612994565b50612b1a8385614f1d90919063ffffffff16565b9450505050505b919050565b600360009054906101000a900473ffffffffffffffffffffffffffffffffffffffff1673ffffffffffffffffffffffffffffffffffffffff163373ffffffffffffffffffffffffffffffffffffffff1614612bb6576040517f08c379a0000000000000000000000000000000000000000000000000000000008152600401612bad90616c97565b60405180910390fd5b670de0b6b3a764000081612bca9190617225565b60028190555050565b600360009054906101000a900473ffffffffffffffffffffffffffffffffffffffff1673ffffffffffffffffffffffffffffffffffffffff163373ffffffffffffffffffffffffffffffffffffffff1614612c63576040517f08c379a0000000000000000000000000000000000000000000000000000000008152600401612c5a90616c97565b60405180910390fd5b60008163ffffffff16118015612c87575061271063ffffffff168163ffffffff1611155b612cc6576040517f08c379a0000000000000000000000000000000000000000000000000000000008152600401612cbd90616d37565b60405180910390fd5b806000806101000a81548163ffffffff021916908363ffffffff1602179055507fe58e62b1b669eb56125ef85ed8b558f033d9cc249825f9fb35742df12acd3e7c81604051612d159190616f30565b60405180910390a150565b6060612d758383600e60008873ffffffffffffffffffffffffffffffffffffffff1673ffffffffffffffffffffffffffffffffffffffff168152602001908152602001600020614aed9092919063ffffffff16565b90509392505050565b600060059054906101000a900467ffffffffffffffff1681565b600060049054906101000a900460ff16612de7576040517f08c379a0000000000000000000000000000000000000000000000000000000008152600401612dde90616cf7565b60405180910390fd5b612e2e600e60003373ffffffffffffffffffffffffffffffffffffffff1673ffffffffffffffffffffffffffffffffffffffff168152602001908152602001600020614548565b600d60003373ffffffffffffffffffffffffffffffffffffffff1673ffffffffffffffffffffffffffffffffffffffff16815260200190815260200160002060000160108282829054906101000a900467ffffffffffffffff16612e9291906171b6565b92506101000a81548167ffffffffffffffff021916908367ffffffffffffffff1602179055508067ffffffffffffffff16600d60003373ffffffffffffffffffffffffffffffffffffffff1673ffffffffffffffffffffffffffffffffffffffff16815260200190815260200160002060000160109054906101000a900467ffffffffffffffff1667ffffffffffffffff161015612f65576040517f08c379a0000000000000000000000000000000000000000000000000000000008152600401612f5c90616d17565b60405180910390fd5b612f6e81612220565b3373ffffffffffffffffffffffffffffffffffffffff167f73395a3e5d14942cd04b55cee3e03536007f34202bbdfb9c3221e88a90b93ede82604051612fb49190616f4b565b60405180910390a280600460000160008282829054906101000a900467ffffffffffffffff16612fe49190617329565b92506101000a81548167ffffffffffffffff021916908367ffffffffffffffff16021790555080600d60003373ffffffffffffffffffffffffffffffffffffffff1673ffffffffffffffffffffffffffffffffffffffff16815260200190815260200160002060000160088282829054906101000a900467ffffffffffffffff1661306f9190617329565b92506101000a81548167ffffffffffffffff021916908367ffffffffffffffff16021790555080600d60003373ffffffffffffffffffffffffffffffffffffffff1673ffffffffffffffffffffffffffffffffffffffff16815260200190815260200160002060000160108282829054906101000a900467ffffffffffffffff166130fa9190617329565b92506101000a81548167ffffffffffffffff021916908367ffffffffffffffff1602179055506131c160405180604001604052808367ffffffffffffffff168152602001600060059054906101000a900467ffffffffffffffff1661315d614151565b61316791906171b6565b67ffffffffffffffff16815250600f60003373ffffffffffffffffffffffffffffffffffffffff1673ffffffffffffffffffffffffffffffffffffffff16815260200190815260200160002061415990919063ffffffff16565b6131c9614235565b6131d1614247565b50565b60606007805480602002602001604051908101604052809291908181526020016000905b828210156132ca57838290600052602060002090600202016040518060800160405290816000820160009054906101000a900467ffffffffffffffff1667ffffffffffffffff1667ffffffffffffffff1681526020016000820160089054906101000a900467ffffffffffffffff1667ffffffffffffffff1667ffffffffffffffff1681526020016000820160109054906101000a900467ffffffffffffffff1667ffffffffffffffff1667ffffffffffffffff168152602001600182015481525050815260200190600101906131f8565b50505050905090565b600080600090506132f56132e684614f33565b826142f590919063ffffffff16565b905061331261330384615486565b826142f590919063ffffffff16565b9050613369600d60008573ffffffffffffffffffffffffffffffffffffffff1673ffffffffffffffffffffffffffffffffffffffff16815260200190815260200160002060020154826142f590919063ffffffff16565b915050919050565b600073088800000000000000000000000000000000000573ffffffffffffffffffffffffffffffffffffffff16636a06ea96836040518263ffffffff1660e01b81526004016133c09190616b12565b60206040518083038186803b1580156133d857600080fd5b505afa1580156133ec573d6000803e3d6000fd5b505050506040513d601f19601f8201168201806040525081019061341091906161ea565b9050919050565b600060049054906101000a900460ff16613466576040517f08c379a000000000000000000000000000000000000000000000000000000000815260040161345d90616cf7565b60405180910390fd5b60648111156134aa576040517f08c379a00000000000000000000000000000000000000000000000000000000081526004016134a190616cb7565b60405180910390fd5b6000600860003373ffffffffffffffffffffffffffffffffffffffff1673ffffffffffffffffffffffffffffffffffffffff16815260200190815260200160002090506000818054905011613534576040517f08c379a000000000000000000000000000000000000000000000000000000000815260040161352b90616d97565b60405180910390fd5b818180549050101561354857808054905091505b6000805b8381101561392d57600083600183868054905061356991906172c1565b61357391906172c1565b815481106135aa577f4e487b7100000000000000000000000000000000000000000000000000000000600052603260045260246000fd5b906000526020600020016040518060600160405290816000820160009054906101000a900467ffffffffffffffff1667ffffffffffffffff1667ffffffffffffffff1681526020016000820160089054906101000a900467ffffffffffffffff1667ffffffffffffffff1667ffffffffffffffff1681526020016000820160109054906101000a900467ffffffffffffffff1667ffffffffffffffff1667ffffffffffffffff168152505090506000613670826000015167ffffffffffffffff16614259565b905060008190505b6007805490508167ffffffffffffffff16101561387a57826020015167ffffffffffffffff1660078267ffffffffffffffff16815481106136e2577f4e487b7100000000000000000000000000000000000000000000000000000000600052603260045260246000fd5b906000526020600020906002020160000160009054906101000a900467ffffffffffffffff1667ffffffffffffffff161061371c5761387a565b600060078267ffffffffffffffff1681548110613762577f4e487b7100000000000000000000000000000000000000000000000000000000600052603260045260246000fd5b906000526020600020906002020160010154141561377f57613867565b600061384e60078367ffffffffffffffff16815481106137c8577f4e487b7100000000000000000000000000000000000000000000000000000000600052603260045260246000fd5b906000526020600020906002020160010154856040015160078567ffffffffffffffff1681548110613823577f4e487b7100000000000000000000000000000000000000000000000000000000600052603260045260246000fd5b906000526020600020906002020160000160109054906101000a900467ffffffffffffffff16614276565b905061386381876142f590919063ffffffff16565b9550505b8080613872906174ee565b915050613678565b50848054806138b2577f4e487b7100000000000000000000000000000000000000000000000000000000600052603160045260246000fd5b60019003818190600052602060002001600080820160006101000a81549067ffffffffffffffff02191690556000820160086101000a81549067ffffffffffffffff02191690556000820160106101000a81549067ffffffffffffffff0219169055505090555050808061392590617478565b91505061354c565b5061398381600d60003373ffffffffffffffffffffffffffffffffffffffff1673ffffffffffffffffffffffffffffffffffffffff168152602001908152602001600020600201546142f590919063ffffffff16565b600d60003373ffffffffffffffffffffffffffffffffffffffff1673ffffffffffffffffffffffffffffffffffffffff16815260200190815260200160002060020181905550505050565b6060613a17600e60008473ffffffffffffffffffffffffffffffffffffffff1673ffffffffffffffffffffffffffffffffffffffff16815260200190815260200160002061430b565b9050919050565b600360009054906101000a900473ffffffffffffffffffffffffffffffffffffffff1673ffffffffffffffffffffffffffffffffffffffff163373ffffffffffffffffffffffffffffffffffffffff1614613aae576040517f08c379a0000000000000000000000000000000000000000000000000000000008152600401613aa590616c97565b60405180910390fd5b600060049054906101000a900460ff1615613afe576040517f08c379a0000000000000000000000000000000000000000000000000000000008152600401613af590616db7565b60405180910390fd5b60018667ffffffffffffffff1614613b4b576040517f08c379a0000000000000000000000000000000000000000000000000000000008152600401613b4290616df7565b60405180910390fd5b6002548667ffffffffffffffff16613b639190617225565b3414613ba4576040517f08c379a0000000000000000000000000000000000000000000000000000000008152600401613b9b90616c77565b60405180910390fd5b613bad346140c0565b613bbc87878787878787612666565b6001600060046101000a81548160ff02191690831515021790555085600460000160008282829054906101000a900467ffffffffffffffff16613bff91906171b6565b92506101000a81548167ffffffffffffffff021916908367ffffffffffffffff16021790555085600d60003373ffffffffffffffffffffffffffffffffffffffff1673ffffffffffffffffffffffffffffffffffffffff16815260200190815260200160002060000160008282829054906101000a900467ffffffffffffffff16613c8a91906171b6565b92506101000a81548167ffffffffffffffff021916908367ffffffffffffffff16021790555085600d60003373ffffffffffffffffffffffffffffffffffffffff1673ffffffffffffffffffffffffffffffffffffffff16815260200190815260200160002060000160088282829054906101000a900467ffffffffffffffff16613d1591906171b6565b92506101000a81548167ffffffffffffffff021916908367ffffffffffffffff16021790555085600d60003373ffffffffffffffffffffffffffffffffffffffff1673ffffffffffffffffffffffffffffffffffffffff16815260200190815260200160002060000160108282829054906101000a900467ffffffffffffffff16613da091906171b6565b92506101000a81548167ffffffffffffffff021916908367ffffffffffffffff160217905550613dce6157a0565b613dd6614a62565b50505050505050565b613de7615ef2565b6000600d60008473ffffffffffffffffffffffffffffffffffffffff1673ffffffffffffffffffffffffffffffffffffffff1681526020019081526020016000206040518060c00160405290816000820160009054906101000a900467ffffffffffffffff1667ffffffffffffffff1667ffffffffffffffff1681526020016000820160089054906101000a900467ffffffffffffffff1667ffffffffffffffff1667ffffffffffffffff1681526020016000820160109054906101000a900467ffffffffffffffff1667ffffffffffffffff1667ffffffffffffffff1681526020016000820160189054906101000a900467ffffffffffffffff1667ffffffffffffffff1667ffffffffffffffff168152602001600182015481526020016002820154815250509050613f58600e60008573ffffffffffffffffffffffffffffffffffffffff1673ffffffffffffffffffffffffffffffffffffffff1681526020019081526020016000206158d1565b81604001818151613f6991906171b6565b91509067ffffffffffffffff16908167ffffffffffffffff1681525050613fcd600f60008573ffffffffffffffffffffffffffffffffffffffff1673ffffffffffffffffffffffffffffffffffffffff1681526020019081526020016000206158d1565b81606001818151613fde91906171b6565b91509067ffffffffffffffff16908167ffffffffffffffff168152505080915050919050565b600360009054906101000a900473ffffffffffffffffffffffffffffffffffffffff1673ffffffffffffffffffffffffffffffffffffffff163373ffffffffffffffffffffffffffffffffffffffff1614614094576040517f08c379a000000000000000000000000000000000000000000000000000000000815260040161408b90616c97565b60405180910390fd5b80600060056101000a81548167ffffffffffffffff021916908367ffffffffffffffff16021790555050565b601060009054906101000a900473ffffffffffffffffffffffffffffffffffffffff1673ffffffffffffffffffffffffffffffffffffffff1663b6b55f2582836040518363ffffffff1660e01b815260040161411c9190616ede565b6000604051808303818588803b15801561413557600080fd5b505af1158015614149573d6000803e3d6000fd5b505050505050565b600043905090565b8082600101600084600001600881819054906101000a900467ffffffffffffffff1680929190614188906174ee565b91906101000a81548167ffffffffffffffff021916908367ffffffffffffffff16021790555067ffffffffffffffff1667ffffffffffffffff16815260200190815260200160002060008201518160000160006101000a81548167ffffffffffffffff021916908367ffffffffffffffff16021790555060208201518160000160086101000a81548167ffffffffffffffff021916908367ffffffffffffffff1602179055509050505050565b61423d6159ec565b6142456157a0565b565b61424f61466d565b614257614a62565b565b600060096000838152602001908152602001600020549050919050565b60006142ec61271063ffffffff168361428f919061727f565b67ffffffffffffffff166142de60008054906101000a900463ffffffff1663ffffffff166142d08767ffffffffffffffff1689615bfa90919063ffffffff16565b615bfa90919063ffffffff16565b614f1d90919063ffffffff16565b90509392505050565b600081836143039190617160565b905092915050565b606060008260000160009054906101000a900467ffffffffffffffff168360000160089054906101000a900467ffffffffffffffff1661434b9190617329565b67ffffffffffffffff1667ffffffffffffffff811115614394577f4e487b7100000000000000000000000000000000000000000000000000000000600052604160045260246000fd5b6040519080825280602002602001820160405280156143cd57816020015b6143ba615f50565b8152602001906001900390816143b25790505b50905060008360000160009054906101000a900467ffffffffffffffff1690505b8360000160089054906101000a900467ffffffffffffffff1667ffffffffffffffff168167ffffffffffffffff16101561453e578360010160008267ffffffffffffffff1667ffffffffffffffff1681526020019081526020016000206040518060400160405290816000820160009054906101000a900467ffffffffffffffff1667ffffffffffffffff1667ffffffffffffffff1681526020016000820160089054906101000a900467ffffffffffffffff1667ffffffffffffffff1667ffffffffffffffff1681525050828560000160009054906101000a900467ffffffffffffffff16836144df9190617329565b67ffffffffffffffff1681518110614520577f4e487b7100000000000000000000000000000000000000000000000000000000600052603260045260246000fd5b60200260200101819052508080614536906174ee565b9150506143ee565b5080915050919050565b6000806000905060008360000160009054906101000a900467ffffffffffffffff1690505b8360000160089054906101000a900467ffffffffffffffff1667ffffffffffffffff168167ffffffffffffffff16101561466357438460010160008367ffffffffffffffff1667ffffffffffffffff16815260200190815260200160002060000160089054906101000a900467ffffffffffffffff1667ffffffffffffffff1611156145f857614663565b8360010160008267ffffffffffffffff1667ffffffffffffffff16815260200190815260200160002060000160009054906101000a900467ffffffffffffffff168261464491906171b6565b915061464f84615c10565b50808061465b906174ee565b91505061456d565b5080915050919050565b600a6001015461467b614df5565b10156146ce57600a6001015461468f614df5565b436040517fd714a6e00000000000000000000000000000000000000000000000000000000081526004016146c593929190616ef9565b60405180910390fd5b60078054905060096000600a60000160089054906101000a900467ffffffffffffffff1667ffffffffffffffff16815260200190815260200160002081905550600061472f600a60010154614721614df5565b614a4c90919063ffffffff16565b905060076040518060800160405280600a60000160089054906101000a900467ffffffffffffffff1667ffffffffffffffff16815260200161476f614151565b67ffffffffffffffff168152602001600a60000160009054906101000a900467ffffffffffffffff1667ffffffffffffffff16815260200183815250908060018154018082558091505060019003906000526020600020906002020160009091909190915060008201518160000160006101000a81548167ffffffffffffffff021916908367ffffffffffffffff16021790555060208201518160000160086101000a81548167ffffffffffffffff021916908367ffffffffffffffff16021790555060408201518160000160106101000a81548167ffffffffffffffff021916908367ffffffffffffffff16021790555060608201518160010155505060006148bf61271063ffffffff166148b160008054906101000a900463ffffffff1661271061489c91906172f5565b63ffffffff1685615bfa90919063ffffffff16565b614f1d90919063ffffffff16565b90506148d9816004600101546142f590919063ffffffff16565b6004600101819055506148fa826004600201546142f590919063ffffffff16565b6004600201819055505050565b600060049054906101000a900460ff16614956576040517f08c379a000000000000000000000000000000000000000000000000000000000815260040161494d90616cf7565b60405180910390fd5b600061496133614f33565b90506149b881600d60003373ffffffffffffffffffffffffffffffffffffffff1673ffffffffffffffffffffffffffffffffffffffff168152602001908152602001600020600201546142f590919063ffffffff16565b600d60003373ffffffffffffffffffffffffffffffffffffffff1673ffffffffffffffffffffffffffffffffffffffff16815260200190815260200160002060020181905550600860003373ffffffffffffffffffffffffffffffffffffffff1673ffffffffffffffffffffffffffffffffffffffff1681526020019081526020016000206000614a499190615f7e565b50565b60008183614a5a91906172c1565b905092915050565b600460000160009054906101000a900467ffffffffffffffff16600a60000160006101000a81548167ffffffffffffffff021916908367ffffffffffffffff160217905550614aaf614151565b600a60000160086101000a81548167ffffffffffffffff021916908367ffffffffffffffff160217905550614ae2614df5565b600a60010181905550565b60606000838560000160009054906101000a900467ffffffffffffffff16614b1591906171b6565b90508460000160089054906101000a900467ffffffffffffffff1667ffffffffffffffff168167ffffffffffffffff1610614bcd57600067ffffffffffffffff811115614b8b577f4e487b7100000000000000000000000000000000000000000000000000000000600052604160045260246000fd5b604051908082528060200260200182016040528015614bc457816020015b614bb1615f50565b815260200190600190039081614ba95790505b50915050614dee565b60008382614bdb91906171b6565b67ffffffffffffffff1690508560000160089054906101000a900467ffffffffffffffff1667ffffffffffffffff16811115614c37578560000160089054906101000a900467ffffffffffffffff1667ffffffffffffffff1690505b60008267ffffffffffffffff1682614c4f91906172c1565b67ffffffffffffffff811115614c8e577f4e487b7100000000000000000000000000000000000000000000000000000000600052604160045260246000fd5b604051908082528060200260200182016040528015614cc757816020015b614cb4615f50565b815260200190600190039081614cac5790505b50905060008390505b828167ffffffffffffffff161015614de6578760010160008267ffffffffffffffff1667ffffffffffffffff1681526020019081526020016000206040518060400160405290816000820160009054906101000a900467ffffffffffffffff1667ffffffffffffffff1667ffffffffffffffff1681526020016000820160089054906101000a900467ffffffffffffffff1667ffffffffffffffff1667ffffffffffffffff1681525050828583614d879190617329565b67ffffffffffffffff1681518110614dc8577f4e487b7100000000000000000000000000000000000000000000000000000000600052603260045260246000fd5b60200260200101819052508080614dde906174ee565b915050614cd0565b508093505050505b9392505050565b6000803090508073ffffffffffffffffffffffffffffffffffffffff163191505090565b60008082600001518360200151614e309190617329565b67ffffffffffffffff169050600083606001511480614e4f5750600081145b80614e6857506000836040015167ffffffffffffffff16145b15614e77576000915050614f18565b6000614e9c600254856040015167ffffffffffffffff16615bfa90919063ffffffff16565b90506000614f0f83614f0184614ef361016d6202a300614ebc919061727f565b67ffffffffffffffff16614ee561271063ffffffff168c60600151615bfa90919063ffffffff16565b615bfa90919063ffffffff16565b614f1d90919063ffffffff16565b614f1d90919063ffffffff16565b90508093505050505b919050565b60008183614f2b91906171f4565b905092915050565b600080600090506000600860008573ffffffffffffffffffffffffffffffffffffffff1673ffffffffffffffffffffffffffffffffffffffff168152602001908152602001600020805480602002602001604051908101604052809291908181526020016000905b8282101561505f578382906000526020600020016040518060600160405290816000820160009054906101000a900467ffffffffffffffff1667ffffffffffffffff1667ffffffffffffffff1681526020016000820160089054906101000a900467ffffffffffffffff1667ffffffffffffffff1667ffffffffffffffff1681526020016000820160109054906101000a900467ffffffffffffffff1667ffffffffffffffff1667ffffffffffffffff168152505081526020019060010190614f9b565b505050509050600081511415615079578192505050615481565b60006150d3826000815181106150b8577f4e487b7100000000000000000000000000000000000000000000000000000000600052603260045260246000fd5b60200260200101516000015167ffffffffffffffff16614259565b905060008190505b6007805490508167ffffffffffffffff16101561547957600060078267ffffffffffffffff1681548110615138577f4e487b7100000000000000000000000000000000000000000000000000000000600052603260045260246000fd5b90600052602060002090600202016040518060800160405290816000820160009054906101000a900467ffffffffffffffff1667ffffffffffffffff1667ffffffffffffffff1681526020016000820160089054906101000a900467ffffffffffffffff1667ffffffffffffffff1667ffffffffffffffff1681526020016000820160109054906101000a900467ffffffffffffffff1667ffffffffffffffff1667ffffffffffffffff16815260200160018201548152505090506000816060015114156152065750615466565b60005b84518163ffffffff16101561546357816020015167ffffffffffffffff16858263ffffffff1681518110615266577f4e487b7100000000000000000000000000000000000000000000000000000000600052603260045260246000fd5b60200260200101516000015167ffffffffffffffff161061528657615463565b816000015167ffffffffffffffff16858263ffffffff16815181106152d4577f4e487b7100000000000000000000000000000000000000000000000000000000600052603260045260246000fd5b60200260200101516020015167ffffffffffffffff16116152f457615450565b6000826000015167ffffffffffffffff16868363ffffffff1681518110615344577f4e487b7100000000000000000000000000000000000000000000000000000000600052603260045260246000fd5b60200260200101516000015167ffffffffffffffff16111580156153ca5750826020015167ffffffffffffffff16868363ffffffff16815181106153b1577f4e487b7100000000000000000000000000000000000000000000000000000000600052603260045260246000fd5b60200260200101516020015167ffffffffffffffff1610155b9050806153d75750615450565b60006154368460600151888563ffffffff1681518110615420577f4e487b7100000000000000000000000000000000000000000000000000000000600052603260045260246000fd5b6020026020010151604001518660400151614276565b905061544b81896142f590919063ffffffff16565b975050505b808061545b906174c1565b915050615209565b50505b8080615471906174ee565b9150506150db565b508293505050505b919050565b600080600090506000600c60008573ffffffffffffffffffffffffffffffffffffffff1673ffffffffffffffffffffffffffffffffffffffff1681526020019081526020016000206040518060400160405290816000820160009054906101000a900467ffffffffffffffff1667ffffffffffffffff1667ffffffffffffffff1681526020016000820160089054906101000a900467ffffffffffffffff1667ffffffffffffffff1667ffffffffffffffff16815250509050600a60000160089054906101000a900467ffffffffffffffff1667ffffffffffffffff16816020015167ffffffffffffffff161115801561558b5750600a60010154615589614df5565b115b156155f75760006155b1600a600101546155a3614df5565b614a4c90919063ffffffff16565b905060006155dd828460000151600a60000160009054906101000a900467ffffffffffffffff16614276565b90506155f281856142f590919063ffffffff16565b935050505b6000615610826020015167ffffffffffffffff16614259565b905060008167ffffffffffffffff1614156156305782935050505061579b565b60008190505b6007805490508167ffffffffffffffff16101561579357600060078267ffffffffffffffff1681548110615693577f4e487b7100000000000000000000000000000000000000000000000000000000600052603260045260246000fd5b90600052602060002090600202016040518060800160405290816000820160009054906101000a900467ffffffffffffffff1667ffffffffffffffff1667ffffffffffffffff1681526020016000820160089054906101000a900467ffffffffffffffff1667ffffffffffffffff1667ffffffffffffffff1681526020016000820160109054906101000a900467ffffffffffffffff1667ffffffffffffffff1667ffffffffffffffff16815260200160018201548152505090506000615767826060015186600001518460400151614276565b905061577c81876142f590919063ffffffff16565b95505050808061578b906174ee565b915050615636565b508293505050505b919050565b600d60003373ffffffffffffffffffffffffffffffffffffffff1673ffffffffffffffffffffffffffffffffffffffff16815260200190815260200160002060000160089054906101000a900467ffffffffffffffff16600c60003373ffffffffffffffffffffffffffffffffffffffff1673ffffffffffffffffffffffffffffffffffffffff16815260200190815260200160002060000160006101000a81548167ffffffffffffffff021916908367ffffffffffffffff160217905550615867614151565b600c60003373ffffffffffffffffffffffffffffffffffffffff1673ffffffffffffffffffffffffffffffffffffffff16815260200190815260200160002060000160086101000a81548167ffffffffffffffff021916908367ffffffffffffffff160217905550565b6000806000905060008360000160009054906101000a900467ffffffffffffffff1690505b8360000160089054906101000a900467ffffffffffffffff1667ffffffffffffffff168167ffffffffffffffff1610156159e257438460010160008367ffffffffffffffff1667ffffffffffffffff16815260200190815260200160002060000160089054906101000a900467ffffffffffffffff1667ffffffffffffffff161115615981576159e2565b8360010160008267ffffffffffffffff1667ffffffffffffffff16815260200190815260200160002060000160009054906101000a900467ffffffffffffffff16826159cd91906171b6565b915080806159da906174ee565b9150506158f6565b5080915050919050565b6000600c60003373ffffffffffffffffffffffffffffffffffffffff1673ffffffffffffffffffffffffffffffffffffffff1681526020019081526020016000206040518060400160405290816000820160009054906101000a900467ffffffffffffffff1667ffffffffffffffff1667ffffffffffffffff1681526020016000820160089054906101000a900467ffffffffffffffff1667ffffffffffffffff1667ffffffffffffffff168152505090506000816000015167ffffffffffffffff161415615abb5750615bf8565b600860003373ffffffffffffffffffffffffffffffffffffffff1673ffffffffffffffffffffffffffffffffffffffff1681526020019081526020016000206040518060600160405280836020015167ffffffffffffffff168152602001615b21614151565b67ffffffffffffffff168152602001836000015167ffffffffffffffff168152509080600181540180825580915050600190039060005260206000200160009091909190915060008201518160000160006101000a81548167ffffffffffffffff021916908367ffffffffffffffff16021790555060208201518160000160086101000a81548167ffffffffffffffff021916908367ffffffffffffffff16021790555060408201518160000160106101000a81548167ffffffffffffffff021916908367ffffffffffffffff1602179055505050505b565b60008183615c089190617225565b905092915050565b615c18615f50565b60008260010160008460000160009054906101000a900467ffffffffffffffff1667ffffffffffffffff1667ffffffffffffffff1681526020019081526020016000206040518060400160405290816000820160009054906101000a900467ffffffffffffffff1667ffffffffffffffff1667ffffffffffffffff1681526020016000820160089054906101000a900467ffffffffffffffff1667ffffffffffffffff1667ffffffffffffffff1681525050905082600101600084600001600081819054906101000a900467ffffffffffffffff1680929190615cfa906174ee565b91906101000a81548167ffffffffffffffff021916908367ffffffffffffffff16021790555067ffffffffffffffff1667ffffffffffffffff168152602001908152602001600020600080820160006101000a81549067ffffffffffffffff02191690556000820160086101000a81549067ffffffffffffffff0219169055505080915050919050565b6040518060800160405280600067ffffffffffffffff168152602001600067ffffffffffffffff168152602001600067ffffffffffffffff168152602001600081525090565b6040518060400160405280600067ffffffffffffffff168152602001600067ffffffffffffffff1681525090565b828054615e0490617415565b90600052602060002090601f016020900481019282615e265760008555615e6d565b82601f10615e3f57805160ff1916838001178555615e6d565b82800160010185558215615e6d579182015b82811115615e6c578251825591602001919060010190615e51565b5b509050615e7a9190615f9f565b5090565b6040518060600160405280600067ffffffffffffffff168152602001600067ffffffffffffffff168152602001600067ffffffffffffffff1681525090565b6040518060600160405280600067ffffffffffffffff168152602001600067ffffffffffffffff168152602001600081525090565b6040518060c00160405280600067ffffffffffffffff168152602001600067ffffffffffffffff168152602001600067ffffffffffffffff168152602001600067ffffffffffffffff16815260200160008152602001600081525090565b6040518060400160405280600067ffffffffffffffff168152602001600067ffffffffffffffff1681525090565b5080546000825590600052602060002090810190615f9c9190615fbc565b50565b5b80821115615fb8576000816000905550600101615fa0565b5090565b5b8082111561602057600080820160006101000a81549067ffffffffffffffff02191690556000820160086101000a81549067ffffffffffffffff02191690556000820160106101000a81549067ffffffffffffffff021916905550600101615fbd565b5090565b600061603761603284616fc2565b616f9d565b90508281526020810184848401111561604f57600080fd5b61605a8482856173d3565b509392505050565b600081359050616071816178a2565b92915050565b60008190508260206002028201111561608f57600080fd5b92915050565b6000813590506160a4816178b9565b92915050565b6000815190506160b9816178b9565b92915050565b60008083601f8401126160d157600080fd5b8235905067ffffffffffffffff8111156160ea57600080fd5b60208301915083600182028301111561610257600080fd5b9250929050565b600082601f83011261611a57600080fd5b813561612a848260208601616024565b91505092915050565b600081359050616142816178d0565b92915050565b600081359050616157816178e7565b92915050565b60008135905061616c816178fe565b92915050565b60006020828403121561618457600080fd5b600061619284828501616062565b91505092915050565b6000806000606084860312156161b057600080fd5b60006161be86828701616062565b93505060206161cf8682870161615d565b92505060406161e08682870161615d565b9150509250925092565b6000602082840312156161fc57600080fd5b600061620a848285016160aa565b91505092915050565b600080600080600080600060a0888a03121561622e57600080fd5b600061623c8a828b01616095565b975050602061624d8a828b0161615d565b965050604088013567ffffffffffffffff81111561626a57600080fd5b6162768a828b016160bf565b9550955050606088013567ffffffffffffffff81111561629557600080fd5b6162a18a828b016160bf565b9350935050608088013567ffffffffffffffff8111156162c057600080fd5b6162cc8a828b01616077565b91505092959891949750929550565b6000602082840312156162ed57600080fd5b600082013567ffffffffffffffff81111561630757600080fd5b61631384828501616109565b91505092915050565b60006020828403121561632e57600080fd5b600061633c84828501616133565b91505092915050565b60006020828403121561635757600080fd5b600061636584828501616148565b91505092915050565b60006020828403121561638057600080fd5b600061638e8482850161615d565b91505092915050565b60006163a48484846165bb565b90509392505050565b60006163b983836168c0565b60408301905092915050565b60006163d183836168ef565b60808301905092915050565b60006163e98383616a43565b60608301905092915050565b6163fe8161735d565b82525050565b600061640f8261702d565b6164198185617098565b93508360208202850161642b85616ff3565b8060005b858110156164715784840389526164468284617109565b616451868284616397565b955061645c84617064565b935060208b019a50505060018101905061642f565b50829750879550505050505092915050565b600061648e82617038565b61649881856170a3565b93506164a383616ffd565b8060005b838110156164d45781516164bb88826163ad565b97506164c683617071565b9250506001810190506164a7565b5085935050505092915050565b60006164ec82617043565b6164f681856170b4565b93506165018361700d565b8060005b8381101561653257815161651988826163c5565b97506165248361707e565b925050600181019050616505565b5085935050505092915050565b600061654a8261704e565b61655481856170c5565b935061655f8361701d565b8060005b8381101561659057815161657788826163dd565b97506165828361708b565b925050600181019050616563565b5085935050505092915050565b6165a68161736f565b82525050565b6165b58161737b565b82525050565b60006165c783856170d6565b93506165d48385846173d3565b6165dd836175db565b840190509392505050565b60006165f483856170e7565b93506166018385846173d3565b61660a836175db565b840190509392505050565b600061662082617059565b61662a81856170f8565b935061663a8185602086016173e2565b616643816175db565b840191505092915050565b600061665b602a836170f8565b9150616666826175ec565b604082019050919050565b600061667e601c836170f8565b91506166898261763b565b602082019050919050565b60006166a1601b836170f8565b91506166ac82617664565b602082019050919050565b60006166c46018836170f8565b91506166cf8261768d565b602082019050919050565b60006166e76010836170f8565b91506166f2826176b6565b602082019050919050565b600061670a6014836170f8565b9150616715826176df565b602082019050919050565b600061672d6014836170f8565b915061673882617708565b602082019050919050565b60006167506017836170f8565b915061675b82617731565b602082019050919050565b60006167736016836170f8565b915061677e8261775a565b602082019050919050565b60006167966015836170f8565b91506167a182617783565b602082019050919050565b60006167b9600b836170f8565b91506167c4826177ac565b602082019050919050565b60006167dc6018836170f8565b91506167e7826177d5565b602082019050919050565b60006167ff6015836170f8565b915061680a826177fe565b602082019050919050565b60006168226015836170f8565b915061682d82617827565b602082019050919050565b60006168456013836170f8565b915061685082617850565b602082019050919050565b60006168686016836170f8565b915061687382617879565b602082019050919050565b6060820160008201516168946000850182616af4565b5060208201516168a76020850182616af4565b5060408201516168ba6040850182616ac7565b50505050565b6040820160008201516168d66000850182616af4565b5060208201516168e96020850182616af4565b50505050565b6080820160008201516169056000850182616af4565b5060208201516169186020850182616af4565b50604082015161692b6040850182616af4565b50606082015161693e6060850182616ac7565b50505050565b60808201600082015161695a6000850182616af4565b50602082015161696d6020850182616af4565b5060408201516169806040850182616af4565b5060608201516169936060850182616ac7565b50505050565b6040820160008201516169af6000850182616af4565b5060208201516169c26020850182616af4565b50505050565b60c0820160008201516169de6000850182616af4565b5060208201516169f16020850182616af4565b506040820151616a046040850182616af4565b506060820151616a176060850182616af4565b506080820151616a2a6080850182616ac7565b5060a0820151616a3d60a0850182616ac7565b50505050565b606082016000820151616a596000850182616af4565b506020820151616a6c6020850182616af4565b506040820151616a7f6040850182616af4565b50505050565b606082016000820151616a9b6000850182616af4565b506020820151616aae6020850182616af4565b506040820151616ac16040850182616af4565b50505050565b616ad0816173a5565b82525050565b616adf816173a5565b82525050565b616aee816173af565b82525050565b616afd816173bf565b82525050565b616b0c816173bf565b82525050565b6000602082019050616b2760008301846163f5565b92915050565b60006020820190508181036000830152616b478184616483565b905092915050565b60006020820190508181036000830152616b6981846164e1565b905092915050565b60006020820190508181036000830152616b8b818461653f565b905092915050565b6000602082019050616ba8600083018461659d565b92915050565b6000602082019050616bc360008301846165ac565b92915050565b600060a082019050616bde600083018a6165ac565b616beb6020830189616b03565b8181036040830152616bfe8187896165e8565b90508181036060830152616c138185876165e8565b90508181036080830152616c278184616404565b905098975050505050505050565b60006020820190508181036000830152616c4f8184616615565b905092915050565b60006020820190508181036000830152616c708161664e565b9050919050565b60006020820190508181036000830152616c9081616671565b9050919050565b60006020820190508181036000830152616cb081616694565b9050919050565b60006020820190508181036000830152616cd0816166b7565b9050919050565b60006020820190508181036000830152616cf0816166da565b9050919050565b60006020820190508181036000830152616d10816166fd565b9050919050565b60006020820190508181036000830152616d3081616720565b9050919050565b60006020820190508181036000830152616d5081616743565b9050919050565b60006020820190508181036000830152616d7081616766565b9050919050565b60006020820190508181036000830152616d9081616789565b9050919050565b60006020820190508181036000830152616db0816167ac565b9050919050565b60006020820190508181036000830152616dd0816167cf565b9050919050565b60006020820190508181036000830152616df0816167f2565b9050919050565b60006020820190508181036000830152616e1081616815565b9050919050565b60006020820190508181036000830152616e3081616838565b9050919050565b60006020820190508181036000830152616e508161685b565b9050919050565b6000606082019050616e6c600083018461687e565b92915050565b6000608082019050616e876000830184616944565b92915050565b6000604082019050616ea26000830184616999565b92915050565b600060c082019050616ebd60008301846169c8565b92915050565b6000606082019050616ed86000830184616a85565b92915050565b6000602082019050616ef36000830184616ad6565b92915050565b6000606082019050616f0e6000830186616ad6565b616f1b6020830185616ad6565b616f286040830184616ad6565b949350505050565b6000602082019050616f456000830184616ae5565b92915050565b6000602082019050616f606000830184616b03565b92915050565b6000606082019050616f7b6000830186616b03565b616f886020830185616ad6565b616f956040830184616ad6565b949350505050565b6000616fa7616fb8565b9050616fb38282617447565b919050565b6000604051905090565b600067ffffffffffffffff821115616fdd57616fdc6175ac565b5b616fe6826175db565b9050602081019050919050565b6000819050919050565b6000819050602082019050919050565b6000819050602082019050919050565b6000819050602082019050919050565b600060029050919050565b600081519050919050565b600081519050919050565b600081519050919050565b600081519050919050565b6000602082019050919050565b6000602082019050919050565b6000602082019050919050565b6000602082019050919050565b600081905092915050565b600082825260208201905092915050565b600082825260208201905092915050565b600082825260208201905092915050565b600082825260208201905092915050565b600082825260208201905092915050565b600082825260208201905092915050565b6000808335600160200384360303811261712257600080fd5b83810192508235915060208301925067ffffffffffffffff82111561714657600080fd5b60018202360384131561715857600080fd5b509250929050565b600061716b826173a5565b9150617176836173a5565b9250827fffffffffffffffffffffffffffffffffffffffffffffffffffffffffffffffff038211156171ab576171aa61751f565b5b828201905092915050565b60006171c1826173bf565b91506171cc836173bf565b92508267ffffffffffffffff038211156171e9576171e861751f565b5b828201905092915050565b60006171ff826173a5565b915061720a836173a5565b92508261721a5761721961754e565b5b828204905092915050565b6000617230826173a5565b915061723b836173a5565b9250817fffffffffffffffffffffffffffffffffffffffffffffffffffffffffffffffff04831182151516156172745761727361751f565b5b828202905092915050565b600061728a826173bf565b9150617295836173bf565b92508167ffffffffffffffff04831182151516156172b6576172b561751f565b5b828202905092915050565b60006172cc826173a5565b91506172d7836173a5565b9250828210156172ea576172e961751f565b5b828203905092915050565b6000617300826173af565b915061730b836173af565b92508282101561731e5761731d61751f565b5b828203905092915050565b6000617334826173bf565b915061733f836173bf565b9250828210156173525761735161751f565b5b828203905092915050565b600061736882617385565b9050919050565b60008115159050919050565b6000819050919050565b600073ffffffffffffffffffffffffffffffffffffffff82169050919050565b6000819050919050565b600063ffffffff82169050919050565b600067ffffffffffffffff82169050919050565b82818337600083830152505050565b60005b838110156174005780820151818401526020810190506173e5565b8381111561740f576000848401525b50505050565b6000600282049050600182168061742d57607f821691505b602082108114156174415761744061757d565b5b50919050565b617450826175db565b810181811067ffffffffffffffff8211171561746f5761746e6175ac565b5b80604052505050565b6000617483826173a5565b91507fffffffffffffffffffffffffffffffffffffffffffffffffffffffffffffffff8214156174b6576174b561751f565b5b600182019050919050565b60006174cc826173af565b915063ffffffff8214156174e3576174e261751f565b5b600182019050919050565b60006174f9826173bf565b915067ffffffffffffffff8214156175145761751361751f565b5b600182019050919050565b7f4e487b7100000000000000000000000000000000000000000000000000000000600052601160045260246000fd5b7f4e487b7100000000000000000000000000000000000000000000000000000000600052601260045260246000fd5b7f4e487b7100000000000000000000000000000000000000000000000000000000600052602260045260246000fd5b7f4e487b7100000000000000000000000000000000000000000000000000000000600052604160045260246000fd5b6000601f19601f8301169050919050565b7f6d73672e76616c75652073686f756c6420626520766f7465506f776572202a2060008201527f3130303020657468657200000000000000000000000000000000000000000000602082015250565b7f6d73672e76616c75652073686f756c6420626520313030302043465800000000600082015250565b7f4f6e6c7920706f6f6c2061646d696e2063616e20646f20746869730000000000600082015250565b7f4d61782073656374696f6e20636f756e74206973203130300000000000000000600082015250565b7f4e6f206e657720757365722073686f7400000000000000000000000000000000600082015250565b7f506f6f6c206973206e6f74207265676973746564000000000000000000000000600082015250565b7f4c6f636b6564206973206e6f7420656e6f756768000000000000000000000000600082015250565b7f726174696f2073686f756c6420626520312d3130303030000000000000000000600082015250565b7f4d696e696d616c20766f7465506f776572206973203100000000000000000000600082015250565b7f4e6f20636c61696d61626c6520696e7465726573740000000000000000000000600082015250565b7f4e6f2073656374696f6e73000000000000000000000000000000000000000000600082015250565b7f506f6f6c20697320616c72656164792072656769737465640000000000000000600082015250565b7f4e6f20766f746520706f7765722073656374696f6e0000000000000000000000600082015250565b7f766f7465506f7765722073686f756c6420626520310000000000000000000000600082015250565b7f496e746572657374206e6f7420656e6f75676800000000000000000000000000600082015250565b7f556e6c6f636b6564206973206e6f7420656e6f75676800000000000000000000600082015250565b6178ab8161735d565b81146178b657600080fd5b50565b6178c28161737b565b81146178cd57600080fd5b50565b6178d9816173a5565b81146178e457600080fd5b50565b6178f0816173af565b81146178fb57600080fd5b50565b617907816173bf565b811461791257600080fd5b5056fea26469706673582212202391e00cd89b5efaeaa874472a5225134208aaea9e2cdd40ac52302240b5a71164736f6c63430008040033",
  "linkReferences": {},
  "deployedLinkReferences": {}
}