{
  "_format": "hh-sol-artifact-1",
  "contractName": "PoSPoolDebug",
  "sourceName": "contracts/PoSPoolDebug.sol",
  "abi": [
    {
      "inputs": [
        {
          "internalType": "address",
          "name": "_stakingAddress",
          "type": "address"
        },
        {
          "internalType": "address",
          "name": "_posRegisterAddress",
          "type": "address"
        }
      ],
      "stateMutability": "nonpayable",
      "type": "constructor"
    },
    {
      "inputs": [
        {
          "internalType": "uint256",
          "name": "previous",
          "type": "uint256"
        },
        {
          "internalType": "uint256",
          "name": "current",
          "type": "uint256"
        },
        {
          "internalType": "uint256",
          "name": "blockNumber",
          "type": "uint256"
        }
      ],
      "name": "UnnormalReward",
      "type": "error"
    },
    {
      "anonymous": false,
      "inputs": [
        {
          "indexed": true,
          "internalType": "address",
          "name": "user",
          "type": "address"
        },
        {
          "indexed": false,
          "internalType": "uint256",
          "name": "amount",
          "type": "uint256"
        }
      ],
      "name": "ClaimInterest",
      "type": "event"
    },
    {
      "anonymous": false,
      "inputs": [
        {
          "indexed": true,
          "internalType": "address",
          "name": "user",
          "type": "address"
        },
        {
          "indexed": false,
          "internalType": "uint64",
          "name": "votePower",
          "type": "uint64"
        }
      ],
      "name": "DecreasePoSStake",
      "type": "event"
    },
    {
      "anonymous": false,
      "inputs": [
        {
          "indexed": true,
          "internalType": "address",
          "name": "user",
          "type": "address"
        },
        {
          "indexed": false,
          "internalType": "uint64",
          "name": "votePower",
          "type": "uint64"
        }
      ],
      "name": "IncreasePoSStake",
      "type": "event"
    },
    {
      "anonymous": false,
      "inputs": [
        {
          "indexed": false,
          "internalType": "uint32",
          "name": "ratio",
          "type": "uint32"
        }
      ],
      "name": "RatioChanged",
      "type": "event"
    },
    {
      "anonymous": false,
      "inputs": [
        {
          "indexed": true,
          "internalType": "address",
          "name": "user",
          "type": "address"
        },
        {
          "indexed": false,
          "internalType": "uint64",
          "name": "votePower",
          "type": "uint64"
        }
      ],
      "name": "WithdrawStake",
      "type": "event"
    },
    {
      "inputs": [],
      "name": "_lastRewardSection",
      "outputs": [
        {
          "components": [
            {
              "internalType": "uint64",
              "name": "startBlock",
              "type": "uint64"
            },
            {
              "internalType": "uint64",
              "name": "endBlock",
              "type": "uint64"
            },
            {
              "internalType": "uint64",
              "name": "available",
              "type": "uint64"
            },
            {
              "internalType": "uint256",
              "name": "reward",
              "type": "uint256"
            }
          ],
          "internalType": "struct PoSPool.RewardSection",
          "name": "",
          "type": "tuple"
        }
      ],
      "stateMutability": "view",
      "type": "function"
    },
    {
      "inputs": [
        {
          "internalType": "address",
          "name": "_address",
          "type": "address"
        }
      ],
      "name": "_lastVotePowerSection",
      "outputs": [
        {
          "components": [
            {
              "internalType": "uint64",
              "name": "startBlock",
              "type": "uint64"
            },
            {
              "internalType": "uint64",
              "name": "endBlock",
              "type": "uint64"
            },
            {
              "internalType": "uint64",
              "name": "available",
              "type": "uint64"
            }
          ],
          "internalType": "struct PoSPool.VotePowerSection",
          "name": "",
          "type": "tuple"
        }
      ],
      "stateMutability": "view",
      "type": "function"
    },
    {
      "inputs": [
        {
          "internalType": "uint256",
          "name": "startBlock",
          "type": "uint256"
        }
      ],
      "name": "_poolAPY",
      "outputs": [
        {
          "internalType": "uint32",
          "name": "",
          "type": "uint32"
        }
      ],
      "stateMutability": "view",
      "type": "function"
    },
    {
      "inputs": [],
      "name": "_poolLockPeriod",
      "outputs": [
        {
          "internalType": "uint64",
          "name": "",
          "type": "uint64"
        }
      ],
      "stateMutability": "view",
      "type": "function"
    },
    {
      "inputs": [],
      "name": "_poolName",
      "outputs": [
        {
          "internalType": "string",
          "name": "",
          "type": "string"
        }
      ],
      "stateMutability": "view",
      "type": "function"
    },
    {
      "inputs": [],
      "name": "_poolRegisted",
      "outputs": [
        {
          "internalType": "bool",
          "name": "",
          "type": "bool"
        }
      ],
      "stateMutability": "view",
      "type": "function"
    },
    {
      "inputs": [],
      "name": "_poolShot",
      "outputs": [
        {
          "components": [
            {
              "internalType": "uint64",
              "name": "available",
              "type": "uint64"
            },
            {
              "internalType": "uint64",
              "name": "blockNumber",
              "type": "uint64"
            },
            {
              "internalType": "uint256",
              "name": "balance",
              "type": "uint256"
            }
          ],
          "internalType": "struct PoSPool.PoolShot",
          "name": "",
          "type": "tuple"
        }
      ],
      "stateMutability": "view",
      "type": "function"
    },
    {
      "inputs": [
        {
          "internalType": "address",
          "name": "_addr",
          "type": "address"
        }
      ],
      "name": "_posAddressToIdentifier",
      "outputs": [
        {
          "internalType": "bytes32",
          "name": "",
          "type": "bytes32"
        }
      ],
      "stateMutability": "view",
      "type": "function"
    },
    {
      "inputs": [
        {
          "internalType": "uint64",
          "name": "votePower",
          "type": "uint64"
        }
      ],
      "name": "_posRegisterIncreaseStake",
      "outputs": [],
      "stateMutability": "nonpayable",
      "type": "function"
    },
    {
      "inputs": [
        {
          "internalType": "bytes32",
          "name": "indentifier",
          "type": "bytes32"
        },
        {
          "internalType": "uint64",
          "name": "votePower",
          "type": "uint64"
        },
        {
          "internalType": "bytes",
          "name": "blsPubKey",
          "type": "bytes"
        },
        {
          "internalType": "bytes",
          "name": "vrfPubKey",
          "type": "bytes"
        },
        {
          "internalType": "bytes[2]",
          "name": "blsPubKeyProof",
          "type": "bytes[2]"
        }
      ],
      "name": "_posRegisterRegister",
      "outputs": [],
      "stateMutability": "nonpayable",
      "type": "function"
    },
    {
      "inputs": [
        {
          "internalType": "uint64",
          "name": "votePower",
          "type": "uint64"
        }
      ],
      "name": "_posRegisterRetire",
      "outputs": [],
      "stateMutability": "nonpayable",
      "type": "function"
    },
    {
      "inputs": [],
      "name": "_rewardSections",
      "outputs": [
        {
          "components": [
            {
              "internalType": "uint64",
              "name": "startBlock",
              "type": "uint64"
            },
            {
              "internalType": "uint64",
              "name": "endBlock",
              "type": "uint64"
            },
            {
              "internalType": "uint64",
              "name": "available",
              "type": "uint64"
            },
            {
              "internalType": "uint256",
              "name": "reward",
              "type": "uint256"
            }
          ],
          "internalType": "struct PoSPool.RewardSection[]",
          "name": "",
          "type": "tuple[]"
        }
      ],
      "stateMutability": "view",
      "type": "function"
    },
    {
      "inputs": [
        {
          "internalType": "uint256",
          "name": "_amount",
          "type": "uint256"
        }
      ],
      "name": "_stakingDeposit",
      "outputs": [],
      "stateMutability": "nonpayable",
      "type": "function"
    },
    {
      "inputs": [
        {
          "internalType": "uint256",
          "name": "_amount",
          "type": "uint256"
        }
      ],
      "name": "_stakingWithdraw",
      "outputs": [],
      "stateMutability": "nonpayable",
      "type": "function"
    },
    {
      "inputs": [
        {
          "internalType": "address",
          "name": "_address",
          "type": "address"
        },
        {
          "internalType": "bool",
          "name": "inOrOut",
          "type": "bool"
        }
      ],
      "name": "_userInOutQueue",
      "outputs": [
        {
          "components": [
            {
              "internalType": "uint64",
              "name": "votePower",
              "type": "uint64"
            },
            {
              "internalType": "uint64",
              "name": "endBlock",
              "type": "uint64"
            }
          ],
          "internalType": "struct VotePowerQueue.QueueNode[]",
          "name": "",
          "type": "tuple[]"
        }
      ],
      "stateMutability": "view",
      "type": "function"
    },
    {
      "inputs": [
        {
          "internalType": "address",
          "name": "_address",
          "type": "address"
        }
      ],
      "name": "_userShot",
      "outputs": [
        {
          "components": [
            {
              "internalType": "uint64",
              "name": "available",
              "type": "uint64"
            },
            {
              "internalType": "uint64",
              "name": "blockNumber",
              "type": "uint64"
            }
          ],
          "internalType": "struct PoSPool.UserShot",
          "name": "",
          "type": "tuple"
        }
      ],
      "stateMutability": "view",
      "type": "function"
    },
    {
      "inputs": [
        {
          "internalType": "address",
          "name": "_address",
          "type": "address"
        }
      ],
      "name": "_votePowerSections",
      "outputs": [
        {
          "components": [
            {
              "internalType": "uint64",
              "name": "startBlock",
              "type": "uint64"
            },
            {
              "internalType": "uint64",
              "name": "endBlock",
              "type": "uint64"
            },
            {
              "internalType": "uint64",
              "name": "available",
              "type": "uint64"
            }
          ],
          "internalType": "struct PoSPool.VotePowerSection[]",
          "name": "",
          "type": "tuple[]"
        }
      ],
      "stateMutability": "view",
      "type": "function"
    },
    {
      "inputs": [],
      "name": "claimAllInterest",
      "outputs": [],
      "stateMutability": "nonpayable",
      "type": "function"
    },
    {
      "inputs": [
        {
          "internalType": "uint256",
          "name": "amount",
          "type": "uint256"
        }
      ],
      "name": "claimInterest",
      "outputs": [],
      "stateMutability": "nonpayable",
      "type": "function"
    },
    {
      "inputs": [
        {
          "internalType": "uint64",
          "name": "limit",
          "type": "uint64"
        }
      ],
      "name": "collectUserLastVotePowerSectionPagination",
      "outputs": [],
      "stateMutability": "nonpayable",
      "type": "function"
    },
    {
      "inputs": [
        {
          "internalType": "uint64",
          "name": "limit",
          "type": "uint64"
        }
      ],
      "name": "collectUserLatestInterestPagination",
      "outputs": [],
      "stateMutability": "nonpayable",
      "type": "function"
    },
    {
      "inputs": [
        {
          "internalType": "uint256",
          "name": "sectionCount",
          "type": "uint256"
        }
      ],
      "name": "collectUserLatestSectionsInterest",
      "outputs": [],
      "stateMutability": "nonpayable",
      "type": "function"
    },
    {
      "inputs": [
        {
          "internalType": "uint64",
          "name": "votePower",
          "type": "uint64"
        }
      ],
      "name": "decreaseStake",
      "outputs": [],
      "stateMutability": "nonpayable",
      "type": "function"
    },
    {
      "inputs": [
        {
          "internalType": "uint64",
          "name": "votePower",
          "type": "uint64"
        }
      ],
      "name": "increaseStake",
      "outputs": [],
      "stateMutability": "payable",
      "type": "function"
    },
    {
      "inputs": [],
      "name": "poolAPY",
      "outputs": [
        {
          "internalType": "uint32",
          "name": "",
          "type": "uint32"
        }
      ],
      "stateMutability": "view",
      "type": "function"
    },
    {
      "inputs": [],
      "name": "poolSummary",
      "outputs": [
        {
          "internalType": "uint64",
          "name": "available",
          "type": "uint64"
        },
        {
          "internalType": "uint256",
          "name": "interest",
          "type": "uint256"
        },
        {
          "internalType": "uint256",
          "name": "totalInterest",
          "type": "uint256"
        }
      ],
      "stateMutability": "view",
      "type": "function"
    },
    {
      "inputs": [],
      "name": "poolUserShareRatio",
      "outputs": [
        {
          "internalType": "uint32",
          "name": "",
          "type": "uint32"
        }
      ],
      "stateMutability": "view",
      "type": "function"
    },
    {
      "inputs": [],
      "name": "posAddress",
      "outputs": [
        {
          "internalType": "bytes32",
          "name": "",
          "type": "bytes32"
        }
      ],
      "stateMutability": "view",
      "type": "function"
    },
    {
      "inputs": [
        {
          "internalType": "bytes32",
          "name": "indentifier",
          "type": "bytes32"
        },
        {
          "internalType": "uint64",
          "name": "votePower",
          "type": "uint64"
        },
        {
          "internalType": "bytes",
          "name": "blsPubKey",
          "type": "bytes"
        },
        {
          "internalType": "bytes",
          "name": "vrfPubKey",
          "type": "bytes"
        },
        {
          "internalType": "bytes[2]",
          "name": "blsPubKeyProof",
          "type": "bytes[2]"
        }
      ],
      "name": "register",
      "outputs": [],
      "stateMutability": "payable",
      "type": "function"
    },
    {
      "inputs": [
        {
          "internalType": "uint256",
          "name": "count",
          "type": "uint256"
        }
      ],
      "name": "setCfxCountOfOneVote",
      "outputs": [],
      "stateMutability": "nonpayable",
      "type": "function"
    },
    {
      "inputs": [
        {
          "internalType": "uint64",
          "name": "period",
          "type": "uint64"
        }
      ],
      "name": "setLockPeriod",
      "outputs": [],
      "stateMutability": "nonpayable",
      "type": "function"
    },
    {
      "inputs": [
        {
          "internalType": "string",
          "name": "name",
          "type": "string"
        }
      ],
      "name": "setPoolName",
      "outputs": [],
      "stateMutability": "nonpayable",
      "type": "function"
    },
    {
      "inputs": [
        {
          "internalType": "uint32",
          "name": "ratio",
          "type": "uint32"
        }
      ],
      "name": "setPoolUserShareRatio",
      "outputs": [],
      "stateMutability": "nonpayable",
      "type": "function"
    },
    {
      "inputs": [
        {
          "internalType": "address",
          "name": "account",
          "type": "address"
        },
        {
          "internalType": "uint64",
          "name": "offset",
          "type": "uint64"
        },
        {
          "internalType": "uint64",
          "name": "limit",
          "type": "uint64"
        }
      ],
      "name": "userInQueue",
      "outputs": [
        {
          "components": [
            {
              "internalType": "uint64",
              "name": "votePower",
              "type": "uint64"
            },
            {
              "internalType": "uint64",
              "name": "endBlock",
              "type": "uint64"
            }
          ],
          "internalType": "struct VotePowerQueue.QueueNode[]",
          "name": "",
          "type": "tuple[]"
        }
      ],
      "stateMutability": "view",
      "type": "function"
    },
    {
      "inputs": [
        {
          "internalType": "address",
          "name": "account",
          "type": "address"
        }
      ],
      "name": "userInQueue",
      "outputs": [
        {
          "components": [
            {
              "internalType": "uint64",
              "name": "votePower",
              "type": "uint64"
            },
            {
              "internalType": "uint64",
              "name": "endBlock",
              "type": "uint64"
            }
          ],
          "internalType": "struct VotePowerQueue.QueueNode[]",
          "name": "",
          "type": "tuple[]"
        }
      ],
      "stateMutability": "view",
      "type": "function"
    },
    {
      "inputs": [
        {
          "internalType": "address",
          "name": "_address",
          "type": "address"
        }
      ],
      "name": "userInterest",
      "outputs": [
        {
          "internalType": "uint256",
          "name": "",
          "type": "uint256"
        }
      ],
      "stateMutability": "view",
      "type": "function"
    },
    {
      "inputs": [
        {
          "internalType": "address",
          "name": "account",
          "type": "address"
        }
      ],
      "name": "userOutQueue",
      "outputs": [
        {
          "components": [
            {
              "internalType": "uint64",
              "name": "votePower",
              "type": "uint64"
            },
            {
              "internalType": "uint64",
              "name": "endBlock",
              "type": "uint64"
            }
          ],
          "internalType": "struct VotePowerQueue.QueueNode[]",
          "name": "",
          "type": "tuple[]"
        }
      ],
      "stateMutability": "view",
      "type": "function"
    },
    {
      "inputs": [
        {
          "internalType": "address",
          "name": "account",
          "type": "address"
        },
        {
          "internalType": "uint64",
          "name": "offset",
          "type": "uint64"
        },
        {
          "internalType": "uint64",
          "name": "limit",
          "type": "uint64"
        }
      ],
      "name": "userOutQueue",
      "outputs": [
        {
          "components": [
            {
              "internalType": "uint64",
              "name": "votePower",
              "type": "uint64"
            },
            {
              "internalType": "uint64",
              "name": "endBlock",
              "type": "uint64"
            }
          ],
          "internalType": "struct VotePowerQueue.QueueNode[]",
          "name": "",
          "type": "tuple[]"
        }
      ],
      "stateMutability": "view",
      "type": "function"
    },
    {
      "inputs": [
        {
          "internalType": "address",
          "name": "_user",
          "type": "address"
        }
      ],
      "name": "userSummary",
      "outputs": [
        {
          "components": [
            {
              "internalType": "uint64",
              "name": "votes",
              "type": "uint64"
            },
            {
              "internalType": "uint64",
              "name": "available",
              "type": "uint64"
            },
            {
              "internalType": "uint64",
              "name": "locked",
              "type": "uint64"
            },
            {
              "internalType": "uint64",
              "name": "unlocked",
              "type": "uint64"
            },
            {
              "internalType": "uint256",
              "name": "claimedInterest",
              "type": "uint256"
            },
            {
              "internalType": "uint256",
              "name": "currentInterest",
              "type": "uint256"
            }
          ],
          "internalType": "struct PoSPool.UserSummary",
          "name": "",
          "type": "tuple"
        }
      ],
      "stateMutability": "view",
      "type": "function"
    },
    {
      "inputs": [
        {
          "internalType": "uint64",
          "name": "votePower",
          "type": "uint64"
        }
      ],
      "name": "withdrawStake",
      "outputs": [],
      "stateMutability": "nonpayable",
      "type": "function"
    },
    {
      "stateMutability": "payable",
      "type": "receive"
    }
  ],
  "bytecode": "0x608060405260076202a30062000016919062000233565b600060056101000a81548167ffffffffffffffff021916908367ffffffffffffffff160217905550683635c9adc5dea000006002553480156200005857600080fd5b5060405162007fbe38038062007fbe83398181016040528101906200007e9190620001f2565b33600360006101000a81548173ffffffffffffffffffffffffffffffffffffffff021916908373ffffffffffffffffffffffffffffffffffffffff1602179055506123286000806101000a81548163ffffffff021916908363ffffffff1602179055506040518060600160405280600067ffffffffffffffff168152602001600081526020016000815250600460008201518160000160006101000a81548167ffffffffffffffff021916908367ffffffffffffffff160217905550602082015181600101556040820151816002015590505081601060006101000a81548173ffffffffffffffffffffffffffffffffffffffff021916908373ffffffffffffffffffffffffffffffffffffffff16021790555080601160006101000a81548173ffffffffffffffffffffffffffffffffffffffff021916908373ffffffffffffffffffffffffffffffffffffffff16021790555050506200030d565b600081519050620001ec81620002f3565b92915050565b600080604083850312156200020657600080fd5b60006200021685828601620001db565b92505060206200022985828601620001db565b9150509250929050565b60006200024082620002b0565b91506200024d83620002b0565b92508167ffffffffffffffff0483118215151615620002715762000270620002c4565b5b828202905092915050565b6000620002898262000290565b9050919050565b600073ffffffffffffffffffffffffffffffffffffffff82169050919050565b600067ffffffffffffffff82169050919050565b7f4e487b7100000000000000000000000000000000000000000000000000000000600052601160045260246000fd5b620002fe816200027c565b81146200030a57600080fd5b50565b617ca1806200031d6000396000f3fe60806040526004361061023f5760003560e01c80637ee8f4731161012e578063beb99c1e116100ab578063e2af79281161006f578063e2af7928146108a5578063e335b451146108e2578063e3d5b233146108fe578063e5e20ccf1461093b578063fdb259c01461096457610246565b8063beb99c1e146107ae578063c9107d44146107d7578063d68076c314610802578063dced4de41461083f578063de49db631461087c57610246565b8063961545da116100f2578063961545da146106b757806396b6b59d146106f45780639d5633571461071d578063a669800214610746578063b4064a251461078357610246565b80637ee8f473146105f857806380f818f9146106215780638270512f1461064a57806382df7a3b1461066157806391d341331461068c57610246565b8063457fc4e2116101bc5780635c0eeedb116101805780635c0eeedb146104fd57806367a1aa4f1461053a57806372b65424146105655780637571fcf61461058e57806377f6baed146105bb57610246565b8063457fc4e21461040457806346608a241461042f5780634b1b45e61461046c5780635101deb0146104975780635825761a146104d457610246565b806327d8ed3f1161020357806327d8ed3f146103215780632c779df21461034a5780632ce7777f146103755780632eb375ea1461039e578063336f8e0e146103c757610246565b806309fecf7f1461024b57806310ae0886146102675780631764618c146102905780632485ce9f146102bb57806324a3bbe2146102e457610246565b3661024657005b600080fd5b610265600480360381019061026091906166ad565b61098d565b005b34801561027357600080fd5b5061028e600480360381019061028991906166ad565b610cf7565b005b34801561029c57600080fd5b506102a5611191565b6040516102b29190616eed565b60405180910390f35b3480156102c757600080fd5b506102e260048036038101906102dd91906166ad565b6111ef565b005b3480156102f057600080fd5b5061030b60048036038101906103069190616475565b6117f9565b6040516103189190616e6c565b60405180910390f35b34801561032d57600080fd5b50610348600480360381019061034391906166ad565b611849565b005b34801561035657600080fd5b5061035f6118d9565b60405161036c9190616f74565b60405180910390f35b34801561038157600080fd5b5061039c600480360381019061039791906166ad565b611967565b005b3480156103aa57600080fd5b506103c560048036038101906103c0919061665b565b611d1f565b005b3480156103d357600080fd5b506103ee60048036038101906103e991906164da565b611fb3565b6040516103fb9190616e6c565b60405180910390f35b34801561041057600080fd5b50610419612007565b60405161042691906171b1565b60405180910390f35b34801561043b57600080fd5b506104566004803603810190610451919061649e565b612118565b6040516104639190616e6c565b60405180910390f35b34801561047857600080fd5b506104816123d8565b60405161048e9190616ed2565b60405180910390f35b3480156104a357600080fd5b506104be60048036038101906104b99190616475565b6123eb565b6040516104cb9190616eb0565b60405180910390f35b3480156104e057600080fd5b506104fb60048036038101906104f691906166ad565b61251b565b005b34801561050957600080fd5b50610524600480360381019061051f9190616475565b6125ab565b60405161053191906171cc565b60405180910390f35b34801561054657600080fd5b5061054f612668565b60405161055c919061726f565b60405180910390f35b34801561057157600080fd5b5061058c6004803603810190610587919061661a565b61267c565b005b34801561059a57600080fd5b506105a3612726565b6040516105b2939291906172a5565b60405180910390f35b3480156105c757600080fd5b506105e260048036038101906105dd9190616475565b612752565b6040516105ef9190617202565b60405180910390f35b34801561060457600080fd5b5061061f600480360381019061061a919061665b565b6128d1565b005b34801561062d57600080fd5b5061064860048036038101906106439190616552565b612961565b005b34801561065657600080fd5b5061065f612a03565b005b34801561066d57600080fd5b50610676612aae565b604051610683919061726f565b60405180910390f35b34801561069857600080fd5b506106a1612b17565b6040516106ae9190617196565b60405180910390f35b3480156106c357600080fd5b506106de60048036038101906106d9919061665b565b612b9f565b6040516106eb919061726f565b60405180910390f35b34801561070057600080fd5b5061071b6004803603810190610716919061665b565b612e21565b005b34801561072957600080fd5b50610744600480360381019061073f9190616684565b612ece565b005b34801561075257600080fd5b5061076d600480360381019061076891906164da565b61301b565b60405161077a9190616e6c565b60405180910390f35b34801561078f57600080fd5b5061079861306f565b6040516107a5919061728a565b60405180910390f35b3480156107ba57600080fd5b506107d560048036038101906107d091906166ad565b613089565b005b3480156107e357600080fd5b506107ec6134c2565b6040516107f99190616e8e565b60405180910390f35b34801561080e57600080fd5b5061082960048036038101906108249190616475565b6135c1565b604051610836919061721d565b60405180910390f35b34801561084b57600080fd5b5061086660048036038101906108619190616475565b61365f565b6040516108739190616eed565b60405180910390f35b34801561088857600080fd5b506108a3600480360381019061089e919061665b565b613705565b005b3480156108b157600080fd5b506108cc60048036038101906108c79190616475565b613cbc565b6040516108d99190616e6c565b60405180910390f35b6108fc60048036038101906108f79190616552565b613d0c565b005b34801561090a57600080fd5b5061092560048036038101906109209190616475565b6140cd565b60405161093291906171e7565b60405180910390f35b34801561094757600080fd5b50610962600480360381019061095d91906166ad565b6142f2565b005b34801561097057600080fd5b5061098b6004803603810190610986919061665b565b6143ae565b005b600060049054906101000a900460ff166109dc576040517f08c379a00000000000000000000000000000000000000000000000000000000081526004016109d390617036565b60405180910390fd5b60008167ffffffffffffffff1611610a29576040517f08c379a0000000000000000000000000000000000000000000000000000000008152600401610a2090617096565b60405180910390fd5b6002548167ffffffffffffffff16610a419190617564565b3414610a82576040517f08c379a0000000000000000000000000000000000000000000000000000000008152600401610a7990616f96565b60405180910390fd5b610a8b346143ae565b610a9481611849565b3373ffffffffffffffffffffffffffffffffffffffff167fbb9676f2e80ec8fca106973b6eefdfc5fdccc797801bedfc041ad03b89d3748e82604051610ada919061728a565b60405180910390a280600460000160008282829054906101000a900467ffffffffffffffff16610b0a91906174f5565b92506101000a81548167ffffffffffffffff021916908367ffffffffffffffff16021790555080600d60003373ffffffffffffffffffffffffffffffffffffffff1673ffffffffffffffffffffffffffffffffffffffff16815260200190815260200160002060000160008282829054906101000a900467ffffffffffffffff16610b9591906174f5565b92506101000a81548167ffffffffffffffff021916908367ffffffffffffffff16021790555080600d60003373ffffffffffffffffffffffffffffffffffffffff1673ffffffffffffffffffffffffffffffffffffffff16815260200190815260200160002060000160088282829054906101000a900467ffffffffffffffff16610c2091906174f5565b92506101000a81548167ffffffffffffffff021916908367ffffffffffffffff1602179055506000600e60003373ffffffffffffffffffffffffffffffffffffffff1673ffffffffffffffffffffffffffffffffffffffff1681526020019081526020016000209050610ce38160405180604001604052808567ffffffffffffffff168152602001600060059054906101000a900467ffffffffffffffff16610cc761443f565b610cd191906174f5565b67ffffffffffffffff16815250614447565b610ceb614523565b610cf3614535565b5050565b600060049054906101000a900460ff16610d46576040517f08c379a0000000000000000000000000000000000000000000000000000000008152600401610d3d90617036565b60405180910390fd5b60648167ffffffffffffffff161115610d94576040517f08c379a0000000000000000000000000000000000000000000000000000000008152600401610d8b90616ff6565b60405180910390fd5b6000600c60003373ffffffffffffffffffffffffffffffffffffffff1673ffffffffffffffffffffffffffffffffffffffff1681526020019081526020016000209050600a60000160089054906101000a900467ffffffffffffffff1667ffffffffffffffff168160000160089054906101000a900467ffffffffffffffff1667ffffffffffffffff1610610e5e576040517f08c379a0000000000000000000000000000000000000000000000000000000008152600401610e5590617016565b60405180910390fd5b6000610e8b8260000160089054906101000a900467ffffffffffffffff1667ffffffffffffffff16614547565b905060008382610e9b91906174f5565b90506007805490508167ffffffffffffffff161115610ebd5760078054905090505b6000808390505b8267ffffffffffffffff168167ffffffffffffffff16101561104e57600060078267ffffffffffffffff1681548110610f26577f4e487b7100000000000000000000000000000000000000000000000000000000600052603260045260246000fd5b90600052602060002090600202016040518060800160405290816000820160009054906101000a900467ffffffffffffffff1667ffffffffffffffff1667ffffffffffffffff1681526020016000820160089054906101000a900467ffffffffffffffff1667ffffffffffffffff1667ffffffffffffffff1681526020016000820160109054906101000a900467ffffffffffffffff1667ffffffffffffffff1667ffffffffffffffff1681526020016001820154815250509050600081606001511415610ff4575061103b565b600061102182606001518860000160009054906101000a900467ffffffffffffffff168460400151614564565b905061103681856145e390919063ffffffff16565b935050505b80806110469061782d565b915050610ec4565b506110a481600d60003373ffffffffffffffffffffffffffffffffffffffff1673ffffffffffffffffffffffffffffffffffffffff168152602001908152602001600020600201546145e390919063ffffffff16565b600d60003373ffffffffffffffffffffffffffffffffffffffff1673ffffffffffffffffffffffffffffffffffffffff1681526020019081526020016000206002018190555060076001836110f99190617668565b67ffffffffffffffff168154811061113a577f4e487b7100000000000000000000000000000000000000000000000000000000600052603260045260246000fd5b906000526020600020906002020160000160089054906101000a900467ffffffffffffffff168460000160086101000a81548167ffffffffffffffff021916908367ffffffffffffffff1602179055505050505050565b60008060049054906101000a900460ff166111e1576040517f08c379a00000000000000000000000000000000000000000000000000000000081526004016111d890617036565b60405180910390fd5b6111ea3061365f565b905090565b600060049054906101000a900460ff1661123e576040517f08c379a000000000000000000000000000000000000000000000000000000000815260040161123590617036565b60405180910390fd5b60648167ffffffffffffffff16111561128c576040517f08c379a000000000000000000000000000000000000000000000000000000000815260040161128390616ff6565b60405180910390fd5b6000600860003373ffffffffffffffffffffffffffffffffffffffff1673ffffffffffffffffffffffffffffffffffffffff16815260200190815260200160002090506000818054905011611316576040517f08c379a000000000000000000000000000000000000000000000000000000000815260040161130d90617116565b60405180910390fd5b6000611395826001848054905061132d9190617600565b81548110611364577f4e487b7100000000000000000000000000000000000000000000000000000000600052603260045260246000fd5b9060005260206000200160000160009054906101000a900467ffffffffffffffff1667ffffffffffffffff16614547565b9050600083826113a591906174f5565b90506007805490508167ffffffffffffffff1611156113c75760078054905090505b6000808390505b8267ffffffffffffffff168167ffffffffffffffff1610156115aa57600060078267ffffffffffffffff1681548110611430577f4e487b7100000000000000000000000000000000000000000000000000000000600052603260045260246000fd5b90600052602060002090600202016040518060800160405290816000820160009054906101000a900467ffffffffffffffff1667ffffffffffffffff1667ffffffffffffffff1681526020016000820160089054906101000a900467ffffffffffffffff1667ffffffffffffffff1667ffffffffffffffff1681526020016000820160109054906101000a900467ffffffffffffffff1667ffffffffffffffff1667ffffffffffffffff16815260200160018201548152505090506000816060015114156114fe5750611597565b600061157d82606001518860018a8054905061151a9190617600565b81548110611551577f4e487b7100000000000000000000000000000000000000000000000000000000600052603260045260246000fd5b9060005260206000200160000160109054906101000a900467ffffffffffffffff168460400151614564565b905061159281856145e390919063ffffffff16565b935050505b80806115a29061782d565b9150506113ce565b5061160081600d60003373ffffffffffffffffffffffffffffffffffffffff1673ffffffffffffffffffffffffffffffffffffffff168152602001908152602001600020600201546145e390919063ffffffff16565b600d60003373ffffffffffffffffffffffffffffffffffffffff1673ffffffffffffffffffffffffffffffffffffffff168152602001908152602001600020600201819055506007805490508267ffffffffffffffff1614156116ff5783805480611694577f4e487b7100000000000000000000000000000000000000000000000000000000600052603160045260246000fd5b60019003818190600052602060002001600080820160006101000a81549067ffffffffffffffff02191690556000820160086101000a81549067ffffffffffffffff02191690556000820160106101000a81549067ffffffffffffffff0219169055505090556117f2565b600760018361170e9190617668565b67ffffffffffffffff168154811061174f577f4e487b7100000000000000000000000000000000000000000000000000000000600052603260045260246000fd5b906000526020600020906002020160000160089054906101000a900467ffffffffffffffff1684600186805490506117879190617600565b815481106117be577f4e487b7100000000000000000000000000000000000000000000000000000000600052603260045260246000fd5b9060005260206000200160000160006101000a81548167ffffffffffffffff021916908367ffffffffffffffff1602179055505b5050505050565b6060611842600f60008473ffffffffffffffffffffffffffffffffffffffff1673ffffffffffffffffffffffffffffffffffffffff1681526020019081526020016000206145f9565b9050919050565b601160009054906101000a900473ffffffffffffffffffffffffffffffffffffffff1673ffffffffffffffffffffffffffffffffffffffff166309fecf7f826040518263ffffffff1660e01b81526004016118a4919061728a565b600060405180830381600087803b1580156118be57600080fd5b505af11580156118d2573d6000803e3d6000fd5b5050505050565b600180546118e690617754565b80601f016020809104026020016040519081016040528092919081815260200182805461191290617754565b801561195f5780601f106119345761010080835404028352916020019161195f565b820191906000526020600020905b81548152906001019060200180831161194257829003601f168201915b505050505081565b600060049054906101000a900460ff166119b6576040517f08c379a00000000000000000000000000000000000000000000000000000000081526004016119ad90617036565b60405180910390fd5b6119fd600f60003373ffffffffffffffffffffffffffffffffffffffff1673ffffffffffffffffffffffffffffffffffffffff168152602001908152602001600020614836565b600d60003373ffffffffffffffffffffffffffffffffffffffff1673ffffffffffffffffffffffffffffffffffffffff16815260200190815260200160002060000160188282829054906101000a900467ffffffffffffffff16611a6191906174f5565b92506101000a81548167ffffffffffffffff021916908367ffffffffffffffff1602179055508067ffffffffffffffff16600d60003373ffffffffffffffffffffffffffffffffffffffff1673ffffffffffffffffffffffffffffffffffffffff16815260200190815260200160002060000160189054906101000a900467ffffffffffffffff1667ffffffffffffffff161015611b34576040517f08c379a0000000000000000000000000000000000000000000000000000000008152600401611b2b90617176565b60405180910390fd5b611b546002548267ffffffffffffffff16611b4f9190617564565b6128d1565b80600d60003373ffffffffffffffffffffffffffffffffffffffff1673ffffffffffffffffffffffffffffffffffffffff16815260200190815260200160002060000160188282829054906101000a900467ffffffffffffffff16611bb99190617668565b92506101000a81548167ffffffffffffffff021916908367ffffffffffffffff16021790555080600d60003373ffffffffffffffffffffffffffffffffffffffff1673ffffffffffffffffffffffffffffffffffffffff16815260200190815260200160002060000160008282829054906101000a900467ffffffffffffffff16611c449190617668565b92506101000a81548167ffffffffffffffff021916908367ffffffffffffffff16021790555060003390508073ffffffffffffffffffffffffffffffffffffffff166108fc6002548467ffffffffffffffff16611ca19190617564565b9081150290604051600060405180830381858888f19350505050158015611ccc573d6000803e3d6000fd5b503373ffffffffffffffffffffffffffffffffffffffff167ffbd5b0f12a6385c116526ca96180111a6575ccef6751a640d36d6d80793eced283604051611d13919061728a565b60405180910390a25050565b600060049054906101000a900460ff16611d6e576040517f08c379a0000000000000000000000000000000000000000000000000000000008152600401611d6590617036565b60405180910390fd5b6000611d79336135c1565b905081811015611dbe576040517f08c379a0000000000000000000000000000000000000000000000000000000008152600401611db590617156565b60405180910390fd5b611dc6614523565b611dce61495b565b611dd6614bf5565b611e2b82600d60003373ffffffffffffffffffffffffffffffffffffffff1673ffffffffffffffffffffffffffffffffffffffff168152602001908152602001600020600101546145e390919063ffffffff16565b600d60003373ffffffffffffffffffffffffffffffffffffffff1673ffffffffffffffffffffffffffffffffffffffff16815260200190815260200160002060010181905550611ec682600d60003373ffffffffffffffffffffffffffffffffffffffff1673ffffffffffffffffffffffffffffffffffffffff16815260200190815260200160002060020154614d3a90919063ffffffff16565b600d60003373ffffffffffffffffffffffffffffffffffffffff1673ffffffffffffffffffffffffffffffffffffffff1681526020019081526020016000206002018190555060003390508073ffffffffffffffffffffffffffffffffffffffff166108fc849081150290604051600060405180830381858888f19350505050158015611f57573d6000803e3d6000fd5b503373ffffffffffffffffffffffffffffffffffffffff167fbbf701f67a7d285bbd2b9b2dc7a5fee474e6dc3c059183385da6cc9de2be34a984604051611f9e919061721d565b60405180910390a2611fae614d50565b505050565b6060611ffe600f60008673ffffffffffffffffffffffffffffffffffffffff1673ffffffffffffffffffffffffffffffffffffffff1681526020019081526020016000208484614ddb565b90509392505050565b61200f616072565b600760016007805490506120239190617600565b8154811061205a577f4e487b7100000000000000000000000000000000000000000000000000000000600052603260045260246000fd5b90600052602060002090600202016040518060800160405290816000820160009054906101000a900467ffffffffffffffff1667ffffffffffffffff1667ffffffffffffffff1681526020016000820160089054906101000a900467ffffffffffffffff1667ffffffffffffffff1667ffffffffffffffff1681526020016000820160109054906101000a900467ffffffffffffffff1667ffffffffffffffff1667ffffffffffffffff168152602001600182015481525050905090565b60606000821561216857600e60008573ffffffffffffffffffffffffffffffffffffffff1673ffffffffffffffffffffffffffffffffffffffff16815260200190815260200160002090506121aa565b600f60008573ffffffffffffffffffffffffffffffffffffffff1673ffffffffffffffffffffffffffffffffffffffff16815260200190815260200160002090505b60008160000160009054906101000a900467ffffffffffffffff168260000160089054906101000a900467ffffffffffffffff166121e89190617668565b905060008167ffffffffffffffff1667ffffffffffffffff811115612236577f4e487b7100000000000000000000000000000000000000000000000000000000600052604160045260246000fd5b60405190808252806020026020018201604052801561226f57816020015b61225c6160b8565b8152602001906001900390816122545790505b5090506000808460000160009054906101000a900467ffffffffffffffff1690505b8460000160089054906101000a900467ffffffffffffffff1667ffffffffffffffff168167ffffffffffffffff1610156123ca578460010160008267ffffffffffffffff1667ffffffffffffffff1681526020019081526020016000206040518060400160405290816000820160009054906101000a900467ffffffffffffffff1667ffffffffffffffff1667ffffffffffffffff1681526020016000820160089054906101000a900467ffffffffffffffff1667ffffffffffffffff1667ffffffffffffffff16815250508383806123699061782d565b945067ffffffffffffffff16815181106123ac577f4e487b7100000000000000000000000000000000000000000000000000000000600052603260045260246000fd5b602002602001018190525080806123c29061782d565b915050612291565b508194505050505092915050565b600060049054906101000a900460ff1681565b6060600860008373ffffffffffffffffffffffffffffffffffffffff1673ffffffffffffffffffffffffffffffffffffffff168152602001908152602001600020805480602002602001604051908101604052809291908181526020016000905b82821015612510578382906000526020600020016040518060600160405290816000820160009054906101000a900467ffffffffffffffff1667ffffffffffffffff1667ffffffffffffffff1681526020016000820160089054906101000a900467ffffffffffffffff1667ffffffffffffffff1667ffffffffffffffff1681526020016000820160109054906101000a900467ffffffffffffffff1667ffffffffffffffff1667ffffffffffffffff16815250508152602001906001019061244c565b505050509050919050565b601160009054906101000a900473ffffffffffffffffffffffffffffffffffffffff1673ffffffffffffffffffffffffffffffffffffffff1663f49d0638826040518263ffffffff1660e01b8152600401612576919061728a565b600060405180830381600087803b15801561259057600080fd5b505af11580156125a4573d6000803e3d6000fd5b5050505050565b6125b36160e6565b600c60008373ffffffffffffffffffffffffffffffffffffffff1673ffffffffffffffffffffffffffffffffffffffff1681526020019081526020016000206040518060400160405290816000820160009054906101000a900467ffffffffffffffff1667ffffffffffffffff1667ffffffffffffffff1681526020016000820160089054906101000a900467ffffffffffffffff1667ffffffffffffffff1667ffffffffffffffff16815250509050919050565b60008054906101000a900463ffffffff1681565b600360009054906101000a900473ffffffffffffffffffffffffffffffffffffffff1673ffffffffffffffffffffffffffffffffffffffff163373ffffffffffffffffffffffffffffffffffffffff161461270c576040517f08c379a000000000000000000000000000000000000000000000000000000000815260040161270390616fd6565b60405180910390fd5b8060019080519060200190612722929190616114565b5050565b60048060000160009054906101000a900467ffffffffffffffff16908060010154908060020154905083565b61275a61619a565b600860008373ffffffffffffffffffffffffffffffffffffffff1673ffffffffffffffffffffffffffffffffffffffff1681526020019081526020016000206001600860008573ffffffffffffffffffffffffffffffffffffffff1673ffffffffffffffffffffffffffffffffffffffff168152602001908152602001600020805490506127e89190617600565b8154811061281f577f4e487b7100000000000000000000000000000000000000000000000000000000600052603260045260246000fd5b906000526020600020016040518060600160405290816000820160009054906101000a900467ffffffffffffffff1667ffffffffffffffff1667ffffffffffffffff1681526020016000820160089054906101000a900467ffffffffffffffff1667ffffffffffffffff1667ffffffffffffffff1681526020016000820160109054906101000a900467ffffffffffffffff1667ffffffffffffffff1667ffffffffffffffff16815250509050919050565b601060009054906101000a900473ffffffffffffffffffffffffffffffffffffffff1673ffffffffffffffffffffffffffffffffffffffff16632e1a7d4d826040518263ffffffff1660e01b815260040161292c919061721d565b600060405180830381600087803b15801561294657600080fd5b505af115801561295a573d6000803e3d6000fd5b5050505050565b601160009054906101000a900473ffffffffffffffffffffffffffffffffffffffff1673ffffffffffffffffffffffffffffffffffffffff1663e335b451888888888888886040518863ffffffff1660e01b81526004016129c89796959493929190616f08565b600060405180830381600087803b1580156129e257600080fd5b505af11580156129f6573d6000803e3d6000fd5b5050505050505050505050565b600060049054906101000a900460ff16612a52576040517f08c379a0000000000000000000000000000000000000000000000000000000008152600401612a4990617036565b60405180910390fd5b6000612a5d336135c1565b905060008111612aa2576040517f08c379a0000000000000000000000000000000000000000000000000000000008152600401612a99906170b6565b60405180910390fd5b612aab81611d1f565b50565b600061016d6202a300612ac191906175be565b67ffffffffffffffff16431115612b0757612b0061016d6202a300612ae691906175be565b67ffffffffffffffff1643612afb9190617600565b612b9f565b9050612b14565b612b116000612b9f565b90505b90565b612b1f6161d9565b600a6040518060600160405290816000820160009054906101000a900467ffffffffffffffff1667ffffffffffffffff1667ffffffffffffffff1681526020016000820160089054906101000a900467ffffffffffffffff1667ffffffffffffffff1667ffffffffffffffff168152602001600182015481525050905090565b600080600090506000806040518060800160405280600a60000160089054906101000a900467ffffffffffffffff1667ffffffffffffffff168152602001612be561443f565b67ffffffffffffffff168152602001600a60000160009054906101000a900467ffffffffffffffff1667ffffffffffffffff168152602001612c3c600a60010154612c2e6150e3565b614d3a90919063ffffffff16565b8152509050612c5c612c4d82615107565b846145e390919063ffffffff16565b9250600182612c6b919061749f565b9150600060078054905090506000811415612c8c5783945050505050612e1c565b60005b81811015612e01576000600760018385612ca99190617600565b612cb39190617600565b81548110612cea577f4e487b7100000000000000000000000000000000000000000000000000000000600052603260045260246000fd5b90600052602060002090600202016040518060800160405290816000820160009054906101000a900467ffffffffffffffff1667ffffffffffffffff1667ffffffffffffffff1681526020016000820160089054906101000a900467ffffffffffffffff1667ffffffffffffffff1667ffffffffffffffff1681526020016000820160109054906101000a900467ffffffffffffffff1667ffffffffffffffff1667ffffffffffffffff168152602001600182015481525050905087816020015167ffffffffffffffff161015612dc15750612e01565b612ddc612dcd82615107565b876145e390919063ffffffff16565b9550600185612deb919061749f565b9450508080612df9906177b7565b915050612c8f565b50612e15838561520b90919063ffffffff16565b9450505050505b919050565b600360009054906101000a900473ffffffffffffffffffffffffffffffffffffffff1673ffffffffffffffffffffffffffffffffffffffff163373ffffffffffffffffffffffffffffffffffffffff1614612eb1576040517f08c379a0000000000000000000000000000000000000000000000000000000008152600401612ea890616fd6565b60405180910390fd5b670de0b6b3a764000081612ec59190617564565b60028190555050565b600360009054906101000a900473ffffffffffffffffffffffffffffffffffffffff1673ffffffffffffffffffffffffffffffffffffffff163373ffffffffffffffffffffffffffffffffffffffff1614612f5e576040517f08c379a0000000000000000000000000000000000000000000000000000000008152600401612f5590616fd6565b60405180910390fd5b60008163ffffffff16118015612f82575061271063ffffffff168163ffffffff1611155b612fc1576040517f08c379a0000000000000000000000000000000000000000000000000000000008152600401612fb890617076565b60405180910390fd5b806000806101000a81548163ffffffff021916908363ffffffff1602179055507fe58e62b1b669eb56125ef85ed8b558f033d9cc249825f9fb35742df12acd3e7c81604051613010919061726f565b60405180910390a150565b6060613066600e60008673ffffffffffffffffffffffffffffffffffffffff1673ffffffffffffffffffffffffffffffffffffffff1681526020019081526020016000208484614ddb565b90509392505050565b600060059054906101000a900467ffffffffffffffff1681565b600060049054906101000a900460ff166130d8576040517f08c379a00000000000000000000000000000000000000000000000000000000081526004016130cf90617036565b60405180910390fd5b61311f600e60003373ffffffffffffffffffffffffffffffffffffffff1673ffffffffffffffffffffffffffffffffffffffff168152602001908152602001600020614836565b600d60003373ffffffffffffffffffffffffffffffffffffffff1673ffffffffffffffffffffffffffffffffffffffff16815260200190815260200160002060000160108282829054906101000a900467ffffffffffffffff1661318391906174f5565b92506101000a81548167ffffffffffffffff021916908367ffffffffffffffff1602179055508067ffffffffffffffff16600d60003373ffffffffffffffffffffffffffffffffffffffff1673ffffffffffffffffffffffffffffffffffffffff16815260200190815260200160002060000160109054906101000a900467ffffffffffffffff1667ffffffffffffffff161015613256576040517f08c379a000000000000000000000000000000000000000000000000000000000815260040161324d90617056565b60405180910390fd5b61325f8161251b565b3373ffffffffffffffffffffffffffffffffffffffff167f73395a3e5d14942cd04b55cee3e03536007f34202bbdfb9c3221e88a90b93ede826040516132a5919061728a565b60405180910390a280600460000160008282829054906101000a900467ffffffffffffffff166132d59190617668565b92506101000a81548167ffffffffffffffff021916908367ffffffffffffffff16021790555080600d60003373ffffffffffffffffffffffffffffffffffffffff1673ffffffffffffffffffffffffffffffffffffffff16815260200190815260200160002060000160088282829054906101000a900467ffffffffffffffff166133609190617668565b92506101000a81548167ffffffffffffffff021916908367ffffffffffffffff16021790555080600d60003373ffffffffffffffffffffffffffffffffffffffff1673ffffffffffffffffffffffffffffffffffffffff16815260200190815260200160002060000160108282829054906101000a900467ffffffffffffffff166133eb9190617668565b92506101000a81548167ffffffffffffffff021916908367ffffffffffffffff1602179055506000600f60003373ffffffffffffffffffffffffffffffffffffffff1673ffffffffffffffffffffffffffffffffffffffff16815260200190815260200160002090506134ae8160405180604001604052808567ffffffffffffffff168152602001600060059054906101000a900467ffffffffffffffff1661349261443f565b61349c91906174f5565b67ffffffffffffffff16815250614447565b6134b6614523565b6134be614535565b5050565b60606007805480602002602001604051908101604052809291908181526020016000905b828210156135b857838290600052602060002090600202016040518060800160405290816000820160009054906101000a900467ffffffffffffffff1667ffffffffffffffff1667ffffffffffffffff1681526020016000820160089054906101000a900467ffffffffffffffff1667ffffffffffffffff1667ffffffffffffffff1681526020016000820160109054906101000a900467ffffffffffffffff1667ffffffffffffffff1667ffffffffffffffff168152602001600182015481525050815260200190600101906134e6565b50505050905090565b600080600090506135e36135d484615221565b826145e390919063ffffffff16565b90506136006135f184615774565b826145e390919063ffffffff16565b9050613657600d60008573ffffffffffffffffffffffffffffffffffffffff1673ffffffffffffffffffffffffffffffffffffffff16815260200190815260200160002060020154826145e390919063ffffffff16565b915050919050565b600073088800000000000000000000000000000000000573ffffffffffffffffffffffffffffffffffffffff16636a06ea96836040518263ffffffff1660e01b81526004016136ae9190616e51565b60206040518083038186803b1580156136c657600080fd5b505afa1580156136da573d6000803e3d6000fd5b505050506040513d601f19601f820116820180604052508101906136fe9190616529565b9050919050565b600060049054906101000a900460ff16613754576040517f08c379a000000000000000000000000000000000000000000000000000000000815260040161374b90617036565b60405180910390fd5b6064811115613798576040517f08c379a000000000000000000000000000000000000000000000000000000000815260040161378f90616ff6565b60405180910390fd5b6000600860003373ffffffffffffffffffffffffffffffffffffffff1673ffffffffffffffffffffffffffffffffffffffff16815260200190815260200160002090506000818054905011613822576040517f08c379a0000000000000000000000000000000000000000000000000000000008152600401613819906170d6565b60405180910390fd5b818180549050101561383657808054905091505b6000805b83811015613c1b5760008360018386805490506138579190617600565b6138619190617600565b81548110613898577f4e487b7100000000000000000000000000000000000000000000000000000000600052603260045260246000fd5b906000526020600020016040518060600160405290816000820160009054906101000a900467ffffffffffffffff1667ffffffffffffffff1667ffffffffffffffff1681526020016000820160089054906101000a900467ffffffffffffffff1667ffffffffffffffff1667ffffffffffffffff1681526020016000820160109054906101000a900467ffffffffffffffff1667ffffffffffffffff1667ffffffffffffffff16815250509050600061395e826000015167ffffffffffffffff16614547565b905060008190505b6007805490508167ffffffffffffffff161015613b6857826020015167ffffffffffffffff1660078267ffffffffffffffff16815481106139d0577f4e487b7100000000000000000000000000000000000000000000000000000000600052603260045260246000fd5b906000526020600020906002020160000160009054906101000a900467ffffffffffffffff1667ffffffffffffffff1610613a0a57613b68565b600060078267ffffffffffffffff1681548110613a50577f4e487b7100000000000000000000000000000000000000000000000000000000600052603260045260246000fd5b9060005260206000209060020201600101541415613a6d57613b55565b6000613b3c60078367ffffffffffffffff1681548110613ab6577f4e487b7100000000000000000000000000000000000000000000000000000000600052603260045260246000fd5b906000526020600020906002020160010154856040015160078567ffffffffffffffff1681548110613b11577f4e487b7100000000000000000000000000000000000000000000000000000000600052603260045260246000fd5b906000526020600020906002020160000160109054906101000a900467ffffffffffffffff16614564565b9050613b5181876145e390919063ffffffff16565b9550505b8080613b609061782d565b915050613966565b5084805480613ba0577f4e487b7100000000000000000000000000000000000000000000000000000000600052603160045260246000fd5b60019003818190600052602060002001600080820160006101000a81549067ffffffffffffffff02191690556000820160086101000a81549067ffffffffffffffff02191690556000820160106101000a81549067ffffffffffffffff02191690555050905550508080613c13906177b7565b91505061383a565b50613c7181600d60003373ffffffffffffffffffffffffffffffffffffffff1673ffffffffffffffffffffffffffffffffffffffff168152602001908152602001600020600201546145e390919063ffffffff16565b600d60003373ffffffffffffffffffffffffffffffffffffffff1673ffffffffffffffffffffffffffffffffffffffff16815260200190815260200160002060020181905550505050565b6060613d05600e60008473ffffffffffffffffffffffffffffffffffffffff1673ffffffffffffffffffffffffffffffffffffffff1681526020019081526020016000206145f9565b9050919050565b600360009054906101000a900473ffffffffffffffffffffffffffffffffffffffff1673ffffffffffffffffffffffffffffffffffffffff163373ffffffffffffffffffffffffffffffffffffffff1614613d9c576040517f08c379a0000000000000000000000000000000000000000000000000000000008152600401613d9390616fd6565b60405180910390fd5b600060049054906101000a900460ff1615613dec576040517f08c379a0000000000000000000000000000000000000000000000000000000008152600401613de3906170f6565b60405180910390fd5b60018667ffffffffffffffff1614613e39576040517f08c379a0000000000000000000000000000000000000000000000000000000008152600401613e3090617136565b60405180910390fd5b6002548667ffffffffffffffff16613e519190617564565b3414613e92576040517f08c379a0000000000000000000000000000000000000000000000000000000008152600401613e8990616fb6565b60405180910390fd5b613e9b346143ae565b613eaa87878787878787612961565b6001600060046101000a81548160ff02191690831515021790555085600460000160008282829054906101000a900467ffffffffffffffff16613eed91906174f5565b92506101000a81548167ffffffffffffffff021916908367ffffffffffffffff16021790555085600d60003373ffffffffffffffffffffffffffffffffffffffff1673ffffffffffffffffffffffffffffffffffffffff16815260200190815260200160002060000160008282829054906101000a900467ffffffffffffffff16613f7891906174f5565b92506101000a81548167ffffffffffffffff021916908367ffffffffffffffff16021790555085600d60003373ffffffffffffffffffffffffffffffffffffffff1673ffffffffffffffffffffffffffffffffffffffff16815260200190815260200160002060000160088282829054906101000a900467ffffffffffffffff1661400391906174f5565b92506101000a81548167ffffffffffffffff021916908367ffffffffffffffff16021790555085600d60003373ffffffffffffffffffffffffffffffffffffffff1673ffffffffffffffffffffffffffffffffffffffff16815260200190815260200160002060000160108282829054906101000a900467ffffffffffffffff1661408e91906174f5565b92506101000a81548167ffffffffffffffff021916908367ffffffffffffffff1602179055506140bc615a8e565b6140c4614d50565b50505050505050565b6140d561620e565b6000600d60008473ffffffffffffffffffffffffffffffffffffffff1673ffffffffffffffffffffffffffffffffffffffff1681526020019081526020016000206040518060c00160405290816000820160009054906101000a900467ffffffffffffffff1667ffffffffffffffff1667ffffffffffffffff1681526020016000820160089054906101000a900467ffffffffffffffff1667ffffffffffffffff1667ffffffffffffffff1681526020016000820160109054906101000a900467ffffffffffffffff1667ffffffffffffffff1667ffffffffffffffff1681526020016000820160189054906101000a900467ffffffffffffffff1667ffffffffffffffff1667ffffffffffffffff168152602001600182015481526020016002820154815250509050614246600e60008573ffffffffffffffffffffffffffffffffffffffff1673ffffffffffffffffffffffffffffffffffffffff168152602001908152602001600020615bbf565b8160400181815161425791906174f5565b91509067ffffffffffffffff16908167ffffffffffffffff16815250506142bb600f60008573ffffffffffffffffffffffffffffffffffffffff1673ffffffffffffffffffffffffffffffffffffffff168152602001908152602001600020615bbf565b816060018181516142cc91906174f5565b91509067ffffffffffffffff16908167ffffffffffffffff168152505080915050919050565b600360009054906101000a900473ffffffffffffffffffffffffffffffffffffffff1673ffffffffffffffffffffffffffffffffffffffff163373ffffffffffffffffffffffffffffffffffffffff1614614382576040517f08c379a000000000000000000000000000000000000000000000000000000000815260040161437990616fd6565b60405180910390fd5b80600060056101000a81548167ffffffffffffffff021916908367ffffffffffffffff16021790555050565b601060009054906101000a900473ffffffffffffffffffffffffffffffffffffffff1673ffffffffffffffffffffffffffffffffffffffff1663b6b55f2582836040518363ffffffff1660e01b815260040161440a919061721d565b6000604051808303818588803b15801561442357600080fd5b505af1158015614437573d6000803e3d6000fd5b505050505050565b600043905090565b8082600101600084600001600881819054906101000a900467ffffffffffffffff16809291906144769061782d565b91906101000a81548167ffffffffffffffff021916908367ffffffffffffffff16021790555067ffffffffffffffff1667ffffffffffffffff16815260200190815260200160002060008201518160000160006101000a81548167ffffffffffffffff021916908367ffffffffffffffff16021790555060208201518160000160086101000a81548167ffffffffffffffff021916908367ffffffffffffffff1602179055509050505050565b61452b615cda565b614533615a8e565b565b61453d61495b565b614545614d50565b565b600060096000838152602001908152602001600020549050919050565b60006145da61271063ffffffff168361457d91906175be565b67ffffffffffffffff166145cc60008054906101000a900463ffffffff1663ffffffff166145be8767ffffffffffffffff1689615ee890919063ffffffff16565b615ee890919063ffffffff16565b61520b90919063ffffffff16565b90509392505050565b600081836145f1919061749f565b905092915050565b606060008260000160009054906101000a900467ffffffffffffffff168360000160089054906101000a900467ffffffffffffffff166146399190617668565b67ffffffffffffffff1667ffffffffffffffff811115614682577f4e487b7100000000000000000000000000000000000000000000000000000000600052604160045260246000fd5b6040519080825280602002602001820160405280156146bb57816020015b6146a86160b8565b8152602001906001900390816146a05790505b50905060008360000160009054906101000a900467ffffffffffffffff1690505b8360000160089054906101000a900467ffffffffffffffff1667ffffffffffffffff168167ffffffffffffffff16101561482c578360010160008267ffffffffffffffff1667ffffffffffffffff1681526020019081526020016000206040518060400160405290816000820160009054906101000a900467ffffffffffffffff1667ffffffffffffffff1667ffffffffffffffff1681526020016000820160089054906101000a900467ffffffffffffffff1667ffffffffffffffff1667ffffffffffffffff1681525050828560000160009054906101000a900467ffffffffffffffff16836147cd9190617668565b67ffffffffffffffff168151811061480e577f4e487b7100000000000000000000000000000000000000000000000000000000600052603260045260246000fd5b602002602001018190525080806148249061782d565b9150506146dc565b5080915050919050565b6000806000905060008360000160009054906101000a900467ffffffffffffffff1690505b8360000160089054906101000a900467ffffffffffffffff1667ffffffffffffffff168167ffffffffffffffff16101561495157438460010160008367ffffffffffffffff1667ffffffffffffffff16815260200190815260200160002060000160089054906101000a900467ffffffffffffffff1667ffffffffffffffff1611156148e657614951565b8360010160008267ffffffffffffffff1667ffffffffffffffff16815260200190815260200160002060000160009054906101000a900467ffffffffffffffff168261493291906174f5565b915061493d84615efe565b5080806149499061782d565b91505061485b565b5080915050919050565b600a600101546149696150e3565b10156149bc57600a6001015461497d6150e3565b436040517fd714a6e00000000000000000000000000000000000000000000000000000000081526004016149b393929190617238565b60405180910390fd5b60078054905060096000600a60000160089054906101000a900467ffffffffffffffff1667ffffffffffffffff168152602001908152602001600020819055506000614a1d600a60010154614a0f6150e3565b614d3a90919063ffffffff16565b905060076040518060800160405280600a60000160089054906101000a900467ffffffffffffffff1667ffffffffffffffff168152602001614a5d61443f565b67ffffffffffffffff168152602001600a60000160009054906101000a900467ffffffffffffffff1667ffffffffffffffff16815260200183815250908060018154018082558091505060019003906000526020600020906002020160009091909190915060008201518160000160006101000a81548167ffffffffffffffff021916908367ffffffffffffffff16021790555060208201518160000160086101000a81548167ffffffffffffffff021916908367ffffffffffffffff16021790555060408201518160000160106101000a81548167ffffffffffffffff021916908367ffffffffffffffff1602179055506060820151816001015550506000614bad61271063ffffffff16614b9f60008054906101000a900463ffffffff16612710614b8a9190617634565b63ffffffff1685615ee890919063ffffffff16565b61520b90919063ffffffff16565b9050614bc7816004600101546145e390919063ffffffff16565b600460010181905550614be8826004600201546145e390919063ffffffff16565b6004600201819055505050565b600060049054906101000a900460ff16614c44576040517f08c379a0000000000000000000000000000000000000000000000000000000008152600401614c3b90617036565b60405180910390fd5b6000614c4f33615221565b9050614ca681600d60003373ffffffffffffffffffffffffffffffffffffffff1673ffffffffffffffffffffffffffffffffffffffff168152602001908152602001600020600201546145e390919063ffffffff16565b600d60003373ffffffffffffffffffffffffffffffffffffffff1673ffffffffffffffffffffffffffffffffffffffff16815260200190815260200160002060020181905550600860003373ffffffffffffffffffffffffffffffffffffffff1673ffffffffffffffffffffffffffffffffffffffff1681526020019081526020016000206000614d37919061626c565b50565b60008183614d489190617600565b905092915050565b600460000160009054906101000a900467ffffffffffffffff16600a60000160006101000a81548167ffffffffffffffff021916908367ffffffffffffffff160217905550614d9d61443f565b600a60000160086101000a81548167ffffffffffffffff021916908367ffffffffffffffff160217905550614dd06150e3565b600a60010181905550565b60606000838560000160009054906101000a900467ffffffffffffffff16614e0391906174f5565b90508460000160089054906101000a900467ffffffffffffffff1667ffffffffffffffff168167ffffffffffffffff1610614ebb57600067ffffffffffffffff811115614e79577f4e487b7100000000000000000000000000000000000000000000000000000000600052604160045260246000fd5b604051908082528060200260200182016040528015614eb257816020015b614e9f6160b8565b815260200190600190039081614e975790505b509150506150dc565b60008382614ec991906174f5565b67ffffffffffffffff1690508560000160089054906101000a900467ffffffffffffffff1667ffffffffffffffff16811115614f25578560000160089054906101000a900467ffffffffffffffff1667ffffffffffffffff1690505b60008267ffffffffffffffff1682614f3d9190617600565b67ffffffffffffffff811115614f7c577f4e487b7100000000000000000000000000000000000000000000000000000000600052604160045260246000fd5b604051908082528060200260200182016040528015614fb557816020015b614fa26160b8565b815260200190600190039081614f9a5790505b50905060008390505b828167ffffffffffffffff1610156150d4578760010160008267ffffffffffffffff1667ffffffffffffffff1681526020019081526020016000206040518060400160405290816000820160009054906101000a900467ffffffffffffffff1667ffffffffffffffff1667ffffffffffffffff1681526020016000820160089054906101000a900467ffffffffffffffff1667ffffffffffffffff1667ffffffffffffffff16815250508285836150759190617668565b67ffffffffffffffff16815181106150b6577f4e487b7100000000000000000000000000000000000000000000000000000000600052603260045260246000fd5b602002602001018190525080806150cc9061782d565b915050614fbe565b508093505050505b9392505050565b6000803090508073ffffffffffffffffffffffffffffffffffffffff163191505090565b6000808260000151836020015161511e9190617668565b67ffffffffffffffff16905060008360600151148061513d5750600081145b8061515657506000836040015167ffffffffffffffff16145b15615165576000915050615206565b600061518a600254856040015167ffffffffffffffff16615ee890919063ffffffff16565b905060006151fd836151ef846151e161016d6202a3006151aa91906175be565b67ffffffffffffffff166151d361271063ffffffff168c60600151615ee890919063ffffffff16565b615ee890919063ffffffff16565b61520b90919063ffffffff16565b61520b90919063ffffffff16565b90508093505050505b919050565b600081836152199190617533565b905092915050565b600080600090506000600860008573ffffffffffffffffffffffffffffffffffffffff1673ffffffffffffffffffffffffffffffffffffffff168152602001908152602001600020805480602002602001604051908101604052809291908181526020016000905b8282101561534d578382906000526020600020016040518060600160405290816000820160009054906101000a900467ffffffffffffffff1667ffffffffffffffff1667ffffffffffffffff1681526020016000820160089054906101000a900467ffffffffffffffff1667ffffffffffffffff1667ffffffffffffffff1681526020016000820160109054906101000a900467ffffffffffffffff1667ffffffffffffffff1667ffffffffffffffff168152505081526020019060010190615289565b50505050905060008151141561536757819250505061576f565b60006153c1826000815181106153a6577f4e487b7100000000000000000000000000000000000000000000000000000000600052603260045260246000fd5b60200260200101516000015167ffffffffffffffff16614547565b905060008190505b6007805490508167ffffffffffffffff16101561576757600060078267ffffffffffffffff1681548110615426577f4e487b7100000000000000000000000000000000000000000000000000000000600052603260045260246000fd5b90600052602060002090600202016040518060800160405290816000820160009054906101000a900467ffffffffffffffff1667ffffffffffffffff1667ffffffffffffffff1681526020016000820160089054906101000a900467ffffffffffffffff1667ffffffffffffffff1667ffffffffffffffff1681526020016000820160109054906101000a900467ffffffffffffffff1667ffffffffffffffff1667ffffffffffffffff16815260200160018201548152505090506000816060015114156154f45750615754565b60005b84518163ffffffff16101561575157816020015167ffffffffffffffff16858263ffffffff1681518110615554577f4e487b7100000000000000000000000000000000000000000000000000000000600052603260045260246000fd5b60200260200101516000015167ffffffffffffffff161061557457615751565b816000015167ffffffffffffffff16858263ffffffff16815181106155c2577f4e487b7100000000000000000000000000000000000000000000000000000000600052603260045260246000fd5b60200260200101516020015167ffffffffffffffff16116155e25761573e565b6000826000015167ffffffffffffffff16868363ffffffff1681518110615632577f4e487b7100000000000000000000000000000000000000000000000000000000600052603260045260246000fd5b60200260200101516000015167ffffffffffffffff16111580156156b85750826020015167ffffffffffffffff16868363ffffffff168151811061569f577f4e487b7100000000000000000000000000000000000000000000000000000000600052603260045260246000fd5b60200260200101516020015167ffffffffffffffff1610155b9050806156c5575061573e565b60006157248460600151888563ffffffff168151811061570e577f4e487b7100000000000000000000000000000000000000000000000000000000600052603260045260246000fd5b6020026020010151604001518660400151614564565b905061573981896145e390919063ffffffff16565b975050505b808061574990617800565b9150506154f7565b50505b808061575f9061782d565b9150506153c9565b508293505050505b919050565b600080600090506000600c60008573ffffffffffffffffffffffffffffffffffffffff1673ffffffffffffffffffffffffffffffffffffffff1681526020019081526020016000206040518060400160405290816000820160009054906101000a900467ffffffffffffffff1667ffffffffffffffff1667ffffffffffffffff1681526020016000820160089054906101000a900467ffffffffffffffff1667ffffffffffffffff1667ffffffffffffffff16815250509050600a60000160089054906101000a900467ffffffffffffffff1667ffffffffffffffff16816020015167ffffffffffffffff16111580156158795750600a600101546158776150e3565b115b156158e557600061589f600a600101546158916150e3565b614d3a90919063ffffffff16565b905060006158cb828460000151600a60000160009054906101000a900467ffffffffffffffff16614564565b90506158e081856145e390919063ffffffff16565b935050505b60006158fe826020015167ffffffffffffffff16614547565b905060008167ffffffffffffffff16141561591e57829350505050615a89565b60008190505b6007805490508167ffffffffffffffff161015615a8157600060078267ffffffffffffffff1681548110615981577f4e487b7100000000000000000000000000000000000000000000000000000000600052603260045260246000fd5b90600052602060002090600202016040518060800160405290816000820160009054906101000a900467ffffffffffffffff1667ffffffffffffffff1667ffffffffffffffff1681526020016000820160089054906101000a900467ffffffffffffffff1667ffffffffffffffff1667ffffffffffffffff1681526020016000820160109054906101000a900467ffffffffffffffff1667ffffffffffffffff1667ffffffffffffffff16815260200160018201548152505090506000615a55826060015186600001518460400151614564565b9050615a6a81876145e390919063ffffffff16565b955050508080615a799061782d565b915050615924565b508293505050505b919050565b600d60003373ffffffffffffffffffffffffffffffffffffffff1673ffffffffffffffffffffffffffffffffffffffff16815260200190815260200160002060000160089054906101000a900467ffffffffffffffff16600c60003373ffffffffffffffffffffffffffffffffffffffff1673ffffffffffffffffffffffffffffffffffffffff16815260200190815260200160002060000160006101000a81548167ffffffffffffffff021916908367ffffffffffffffff160217905550615b5561443f565b600c60003373ffffffffffffffffffffffffffffffffffffffff1673ffffffffffffffffffffffffffffffffffffffff16815260200190815260200160002060000160086101000a81548167ffffffffffffffff021916908367ffffffffffffffff160217905550565b6000806000905060008360000160009054906101000a900467ffffffffffffffff1690505b8360000160089054906101000a900467ffffffffffffffff1667ffffffffffffffff168167ffffffffffffffff161015615cd057438460010160008367ffffffffffffffff1667ffffffffffffffff16815260200190815260200160002060000160089054906101000a900467ffffffffffffffff1667ffffffffffffffff161115615c6f57615cd0565b8360010160008267ffffffffffffffff1667ffffffffffffffff16815260200190815260200160002060000160009054906101000a900467ffffffffffffffff1682615cbb91906174f5565b91508080615cc89061782d565b915050615be4565b5080915050919050565b6000600c60003373ffffffffffffffffffffffffffffffffffffffff1673ffffffffffffffffffffffffffffffffffffffff1681526020019081526020016000206040518060400160405290816000820160009054906101000a900467ffffffffffffffff1667ffffffffffffffff1667ffffffffffffffff1681526020016000820160089054906101000a900467ffffffffffffffff1667ffffffffffffffff1667ffffffffffffffff168152505090506000816000015167ffffffffffffffff161415615da95750615ee6565b600860003373ffffffffffffffffffffffffffffffffffffffff1673ffffffffffffffffffffffffffffffffffffffff1681526020019081526020016000206040518060600160405280836020015167ffffffffffffffff168152602001615e0f61443f565b67ffffffffffffffff168152602001836000015167ffffffffffffffff168152509080600181540180825580915050600190039060005260206000200160009091909190915060008201518160000160006101000a81548167ffffffffffffffff021916908367ffffffffffffffff16021790555060208201518160000160086101000a81548167ffffffffffffffff021916908367ffffffffffffffff16021790555060408201518160000160106101000a81548167ffffffffffffffff021916908367ffffffffffffffff1602179055505050505b565b60008183615ef69190617564565b905092915050565b615f066160b8565b60008260010160008460000160009054906101000a900467ffffffffffffffff1667ffffffffffffffff1667ffffffffffffffff1681526020019081526020016000206040518060400160405290816000820160009054906101000a900467ffffffffffffffff1667ffffffffffffffff1667ffffffffffffffff1681526020016000820160089054906101000a900467ffffffffffffffff1667ffffffffffffffff1667ffffffffffffffff1681525050905082600101600084600001600081819054906101000a900467ffffffffffffffff1680929190615fe89061782d565b91906101000a81548167ffffffffffffffff021916908367ffffffffffffffff16021790555067ffffffffffffffff1667ffffffffffffffff168152602001908152602001600020600080820160006101000a81549067ffffffffffffffff02191690556000820160086101000a81549067ffffffffffffffff0219169055505080915050919050565b6040518060800160405280600067ffffffffffffffff168152602001600067ffffffffffffffff168152602001600067ffffffffffffffff168152602001600081525090565b6040518060400160405280600067ffffffffffffffff168152602001600067ffffffffffffffff1681525090565b6040518060400160405280600067ffffffffffffffff168152602001600067ffffffffffffffff1681525090565b82805461612090617754565b90600052602060002090601f0160209004810192826161425760008555616189565b82601f1061615b57805160ff1916838001178555616189565b82800160010185558215616189579182015b8281111561618857825182559160200191906001019061616d565b5b509050616196919061628d565b5090565b6040518060600160405280600067ffffffffffffffff168152602001600067ffffffffffffffff168152602001600067ffffffffffffffff1681525090565b6040518060600160405280600067ffffffffffffffff168152602001600067ffffffffffffffff168152602001600081525090565b6040518060c00160405280600067ffffffffffffffff168152602001600067ffffffffffffffff168152602001600067ffffffffffffffff168152602001600067ffffffffffffffff16815260200160008152602001600081525090565b508054600082559060005260206000209081019061628a91906162aa565b50565b5b808211156162a657600081600090555060010161628e565b5090565b5b8082111561630e57600080820160006101000a81549067ffffffffffffffff02191690556000820160086101000a81549067ffffffffffffffff02191690556000820160106101000a81549067ffffffffffffffff0219169055506001016162ab565b5090565b600061632561632084617301565b6172dc565b90508281526020810184848401111561633d57600080fd5b616348848285617712565b509392505050565b60008135905061635f81617be1565b92915050565b60008190508260206002028201111561637d57600080fd5b92915050565b60008135905061639281617bf8565b92915050565b6000813590506163a781617c0f565b92915050565b6000815190506163bc81617c0f565b92915050565b60008083601f8401126163d457600080fd5b8235905067ffffffffffffffff8111156163ed57600080fd5b60208301915083600182028301111561640557600080fd5b9250929050565b600082601f83011261641d57600080fd5b813561642d848260208601616312565b91505092915050565b60008135905061644581617c26565b92915050565b60008135905061645a81617c3d565b92915050565b60008135905061646f81617c54565b92915050565b60006020828403121561648757600080fd5b600061649584828501616350565b91505092915050565b600080604083850312156164b157600080fd5b60006164bf85828601616350565b92505060206164d085828601616383565b9150509250929050565b6000806000606084860312156164ef57600080fd5b60006164fd86828701616350565b935050602061650e86828701616460565b925050604061651f86828701616460565b9150509250925092565b60006020828403121561653b57600080fd5b6000616549848285016163ad565b91505092915050565b600080600080600080600060a0888a03121561656d57600080fd5b600061657b8a828b01616398565b975050602061658c8a828b01616460565b965050604088013567ffffffffffffffff8111156165a957600080fd5b6165b58a828b016163c2565b9550955050606088013567ffffffffffffffff8111156165d457600080fd5b6165e08a828b016163c2565b9350935050608088013567ffffffffffffffff8111156165ff57600080fd5b61660b8a828b01616365565b91505092959891949750929550565b60006020828403121561662c57600080fd5b600082013567ffffffffffffffff81111561664657600080fd5b6166528482850161640c565b91505092915050565b60006020828403121561666d57600080fd5b600061667b84828501616436565b91505092915050565b60006020828403121561669657600080fd5b60006166a48482850161644b565b91505092915050565b6000602082840312156166bf57600080fd5b60006166cd84828501616460565b91505092915050565b60006166e38484846168fa565b90509392505050565b60006166f88383616bff565b60408301905092915050565b60006167108383616c2e565b60808301905092915050565b60006167288383616d82565b60608301905092915050565b61673d8161769c565b82525050565b600061674e8261736c565b61675881856173d7565b93508360208202850161676a85617332565b8060005b858110156167b05784840389526167858284617448565b6167908682846166d6565b955061679b846173a3565b935060208b019a50505060018101905061676e565b50829750879550505050505092915050565b60006167cd82617377565b6167d781856173e2565b93506167e28361733c565b8060005b838110156168135781516167fa88826166ec565b9750616805836173b0565b9250506001810190506167e6565b5085935050505092915050565b600061682b82617382565b61683581856173f3565b93506168408361734c565b8060005b838110156168715781516168588882616704565b9750616863836173bd565b925050600181019050616844565b5085935050505092915050565b60006168898261738d565b6168938185617404565b935061689e8361735c565b8060005b838110156168cf5781516168b6888261671c565b97506168c1836173ca565b9250506001810190506168a2565b5085935050505092915050565b6168e5816176ae565b82525050565b6168f4816176ba565b82525050565b60006169068385617415565b9350616913838584617712565b61691c8361791a565b840190509392505050565b60006169338385617426565b9350616940838584617712565b6169498361791a565b840190509392505050565b600061695f82617398565b6169698185617437565b9350616979818560208601617721565b6169828161791a565b840191505092915050565b600061699a602a83617437565b91506169a58261792b565b604082019050919050565b60006169bd601c83617437565b91506169c88261797a565b602082019050919050565b60006169e0601b83617437565b91506169eb826179a3565b602082019050919050565b6000616a03601883617437565b9150616a0e826179cc565b602082019050919050565b6000616a26601083617437565b9150616a31826179f5565b602082019050919050565b6000616a49601483617437565b9150616a5482617a1e565b602082019050919050565b6000616a6c601483617437565b9150616a7782617a47565b602082019050919050565b6000616a8f601783617437565b9150616a9a82617a70565b602082019050919050565b6000616ab2601683617437565b9150616abd82617a99565b602082019050919050565b6000616ad5601583617437565b9150616ae082617ac2565b602082019050919050565b6000616af8600b83617437565b9150616b0382617aeb565b602082019050919050565b6000616b1b601883617437565b9150616b2682617b14565b602082019050919050565b6000616b3e601583617437565b9150616b4982617b3d565b602082019050919050565b6000616b61601583617437565b9150616b6c82617b66565b602082019050919050565b6000616b84601383617437565b9150616b8f82617b8f565b602082019050919050565b6000616ba7601683617437565b9150616bb282617bb8565b602082019050919050565b606082016000820151616bd36000850182616e33565b506020820151616be66020850182616e33565b506040820151616bf96040850182616e06565b50505050565b604082016000820151616c156000850182616e33565b506020820151616c286020850182616e33565b50505050565b608082016000820151616c446000850182616e33565b506020820151616c576020850182616e33565b506040820151616c6a6040850182616e33565b506060820151616c7d6060850182616e06565b50505050565b608082016000820151616c996000850182616e33565b506020820151616cac6020850182616e33565b506040820151616cbf6040850182616e33565b506060820151616cd26060850182616e06565b50505050565b604082016000820151616cee6000850182616e33565b506020820151616d016020850182616e33565b50505050565b60c082016000820151616d1d6000850182616e33565b506020820151616d306020850182616e33565b506040820151616d436040850182616e33565b506060820151616d566060850182616e33565b506080820151616d696080850182616e06565b5060a0820151616d7c60a0850182616e06565b50505050565b606082016000820151616d986000850182616e33565b506020820151616dab6020850182616e33565b506040820151616dbe6040850182616e33565b50505050565b606082016000820151616dda6000850182616e33565b506020820151616ded6020850182616e33565b506040820151616e006040850182616e33565b50505050565b616e0f816176e4565b82525050565b616e1e816176e4565b82525050565b616e2d816176ee565b82525050565b616e3c816176fe565b82525050565b616e4b816176fe565b82525050565b6000602082019050616e666000830184616734565b92915050565b60006020820190508181036000830152616e8681846167c2565b905092915050565b60006020820190508181036000830152616ea88184616820565b905092915050565b60006020820190508181036000830152616eca818461687e565b905092915050565b6000602082019050616ee760008301846168dc565b92915050565b6000602082019050616f0260008301846168eb565b92915050565b600060a082019050616f1d600083018a6168eb565b616f2a6020830189616e42565b8181036040830152616f3d818789616927565b90508181036060830152616f52818587616927565b90508181036080830152616f668184616743565b905098975050505050505050565b60006020820190508181036000830152616f8e8184616954565b905092915050565b60006020820190508181036000830152616faf8161698d565b9050919050565b60006020820190508181036000830152616fcf816169b0565b9050919050565b60006020820190508181036000830152616fef816169d3565b9050919050565b6000602082019050818103600083015261700f816169f6565b9050919050565b6000602082019050818103600083015261702f81616a19565b9050919050565b6000602082019050818103600083015261704f81616a3c565b9050919050565b6000602082019050818103600083015261706f81616a5f565b9050919050565b6000602082019050818103600083015261708f81616a82565b9050919050565b600060208201905081810360008301526170af81616aa5565b9050919050565b600060208201905081810360008301526170cf81616ac8565b9050919050565b600060208201905081810360008301526170ef81616aeb565b9050919050565b6000602082019050818103600083015261710f81616b0e565b9050919050565b6000602082019050818103600083015261712f81616b31565b9050919050565b6000602082019050818103600083015261714f81616b54565b9050919050565b6000602082019050818103600083015261716f81616b77565b9050919050565b6000602082019050818103600083015261718f81616b9a565b9050919050565b60006060820190506171ab6000830184616bbd565b92915050565b60006080820190506171c66000830184616c83565b92915050565b60006040820190506171e16000830184616cd8565b92915050565b600060c0820190506171fc6000830184616d07565b92915050565b60006060820190506172176000830184616dc4565b92915050565b60006020820190506172326000830184616e15565b92915050565b600060608201905061724d6000830186616e15565b61725a6020830185616e15565b6172676040830184616e15565b949350505050565b60006020820190506172846000830184616e24565b92915050565b600060208201905061729f6000830184616e42565b92915050565b60006060820190506172ba6000830186616e42565b6172c76020830185616e15565b6172d46040830184616e15565b949350505050565b60006172e66172f7565b90506172f28282617786565b919050565b6000604051905090565b600067ffffffffffffffff82111561731c5761731b6178eb565b5b6173258261791a565b9050602081019050919050565b6000819050919050565b6000819050602082019050919050565b6000819050602082019050919050565b6000819050602082019050919050565b600060029050919050565b600081519050919050565b600081519050919050565b600081519050919050565b600081519050919050565b6000602082019050919050565b6000602082019050919050565b6000602082019050919050565b6000602082019050919050565b600081905092915050565b600082825260208201905092915050565b600082825260208201905092915050565b600082825260208201905092915050565b600082825260208201905092915050565b600082825260208201905092915050565b600082825260208201905092915050565b6000808335600160200384360303811261746157600080fd5b83810192508235915060208301925067ffffffffffffffff82111561748557600080fd5b60018202360384131561749757600080fd5b509250929050565b60006174aa826176e4565b91506174b5836176e4565b9250827fffffffffffffffffffffffffffffffffffffffffffffffffffffffffffffffff038211156174ea576174e961785e565b5b828201905092915050565b6000617500826176fe565b915061750b836176fe565b92508267ffffffffffffffff038211156175285761752761785e565b5b828201905092915050565b600061753e826176e4565b9150617549836176e4565b9250826175595761755861788d565b5b828204905092915050565b600061756f826176e4565b915061757a836176e4565b9250817fffffffffffffffffffffffffffffffffffffffffffffffffffffffffffffffff04831182151516156175b3576175b261785e565b5b828202905092915050565b60006175c9826176fe565b91506175d4836176fe565b92508167ffffffffffffffff04831182151516156175f5576175f461785e565b5b828202905092915050565b600061760b826176e4565b9150617616836176e4565b9250828210156176295761762861785e565b5b828203905092915050565b600061763f826176ee565b915061764a836176ee565b92508282101561765d5761765c61785e565b5b828203905092915050565b6000617673826176fe565b915061767e836176fe565b9250828210156176915761769061785e565b5b828203905092915050565b60006176a7826176c4565b9050919050565b60008115159050919050565b6000819050919050565b600073ffffffffffffffffffffffffffffffffffffffff82169050919050565b6000819050919050565b600063ffffffff82169050919050565b600067ffffffffffffffff82169050919050565b82818337600083830152505050565b60005b8381101561773f578082015181840152602081019050617724565b8381111561774e576000848401525b50505050565b6000600282049050600182168061776c57607f821691505b602082108114156177805761777f6178bc565b5b50919050565b61778f8261791a565b810181811067ffffffffffffffff821117156177ae576177ad6178eb565b5b80604052505050565b60006177c2826176e4565b91507fffffffffffffffffffffffffffffffffffffffffffffffffffffffffffffffff8214156177f5576177f461785e565b5b600182019050919050565b600061780b826176ee565b915063ffffffff8214156178225761782161785e565b5b600182019050919050565b6000617838826176fe565b915067ffffffffffffffff8214156178535761785261785e565b5b600182019050919050565b7f4e487b7100000000000000000000000000000000000000000000000000000000600052601160045260246000fd5b7f4e487b7100000000000000000000000000000000000000000000000000000000600052601260045260246000fd5b7f4e487b7100000000000000000000000000000000000000000000000000000000600052602260045260246000fd5b7f4e487b7100000000000000000000000000000000000000000000000000000000600052604160045260246000fd5b6000601f19601f8301169050919050565b7f6d73672e76616c75652073686f756c6420626520766f7465506f776572202a2060008201527f3130303020657468657200000000000000000000000000000000000000000000602082015250565b7f6d73672e76616c75652073686f756c6420626520313030302043465800000000600082015250565b7f4f6e6c7920706f6f6c2061646d696e2063616e20646f20746869730000000000600082015250565b7f4d61782073656374696f6e20636f756e74206973203130300000000000000000600082015250565b7f4e6f206e657720757365722073686f7400000000000000000000000000000000600082015250565b7f506f6f6c206973206e6f74207265676973746564000000000000000000000000600082015250565b7f4c6f636b6564206973206e6f7420656e6f756768000000000000000000000000600082015250565b7f726174696f2073686f756c6420626520312d3130303030000000000000000000600082015250565b7f4d696e696d616c20766f7465506f776572206973203100000000000000000000600082015250565b7f4e6f20636c61696d61626c6520696e7465726573740000000000000000000000600082015250565b7f4e6f2073656374696f6e73000000000000000000000000000000000000000000600082015250565b7f506f6f6c20697320616c72656164792072656769737465640000000000000000600082015250565b7f4e6f20766f746520706f7765722073656374696f6e0000000000000000000000600082015250565b7f766f7465506f7765722073686f756c6420626520310000000000000000000000600082015250565b7f496e746572657374206e6f7420656e6f75676800000000000000000000000000600082015250565b7f556e6c6f636b6564206973206e6f7420656e6f75676800000000000000000000600082015250565b617bea8161769c565b8114617bf557600080fd5b50565b617c01816176ae565b8114617c0c57600080fd5b50565b617c18816176ba565b8114617c2357600080fd5b50565b617c2f816176e4565b8114617c3a57600080fd5b50565b617c46816176ee565b8114617c5157600080fd5b50565b617c5d816176fe565b8114617c6857600080fd5b5056fea2646970667358221220989d0c5744b9a5ef74e276317d8c832f94cd1f13b815b8c2a8a5f8f83d304b7164736f6c63430008040033",
  "linkReferences": {},
  "deployedLinkReferences": {}
}